:100000000C94AF010C94D0010C94D0010C94D0014D
:100010000C94D0010C94D0010C94D0010C94D0011C
:100020000C94D0010C94D0010C94D0010C94D0010C
:100030000C94D0010C94D0010C94D0010C94D001FC
:100040000C94D0010C94D0010C94D0010C94D001EC
:100050000C94D0010C94D0010C94D0010C94D001DC
:100060000C94D0010C94D0010C94D0010C94D001CC
:100070000C94D0010C94D0010C94D0010C94D001BC
:100080000C94D0010C94D0010C94D0010C94D001AC
:100090000C94D0010C94D0010C94D0010C94D0019C
:1000A0000C94D0010C94D0010C94D0010C94D0018C
:1000B0000C94D0010C94D0010C94D0010C94D0017C
:1000C0000C94D0010C94D0010C94D0010C94D0016C
:1000D0000C94D0010C94D0010C94D0010C94D0015C
:1000E0000C94D0010C94D0010C94D0010C94D0014C
:1000F0000C94D0010C94D0010C94D0010C94D0013C
:100100000C94D0010C94D0010C94D0010C94D0012B
:100110000C94D0010C94D0010C94D0010C94E723E2
:100120000C94D0010C94D0010C94D0010C94D0010B
:100130000C94D0010C94D0010C94D0010C94D001FB
:100140000C94D0010C94D0010C94D0010C94D001EB
:100150000C94D0010C94D0010C94D0010C94D001DB
:100160000C94232D0C944B2D0C947D2D0C949A2DD6
:100170000C94C22D0C94D0010C94D0010C94D0019D
:100180000C94D0010C94D0010C94D0010C94D001AB
:100190000C94D0010C94D0010C94D0010C94D0019B
:1001A0000C94D0010C94D0010C94D0010C94D0018B
:1001B0000C94D0010C94D0010C94D0010C94D0017B
:1001C0000C94D0010C94D0010C94D0010C94D0016B
:1001D0000C94D0010C94D0010C94D0010C94F42D0B
:1001E0000C941C2E0C94D0010C94D0010C94D001D2
:1001F0000C94D0010C94D0010C94D0010C9486097D
:100200000C94380A0C94AE0A0C94952B0C94760B33
:100210000C94950E0C94BE090C94B40C0C94A60D81
:100220000C9445090C94D00B0C94000A0C94000E0D
:100230000C940E0D0C94FE080C948E2B0C94F92C3F
:100240000C94460C0C94680D0C941C0B0C94A32B72
:100250000C94380E0C9404090C949C2B6E616E0067
:10026000696E660000407A10F35A00A0724E1809B9
:100270000010A5D4E80000E87648170000E40B540D
:10028000020000CA9A3B000000E1F50500008096DC
:100290009800000040420F000000A086010000000E
:1002A000102700000000E8030000000064000000C8
:1002B00000000A00000000000100000000002C7691
:1002C000D888DC674F0823DFC1DFAE59E1B1B796AC
:1002D000E5E3E453C63AE651997696E8E6C2842609
:1002E000EB898C9B62ED407C6FFCEFBC9C9F40F2E5
:1002F000BAA56FA5F490055A2AF75C936B6CF96761
:100300006DC11BFCE0E40D47FEF520E6B500D0ED25
:10031000902E0300943577050080841E080000208D
:100320004E0A000000C80C333333330F986E12832B
:100330001141EF8D2114893BE65516CFFEE6DB18FF
:10034000D1844B381BF77C1D901DA4BBE4242032C4
:1003500084725E228100C9F124ECA1E53D271124BD
:100360001FBECFEFCDBFDFE5DEBF00E00CBF17E261
:10037000A0E0B0E2E8E1F9E700E00BBF02C00790BF
:100380000D92A03AB107D9F72EE2A0EAB7E201C078
:100390001D92A839B207E1F70E94C1050C948A3C6E
:1003A0000C9400000F93CF93DF931F92CDB7DEB76D
:1003B0002FB72983F8941BBEFC0108ED04BF6083AE
:1003C00089818FBF0F90DF91CF910F9108956111B7
:1003D00002C090E001C090E2842B982B90935200D1
:1003E00008956F71862B809355000895E0E5F0E045
:1003F0009081282F209592239083908189230895BE
:100400000F931F93CF93C82F00E410E0F801608191
:10041000687F682B80E490E00E94D201F80180811F
:100420008C23CF911F910F9108958093FE27909375
:10043000FF271092FC271092FD271092FA271092A6
:10044000FB271092F8271092F9271092F6271092A6
:10045000F72708956F927F928F929F92AF92BF92EB
:10046000CF92DF92EF92FF920F931F93CF93DF9380
:100470004C016B015A0179010091FC271091FD2775
:100480000F5F1F4F8BE0809F3001819F700C112404
:10049000B3018091F8279091F9270E9497378093B4
:1004A000F8279093F9270097D1F02BE0621A710892
:1004B000EC01C60DD71D44E050E0B401CE010E940E
:1004C000AE3A1C82A986BA86CF82D886ED82FE8299
:1004D0000093FC271093FD2780E090E002C081E0AC
:1004E00090E0DF91CF911F910F91FF90EF90DF90FF
:1004F000CF90BF90AF909F908F907F906F90089516
:10050000AF92BF92CF92DF92EF92FF920F931F9321
:10051000CF93DF935C016B01E090FA27F090FB270B
:100520008FEFE81AF80A87E08E9D80018F9D100DED
:100530001124B8018091F6279091F7270E949737F0
:100540008093F6279093F7270097A9F00750110999
:10055000EC01C00FD11F44E050E0B501CE010E9474
:10056000AE3A1C82CD82DE82E092FA27F092FB271F
:1005700080E090E002C081E090E0DF91CF911F9198
:100580000F91FF90EF90DF90CF90BF90AF900895C4
:100590000F931F93CF93DF9300E010E0C0E0D0E013
:1005A0008091FC279091FD27C817D90794F480917A
:1005B000F8279091F927800F911FDC011996ED9192
:1005C000FC911A97309709F019952196055F1F4FF6
:1005D000E7CFDF91CF911F910F9108958F929F9256
:1005E000AF92BF92DF92EF92FF920F931F93CF9340
:1005F000DF93CDB7DEB72597CDBFDEBF8C01BC0141
:10060000685F7F4F44E050E0CE0101960E94AE3A11
:100610001D8244E050E064EC70E2CE0101960E943D
:10062000A03A892B99F08090FA279090FB2740916F
:10063000F6275091F7277981FA80EB80DC80FA0168
:1006400033968FEF9FEF20E030E010C00E94C80289
:100650007DC05F0163E0A61AB108D5016C916A32D2
:1006600049F0671739F02F5F3F4F37962815390546
:1006700084F31BC05F01B2E0AB1AB108D5016C91E5
:100680006A3211F06F11EFCF5F01B1E0AB1AB10820
:10069000D5016C916A3211F06E11E5CF60816A323A
:1006A00011F06D11E0CFC901DECF8F3FBFEF9B0787
:1006B00089F167E0689F9001699F300D1124FA016C
:1006C000E20FF31FB801645F7F4F0580F681E02DD4
:1006D000CE01019619953091FF272091FE27892B95
:1006E00071F43F932F9389EC90E29F938F931F9225
:1006F0008DE48F9382EA97E29F938F9323C0E2EA7F
:10070000F7E2DF010D900020E9F73F932F9382ED90
:1007100090E20EC0E2EAF7E2DF010D900020E9F777
:100720008091FF278F938091FE278F9381EE90E237
:100730009F938F9381EF97E28A1B9B0B9F938F93DD
:10074000FF93EF930E943C3BCDBFDEBF2596CDBF0C
:10075000DEBFDF91CF911F910F91FF90EF90DF905F
:10076000BF90AF909F908F900895CF93DF93EC014F
:100770008991882319F00E94672CFACF8DE00E949E
:10078000672C8AE0DF91CF910C94672C1F93CF9355
:10079000DF93EC0110E00E943A2C882329F111111B
:1007A00022C00E94432C8093F5279DED980F923034
:1007B00018F488831982EFCF98819352923058F7BA
:1007C000FE0101900020E9F73197EC1BFD0BE235AB
:1007D00010F79E012E0F311DF9018083118211E067
:1007E0008A30C1F6D8CF11E0812FDF91CF911F91D0
:1007F00008954F925F926F927F928F929F92AF92E5
:10080000BF92CF92DF92EF92FF920F931F93CF93FD
:10081000DF93CDB7DEB72597CDBFDEBF8C014AE0B1
:1008200050E060E070E001960E948038562E472E1E
:10083000F80184819081933209F08EC1252D342DE9
:100840004091FE275091FF272417350719F0232BDD
:1008500019F082C1232B39F4833509F079C1C8011D
:100860000E94EE0275C18934B9F1F8F4813421F1A6
:10087000873409F042C144E050E0B8016B5F7F4F1C
:10088000FE0131967F01CF010E94AE3A1D82609039
:10089000FC277090FD278090F8279090F927AA24D4
:1008A000AA94BA2CC12CD12CC8C0833509F422C11A
:1008B000873509F461C021C14F925F928DEF90E2BC
:1008C0009F938F931F928DE48F9382EA97E29F9379
:1008D0008F930E943C3B87C04AE050E060E070E0AC
:1008E000C80105960E9480386093A0277093A127C5
:1008F0003091FF272091FE271616170674F5E09118
:10090000FC27F091FD27E617F7073CF14BE0469FE7
:10091000F001479FF00D11243B974091F82750912B
:10092000F927E40FF51F7F936F9346814F9345811D
:100930004F93FF93EF937F936F933F932F9385E1B3
:1009400091E29F938F931F928DE48F9382EA97E2B7
:100950009F938F930E943C3B46C07F936F933F933E
:100960002F9382E391E29F938F9382EA97E29F9382
:100970008F930E94733B37C04AE050E060E070E024
:10098000C80105960E9480385091FF274091FE27AC
:10099000161617065CF5E091FA27F091FB27E6178B
:1009A000F70724F1E7E0E69F9001E79F300D11245F
:1009B00027503109E091F627F091F7272E0F3F1FBE
:1009C0003F932F937F936F935F934F9381E591E2D2
:1009D0009F938F931F928DE48F9382EA97E29F9368
:1009E0008F930E943C3BCDBFDEBF87C07F936F9348
:1009F0005F934F938BE691E29F938F931F928DE4C9
:100A00008F9382EA97E29F938F930E943C3BEBCFB8
:100A1000F70101900020E9F73197AF014E195F0906
:100A2000B401C7010E94A03A892B09F45601FFEFD7
:100A3000CF1ADF0A8BE0880E911CC614D70444F34A
:100A40009FEFA916B90609F442C04F925F9284E85D
:100A500091E29F938F9382EAC82E87E2D82EDF928D
:100A6000CF920E94733BF60101900020E9F7319785
:100A7000BF01625A77422BE02A9DC0012B9D900D49
:100A80001124E091F827F091F927E80FF91F4DE4C0
:100A900050E0461B570B6E55784D0780F085E02DD2
:100AA000C70119950F900F900F900F900F900F9016
:100AB000892B19F18091FF278F938091FE278F93C7
:100AC0008BE891E29F938F93DF92CF920AC04F926F
:100AD0005F9281EA91E29F938F9382EA97E29F93DC
:100AE0008F930E94733B0F900F900F900F900F9079
:100AF0000F9003C0C8010E94EE02E3EAF7E280E033
:100B00009191953209F5E2EAF7E201900020E9F7C8
:100B10003197E25AF7421F928F938BEB91E29F93AA
:100B20008F9383E590E08E1B9F0B9F938F93EE55E1
:100B3000F84DFF93EF930E943C3B82EA97E20E94BC
:100B4000B503CDBFDEBF04C09923E9F28927D8CF12
:100B5000F801108281E001C080E02596CDBFDEBFA4
:100B6000DF91CF911F910F91FF90EF90DF90CF9089
:100B7000BF90AF909F908F907F906F905F904F90BD
:100B800008954BE060E080EC0E94E7018091500006
:100B90008860809350008091510083FFFCCF62E019
:100BA00080EC0E94F10180915000806180935000A0
:100BB0008091510084FFFCCF84E00E94000281E01C
:100BC0000E94F60182E00E94F6018FE780934206C0
:100BD00080E18093500691E09093620680937006C6
:100BE0008FEC809380068FE08093860689EF809358
:100BF000A00688E38093A6060E94822F0E944E2EB4
:100C00000E94E02B0E94772E90E00E9415020E9425
:100C1000F20E0E9480070E94AA2B789486E590E24B
:100C20000E94BB23C0E0D0E0812C912C5401412CC8
:100C3000512C320110E30E94C0070E94A52C88238A
:100C4000B9F00E94AE2C833451F0833641F08B31E1
:100C500051F461E089E790E00E94D20104C086E58A
:100C600090E20E94B1110E947D162B013C01C1E06F
:100C70000E947D166B017C01CC2331F1DC01CB019C
:100C800084199509A609B70988389341A105B105CA
:100C9000D8F4C1E004C00E947916C0E0D1E00E94FF
:100CA0003A2C882319F01093A60602C01093A506CB
:100CB00080E098E20E94C603813009F0BCCF80E05A
:100CC00098E20E94F903B7CF0E94C32C863908F43A
:100CD00047C0D230D9F128F4DD2381F0D13031F191
:100CE0003CC0D330D1F586E590E20E94C22B66E588
:100CF00070E282EC91E20E94103B2FC0C818D90824
:100D0000EA08FB0880ECC81686ECD8068DE2E806F7
:100D1000F10408F220EC820E26EC921E2DE2A21EB7
:100D2000B11C86E590E20E94BB231AC08091680640
:100D3000807329F486E590E20E949A1604C086E545
:100D400090E20E94D31EC0E0D2E0A9CF86E590E2F7
:100D50000E944408C0E0D3E0A2CFC0E0D0E09FCF23
:100D6000C0E09DCF413019F44093460603C090E89F
:100D70009093460620E030E090E070E451E0FC0102
:100D8000022E01C0EE0F0A94EAF7E7FF03C070934A
:100D9000850602C0709386065093660650936506DA
:100DA0002F5F3F4F2830310551F780E090E070E031
:100DB00030E421E0FB01082E01C0EE0F0A94EAF7AF
:100DC000E7FF03C03093850602C030938606209368
:100DD00066062093650601968830910559F74130E3
:100DE00019F440934506089580E8809345060895D8
:100DF0000F931F93CF93DF93613019F460934606EE
:100E000003C090E8909346068068A0E0B0E090E0D0
:100E100030E421E0AC010A2E01C0440F0A94EAF745
:100E200047FF03C03093850602C0309386062093A7
:100E30006606209365061196A830B10559F780E43F
:100E40008093850698E020E030E0E0E0F0E081E08B
:100E5000809366064091A806EE0FFF1FFF274170A2
:100E6000C42F40E0D42FEC2BFD2B40918806220F9D
:100E7000331F3327042E000C550B4427550F441FF6
:100E80005527242B352B80936506915009F740E0B8
:100E900050E080E090E071E070936606C091A80693
:100EA000880F991F99270C2F017010E0802B912B30
:100EB000C0918806440F551F55270C2E000CDD0BE2
:100EC000CC27DD0FCC1FDD274C2B5D2B70936506E7
:100ED000119711F7613041F460934506782F66272A
:100EE000CB018E2B9F2B07C080E880934506942F63
:100EF0008827822B932BDF91CF911F910F9108951B
:100F0000CF93DF93A0E8B6E020E411962C931197DD
:100F1000E0E4F6E081E0818390E89183C0E6D6E0EA
:100F200089838D8316962C9316978583958380935A
:100F3000A20612969C9340E067E480E20E94B2060B
:100F400040E068E081E20E94B20640E064E984E2A9
:100F50000E94B20640E060E285E20E94B20640E0F4
:100F600060E086E20E94B20641E06FE880E20E9403
:100F7000B20641E060E081E2DF91CF910C94B206CD
:100F8000089560E085EC0E94F806BC01990F880B7B
:100F9000990B0E94E13020E030E040E05EE30E94E7
:100FA000DF310895811103C060E088EC09C0813011
:100FB00019F460E08AEC04C0823029F460E08CEC23
:100FC0000E94F80602C080E090E0BC01990F880BF7
:100FD000990B0E94E13020E030E04AE754E40E949F
:100FE00031302AE037ED43E25EE30E94DF310895BD
:100FF000811103C060E088EE09C0813019F460E01F
:101000008AEE04C0823029F460E08CEE0E94F8067B
:1010100002C080E090E0BC01990F880B990B0E9400
:10102000E13020E030E04AE754E40E94313023EC24
:1010300035EF4CE151E40E94DF3123E23BED49EF13
:101040005DE30E94DF310895811103C061E088E60D
:1010500009C0813019F461E08AE604C0823029F4C5
:1010600061E08CE60E94F80602C080E090E0BC01DE
:10107000990F880B990B0E94E13029E23CE54FE083
:101080005CE30E94DF3108952F923F924F925F926E
:101090006F927F928F929F92AF92BF92CF92DF9288
:1010A000EF92FF920F931F93CF93DF93CDB7DEB7ED
:1010B0006697CDBFDEBF8F87988B0E94C1079B01CB
:1010C000AC0182E0298B3A8B4B8B5C8B0E9424080D
:1010D000562E472E382E292E81E00E942408962E67
:1010E000872E782E692E80E00E94240869837A83F7
:1010F000B82EA92E82E00E94D2076B837C838D8359
:101100009E8381E00E94D2076F83788789879A87C0
:1011100080E00E94D2076B877C878D879E8782E064
:101120000E94F807F62EE72ED82EC92E81E00E94E5
:10113000F8076D8B7E8B182F092F80E00E94F8072F
:101140005C895F934B894F933A893F9329892F9309
:101150002F923F924F925F926F927F928F929F92C7
:10116000AF92BF922A812F9329812F932E812F93A3
:101170002D812F932C812F932B812F932A852F93B1
:1011800029852F9328852F932F812F932E852F9399
:101190002D852F932C852F932B852F93CF92DF9224
:1011A000EF92FF920F931F932E892F932D892F93E8
:1011B0009F938F937F936F9386EC91E29F938F938E
:1011C00028892F932F852F930E94C83ACDBFDEBF69
:1011D0006696CDBFDEBFDF91CF911F910F91FF903B
:1011E000EF90DF90CF90BF90AF909F908F907F90C7
:1011F0006F905F904F903F902F90089581E0809383
:10120000E92880E090E00895FF920F931F93CF9319
:10121000DF93EB018A0160915629709157298091E3
:10122000582990915929F09050290E94DF3020E0F0
:1012300030E44CE955E40E9431309F938F937F93C3
:101240006F9381E0F11080E01F928F9389EF91E21C
:101250009F938F931F930F93DF93CF930E943C3BF9
:101260002DB73EB7245F3F4F2DBF3EBF801791077C
:1012700024F0188281E090E002C080E090E0DF91ED
:10128000CF911F910F91FF900895FF920F931F939D
:10129000CF93DF93EB018A0160915229709153291A
:1012A0008091542990915529F0904F290E94DF3068
:1012B00020E030E44CE955E40E9431309F938F9355
:1012C0007F936F9381E0F11080E01F928F9389EFFD
:1012D00091E29F938F931F930F93DF93CF930E947D
:1012E0003C3B2DB73EB7245F3F4F2DBF3EBF80171D
:1012F000910724F0188281E090E002C080E090E045
:10130000DF91CF911F910F91FF9008950F931F933D
:10131000CF93DF93EB018A0160911B2970911C2907
:1013200080911D2990911E290E94E13020E030E03B
:1013300040E259E40E9431309F938F937F936F93E3
:1013400081E092E29F938F931F930F93DF93CF934C
:101350000E943C3B2DB73EB7265F3F4F2DBF3EBF9F
:101360008017910724F0188281E090E002C080E0AD
:1013700090E0DF91CF911F910F910895FF920F930D
:101380001F93CF93DF93EB018A016091172970912E
:1013900018298091192990911A29F09016290E94F4
:1013A000DF3020E030E44CE955E40E9431309F9377
:1013B0008F937F936F9381E0F11001C080E01F92C3
:1013C0008F9389EF91E29F938F931F930F93DF93F6
:1013D000CF930E943C3B2DB73EB7245F3F4F2DBFBC
:1013E0003EBF8017910724F0188281E090E002C090
:1013F00080E090E0DF91CF911F910F91FF900895D1
:101400000F931F93CF93DF93EB018A016091EA283A
:101410007091EB288091EC289091ED280E94DF30AC
:1014200020E030E44CE955E40E9431309F938F93E3
:101430007F936F938CEF91E29F938F931F930F9302
:10144000DF93CF930E943C3B2DB73EB7265F3F4FC3
:101450002DBF3EBF8017910724F0188281E090E0F5
:1014600002C080E090E0DF91CF911F910F9108952D
:101470004F925F926F927F928F929F92AF92BF92A4
:10148000CF92DF92EF92FF920F931F93CF93DF9350
:101490008B01EA0120910E2930910F2940911029EA
:1014A000509111296091122970911329809114296A
:1014B000909115294090F5295090F6296090F729D0
:1014C0007090F8298090F9299090FA29A090FB2932
:1014D000B090FC290E94D9306B017C0120E030E4FF
:1014E0004CE955E4C301B2010E94DF31A50194012A
:1014F0000E94DF319B01AC01C701B6010E9431306F
:101500009F938F937F936F9381E092E29F938F934A
:10151000DF93CF931F930F930E943C3BEDB7FEB731
:101520003A96EDBFFEBF8C179D072CF0F801108294
:1015300081E090E002C080E090E0DF91CF911F91C8
:101540000F91FF90EF90DF90CF90BF90AF909F9062
:101550008F907F906F905F904F9008954F925F9221
:101560006F927F928F929F92AF92BF92CF92DF92B3
:10157000EF92FF920F931F93CF93DF938B01EA01BA
:101580006091022970910329809104299091052985
:101590004090F5295090F6296090F7297090F8292D
:1015A0008090F9299090FA29A090FB29B090FC290D
:1015B0000E94E1306B017C0120E030E040E853E420
:1015C000C301B2010E94DF31A50194010E94DF3105
:1015D0009B01AC01C701B6010E9431309F938F93EC
:1015E0007F936F9381E092E29F938F93DF93CF93EA
:1015F0001F930F930E943C3BEDB7FEB73A96EDBFA9
:10160000FEBF8C179D072CF0F801108281E090E05E
:1016100002C080E090E0DF91CF911F910F91FF9089
:10162000EF90DF90CF90BF90AF909F908F907F9082
:101630006F905F904F9008958F929F92AF92BF925C
:10164000CF92DF92EF92FF920F931F93CF93DF938E
:10165000EB018A016091FA287091FB288091FC28A7
:101660009091FD288090F9299090FA29A090FB296B
:10167000B090FC290E94E1306B017C0120E030E059
:1016800040E857E4C501B4010E94DF319B01AC0181
:10169000C701B6010E9431309F938F937F936F9360
:1016A00081E092E29F938F931F930F93DF93CF93E9
:1016B0000E943C3B2DB73EB7265F3F4F2DBF3EBF3C
:1016C0008017910724F0188281E090E002C080E04A
:1016D00090E0DF91CF911F910F91FF90EF90DF90FD
:1016E000CF90BF90AF909F908F9008958F929F92D0
:1016F000AF92BF92CF92DF92EF92FF920F931F9320
:10170000CF93DF93EB018A016091F6287091F7285F
:101710008091F8289091F9288090F5299090F629E9
:10172000A090F729B090F8290E94E1306B017C016C
:1017300020E030E040E857E4C501B4010E94DF3109
:101740009B01AC01C701B6010E9431309F938F937A
:101750007F936F9381E092E29F938F931F930F93F8
:10176000DF93CF930E943C3B2DB73EB7265F3F4FA0
:101770002DBF3EBF8017910724F0188281E090E0D2
:1017800002C080E090E0DF91CF911F910F91FF9018
:10179000EF90DF90CF90BF90AF909F908F90089583
:1017A0004F925F926F927F928F929F92AF92BF9271
:1017B000CF92DF92EF92FF920F931F93CF93DF931D
:1017C0008B01EA01209106293091072940910829CF
:1017D0005091092960910A2970910B2980910C2957
:1017E00090910D294090ED295090EE296090EF29BD
:1017F0007090F0298090F1299090F229A090F3291F
:10180000B090F4290E94D9306B017C0120E030E4D3
:101810004CE955E4C301B2010E94DF31A5019401F6
:101820000E94DF319B01AC01C701B6010E9431303B
:101830009F938F937F936F9381E092E29F938F9317
:10184000DF93CF931F930F930E943C3BEDB7FEB7FE
:101850003A96EDBFFEBF8C179D072CF0F801108261
:1018600081E090E002C080E090E0DF91CF911F9195
:101870000F91FF90EF90DF90CF90BF90AF909F902F
:101880008F907F906F905F904F9008954F925F92EE
:101890006F927F928F929F92AF92BF92CF92DF9280
:1018A000EF92FF920F931F93CF93DF938B01EA0187
:1018B0006091FE287091FF28809100299091012964
:1018C0004090ED295090EE296090EF297090F0291A
:1018D0008090F1299090F229A090F329B090F429FA
:1018E0000E94E1306B017C0120E030E040E853E4ED
:1018F000C301B2010E94DF31A50194010E94DF31D2
:101900009B01AC01C701B6010E9431309F938F93B8
:101910007F936F9381E092E29F938F93DF93CF93B6
:101920001F930F930E943C3BEDB7FEB73A96EDBF75
:10193000FEBF8C179D072CF0F801108281E090E02B
:1019400002C080E090E0DF91CF911F910F91FF9056
:10195000EF90DF90CF90BF90AF909F908F907F904F
:101960006F905F904F9008958F929F92AF92BF9229
:10197000CF92DF92EF92FF920F931F93CF93DF935B
:10198000EB018A016091F2287091F3288091F4288C
:101990009091F5288090F1299090F229A090F32958
:1019A000B090F4290E94E1306B017C0120E030E02E
:1019B00040E857E4C501B4010E94DF319B01AC014E
:1019C000C701B6010E9431309F938F937F936F932D
:1019D00081E092E29F938F931F930F93DF93CF93B6
:1019E0000E943C3B2DB73EB7265F3F4F2DBF3EBF09
:1019F0008017910724F0188281E090E002C080E017
:101A000090E0DF91CF911F910F91FF90EF90DF90C9
:101A1000CF90BF90AF909F908F9008958F929F929C
:101A2000AF92BF92CF92DF92EF92FF920F931F93EC
:101A3000CF93DF93EB018A016091EE287091EF283C
:101A40008091F0289091F1288090ED299090EE29D6
:101A5000A090EF29B090F0290E94E1306B017C0149
:101A600020E030E040E857E4C501B4010E94DF31D6
:101A70009B01AC01C701B6010E9431309F938F9347
:101A80007F936F9381E092E29F938F931F930F93C5
:101A9000DF93CF930E943C3B2DB73EB7265F3F4F6D
:101AA0002DBF3EBF8017910724F0188281E090E09F
:101AB00002C080E090E0DF91CF911F910F91FF90E5
:101AC000EF90DF90CF90BF90AF909F908F90089550
:101AD0000F931F93CF93DF93EB018A01609123292A
:101AE0007091242980912529909126290E94E13026
:101AF00020E030E048E45BE40E94313020E030E058
:101B00004AE75CE40E9431309F938F937F936F93F9
:101B100081E092E29F938F931F930F93DF93CF9374
:101B20000E943C3B2DB73EB7265F3F4F2DBF3EBFC7
:101B30008017910724F0188281E090E002C080E0D5
:101B400090E0DF91CF911F910F9108958F929F9216
:101B5000AF92BF92CF92DF92EF92FF920F931F93BB
:101B6000CF93DF93EB018A0160911F2970912029A7
:101B700080912129909122298090052A9090062A0F
:101B8000A090072AB090082A0E94E1306B017C01E6
:101B900020E030E040E857E4C501B4010E94DF31A5
:101BA0009B01AC01C701B6010E9431309F938F9316
:101BB0007F936F9381E092E29F938F931F930F9394
:101BC000DF93CF930E943C3B2DB73EB7265F3F4F3C
:101BD0002DBF3EBF8017910724F0188281E090E06E
:101BE00002C080E090E0DF91CF911F910F91FF90B4
:101BF000EF90DF90CF90BF90AF909F908F9008951F
:101C00000F931F93CF93DF93EB018A0160914B29D0
:101C100070914C2980914D2990914E290E94DF307E
:101C20002FED36E945E95DE30E94DF319F938F9305
:101C30007F936F9381E092E29F938F931F930F9313
:101C4000DF93CF930E943C3B2DB73EB7265F3F4FBB
:101C50002DBF3EBF8017910724F0188281E090E0ED
:101C600002C080E090E0DF91CF911F910F91089525
:101C7000CF92DF92EF92FF920F931F93CF93DF9358
:101C8000EB018A0160914729709148298091492987
:101C900090914A296115710581059105E1F00E9435
:101CA000E13020E030E040E857E30E94DF319B0163
:101CB000AC0160E078E584EA94E40E943130F62ECD
:101CC000E72ED82EC92E20E030E040E85FE30E94E6
:101CD0002C3087FF04C0F12CE12CD12CC12CCF92E9
:101CE000DF92EF92FF9281E092E29F938F931F9396
:101CF0000F93DF93CF930E943C3B2DB73EB7265FF7
:101D00003F4F2DBF3EBF8017910724F0188281E01E
:101D100090E002C080E090E0DF91CF911F910F91A1
:101D2000FF90EF90DF90CF900895CF92DF92EF92E7
:101D3000FF920F931F93CF93DF93EB018A01609182
:101D40004729709148298091492990914A29611524
:101D5000710581059105E1F00E94E13020E030E05D
:101D600040E857E30E94DF319B01AC0160E070E87E
:101D70008BE894E40E943130F62EE72ED82EC92E3F
:101D800020E030E040E85FE30E942C3087FF04C091
:101D9000F12CE12CD12CC12CCF92DF92EF92FF924B
:101DA00081E092E29F938F931F930F93DF93CF93E2
:101DB0000E943C3B2DB73EB7265F3F4F2DBF3EBF35
:101DC0008017910724F0188281E090E002C080E043
:101DD00090E0DF91CF911F910F91FF90EF90DF90F6
:101DE000CF9008951F93CF93DF9380E20E94762FC8
:101DF00080930C0281E20E94762F80930D0284E290
:101E00000E94762F80934C0285E20E94762F809369
:101E10004D021092040610920006109224061092B1
:101E2000200687E0809310068093110680931206A7
:101E300080931306809314068093150680931606EC
:101E40008093300680933106809332068093330668
:101E50008093340680933506809336068093370648
:101E600010E1109317061093010250E25093020202
:101E700046EC4093030233E030930402C2E0C09387
:101E80002002C0932802C0933002C093380289E236
:101E90008093210299E19093290291E3909331027A
:101EA00021E620933902D1E0D0932202D0930002A0
:101EB00010934102509342024093430230934402F4
:101EC000C0936002C0936802C0937002C09378020E
:101ED0002093610221E5209369029093710280931F
:101EE0007902D09340028091A20081608093A20089
:101EF0008BEA9AEAA6E2B2E48093ED299093EE2968
:101F0000A093EF29B093F02947E251E164EB72E42A
:101F10004093F1295093F2296093F3297093F429A7
:101F20008093F5299093F629A093F729B093F82987
:101F30004FE15EE860EB72E44093F9295093FA298F
:101F40006093FB297093FC298093052A9093062ABD
:101F5000A093072AB093082A4DE555E86FE672E48E
:101F60004093092A50930A2A60930B2A70930C2AF3
:101F700080930D2A90930E2AA0930F2AB093102AD3
:101F800080E090E0A8E4B2E48093112A9093122AB2
:101F9000A093132AB093142A44E050E060E070E06C
:101FA0008DEE99E20E94ED2E44E050E060E170E099
:101FB00081EF99E20E94ED2E44E050E060E270E093
:101FC0008DEE99E20E94ED2E44E050E060E370E077
:101FD00081EF99E20E94ED2E42E050E060E470E073
:101FE00085EE99E20E94ED2E42E050E064E470E05C
:101FF00087EE99E20E94ED2E42E050E068E470E046
:1020000089EE99E20E94ED2E42E050E06CE470E02F
:102010008BEE99E20E94ED2E44E050E060E570E026
:1020200085E09AE20E94ED2E44E050E060E670E028
:1020300089E09AE20E94ED2E44E050E060E770E013
:102040008DE09AE20E94ED2E44E050E060E870E0FE
:1020500081E19AE20E94ED2E42E050E060E970E0FA
:102060008DEF99E20E94ED2E42E050E064E970E0CD
:102070008FEF99E20E94ED2E42E050E068E970E0B7
:1020800081E09AE20E94ED2E42E050E06CE970E0BF
:1020900083E09AE20E94ED2E85E080932003109267
:1020A0002103109322038EEA95E0809338039093E6
:1020B000390310920108109203081092040880E07E
:1020C00099E18093260890932708109206081092B1
:1020D00007081092200810922108D093000880EC85
:1020E000809380018CE08093400810924108109208
:1020F0004308109244081092460810924708D09363
:1021000048088FEF9FEF809366089093670880E4FC
:1021100080934206D093560686E680938401C0934E
:102120008C0180916806909168069073903221F03E
:102130008073803109F047C08091680680738031D8
:1021400019F08BE092E202C086E092E221E030E0FA
:102150004EEF58E068E37EE00E942A028091680614
:102160008073803119F085E192E202C080E192E251
:1021700021E030E040E050E060E07EE00E942A0292
:10218000809168068073803119F08FE192E202C07D
:102190008AE192E221E030E040E050E066EA7DE052
:1021A0000E942A02809168068073803119F089E2CA
:1021B00092E202C084E292E221E030E040E050E0AE
:1021C00068E67DE0ADC021E030E040E050E06EE048
:1021D0007DE08EE292E20E942A0221E030E040E0BF
:1021E00050E064EB7CE083E392E20E942A0221E06B
:1021F00030E040E050E066E47CE088E392E20E9458
:102200002A0225E030E040E050E060ED7BE08DE325
:1022100092E20E942A0221E030E040E050E066E7CE
:102220007BE082E492E20E942A0221E030E040E07A
:1022300050E06CE17BE087E492E20E942A0221E018
:1022400030E040E050E06EEA7AE08CE492E20E94F6
:102250002A0225E030E040E050E068E37AE081E5E2
:1022600092E20E942A0221E030E040E050E060E08B
:102270007AE086E592E20E942A022AE030E040E01D
:1022800050E06EEB79E08BE592E20E942A028091A9
:102290006806807309F046C021E030E04EEF58E058
:1022A00065E97EE086E092E20E942A0221E030E0C9
:1022B00040E050E060E07EE080E192E20E942A028D
:1022C00021E030E040E050E066EA7DE08AE192E221
:1022D0000E942A0221E030E040E050E068E67DE024
:1022E00084E292E20E942A022AE030E040E050E0DC
:1022F00066E879E080E692E20E942A0225E030E07A
:1023000040E050E065E479E085E692E20E942A022E
:1023100025E030E040E050E064E079E08AE692E2D7
:102320000E942A02809168068073803129F0809192
:1023300068068073803229F486E696EAA7E5B0E065
:1023400004C086E696E6AAE4B0E08093E028909385
:10235000E128A093E228B093E328DF91CF911F9169
:1023600008952F923F924F925F926F927F928F9239
:102370009F92AF92BF92CF92DF92EF92FF920F9314
:102380001F93CF93DF93CDB7DEB7C85AD109CDBF26
:10239000DEBF1C0180E6E4E6F0E2DE01119601906A
:1023A0000D928A95E1F781E08093672980916729F2
:1023B0008111FCCF8091C9299091CA29A091CB2984
:1023C000B091CC29B10185369105A105B10518F070
:1023D00085E792E220C288EB92E20E94103B0CE07B
:1023E00029EFE22E22E2F22EB10181ED92E20E946B
:1023F000103B10E0812F012E000C990B20916806F4
:10240000309168063073303231F02073203119F08A
:1024100028E030E002C024E030E082179307E4F4C3
:10242000089FF001099FF00D112421E030E02C0FEE
:102430003D1FE20FF31F21812F9320812F930196DF
:102440009F938F93FF92EF923F922F920E94C83AF0
:102450001F5FCDBFDEBFCECFB10185E093E20E940A
:10246000103B0E94A52C882319F00E94AE2CF9CFB6
:102470000E94AE2C9FECD92ED80EB10187E794E2D2
:102480000E94103BD11614F4D7FE06C0B10189E0BA
:1024900093E20E94103BA8CFAD2D0D2C000CBB0B7E
:1024A000C356DF4FA883B983CD59D040BD2DECE092
:1024B000BE0280011124E1E0F0E0EC0FFD1FE00F0F
:1024C000F11F2081CD55DF4F2883C35AD040318181
:1024D000CC55DF4F3883C45AD0403F932F938AE2C4
:1024E00093E29F938F933F922F920E94C83A1F923C
:1024F00085E08F9383E493E29F938F933F922F9293
:102500000E94C83ACDBFDEBFC157DF4F1882CF58F7
:10251000D0409D2D9170CB56DF4F9883C559D04048
:10252000A1E0B0E0AC0FBD1F0A0F1B1FF8013296EF
:10253000C956DF4FE883F983C759D04098012C5F13
:102540003F4FC756DF4F28833983C959D0400E9477
:10255000A52C882319F00E94AE2CF9CFCB56DF4F63
:102560003881C559D040311103C082E792E202C0E0
:102570008FE692E2C157DF4FA881CF58D0400A2F93
:10258000AA0F110B9F938F93C80101969F938F936E
:10259000A1E7B3E2BF93AF933F922F920E94C83A54
:1025A000CDBFDEBF20E030E0A901C855DF4F288352
:1025B000C85AD040CB55DF4F3883C55AD040CA5592
:1025C000DF4F4883C65AD040C955DF4F5883C75A9A
:1025D000D0400E94AE2CF82E082E000C990BBC01A6
:1025E00060537109C855DF4F2881C85AD040CB5578
:1025F000DF4F3881C55AD040CA55DF4F4881C65A8F
:10260000D040C955DF4F5881C75AD0406A30710554
:1026100068F5B1010E94D83AAAE0B0E0C855DF4F92
:102620002881C85AD040CB55DF4F3881C55AD04099
:10263000CA55DF4F4881C65AD040C955DF4F58812F
:10264000C75AD0400E945636CF2CFF0CDD08EE084A
:10265000FF084B015C018C0C9D1CAE1CBF1CA5012E
:10266000940120533109410951099FCFCA01B90191
:102670000E94E13020E030E04AE754E40E9431302B
:102680004B015C01000F111F000F111FE1E6F0E08C
:10269000EC0FFD1FE00FF11F882D992DAA2DBB2DEA
:1026A00080839183A283B38381E0809367298091A3
:1026B00067298111FCCFC956DF4FA881B981C7595D
:1026C000D040ED91FC9160817181828193810E9463
:1026D000E13020E030E040E857E30E94DF316B0159
:1026E0007C01E5E7F0E0EC0FFD1FE00FF11F6083D8
:1026F000718382839383C756DF4FE881F981C9597B
:10270000D0400190F081E02DCD56DF4FE883F98372
:10271000C359D040408051806280738020E030E017
:102720004AE754E40E9431309F938F937F936F93D5
:10273000A3019201C701B6010E9431309F938F938C
:102740007F936F93BF92AF929F928F92A6EAB3E26C
:10275000BF93AF933F922F920E94C83ACDBFDEBF86
:102760000E94AE2C182F893709F058C0812F012EF6
:10277000000C990B9F931F938AEF93E29F938F9383
:102780003F922F920E94C83A0F900F900F900F9097
:102790000F900F901B3109F48CC21F7DC157DF4F82
:1027A0003881CF58D040193509F04EC03F5FC1572E
:1027B000DF4F3883CF58D04035300CF048C0B101DE
:1027C0008FEF93E20E94103B0E94AE2C182F8937A6
:1027D00091F5812F012E000C990B9F931F938AEF87
:1027E00093E29F938F933F922F920E94C83A1F7D4E
:1027F0000F900F900F900F900F900F90193509F4D4
:10280000A6CEC157DF4F8881CF58D0408230FCF42C
:10281000B10187E294E20E94103B54C2893509F469
:10282000A5CF8E3609F4A2CF8E3409F49FCF8B3119
:1028300009F096CF9BCF893561F28E3651F28E34F6
:1028400041F28B3109F6C5CF35300CF480CEDE0174
:10285000AF59BF4FCB56DF4FA883B983C559D0407E
:10286000FE01EB58FF4FC956DF4FE883F983C75984
:10287000D0408F017D01812C912C54012401350120
:10288000D12CD7012D913D914D915D917D01C301D9
:10289000B2010E94C02F2B013C01F801219131911E
:1028A000419151918F01C501B4010E94C02F4B018C
:1028B0005C01D394C157DF4FF881CF58D040DF1669
:1028C00004F36F2FFF0F770B880B990B0E94E130F9
:1028D0006B017C019B01AC01C301B2010E9431304C
:1028E000C756DF4F688379838A839B83C959D04059
:1028F000A7019601C501B4010E943130C156DF4FD6
:10290000688379838A839B83CF59D040C12CD12C93
:1029100076014601570110E0CB56DF4FA881B981FF
:10292000C559D0406D917D918D919D91CB56DF4FD2
:10293000A883B983C559D040C756DF4F2881398154
:102940004A815B81C959D0400E94BF2F2B013C01B5
:102950009B01AC010E94DF319B01AC01C501B401B8
:102960000E94C02F4B015C01C956DF4FE881F981FD
:10297000C759D0406191719181919191C956DF4FB2
:10298000E883F983C759D040C156DF4F2881398188
:102990004A815B81CF59D0400E94BF2F9B01AC017F
:1029A000C301B2010E94DF319B01AC01C701B60136
:1029B0000E94C02F6B017C011F5FC157DF4FF88160
:1029C000CF58D0401F170CF4A7CFA50194010E9447
:1029D00031306B017C01C756DF4F288139814A8134
:1029E0005B81C959D0400E94DF319B01AC01C156C7
:1029F000DF4F688179818A819B81CF59D0400E94C5
:102A0000BF2F4B015C010E94A52C882319F00E9466
:102A1000AE2CF9CFCC55DF4F2881C45AD0402F932C
:102A2000CD55DF4F3881C35AD0403F938AE794E2B7
:102A30009F938F933F922F920E94C83ACD56DF4FBB
:102A4000A881B981C359D0408D919D910D90BC91C1
:102A5000A02DC157DF4F88839983AA83BB83CF58AA
:102A6000D0408CE0C356DF4F28813981CD59D0400A
:102A7000829FF001839FF00D1124EC0FFD1F078151
:102A80001085D8016D907C9011974D905C90C50198
:102A9000B4010E944C324B015C01CE56DF4FB8812D
:102AA000C259D040BF93CF56DF4FE881C159D040C3
:102AB000EF93C057DF4FF881C059D040FF93C15703
:102AC000DF4F2881CF58D0402F93FF92EF92DF92B3
:102AD000CF927F926F92B201550C880B990B0E9496
:102AE000E130A50194010E94C02F9F938F937F93A3
:102AF0006F938EE994E29F938F933F922F920E945F
:102B0000C83ACDBFDEBF0E94AE2C282F893741F0D6
:102B1000893531F08E3621F08E3411F08B3199F7F2
:102B2000822F022E000C990B9F932F938AEF93E232
:102B30009F938F933F922F92C855DF4F2883C85A97
:102B4000D0400E94C83AC855DF4F2881C85AD040AB
:102B50002F7D0F900F900F900F900F900F902935B1
:102B600009F0B0C0D8016D917C91072E000C880B44
:102B7000990B0E94E130A50194010E94C02F0E9490
:102B8000A330F80160837183CD56DF4FA881B981EE
:102B9000C359D040CD92DD92ED92FC9213978CE018
:102BA000C356DF4FE881F981CD59D0408E9F700127
:102BB0008F9FF00C112421E030E02C0F3D1FE20E1E
:102BC000F31ED7011A96CD90DC901B9742E050E09F
:102BD000B601C8010E94402FF701E084F18444E06F
:102BE00050E0B701CD56DF4F88819981C359D0405D
:102BF0000E94402FCD56DF4FE881F981C359D04064
:102C000080819181A281B381F80120813181BF93BC
:102C1000AF939F938F933F932F9385EE94E29F936F
:102C20008F933F922F920E94C83A42E050E0B60143
:102C3000CE0183579F4F0E94ED2E44E050E0B70134
:102C4000CE0187579F4F0E94ED2EC457DF4F8881DA
:102C5000CC58D0408F93C557DF4F8881CB58D04098
:102C60008F93C657DF4F8881CA58D0408F93C7577C
:102C7000DF4F8881C958D0408F93C257DF4F88817A
:102C8000CE58D0408F93C357DF4F8881CD58D04066
:102C90008F938BE095E29F938F933F922F920E94A8
:102CA000C83AB10181E395E20E94103BCDBFDEBF7F
:102CB00009C0C157DF4F8881CF58D04085300CF410
:102CC000A0CDC5CDC855DF4FCDBFDEBFDF91CF91C1
:102CD0001F910F91FF90EF90DF90CF90BF90AF903A
:102CE0009F908F907F906F905F904F903F902F902C
:102CF000089581E08093672908950F931F93609151
:102D0000E5287091E6288091E7289091E8280091C5
:102D1000E5281091E6282091E7283091E828061749
:102D200017072807390719F0C901B801F0CF1F911B
:102D30000F9108952F923F924F925F926F927F92E0
:102D40008F929F92AF92BF92CF92DF92EF92FF92BB
:102D50000F931F93CF93DF93CDB7DEB7C15DD1093A
:102D6000CDBFDEBFC654DF4F8883CA5BD040C55499
:102D7000DF4F9883CB5BD040809167298111FCCFD6
:102D80006091D8297091D9298091DA299091DB2915
:102D90000E94DF3020E030E44CE955E40E943130FD
:102DA000C454DF4F6883CC5BD040C354DF4F78837B
:102DB000CD5BD040C254DF4F8883CE5BD040C1543E
:102DC000DF4F9883CF5BD0402091CF2991E080E006
:102DD000211190E0CE56DF4F9883C259D040CD5696
:102DE000DF4F8883C359D0408091E0299091E12939
:102DF000A091E229B091E329892B8A2B8B2BE9F052
:102E00006091E0297091E1298091E2299091E32974
:102E10000E94E13020E030E040E857E30E94DF31DB
:102E20009B01AC0160E070E88BE894E40E943130D3
:102E3000062F272E89839A8304C000E0212C198253
:102E40001A822091E4292B836091D4297091D5298D
:102E50008091D6299091D7290E94DF3020E030E47C
:102E60004CE955E40E943130C054DF4F6883C05CA8
:102E7000D040CF53DF4F7883C15CD040CE53DF4F7B
:102E80008883C25CD040CD53DF4F9883C35CD04071
:102E90002091CE2991E080E0211190E0CC56DF4FC7
:102EA0009883C459D040CB56DF4F8883C559D04052
:102EB0006091D0297091D1298091D2299091D32904
:102EC0000E94DF3020E030E44CE955E40E943130CC
:102ED000CC53DF4F6883C45CD040CB53DF4F788343
:102EE000C55CD040CA53DF4F8883C65CD040C9530D
:102EF000DF4F9883C75CD0402091CD2991E080E0DE
:102F0000211190E0CA56DF4F9883C659D040C95668
:102F1000DF4F8883C759D0406091952970919629D9
:102F200080919729909198290E94DF3020E030E429
:102F30004CE955E40E943130C853DF4F6883C85CC8
:102F4000D040C753DF4F7883C95CD040C653DF4FB2
:102F50008883CA5CD040C553DF4F9883CB5CD04098
:102F60002091942991E080E0211101C090E0C856A1
:102F7000DF4F9883C859D040C756DF4F8883C9595F
:102F8000D0406091C9297091CA298091CB29909134
:102F9000CC290E94DF3027EB33EF4DE75DE30E9441
:102FA000DF31C453DF4F6883CC5CD040C353DF4F65
:102FB0007883CD5CD040C253DF4F8883CE5CD04055
:102FC000C153DF4F9883CF5CD0406091C529709189
:102FD000C6298091C7299091C8296115710581057D
:102FE000910521F10E94E13020E030E040E857E314
:102FF0000E94DF319B01AC0160E070E88BE894E453
:103000000E943130362EC053DF4F7883C05DD040F0
:10301000CF52DF4F8883C15DD040192F20E030E0D0
:1030200040E85FE30E942C3087FF0CC0312CC05376
:10303000DF4F1882C05DD040CF52DF4F1882C15D94
:10304000D04010E06091DE297091DF298091DC2969
:103050009091DD298C839D83C0909929D0909A29E5
:10306000E0909B29F0909C299091BD29C656DF4F96
:103070009883CA59D040A091BE29C556DF4FA88376
:10308000CB59D040B091BF29C456DF4FB883CC593B
:10309000D040E091C029C356DF4FE883CD59D040DE
:1030A000F091C129C256DF4FF883CE59D04020910C
:1030B000C229C156DF4F2883CF59D0403091C32950
:1030C000C056DF4F3883C05AD0408091C429CF55B5
:1030D000DF4F8883C15AD04040900D2A50900E2A6D
:1030E00060900F2A7090102A8090112A9090122AD6
:1030F000A090132AB090142A8091B1299091B229FE
:10310000A091B329B091B4298E839F83A887B987F2
:1031100080910D2A90910E2AA0910F2AB091102A29
:103120008A879B87AC87BD878091112A9091122A4C
:10313000A091132AB091142A8E879F87A88BB98BF0
:103140008091A9299091AA29A091AB29B091AC298D
:103150008A8B9B8BAC8BBD8B8091112A9091122A0C
:10316000A091132AB091142A8E8B9F8BA88FB98FB0
:103170008091A5299091A629A091A729B091A8296D
:103180008A8F9B8FAC8FBD8F80910D2A90910E2AD4
:10319000A0910F2AB091102A8E8F9F8FA8A3B9A358
:1031A0009091B529CE55DF4F9883C25AD040A09157
:1031B000B629CD55DF4FA883C35AD040B091B72967
:1031C000CC55DF4FB883C45AD040E091B829CB55D5
:1031D000DF4FE883C55AD040F091B929CA55DF4F77
:1031E000F883C65AD0402091BA29C955DF4F2883A9
:1031F000C75AD0403091BB29C855DF4F3883C85AD1
:10320000D0408091BC29C755DF4F8883C95AD04030
:103210008091052A9091062AA091072AB091082A48
:103220008AA39BA3ACA3BDA38091092A90910A2AEB
:10323000A0910B2AB0910C2A8EA39FA3A8A7B9A78F
:103240008091AD299091AE29A091AF29B091B0297C
:103250008AA79BA7ACA7BDA78091052A9091062AB3
:10326000A091072AB091082A8EA79FA7A8ABB9AB57
:103270008091092A90910A2AA0910B2AB0910C2AD8
:103280008AAB9BABACABBDAB8091A1299091A2293D
:10329000A091A329B091A4298EAB9FABA8AFB9AFE1
:1032A0008091092A90910A2AA0910B2AB0910C2AA8
:1032B0008AAF9BAFACAFBDAF80919D2990919E2905
:1032C000A0919F29B091A02922968CAF9DAFAEAF5F
:1032D000BFAF22978091052A9091062AA091072AD4
:1032E000B091082A26968CAF9DAFAEAFBFAF2697A0
:1032F00090918C29C655DF4F9883CA5AD040A0912F
:103300008D29C555DF4FA883CB5AD040B0918E2967
:10331000C455DF4FB883CC5AD040E0918F29C355B4
:10332000DF4FE883CD5AD040F0919029C255DF4F4E
:10333000F883CE5AD04020919129C155DF4F288380
:10334000CF5AD04030919229C055DF4F3883C05BAF
:10335000D04080919329CF54DF4F8883C15BD04008
:103360008091F5299091F629A091F729B091F8293B
:103370002A968CAF9DAFAEAFBFAF2A978091F92947
:103380009091FA29A091FB29B091FC292E968CAF3F
:103390009DAFAEAFBFAF2E978091802990918129CC
:1033A000A0918229B091832962968CAF9DAFAEAF78
:1033B000BFAF62978091F5299091F629A091F729E6
:1033C000B091F82966968CAF9DAFAEAFBFAF669750
:1033D0008091F9299091FA29A091FB29B091FC29BB
:1033E0006A968CAF9DAFAEAFBFAF6A9780917829D8
:1033F00090917929A0917A29B0917B296E968CAF12
:103400009DAFAEAFBFAF6E978091F9299091FA2929
:10341000A091FB29B091FC29A2968CAF9DAFAEAFD5
:10342000BFAFA2978091742990917529A0917629B8
:10343000B0917729A6968CAF9DAFAEAFBFAFA697E0
:103440008091F5299091F629A091F729B091F8295A
:10345000AA968CAF9DAFAEAFBFAFAA9790918429CB
:10346000CE54DF4F9883C25BD040A0918529CD54C4
:10347000DF4FA883C35BD040B0918629CC54DF4F87
:10348000B883C45BD040E0918729CB54DF4FE883F9
:10349000C55BD040F0918829CA54DF4FF883C65BE2
:1034A000D04020918929C954DF4F2883C75BD04081
:1034B00030918A29C854DF4F3883C85BD04080914F
:1034C0008B29C754DF4F8883C95BD0408091ED2999
:1034D0009091EE29A091EF29B091F029AE968CAF92
:1034E0009DAFAEAFBFAFAE978091F1299091F22919
:1034F000A091F329B091F429E2968CAF9DAFAEAFC5
:10350000BFAFE29780917C2990917D29A0917E297F
:10351000B0917F29E6968CAF9DAFAEAFBFAFE69777
:103520008091ED299091EE29A091EF29B091F02999
:10353000EA968CAF9DAFAEAFBFAFEA978091F1290D
:103540009091F229A091F329B091F429EE968CAFD5
:103550009DAFAEAFBFAFEE9780917029909171296A
:10356000A0917229B0917329C258DF4F8883998343
:10357000AA83BB83CE57D0408091F1299091F22944
:10358000A091F329B091F429CE57DF4F8883998316
:10359000AA83BB83C258D04080916C2990916D2939
:1035A000A0916E29B0916F29CA57DF4F8883998304
:1035B000AA83BB83C658D0408091ED299091EE2913
:1035C000A091EF29B091F029C657DF4F88839983E6
:1035D000AA83BB83CA58D0408091682990916929F9
:1035E000A0916A29B0916B29C257DF4F88839983D4
:1035F000AA83BB83CE58D040C154DF4F9881CF5BA4
:10360000D0409F93C254DF4FA881CE5BD040AF9390
:10361000C354DF4FB881CD5BD040BF93C454DF4F5C
:10362000E881CC5BD040EF93CD56DF4FF881C35992
:10363000D040FF93CE56DF4F2881C259D0402F9300
:103640003A813F9389818F932F920F931F929B8191
:103650009F93CD53DF4FA881C35CD040AF93CE532F
:10366000DF4FB881C25CD040BF93CF53DF4FE881BA
:10367000C15CD040EF93C054DF4FF881C05CD040B4
:10368000FF93CB56DF4F2881C559D0402F93CC569E
:10369000DF4F3881C459D0403F93C953DF4F8881F1
:1036A000C75CD0408F93CA53DF4F9881C65CD0402F
:1036B0009F93CB53DF4FA881C55CD040AF93CC53D1
:1036C000DF4FB881C45CD040BF93C956DF4FE8815B
:1036D000C759D040EF93CA56DF4FF881C659D04042
:1036E000FF93C553DF4F2881CB5CD0402F93C65347
:1036F000DF4F3881CA5CD0403F93C753DF4F88818A
:10370000C95CD0408F93C853DF4F9881C85CD040CC
:103710009F93C756DF4FA881C959D040AF93C85671
:10372000DF4FB881C859D040BF93C153DF4FE88104
:10373000CF5CD040EF93C253DF4FF881CE5CD040D6
:10374000FF93C353DF4F2881CD5CD0402F93C453E8
:10375000DF4F3881CC5CD0403F931F93CF52DF4F77
:103760008881C15DD0408F93C053DF4F9881C05D89
:10377000D0409F933F9280E090E00E94DF3023E3AF
:1037800033E343E254E40E9431309F938F937F935D
:103790006F93AC81BD81BD0180E090E00E94DF307D
:1037A00027E137EB41ED5EE30E9431309F938F9329
:1037B0007F936F93C701B6010E94E13020E030E0B3
:1037C00040E259E40E9431309F938F937F936F932F
:1037D000C656DF4F2881CA59D040C556DF4F3881C1
:1037E000CB59D040C456DF4F4881CC59D040C35646
:1037F000DF4F5881CD59D040C256DF4F6881CE5936
:10380000D040C156DF4F7881CF59D040C056DF4FEE
:103810008881C05AD040CF55DF4F9881C15AD040DF
:103820000E94D9306B017C0120E030E44CE955E482
:10383000C301B2010E94DF31A50194010E94DF3172
:103840009B01AC01C701B6010E9431309F938F9359
:103850007F936F936E817F81888599850E94E13087
:103860006B017C0120E030E040E853E46A857B8511
:103870008C859D850E94DF312E853F854889598939
:103880000E94DF319B01AC01C701B6010E943130BB
:103890009F938F937F936F936A897B898C899D898E
:1038A0000E94E1306B017C0120E030E040E857E409
:1038B0006E897F89888D998D0E94DF319B01AC01D3
:1038C000C701B6010E9431309F938F937F936F930E
:1038D0006A8D7B8D8C8D9D8D0E94E1306B017C010A
:1038E00020E030E040E857E46E8D7F8D88A199A1FB
:1038F0000E94DF319B01AC01C701B6010E9431304B
:103900009F938F937F936F93CE55DF4F2881C25A39
:10391000D040CD55DF4F3881C35AD040CC55DF4F12
:103920004881C45AD040CB55DF4F5881C55AD0404A
:10393000CA55DF4F6881C65AD040C955DF4F7881DC
:10394000C75AD040C855DF4F8881C85AD040C755A4
:10395000DF4F9881C95AD0400E94D9306B017C0159
:1039600020E030E44CE955E46AA17BA18CA19DA143
:103970000E94DF312EA13FA148A559A50E94DF3149
:103980009B01AC01C701B6010E9431309F938F9318
:103990007F936F936AA57BA58CA59DA50E94E130BE
:1039A0006B017C0120E030E040E853E46EA57FA588
:1039B00088A999A90E94DF312AA93BA94CA95DA930
:1039C0000E94DF319B01AC01C701B6010E9431307A
:1039D0009F938F937F936F936EA97FA988AD99ADC5
:1039E0000E94E1306B017C0120E030E040E857E4C8
:1039F0006AAD7BAD8CAD9DAD0E94DF319B01AC010A
:103A0000C701B6010E9431309F938F937F936F93CC
:103A100022966CAD7DAD8EAD9FAD22970E94E130B8
:103A20006B017C0120E030E040E857E426966CAD65
:103A30007DAD8EAD9FAD26970E94DF319B01AC011D
:103A4000C701B6010E9431309F938F937F936F938C
:103A5000C655DF4F2881CA5AD040C555DF4F38813F
:103A6000CB5AD040C455DF4F4881CC5AD040C355C3
:103A7000DF4F5881CD5AD040C255DF4F6881CE5AB2
:103A8000D040C155DF4F7881CF5AD040C055DF4F6D
:103A90008881C05BD040CF54DF4F9881C15BD0405C
:103AA0000E94D9306B017C0120E030E44CE955E400
:103AB0002A966CAD7DAD8EAD9FAD2A970E94DF3109
:103AC0002E962CAD3DAD4EAD5FAD2E970E94DF31F1
:103AD0009B01AC01C701B6010E9431309F938F93C7
:103AE0007F936F9362966CAD7DAD8EAD9FAD629707
:103AF0000E94E1306B017C0120E030E040E853E4BB
:103B000066966CAD7DAD8EAD9FAD66970E94DF3140
:103B10006A962CAD3DAD4EAD5FAD6A970E94DF3128
:103B20009B01AC01C701B6010E9431309F938F9376
:103B30007F936F936E966CAD7DAD8EAD9FAD6E979E
:103B40000E94E1306B017C0120E030E040E857E466
:103B5000A2966CAD7DAD8EAD9FADA2970E94DF3178
:103B60009B01AC01C701B6010E9431309F938F9336
:103B70007F936F93A6966CAD7DAD8EAD9FADA697EE
:103B80000E94E1306B017C0120E030E040E857E426
:103B9000AA966CAD7DAD8EAD9FADAA970E94DF3128
:103BA0009B01AC01C701B6010E9431309F938F93F6
:103BB0007F936F93CE54DF4F2881C25BD040CD54AA
:103BC000DF4F3881C35BD040CC54DF4F4881C45BAA
:103BD000D040CB54DF4F5881C55BD040CA54DF4F33
:103BE0006881C65BD040C954DF4F7881C75BD04045
:103BF000C854DF4F8881C85BD040C754DF4F9881DD
:103C0000C95BD0400E94D9306B017C0120E030E4D8
:103C10004CE955E4AE966CAD7DAD8EAD9FADAE97E3
:103C20000E94DF31E2962CAD3DAD4EAD5FADE29727
:103C30000E94DF319B01AC01C701B6010E94313007
:103C40009F938F937F936F93E6966CAD7DAD8EAD12
:103C50009FADE6970E94E1306B017C0120E030E0EF
:103C600040E853E4EA966CAD7DAD8EAD9FADEA972A
:103C70000E94DF31EE962CAD3DAD4EAD5FADEE97BF
:103C80000E94DF319B01AC01C701B6010E943130B7
:103C90009F938F937F936F93C258DF4F6881798191
:103CA0008A819B81CE57D0400E94E1306B017C011C
:103CB00020E030E040E857E4CE57DF4F688179815B
:103CC0008A819B81C258D0400E94DF319B01AC01A8
:103CD000C701B6010E9431309F938F937F936F93FA
:103CE000CA57DF4F688179818A819B81C658D0404D
:103CF0000E94E1306B017C0120E030E040E857E4B5
:103D0000C657DF4F688179818A819B81CA58D0402C
:103D10000E94DF319B01AC01C701B6010E94313026
:103D20009F938F937F936F93C257DF4F6881798101
:103D30008A819B81CE58D0400E94DF3020E030E461
:103D40004CE955E40E9431309F938F937F936F939A
:103D50008EEC95E29F938F93C554DF4FB881CB5B78
:103D6000D040BF93C654DF4FE881CA5BD040EF9389
:103D70000E94C83ACDBFDEBFCF52DF4FCDBFDEBFFE
:103D8000DF91CF911F910F91FF90EF90DF90CF9037
:103D9000BF90AF909F908F907F906F905F904F906B
:103DA0003F902F9008952F923F924F925F926F9283
:103DB0007F928F929F92AF92BF92CF92DF92EF92BB
:103DC000FF920F931F93CF93DF93CDB7DEB7C35806
:103DD000D109CDBFDEBFE1968FAFE197E2969FAFED
:103DE000E297809167298111FCCF6091D829709169
:103DF000D9298091DA299091DB290E94DF3020E0D7
:103E000030E44CE955E40E943130E3966FAFE3971C
:103E1000E4967FAFE497E5968FAFE597E6969FAF80
:103E2000E6972091CF2991E080E0211190E06B96F8
:103E30009FAF6B976C968FAF6C978091E0299091B4
:103E4000E129A091E229B091E329892B8A2B8B2BC0
:103E5000E9F06091E0297091E1298091E229909147
:103E6000E3290E94E13020E030E040E857E30E947F
:103E7000DF319B01AC0160E078E584EA94E40E94C4
:103E80003130162F372E89839A8304C010E0312CED
:103E900019821A822091E4292B836091D429709190
:103EA000D5298091D6299091D7290E94DF3020E032
:103EB00030E44CE955E40E943130E7966FAFE79764
:103EC000E8967FAFE897E9968FAFE997EA969FAFBC
:103ED000EA972091CE2991E080E0211190E06D9643
:103EE0009FAF6D976E968FAF6E976091D02970914E
:103EF000D1298091D2299091D3290E94DF3020E0EE
:103F000030E44CE955E40E943130EB966FAFEB970B
:103F1000EC967FAFEC97ED968FAFED97EE969FAF57
:103F2000EE972091CD2991E080E0211190E06F96ED
:103F30009FAF6F97A0968FAFA0976091C92970919E
:103F4000CA298091CB299091CC290E94DF302FED96
:103F500036E945E95DE30E94DF31EF966FAFEF97F9
:103F6000C158DF4F7883CF57D040C058DF4F888388
:103F7000C058D040CF57DF4F9883C158D040609190
:103F8000C5297091C6298091C7299091C8296115CA
:103F900071058105910521F10E94E13020E030E0BA
:103FA00040E857E30E94DF319B01AC0160E078E517
:103FB00084EA94E40E943130CE57DF4F6883C258C0
:103FC000D040CD57DF4F7883C358D040282E092FDB
:103FD00020E030E040E85FE30E942C3087FF0CC017
:103FE000CE57DF4F1882C258D040CD57DF4F1882CE
:103FF000C358D040212C00E06091DE297091DF2968
:104000008091DC299091DD298C839D83C090992932
:10401000D0909A29E0909B29F0909C299091BD29FD
:10402000A1969FAFA197A091BE29A296AFAFA297EC
:10403000B091BF29A396BFAFA397E091C029A496E2
:10404000EFAFA497F091C129A596FFAFA597209156
:10405000C229A6962FAFA6973091C329A7963FAF46
:10406000A7978091C429A8968FAFA89740900D2A52
:1040700050900E2A60900F2A7090102A8090112A7A
:104080009090122AA090132AB090142A8091B129FE
:104090009091B229A091B329B091B4298E839F83C6
:1040A000A887B98780910D2A90910E2AA0910F2A96
:1040B000B091102A8A879B87AC87BD878091112A8F
:1040C0009091122AA091132AB091142A8E879F876B
:1040D000A88BB98B8091A9299091AA29A091AB298D
:1040E000B091AC298A8B9B8BAC8BBD8B8091112AB4
:1040F0009091122AA091132AB091142A8E8B9F8B33
:10410000A88FB98F8091A5299091A629A091A72960
:10411000B091A8298A8F9B8FAC8FBD8F80910D2A7B
:1041200090910E2AA0910F2AB091102A8E8F9F8F06
:10413000A8A3B9A39091B529A9969FAFA997A091DB
:10414000B629AA96AFAFAA97B091B729AB96BFAFE1
:10415000AB97E091B829AC96EFAFAC97F091B92945
:10416000AD96FFAFAD972091BA29AE962FAFAE971F
:104170003091BB29AF963FAFAF978091BC29E096B5
:104180008FAFE0978091052A9091062AA091072A87
:10419000B091082A8AA39BA3ACA3BDA38091092A4E
:1041A00090910A2AA0910B2AB0910C2A8EA39FA36A
:1041B000A8A7B9A78091AD299091AE29A091AF2968
:1041C000B091B0298AA79BA7ACA7BDA78091052A6B
:1041D0009091062AA091072AB091082A8EA79FA73E
:1041E000A8ABB9AB8091092A90910A2AA0910B2A19
:1041F000B0910C2A8AAB9BABACABBDAB8091A12933
:104200009091A229A091A329B091A4298EAB9FAB34
:10421000A8AFB9AF8091092A90910A2AA0910B2AE0
:10422000B0910C2A8AAF9BAFACAFBDAF80919D29F6
:1042300090919E29A0919F29B091A02922968CAFA0
:104240009DAFAEAFBFAF22978091052A9091062A0D
:10425000A091072AB091082A26968CAF9DAFAEAFE9
:10426000BFAF26978091702990917129A0917229F2
:10427000B09173292A968CAF9DAFAEAFBFAF2A978E
:1042800080916C2990916D29A0916E29B0916F2930
:104290002E968CAF9DAFAEAFBFAF2E978091782991
:1042A00090917929A0917A29B0917B2962968CAF5F
:1042B0009DAFAEAFBFAF6297809174299091752981
:1042C000A0917629B091772966968CAF9DAFAEAF5D
:1042D000BFAF66978091682990916929A0916A295A
:1042E000B0916B296A968CAF9DAFAEAFBFAF6A97A6
:1042F000E6969FADE6979F93E596AFADE597AF93B2
:10430000E496BFADE497BF93E396EFADE397EF93E9
:104310006C96FFAD6C97FF936B962FAD6B972F93B9
:104320003A813F9389818F933F921F931F929B8184
:104330009F93EA96AFADEA97AF93E996BFADE99741
:10434000BF93E896EFADE897EF93E796FFADE79759
:10435000FF936E962FAD6E972F936D963FAD6D9731
:104360003F93EE968FADEE978F93ED969FADED97C1
:104370009F93EC96AFADEC97AF93EB96BFADEB97F9
:10438000BF93A096EFADA097EF936F96FFAD6F9799
:10439000FF93CF57DF4F2881C158D0402F93C0588B
:1043A000DF4F3881C058D0403F93C158DF4F8881DC
:1043B000CF57D0408F93EF969FADEF979F930F937A
:1043C0002F92CD57DF4FA881C358D040AF93CE571F
:1043D000DF4FB881C258D040BF9380E090E00E9488
:1043E000DF3023E333E343E254E40E9431309F9310
:1043F0008F937F936F93EC81FD81BF0180E090E00C
:104400000E94DF3027E137EB41ED5EE30E9431305F
:104410009F938F937F936F93C701B6010E94E13002
:1044200020E030E040E259E40E9431309F938F93C6
:104430007F936F93A1962FADA197A2963FADA297C0
:10444000A3964FADA397A4965FADA497A5966FAD25
:10445000A597A6967FADA697A7968FADA797A89686
:104460009FADA8970E94D9306B017C0120E030E419
:104470004CE955E4C301B2010E94DF31A50194016A
:104480000E94DF319B01AC01C701B6010E943130AF
:104490009F938F937F936F936E817F81888599859A
:1044A0000E94E1306B017C0120E030E040E853E401
:1044B0006A857B858C859D850E94DF312E853F85B1
:1044C000488959890E94DF319B01AC01C701B601BF
:1044D0000E9431309F938F937F936F936A897B897A
:1044E0008C899D890E94E1306B017C0120E030E0E5
:1044F00040E857E46E897F89888D998D0E94DF316D
:104500009B01AC01C701B6010E9431309F938F938C
:104510007F936F936A8D7B8D8C8D9D8D0E94E13092
:104520006B017C0120E030E040E857E46E8D7F8D28
:1045300088A199A10E94DF319B01AC01C701B6019E
:104540000E9431309F938F937F936F93A9962FADE5
:10455000A997AA963FADAA97AB964FADAB97AC96ED
:104560005FADAC97AD966FADAD97AE967FADAE97A4
:10457000AF968FADAF97E0969FADE0970E94D93090
:104580006B017C0120E030E44CE955E46AA17BA199
:104590008CA19DA10E94DF312EA13FA148A559A564
:1045A0000E94DF319B01AC01C701B6010E9431308E
:1045B0009F938F937F936F936AA57BA58CA59DA5F1
:1045C0000E94E1306B017C0120E030E040E853E4E0
:1045D0006EA57FA588A999A90E94DF312AA93BA9C8
:1045E0004CA95DA90E94DF319B01AC01C701B60156
:1045F0000E9431309F938F937F936F936EA97FA911
:1046000088AD99AD0E94E1306B017C0120E030E083
:1046100040E857E46AAD7BAD8CAD9DAD0E94DF31C3
:104620009B01AC01C701B6010E9431309F938F936B
:104630007F936F9322966CAD7DAD8EAD9FAD22972B
:104640000E94E1306B017C0120E030E040E857E45B
:1046500026966CAD7DAD8EAD9FAD26970E94DF3165
:104660009B01AC01C701B6010E9431309F938F932B
:104670007F936F932A966CAD7DAD8EAD9FAD2A97DB
:104680000E94E13025E535E545E859E40E943130E6
:104690009F938F937F936F932E966CAD7DAD8EAD70
:1046A0009FAD2E970E94E13025E535E545E859E4B8
:1046B0000E9431309F938F937F936F9362966CAD7E
:1046C0007DAD8EAD9FAD62970E94E13020E030E07D
:1046D00040E857E30E94DF319F938F937F936F935E
:1046E00066966CAD7DAD8EAD9FAD66970E94E13054
:1046F00020E030E040E857E30E94DF319F938F9342
:104700007F936F936A966CAD7DAD8EAD9FAD6A97CA
:104710000E94DF3020E030E44CE955E40E94313063
:104720009F938F937F936F938CE696E29F938F93E3
:10473000E296FFADE297FF93E1962FADE1972F93BD
:104740000E94C83ACDBFDEBFCD57DF4FCDBFDEBF21
:10475000DF91CF911F910F91FF90EF90DF90CF905D
:10476000BF90AF909F908F907F906F905F904F9091
:104770003F902F900895CF93DF93D82FC92F682FA4
:10478000792F8EEE96E20E94103B8D2F9C2F0E9477
:10479000882E0E94772E1F928F938EE097E29F9330
:1047A0008F93CF93DF930E94C83A8D2F9C2F0E9446
:1047B000A52E0F900F900F900F900F900F906D2FD0
:1047C0007C2F8CE197E2DF91CF910C94103B1F92EC
:1047D0000F920FB60F9211240BB60F922F923F92A9
:1047E0004F925F927F928F929F92AF92BF92CF92A1
:1047F000DF92EF92FF920F931F932F933F934F936C
:104800005F936F937F938F939F93AF93BF93CF9358
:10481000DF93EF93FF93F0914806F470E091480620
:10482000E072C0914806C071809148068270982E4F
:1048300070904806D091600880916806807380313E
:1048400031F0809168068073803209F0F5C0809164
:104850001002909111022091480625FB222720F991
:1048600031E02327409163285091642860916528A6
:1048700070916628C52ED62EE72EFF24E7FCFA9409
:104880004C195D096E097F09092E000CAA0BBB0BA0
:10489000BA2FA92F982F8827840F951FA61FB71FFF
:1048A0008093632890936428A0936528B09366282A
:1048B0008091630280FFFCCF81E08093630280914E
:1048C0005002909151024091672850916828609160
:1048D000692870916A28C52ED62EE72EFF24E7FCA2
:1048E000FA944C195D096E097F09092E000CAA0B78
:1048F000BB0BBA2FA92F982F8827840F951FA61FAF
:10490000B71F8093672890936828A0936928B09375
:104910006A2880912B0280FFFCCF81E080932B02DC
:10492000809112029091130240916B2850916C2853
:1049300060916D2870916E28C52ED62EE72EFF242B
:10494000E7FCFA944C195D096E097F09092E000CE9
:10495000AA0BBB0BBA2FA92F982F8827840F951F5E
:10496000A61FB71F80936B2890936C28A0936D2887
:10497000B0936E2880916B0280FFFCCF81E0809322
:104980006B02809152029091530240916F28509196
:1049900070286091712870917228C52ED62EE72E4E
:1049A000FF24E7FCFA944C195D096E097F09092E72
:1049B000000CAA0BBB0BBA2FA92F982F8827840FA6
:1049C000951FA61FB71F80936F2890937028A09300
:1049D0007128B0937228822F90E0A0E0B0E040915F
:1049E0007328509174286091752870917628481723
:1049F00059076A077B0709F4BAC127E020938506A7
:104A000028E0209385068093732890937428A093C0
:104A10007528B09376288091E5289091E628A0919A
:104A2000E728B091E8288093772890937828A0937E
:104A30007928B0937A289BC12091100230911102FD
:104A40008091E5299091E629281B390B80918806F1
:104A50008071882E8091632890916428A0916528A8
:104A6000B0916628492F5A2F6B2F772767FD7A95CB
:104A70001C012D01241A350A460A570AC901032EC2
:104A8000000CAA0BBB0BBA2FA92F982F8827820DD9
:104A9000931DA41DB51D8093632890936428A09353
:104AA0006528B09366288091630280FFFCCF81E087
:104AB0008093630240915002509151028091E72906
:104AC0009091E829481B590B80916728909168289C
:104AD000A0916928B0916A28C92EDA2EEB2EFF2406
:104AE000E7FCFA941C012D012C183D084E085F08C4
:104AF000CA01052E000CAA0BBB0BBA2FA92F982FA9
:104B00008827820D931DA41DB51D8093672890935F
:104B10006828A0936928B0936A28DA010E94383681
:104B2000009173281091742820917528309176286F
:104B3000C12ED22EE32EFF24E7FCFA940C191D0996
:104B40002E093F09060F171F281F391F00937328CE
:104B50001093742820937528309376286B017C017C
:104B6000FF0CCC08DC2C76019B01AC016C2D7C2D5C
:104B70008C2D9C2DA0907B28B0907C28C0907D2807
:104B8000D0907E28E0907F28F090802800918128A6
:104B9000109182280E94613620937B2830937C28D4
:104BA00040937D2850937E2860937F2870938028BF
:104BB000809381289093822880912B0280FFFCCFE4
:104BC00081E080932B022091120230911302809198
:104BD000E9299091EA29281B390B80916B28909143
:104BE0006C28A0916D28B0916E28492F5A2F6B2FF9
:104BF000772767FD7A957C018D01E41AF50A060B8B
:104C0000170BB801A701C901032E000CAA0BBB0B9F
:104C1000BA2FA92F982F8827840F951FA61FB71F7B
:104C200080936B2890936C28A0936D28B0936E2886
:104C300080916B0280FFFCCF81E080936B024091FA
:104C40005202509153028091EB299091EC29481B1C
:104C5000590B80916F2890917028A0917128B09184
:104C60007228C92EDA2EEB2EFF24E7FCFA941C01E1
:104C70002D012C183D084E085F08CA01052E000CB6
:104C8000AA0BBB0BBA2FA92F982F8827820D931D33
:104C9000A41DB51D80936F2890937028A093712850
:104CA000B0937228DA010E9438360091772810916B
:104CB00078282091792830917A28C12ED22EE32E9F
:104CC000FF24E7FCFA940C191D092E093F09060F71
:104CD000171F281F391F00937728109378282093D7
:104CE000792830937A286B017C01FF0CCC08DC2CEE
:104CF00076019B01AC016C2D7C2D8C2D9C2DA09000
:104D00008328B0908428C0908528D0908628E09091
:104D10008728F09088280091892810918A280E947D
:104D200061362093832830938428409385285093BC
:104D30008628609387287093882880938928909389
:104D40008A2880918B28881591F080928B288091F9
:104D5000E5289091E628A091E728B091E828809373
:104D60008C2890938D28A0938E28B0938F288091C3
:104D7000330280FFFCCF91E0909333022091140224
:104D80003091150280916128273D324084F41092C1
:104D90006228882309F466C0809160288F5F809321
:104DA0006028853008F45EC0109261285BC01092C4
:104DB0006028811157C0809162288F5F809362289C
:104DC000853008F44FC0909361288091C02890915D
:104DD000C128A091C228B091C3280196A11DB11D80
:104DE0008093C0289093C128A093C228B093C32871
:104DF0008091E5289091E628A091E728B091E828D5
:104E000040915C2850915D2860915E2870915F28E8
:104E1000841B950BA60BB70B82389640A105B105F4
:104E200058F48091E5289091E628A091E728B09168
:104E3000E828841B950B02C082E896E08093062048
:104E4000909307208091E5289091E628A091E7288B
:104E5000B091E82880935C2890935D28A0935E2809
:104E6000B0935F288091E5289091E628A091E728EB
:104E7000B091E82840915C2850915D2860915E28AF
:104E800070915F28841B950BA60BB70B8338964057
:104E9000A105B10518F082E896E023C00091E5284D
:104EA0001091E6282091E7283091E828041B150B83
:104EB000260B370B8091062090910720092E000CBD
:104EC000AA0BBB0B80179107A207B30770F4809160
:104ED000E5289091E628A091E728B091E828841B66
:104EE000950B80930620909307208091BC28909189
:104EF000BD28A091BE28B091BF28492F5A2F6B2FF3
:104F0000772767FD7A951C012D01241A350A460A78
:104F1000570A8091062090910720092E000CAA0BB9
:104F2000BB0BBA2FA92F982F8827820D931DA41D84
:104F3000B51D8093BC289093BD28A093BE28B09344
:104F4000BF288091730280FFFCCF81E080937302C1
:104F5000809154029091550240919028509191284F
:104F60006091922870919328052F162F272F3327B1
:104F700027FD3A95401B510B620B730B092E000C59
:104F8000AA0BBB0BBA2FA92F982F8827840F951F28
:104F9000A61FB71F8093902890939128A0939228E2
:104FA000B093932880913B0280FFFCCF81E08093F7
:104FB0003B0280917B0280FFFCCF81E080937B02EB
:104FC00080905B282091160230911702882009F406
:104FD000BEC08091012A9091022A281B390B809132
:104FE0009C2890919D28A0919E28B0919F28492FA0
:104FF0005A2F6B2F772767FD7A957C018D01E41A74
:10500000F50A060B170BB801A701C901032E000C06
:10501000AA0BBB0BBA2FA92F982F8827840F951F97
:10502000A61FB71F80939C2890939D28A0939E282D
:10503000B0939F2840915602509157028091032AC5
:105040009091042A481B590B8091A0289091A12887
:10505000A091A228B091A328C92EDA2EEB2EFF240E
:10506000E7FCFA941C012D012C183D084E085F083E
:10507000CA01052E000CAA0BBB0BBA2FA92F982F23
:105080008827820D931DA41DB51D8093A0289093A1
:10509000A128A093A228B093A328DA010E94383651
:1050A0000091A8281091A9282091AA283091AB2816
:1050B000C12ED22EE32EFF24E7FCFA940C191D0911
:1050C0002E093F09060F171F281F391F0093A82814
:1050D0001093A9282093AA283093AB28DC01CB0198
:1050E000880F991FAA1FBB1F6C017D01FF0CCC0804
:1050F000DC2C76019C01AD016C2D7C2D8C2D9C2D22
:10510000A090B428B090B528C090B628D090B72809
:10511000E090B828F090B9280091BA281091BB28E7
:105120000E9461362093B4283093B5284093B62866
:105130005093B7286093B8287093B9288093BA2801
:105140009093BB2881E68093390289E2BDC08091AB
:10515000FD299091FE29281B390B8091942890916C
:105160009528A0919628B0919728492F5A2F6B2FF8
:10517000772767FD7A957C018D01E41AF50A060B05
:10518000170BB801A701C901032E000CAA0BBB0B1A
:10519000BA2FA92F982F8827840F951FA61FB71FF6
:1051A0008093942890939528A0939628B09397285D
:1051B00040915602509157028091FF299091002A08
:1051C000481B590B8091982890919928A0919A2872
:1051D000B0919B28C92EDA2EEB2EFF24E7FCFA941F
:1051E0001C012D012C183D084E085F08CA01052E30
:1051F000000CAA0BBB0BBA2FA92F982F8827820D62
:10520000931DA41DB51D8093982890939928A09371
:105210009A28B0939B28DA010E9438360091A4287E
:105220001091A5282091A6283091A728C12ED22E12
:10523000E32EFF24E7FCFA940C191D092E093F09FF
:10524000060F171F281F391F0093A4281093A528A5
:105250002093A6283093A728DC01CB01880F991F43
:10526000AA1FBB1F6C017D01FF0CCC08DC2C760152
:105270009C01AD016C2D7C2D8C2D9C2DA090AC281B
:10528000B090AD28C090AE28D090AF28E090B02864
:10529000F090B1280091B2281091B3280E94613695
:1052A0002093AC283093AD284093AE285093AF287C
:1052B0006093B0287093B1288093B2289093B3285C
:1052C00089E58093390289E38093790281E0811036
:1052D00080E080935B2891102BC08091D52890911D
:1052E000D628292F3327821B930B76FE02C08150CC
:1052F0009F4F8093D5289093D6288091D328909162
:10530000D428292F33272C01421A530A8D2F90E0DD
:1053100040915A28841B910943E0880F991F4A95B0
:10532000E1F7840D951D8093D3289093D42808C06D
:105330001092D5281092D6281092D3281092D428F3
:10534000D0935A288091C4288C1791F0C093C42818
:105350008091E5289091E628A091E728B091E8286F
:105360008093C7289093C828A093C928B093CA28CF
:105370008091C5288F1709F445C0F093C528809106
:10538000E5289091E628A091E728B091E82880933D
:10539000CB289093CC28A093CD28B093CE28F111A0
:1053A0002FC08091BC289091BD28A091BE28B091BB
:1053B000BF28009700EDA007B10514F521E0209368
:1053C000592822E02093DB288093D7289093D8286F
:1053D000A093D928B093DA28809355289093562823
:1053E000A0935728B093582888E893E180935328D6
:1053F0009093542885E0809385062093860602C00A
:10540000109259288091C6288E1709F46DC0E09338
:10541000C6288091E5289091E628A091E728B091D0
:10542000E8288093CF289093D028A093D128B093D8
:10543000D228E11157C081E0809359288091BC287F
:105440009091BD28A091BE28B091BF288093552887
:1054500090935628A0935728B09358284091E0285D
:105460005091E1286091E2287091E328481759078C
:105470006A077B0794F48091E0289091E128A0913D
:10548000E228B091E3288093D7289093D828A0935E
:10549000D928B093DA2887E009C08093D728909361
:1054A000D828A093D928B093DA2882E08093DB280B
:1054B00088E893E180935328909354288091DB28C7
:1054C000811102C087E00BC0873019F480938506F4
:1054D0000BC0982F90959770909385068770809356
:1054E000860602C01092592880915928882309F411
:1054F00084C0809153289091542801978093532819
:1055000090935428892B09F078C0E11116C080913E
:10551000E428882391F08091DC289091DD28A091E7
:10552000DE28B091DF288093D7289093D828A093C5
:10553000D928B093DA281092E4284091BC285091E1
:10554000BD286091BE287091BF280091D728109186
:10555000D8282091D9283091DA288091DB280417A7
:105560001507260737078CF4009155281091562807
:105570002091572830915828041715072607370718
:10558000DCF48730C8F48F5F15C0401751076207FD
:10559000730794F4009155281091562820915728AC
:1055A0003091582840175107620773072CF488235D
:1055B00019F081508093DB288091DB28811102C093
:1055C00087E00BC0873019F48093850608C0982FB8
:1055D000909597709093850687708093860688E8EB
:1055E00093E18093532890935428409355285093E7
:1055F000562860935728709358288091E92888236B
:10560000E1F089E7E3E6F8E2AEEEB8E201900D9250
:105610008A95E1F78091E5289091E628A091E72806
:10562000B091E8288093EA289093EB28A093EC2887
:10563000B093ED281092E9281FC080916729882334
:10564000D9F089E7E3E6F8E2ACE6B9E201900D9221
:105650008A95E1F78091E5289091E628A091E728C6
:10566000B091E8288093682990936929A0936A29CA
:10567000B0936B29109267298091E5289091E628D4
:10568000A091E728B091E8280196A11DB11D809353
:10569000E5289093E628A093E728B093E828FF91A7
:1056A000EF91DF91CF91BF91AF919F918F917F91BA
:1056B0006F915F914F913F912F911F910F91FF90AB
:1056C000EF90DF90CF90BF90AF909F908F907F90A2
:1056D0005F904F903F902F900F900BBE0F900FBE9A
:1056E0000F901F901895FC0120E030E0DB014D91F8
:1056F000BD01542F5D7F553261F0442351F0419339
:105700002F5F3F4F2E34310589F7FC01E35BFF4FDC
:1057100003C0FC01E20FF31F1082089588E090E2BD
:105720000E94732B80E090E0089581EB9AE20E9442
:10573000732B80E090E0089583E69AE20E94732B39
:1057400080E090E0089585E19AE20E94732B80E06A
:1057500090E008956EE87BE28AE397E20E9480027F
:1057600065E97BE28FE397E20E9480026CE97BE2CD
:1057700084E497E20E94800263EA7BE289E497E294
:105780000C94800225E13AE23F932F9323E63AE21C
:105790003F932F9321EB3AE23F932F9328E030E29F
:1057A0003F932F932EE437E23F932F939F938F9352
:1057B0000E94C83A8DB79EB70C968DBF9EBF0895C4
:1057C000CF93DF93F8941092A4081092B40820EAC3
:1057D00039E0D90114961C92C0EBD9E01C821092DA
:1057E000A40A1092B40A60EA7BE0FB011482E0E6AE
:1057F000F6E088E1828B868B40EA56E0DA01529629
:105800008C93529798E8958392E096839AE89183D7
:1058100094E4928398E015969C93159711969C9327
:10582000119794E012969C9390E1908B948B958BBA
:1058300045EFF901468390EB97834E839F839CE06D
:10584000DB0116969C93169792EB17969C931797ED
:1058500084838C8314968C93149780E283838B8348
:1058600013968C93E0EAF0E0828183608283DF917B
:10587000CF9108958091CF2D9091CE2D891708F466
:105880008C54891B0895CF93C091CE2D0E943A2C41
:105890008823E1F3EC2FF0E0E65EF24D808191E0A9
:1058A0009C0F943B08F090E09093CE2DCF910895FB
:1058B0002091862E91E0920F8091852E943B10F0DE
:1058C0009DE4920F891708F48C54891B0895CF9397
:1058D000DF93D82FC1E20E94582C811103C0C093DE
:1058E000A309F9CFC091862EEC2FF0E0EF52F24DD4
:1058F000D083CF5FC43B08F0C0E0D091A2008D2FD1
:105900008E7F8093A2008091D02D882329F0C093B0
:10591000862ED093A20016C082E0809365060E9476
:105920005E2E21E02093D02DC093862E20E220937E
:10593000A309D093A20063E070E00E94632E81E28D
:105940008093A309DF91CF91089580911D2C9091B0
:105950001C2C891708F4805B891B0895CF93C09194
:105960001C2C0E94A52C8823E1F3EC2FF0E0E453DB
:10597000F44D808191E09C0F903508F090E0909379
:105980001C2CCF9108952091192D91E0920F8091B8
:10599000182D9A3F10F097E0920F891708F486505F
:1059A000891B0895CF93DF93C82FD1E20E94C32CA7
:1059B000811103C0D093B309F9CF9091192DE92F2C
:1059C000F0E0E25EF34DC08381E0890F8A3F08F08A
:1059D00080E09091A200292F2E7F2093A200809337
:1059E000192D81E28093B3099093A200DF91CF91AA
:1059F0000895CF93DF93D82F0E94D22CDE3319F471
:105A00001092FF2A1BC0C091FF2ADC33A1F48C2F17
:105A100082958F708A3010F4805D01C0895C0E948D
:105A2000D22CCF70CA3010F480E301C087E38C0F12
:105A30000E94D22C03C0CD27C093FF2A80E090E0C3
:105A4000DF91CF9108951F920F920FB60F921124FC
:105A50000BB60F928F939F93EF93FF938091CF2D6F
:105A6000E82FF0E09091A009E65EF24D90838F5F01
:105A7000843B08F080E09091CE2D89138093CF2D48
:105A8000FF91EF919F918F910F900BBE0F900FBEE2
:105A90000F901F9018951F920F920FB60F9211241E
:105AA0000BB60F922F938F939F93EF93FF93809159
:105AB000852E9091862E891305C084E28093A309D8
:105AC000892F0DC0E82FF0E0EF52F24D2081209396
:105AD000A0098F5F843B08F080E0891771F3809301
