:100000000C942E010C944F010C944F010C944F0151
:100010000C944F010C944F010C944F010C944F0120
:100020000C944F010C944F010C944F010C944F0110
:100030000C944F010C944F010C944F010C944F0100
:100040000C944F010C944F010C944F010C944F01F0
:100050000C944F010C944F010C944F010C944F01E0
:100060000C944F010C944F010C944F010C944F01D0
:100070000C944F010C944F010C944F010C944F01C0
:100080000C944F010C944F010C944F010C944F01B0
:100090000C944F010C944F010C944F010C944F01A0
:1000A0000C944F010C944F010C944F010C944F0190
:1000B0000C944F010C944F010C944F010C944F0180
:1000C0000C944F010C944F010C944F010C944F0170
:1000D0000C944F010C944F010C944F010C944F0160
:1000E0000C944F010C944F010C944F010C944F0150
:1000F0000C944F010C944F010C944F010C944F0140
:100100000C944F010C944F010C944F010C944F012F
:100110000C944F010C944F010C944F010C948A25C0
:100120000C944F010C944F010C944F010C944F010F
:100130000C944F010C944F010C944F010C944F01FF
:100140000C944F010C944F010C944F010C944F01EF
:100150000C944F010C944F010C944F010C944F01DF
:100160000C946C2E0C94942E0C94C52E0C94E22EB0
:100170000C940A2F0C944F010C944F010C944F01D6
:100180000C944F010C944F010C944F010C944F01AF
:100190000C944F010C944F010C944F010C944F019F
:1001A0000C944F010C944F010C944F010C944F018F
:1001B0000C944F010C944F010C944F010C944F017F
:1001C0000C944F010C944F010C944F010C944F016F
:1001D0000C944F010C944F010C944F010C943B2F45
:1001E0000C94632F0C944F010C944F010C944F010D
:1001F0000C944F010C944F010C944F010C94FA098C
:100200000C94D40A0C940C0B0C94C42C0C94DE0BA0
:100210000C94E80E0C94320A0C94FC0C0C94180EFE
:100220000C94B8090C94380C0C94940A0C94560E47
:100230000C94640D0C9470090C94BD2C0C943C2E01
:100240000C94920C0C94BE0D0C94760B0C94D22C46
:100250000C94B00E0C9476090C94CB2C11241FBE78
:10026000CFEFCDBFDFE5DEBF00E00CBF17E2A0E0BF
:10027000B0E2E0E2F7E700E00BBF02C007900D92AA
:10028000A03AB107D9F72EE2A0EAB7E201C01D9269
:10029000A839B207E1F70E949C050C948E3B0C94A0
:1002A00000000F93CF93DF931F92CDB7DEB72FB728
:1002B0002983F8941BBEFC0108ED04BF608389818B
:1002C0008FBF0F90DF91CF910F910895611102C000
:1002D00090E001C090E2842B892B80935200089516
:1002E0006F71862B809355000895E0E5F0E09081D2
:1002F000282F2095922390839081892308950F932E
:100300001F93CF93C82F00E410E0F8016081687F4D
:10031000682B80E490E00E945101F80180818C23D9
:10032000CF911F910F9108958093FE279093FF27FF
:100330001092FC271092FD271092FA271092FB27AB
:100340001092F8271092F9271092F6271092F727AB
:1003500008958F929F92AF92BF92CF92DF92EF92C9
:10036000FF920F931F93CF93DF934C016B015A01C0
:1003700079010091FC271091FD270F5F1F4F8BE043
:10038000809FE001819FD00D1124BE018091F8274C
:100390009091F9270E9478358093F8279093F92758
:1003A0000097B9F02B97C80FD91F44E050E0B40173
:1003B000CE010E94AC371C82A986BA86CF82D8862D
:1003C000ED82FE820093FC271093FD2780E090E0F1
:1003D00002C081E090E0DF91CF911F910F91FF90DB
:1003E000EF90DF90CF90BF90AF909F908F90089547
:1003F000AF92BF92CF92DF92EF92FF920F931F9333
:10040000CF93DF935C016B01E090FA27F090FB271C
:100410008FEFE81AF80A8701000F111F000F111F54
:10042000000F111F0E191F09B8018091F627909136
:10043000F7270E9478358093F6279093F727009747
:10044000A9F007501109EC01C00FD11F44E050E0A2
:10045000B501CE010E94AC371C82CD82DE82E092D3
:10046000FA27F092FB2780E090E002C081E090E064
:10047000DF91CF911F910F91FF90EF90DF90CF9080
:10048000BF90AF9008950F931F93CF93DF93809108
:10049000FC279091FD2718161906E4F400E010E0FF
:1004A000C0E0D0E08091F8279091F927800F911F4C
:1004B000DC011996ED91FC911A97309709F0199586
:1004C0002196055F1F4F8091FC279091FD27C8174B
:1004D000D90744F3DF91CF911F910F9108956F9247
:1004E0007F928F929F92AF92BF92CF92DF92EF92C4
:1004F000FF920F931F93CF93DF93CDB7DEB725976E
:10050000CDBFDEBFD82EC92E8B01685F7F4F44E080
:1005100050E0CE0101960E94AC371D8244E050E0CD
:1005200064EC70E2CE0101960E949E37892B41F067
:100530006090FA277090FB271614170424F08BC0E4
:100540000E944302A4C08091F6279091F727B980BA
:10055000AA809B808C809C012D5F3F4FEE24EA9403
:10056000FE2C40E050E0F901B90163507109DB0154
:100570007C917A3211F07B111AC0BF01625071096F
:10058000DB016C916A3211F06A1111C0BF01615038
:100590007109DB016C916A3211F0691108C0608148
:1005A0006A3221F0681103C07A0101C07A014F5FFD
:1005B0005F4F295F3F4F46155705A9F6BFEFEB1672
:1005C000FB0609F448C09701220F331F220F331F87
:1005D000220F331F2E193F09FC01E20FF31FB80150
:1005E000645F7F4F0580F681E02DCE01019619955D
:1005F000892BA1F48091FF278F938091FE278F9301
:1006000089EC90E29F938F931F928DE48F93CF920A
:10061000DF920E944538CDBFDEBF39C0ED2DFC2DE5
:10062000DF010D900020E9F78091FF278F938091E3
:10063000FE278F9382ED90E29F938F93EA1BFB0B33
:10064000E15BFF4FFF93EF93CF92DF920E9445381B
:10065000CDBFDEBF1CC0ED2DFC2DDF010D900020B5
:10066000E9F78091FF278F938091FE278F9381EE8A
:1006700090E29F938F93EA1BFB0BE15BFF4FFF938D
:10068000EF93CF92DF920E944538CDBFDEBF259613
:10069000CDBFDEBFDF91CF911F910F91FF90EF9003
:1006A000DF90CF90BF90AF909F908F907F906F9092
:1006B0000895CF93DF93EC018881882331F0219650
:1006C0000E949B2D89918111FBCF8DE00E949B2D73
:1006D0008AE00E949B2DDF91CF9108951F93CF93C5
:1006E000DF93EC0110E022C00E94752D8093F52766
:1006F0009DED980F923018F48883198217C0988165
:100700009352923098F4FE0101900020E9F731975E
:10071000EC1BFD0BE23550F49E012E0F311DF9014B
:100720008083118211E08A3009F010E00E946A2D66
:10073000882311F01123C1F2812FDF91CF911F91F6
:1007400008954F925F926F927F928F929F92AF9295
:10075000BF92CF92DF92EF92FF920F931F93CF93AE
:10076000DF93CDB7DEB72597CDBFDEBF8C014AE062
:1007700050E060E070E001960E946136F80134813B
:100780002081233209F0C1C1E090FE27F090FF27BD
:10079000E616F70619F0672B21F0B9C1E114F10450
:1007A00049F4333509F0ADC1B80182EA97E20E94FD
:1007B0006F02A7C1393401F130F4313459F03734C4
:1007C00009F4C9C06BC1333509F463C1373509F485
:1007D0006DC064C1FF92EF928DEF90E29F938F9373
:1007E0001F928DE48F9382EA97E29F938F930E94EA
:1007F0004538CDBFDEBF52C14AE050E060E070E056
:10080000C80105960E9461366093A0277093A127C6
:1008100016161706B4F54091FC275091FD27461790
:1008200057077CF12BE0269FF001279FF00D112444
:100830009F012B503109E091F827F091F927E20F41
:10084000F31F7F936F9326812F9325812F93FF931F
:10085000EF937F936F938091FF278F938091FE2773
:100860008F9385E191E29F938F931F928DE48F93F5
:1008700082EA97E29F938F930E944538CDBFDEBFF7
:100880000DC17F936F938091FF278F938091FE27F7
:100890008F9382E391E29F938F9382EA97E29F93F3
:1008A0008F930E947C38CDBFDEBFF8C04AE050E095
:1008B00060E070E0C80105960E9461369B01161643
:1008C00017068CF54091FA275091FB2746175707DA
:1008D00054F1220F331F220F331F220F331F261B09
:1008E000370B275031094091F6275091F727240FF5
:1008F000351F3F932F937F936F938091FF278F93A3
:100900008091FE278F9381E591E29F938F931F92B1
:100910008DE48F9382EA97E29F938F930E944538EC
:10092000CDBFDEBFBBC07F936F938091FF278F93B6
:100930008091FE278F938BE691E29F938F931F9276
:100940008DE48F9382EA97E29F938F930E944538BC
:10095000CDBFDEBFA3C044E050E0B8016B5F7F4F66
:10096000CE0101960E94AC371D828090FC279090AA
:10097000FD27181419040CF079C0DE011196FD0151
:1009800001900020E9F731973F016A1A7B0AA09095
:10099000F827B090F92744244A94542CC12CD12C28
:1009A000A301B501CE0101960E949E37892B09F45F
:1009B00026019FEFC91AD90AEBE0AE0EB11CC8148C
:1009C000D90471F7FFEF4F165F0609F44FC0FF928D
:1009D000EF9284E891E29F938F930F2EF2EAEF2E2D
:1009E000F7E2FF2EF02DFF92EF920E947C38F70184
:1009F00001900020E9F73197E25AF7422BE0249D5D
:100A0000C001259D900D1124A091F827B091F927E0
:100A1000A80FB91F4DE450E04E1B5F0BBF016E5590
:100A2000784D1796ED91FC911897CE010196199586
:100A30000F900F900F900F900F900F90892B71F1E6
:100A40008091FF278F938091FE278F938BE891E20F
:100A50009F938F93C7019F93EF920E947C380F90D2
:100A60000F900F900F900F900F9018C0FF92EF9281
:100A700081EA91E29F938F9382EA97E29F938F930B
:100A80000E947C380F900F900F900F900F900F9056
:100A900005C0B80182EA97E20E946F028091A32705
:100AA000853261F0882361F0E4EAF7E290E098276C
:100AB0008191853231F08111FACF03C090E001C0FD
:100AC00090E0E2EAF7E201900020E9F73197E25A7C
:100AD000F7421F929F938BEB91E29F938F9383E555
:100AE00090E08E1B9F0B9F938F93EE55F84DFF93D5
:100AF000EF930E94453882EA97E20E945903CDBFE6
:100B0000DEBFF801108281E003C080E001C080E018
:100B10002596CDBFDEBFDF91CF911F910F91FF9042
:100B2000EF90DF90CF90BF90AF909F908F907F908D
:100B30006F905F904F9008954BE060E080EC0E94D2
:100B40006601E0E5F0E0808188608083818183FF39
:100B5000FDCF62E080EC0E947001E0E5F0E0808172
:100B600080618083818184FFFDCF84E00E947F01CA
:100B700081E00E94750182E00E947501E0E4F6E0E8
:100B80008FE7828380E1808BE0E6F6E091E092835C
:100B9000808BE0E8F6E08FEC80838FE08683E0EAEC
:100BA000F6E089EF808388E386830E9401310E940A
:100BB000942F0E94102D0E94BD2F90E00E9494015E
:100BC0000E944A0F0E94DD070E94D92C789486E586
:100BD00090E20E945525C0E0312C412C512C32016D
:100BE000812C912C540100EA16E0D0E30E941E08EB
:100BF0000E94DF2D8823E1F00E94EA2D833451F01A
:100C0000833641F08B3151F461E089E790E00E9436
:100C1000510104C086E590E20E94E3110E94FA1798
:100C20004B015C010E94FA176B017C01C1E007C017
:100C30000E94FA176B017C01CC2309F484C0D70110
:100C4000C60188199909AA09BB0988389341A105E9
:100C5000B10508F078C062C082E0381609F441C0DE
:100C6000831530F0332041F0E1E03E1621F154C00D
:100C7000F3E03F1251C03FC0C418D508E608F7089A
:100C800020ECC21626ECD2062DE2E206F10468F052
:100C900080EC480E86EC581E8DE2681E711C86E5BD
:100CA00090E20E945525C0E039C00E94F617C0E0CE
:100CB0003324339433C080916806807349F486E509
:100CC00090E20E941718C0E06894332431F826C0DF
:100CD00086E590E20E946E20C0E06894332431F8EB
:100CE0001DC086E590E20E94B808C0E00F2EF3E038
:100CF0003F2EF02D13C086E590E20E94F22C26E5EF
:100D000030E243E050E061E070E082EC91E20E946A
:100D10000338C0E0312C02C0C0E0312C0E946A2DA3
:100D2000882319F0F801D68302C0F801D58380E04A
:100D300098E20E946E03813009F058CF80E098E27B
:100D40000E94A10353CF0E94FF2D863908F084CF63
:100D5000C0E0E4CF0F931F93CF93DF93413021F492
:100D600091E09093460640C090E8909346063CC0C0
:100D7000DE01022E02C0AA0FBB1F0A94E2F7AA23CB
:100D800024F4D80115968C9303C0D80116968C9341
:100D9000968395832F5F3F4F2830310549F780E0D8
:100DA00090E070E0C0E8D6E030E4E0E6F6E021E074
:100DB000DB01082E02C0AA0FBB1F0A94E2F7AA2388
:100DC00014F43D8301C03E83268325830196883039
:100DD000910571F7413021F481E0809345060FC001
:100DE00080E8809345060BC020E030E0C82FD0E0BB
:100DF00000E816E080E4E0E6F6E091E0B9CFDF91AC
:100E0000CF911F910F9108954F925F927F928F9291
:100E10009F92AF92BF92CF92DF92EF92FF920F9389
:100E20001F93CF93DF93762E413021F491E090937E
:100E3000460603C090E890934606806860E070E044
:100E4000A82FB0E00F2EF0E8EF2EF6E0FF2EF02DE9
:100E500080E4E0E6F6E091E09D01062E02C0220F5C
:100E6000331F0A94E2F727FF03C0E7018D8302C016
:100E7000E7018E83968395836F5F7F4F683071059E
:100E800059F780E48093850698E020E030E0E0E0C8
:100E9000F0E0C0E6D6E051E00F2EF0EACF2EF6E00B
:100EA000DF2EF02D0F2EF0E8EF2EF6E0FF2EF02DC6
:100EB0005E83D60118968C91EE0FFF1FFF2780FBF3
:100EC000442440F8512CE429F529D7011896AC9018
:100ED0004901880C991C99242A2DAA0C330B59011D
:100EE000AA24BB0CAA1CBB249501282939295D839F
:100EF0009150F1F6B1E0B715D8F580E090E0C0E090
:100F0000D0E00F2EF0E6EF2EF6E0FF2EF02D51E0B0
:100F10000F2EF0EAAF2EF6E0BF2EF02D0F2EF0E8E8
:100F2000CF2EF6E0DF2EF02DD70116965C93D5017B
:100F300018969C90CC0FDD1FDD27092D017010E065
:100F4000C02BD12BD60118969C90880F991F9927FA
:100F5000A92D990CBB0BAA27BB0FAA1FBB278A2B55
:100F60009B2BD70115965C9361507109E9F604C07B
:100F700080E090E0C0E0D0E0413041F481E0809337
:100F800045069C2F88278E2B9F2B07C040E8409357
:100F90004506982F8827822B932BDF91CF911F91A5
:100FA0000F91FF90EF90DF90CF90BF90AF909F9008
:100FB0008F907F905F904F900895CF93DF93A0E83C
:100FC000B6E020E411962C931197E0E4F6E081E07E
:100FD000818390E89183C0E6D6E089838D8316965D
:100FE0002C931697858395838093A20612969C93E3
:100FF00040E067E480E20E94AA0640E068E081E207
:101000000E94AA0640E064E984E20E94AA0640E049
:1010100060E285E20E94AA0640E060E086E20E946B
:10102000AA0641E06FE880E20E94AA0641E060E083
:1010300081E20E94AA06DF91CF910895089540E0D1
:1010400062E085EC0E940407BC01990F880B990BA4
:101050000E94603220E030E040E05EE30E945E33B8
:101060000895811106C040E062E088EC0E94040708
:1010700012C0813031F440E062E08AEC0E94040743
:101080000AC0823031F440E062E08CEC0E94040738
:1010900002C080E090E0BC01990F880B990B0E9480
:1010A000603220E030E04AE754E40E94B0312AE0A8
:1010B00037ED43E25EE30E945E330895811106C07E
:1010C00040E062E088EE0E94040712C0813031F4F3
:1010D00040E062E08AEE0E9404070AC0823031F4E8
:1010E00040E062E08CEE0E94040702C080E090E0E5
:1010F000BC01990F880B990B0E94603220E030E010
:101100004AE754E40E94B03123EC35EF4CE151E45E
:101110000E945E3323E23BED49EF5DE30E945E33C4
:101120000895811106C041E062E088E60E9404074C
:1011300012C0813031F441E062E08AE60E94040787
:101140000AC0823031F441E062E08CE60E9404077C
:1011500002C080E090E0BC01990F880B990B0E94BF
:10116000603229E23CE54FE05CE30E945E33089583
:101170002F923F924F925F926F927F928F929F92A7
:10118000AF92BF92CF92DF92EF92FF920F931F9395
:10119000CF93DF93CDB7DEB76697CDBFDEBF8B8B26
:1011A0009C8B0E941F08562E472E382E292E82E037
:1011B0000E949108962E872E782E692E81E00E943B
:1011C000910869837A83B82EA92E80E00E94910845
:1011D0006B837C838D839E8382E00E9431086F83C2
:1011E000788789879A8781E00E9431086B877C879E
:1011F0008D879E8780E00E9431086F87788B898B6E
:101200009A8B82E00E945E08F62EE72ED82EC92E19
:1012100081E00E945E086D8B7E8B182F092F80E085
:101220000E945E082F923F924F925F926F927F9240
:101230008F929F92AF92BF922A812F93E981EF9371
:10124000FE81FF932D812F93EC81EF93FB81FF9320
:101250002A852F93E985EF93F885FF932F812F93AC
:10126000EE85EF93FD85FF932C852F93EB85EF9310
:10127000FA89FF9329892F93E889EF93FF85FF93DC
:10128000CF92DF92EF92FF920F931F932E892F93AD
:10129000ED89EF939F938F937F936F9386EC91E209
:1012A0009F938F93FC89FF932B892F930E94BB37C9
:1012B000CDBFDEBF6696CDBFDEBFDF91CF911F9160
:1012C0000F91FF90EF90DF90CF90BF90AF909F90E5
:1012D0008F907F906F905F904F903F902F900895E8
:1012E00081E08093E92880E090E00895FF920F93D9
:1012F0001F93CF93DF938B01EA0160915629709180
:1013000057298091582990915929F09050290E948D
:101310005E3220E030E44CE955E40E94B0319F9306
:101320008F937F936F9381E090E0F11080E09F9323
:101330008F9389EF91E29F938F93DF93CF931F93C6
:101340000F930E944538EDB7FEB73C96EDBFFEBF48
:101350008C179D072CF0F801108281E090E002C00C
:1013600080E090E0DF91CF911F910F91FF90089561
:10137000FF920F931F93CF93DF938B01EA0160914C
:101380005229709153298091542990915529F090B8
:101390004F290E945E3220E030E44CE955E40E947F
:1013A000B0319F938F937F936F9381E090E0F11022
:1013B00080E09F938F9389EF91E29F938F93DF93C8
:1013C000CF931F930F930E944538EDB7FEB73C961D
:1013D000EDBFFEBF8C179D072CF0F801108281E055
:1013E00090E002C080E090E0DF91CF911F910F91DB
:1013F000FF9008950F931F93CF93DF938B01EA0122
:1014000060911B2970911C2980911D2990911E29A2
:101410000E94603220E030E040E259E40E94B031A6
:101420009F938F937F936F9381E092E29F938F932B
:10143000DF93CF931F930F930E944538EDB7FEB70C
:101440003A96EDBFFEBF8C179D072CF0F801108275
:1014500081E090E002C080E090E0DF91CF911F91A9
:101460000F910895CF92DF92EF92FF920F931F9307
:10147000CF93DF938B01EA0160914729709148294E
:101480008091492990914A2961157105810591053D
:1014900009F10E94603220E030E040E857E30E940A
:1014A0005E339B01AC0160E070E88BE894E40E943D
:1014B000B031F62EE72ED82EC92E20E030E040E8DD
:1014C0005FE30E94AB3188234CF4F12CE12CD12C4A
:1014D000C12C04C0F12CE12CD12CC12CCF92DF9275
:1014E000EF92FF9281E092E29F938F93DF93CF93ED
:1014F0001F930F930E944538EDB7FEB73A96EDBFA4
:10150000FEBF8C179D072CF0F801108281E090E05F
:1015100002C080E090E0DF91CF911F910F91FF908A
:10152000EF90DF90CF900895FF920F931F93CF938A
:10153000DF938B01EA01EEEEF8E261A572A583A5C7
:1015400094A5F0A40E945E3220E030E44CE955E41A
:101550000E94B0319F938F937F936F9381E090E0CF
:10156000F11001C080E09F938F9389EF91E29F93E8
:101570008F93DF93CF931F930F930E944538EDB75E
:10158000FEB73C96EDBFFEBF8C179D072CF0F8010F
:10159000108281E090E002C080E090E0DF91CF9186
:1015A0001F910F91FF9008950F931F93CF93DF9397
:1015B0008B01EA016091EA287091EB288091EC2878
:1015C0009091ED280E945E3220E030E44CE955E431
:1015D0000E94B0319F938F937F936F938CEF91E232
:1015E0009F938F93DF93CF931F930F930E94453860
:1015F000EDB7FEB73A96EDBFFEBF8C179D072CF0F6
:10160000F801108281E090E002C080E090E0DF917C
:10161000CF911F910F9108954F925F926F927F9299
:101620008F929F92AF92BF92CF92DF92EF92FF92F2
:101630000F931F93CF93DF938B01EA01EEEEF8E255
:1016400020A131A142A153A164A175A186A197A1B6
:10165000E5EEF9E24088518862887388848895882D
:10166000A688B7880E9458326B017C0120E030E4E4
:101670004CE955E4C301B2010E945E33A501940117
:101680000E945E339B01AC01C701B6010E94B031DC
:101690009F938F937F936F9381E092E29F938F93B9
:1016A000DF93CF931F930F930E944538EDB7FEB79A
:1016B0003A96EDBFFEBF8C179D072CF0F801108203
:1016C00081E090E002C080E090E0DF91CF911F9137
:1016D0000F91FF90EF90DF90CF90BF90AF909F90D1
:1016E0008F907F906F905F904F9008954F925F9290
:1016F0006F927F928F929F92AF92BF92CF92DF9222
:10170000EF92FF920F931F93CF93DF938B01EA0128
:1017100060910229709103298091042990910529F3
:10172000E5EEF9E24088518862887388848895885C
:10173000A688B7880E9460326B017C0120E030E00F
:1017400040E853E4C301B2010E945E33A501940155
:101750000E945E339B01AC01C701B6010E94B0310B
:101760009F938F937F936F9381E092E29F938F93E8
:10177000DF93CF931F930F930E944538EDB7FEB7C9
:101780003A96EDBFFEBF8C179D072CF0F801108232
:1017900081E090E002C080E090E0DF91CF911F9166
:1017A0000F91FF90EF90DF90CF90BF90AF909F9000
:1017B0008F907F906F905F904F9008958F929F923F
:1017C000AF92BF92CF92DF92EF92FF920F931F934F
:1017D000CF93DF938B01EA016091FA287091FB2887
:1017E0008091FC289091FD288090F9299090FA2909
:1017F000A090FB29B090FC290E9460326B017C0113
:1018000020E030E040E857E4C501B4010E945E33B7
:101810009B01AC01C701B6010E94B0319F938F9329
:101820007F936F9381E092E29F938F93DF93CF93A7
:101830001F930F930E944538EDB7FEB73A96EDBF60
:10184000FEBF8C179D072CF0F801108281E090E01C
:1018500002C080E090E0DF91CF911F910F91FF9047
:10186000EF90DF90CF90BF90AF909F908F900895B2
:101870008F929F92AF92BF92CF92DF92EF92FF92A0
:101880000F931F93CF93DF938B01EA016091F628AA
:101890007091F7288091F8289091F9288090F52987
:1018A0009090F629A090F729B090F8290E94603214
:1018B0006B017C0120E030E040E857E4C501B40151
:1018C0000E945E339B01AC01C701B6010E94B0319A
:1018D0009F938F937F936F9381E092E29F938F9377
:1018E000DF93CF931F930F930E944538EDB7FEB758
:1018F0003A96EDBFFEBF8C179D072CF0F8011082C1
:1019000081E090E002C080E090E0DF91CF911F91F4
:101910000F91FF90EF90DF90CF90BF90AF909F908E
:101920008F9008954F925F926F927F928F929F92C5
:10193000AF92BF92CF92DF92EF92FF920F931F93DD
:10194000CF93DF938B01EA01EEEEF8E2208D318D2B
:10195000428D538D648D758D868D978DE5EEF9E200
:10196000408451846284738484849584A684B7847B
:101970000E9458326B017C0120E030E44CE955E4D0
:10198000C301B2010E945E33A50194010E945E333F
:101990009B01AC01C701B6010E94B0319F938F93A8
:1019A0007F936F9381E092E29F938F93DF93CF9326
:1019B0001F930F930E944538EDB7FEB73A96EDBFDF
:1019C000FEBF8C179D072CF0F801108281E090E09B
:1019D00002C080E090E0DF91CF911F910F91FF90C6
:1019E000EF90DF90CF90BF90AF909F908F907F90BF
:1019F0006F905F904F9008954F925F926F927F9299
:101A00008F929F92AF92BF92CF92DF92EF92FF920E
:101A10000F931F93CF93DF938B01EA016091FE2810
:101A20007091FF288091002990910129E5EEF9E25B
:101A3000408451846284738484849584A684B784AA
:101A40000E9460326B017C0120E030E040E853E40A
:101A5000C301B2010E945E33A50194010E945E336E
:101A60009B01AC01C701B6010E94B0319F938F93D7
:101A70007F936F9381E092E29F938F93DF93CF9355
:101A80001F930F930E944538EDB7FEB73A96EDBF0E
:101A9000FEBF8C179D072CF0F801108281E090E0CA
:101AA00002C080E090E0DF91CF911F910F91FF90F5
:101AB000EF90DF90CF90BF90AF909F908F907F90EE
:101AC0006F905F904F9008958F929F92AF92BF92C8
:101AD000CF92DF92EF92FF920F931F93CF93DF93FA
:101AE0008B01EA016091F2287091F3288091F4282B
:101AF0009091F5288090F1299090F229A090F329F7
:101B0000B090F4290E9460326B017C0120E030E04B
:101B100040E857E4C501B4010E945E339B01AC016B
:101B2000C701B6010E94B0319F938F937F936F934B
:101B300081E092E29F938F93DF93CF931F930F9354
:101B40000E944538EDB7FEB73A96EDBFFEBF8C1741
:101B50009D072CF0F801108281E090E002C080E047
:101B600090E0DF91CF911F910F91FF90EF90DF9068
:101B7000CF90BF90AF909F908F9008958F929F923B
:101B8000AF92BF92CF92DF92EF92FF920F931F938B
:101B9000CF93DF938B01EA016091EE287091EF28DB
:101BA0008091F0289091F1288090ED299090EE2975
:101BB000A090EF29B090F0290E9460326B017C0167
:101BC00020E030E040E857E4C501B4010E945E33F4
:101BD0009B01AC01C701B6010E94B0319F938F9366
:101BE0007F936F9381E092E29F938F93DF93CF93E4
:101BF0001F930F930E944538EDB7FEB73A96EDBF9D
:101C0000FEBF8C179D072CF0F801108281E090E058
:101C100002C080E090E0DF91CF911F910F91FF9083
:101C2000EF90DF90CF90BF90AF909F908F900895EE
:101C30000F931F93CF93DF938B01EA0160912329C8
:101C40007091242980912529909126290E94603243
:101C500020E030E048E45BE40E94B03120E030E076
:101C60004AE75CE40E94B0319F938F937F936F9318
:101C700081E092E29F938F93DF93CF931F930F9313
:101C80000E944538EDB7FEB73A96EDBFFEBF8C1700
:101C90009D072CF0F801108281E090E002C080E006
:101CA00090E0DF91CF911F910F9108958F929F92B5
:101CB000AF92BF92CF92DF92EF92FF920F931F935A
:101CC000CF93DF938B01EA0160911F297091202946
:101CD00080912129909122298090052A9090062AAE
:101CE000A090072AB090082A0E9460326B017C0104
:101CF00020E030E040E857E4C501B4010E945E33C3
:101D00009B01AC01C701B6010E94B0319F938F9334
:101D10007F936F9381E092E29F938F93DF93CF93B2
:101D20001F930F930E944538EDB7FEB73A96EDBF6B
:101D3000FEBF8C179D072CF0F801108281E090E027
:101D400002C080E090E0DF91CF911F910F91FF9052
:101D5000EF90DF90CF90BF90AF909F908F900895BD
:101D60000F931F93CF93DF938B01EA0160914B296F
:101D700070914C2980914D2990914E290E945E329C
:101D80002FED36E945E95DE30E945E339F938F9323
:101D90007F936F9381E092E29F938F93DF93CF9332
:101DA0001F930F930E944538EDB7FEB73A96EDBFEB
:101DB000FEBF8C179D072CF0F801108281E090E0A7
:101DC00002C080E090E0DF91CF911F910F910895C4
:101DD000CF92DF92EF92FF920F931F93CF93DF93F7
:101DE0008B01EA0160914729709148298091492926
:101DF00090914A29611571058105910509F10E94AB
:101E0000603220E030E040E857E30E945E339B01FF
:101E1000AC0160E078E584EA94E40E94B031F62EEB
:101E2000E72ED82EC92E20E030E040E85FE30E9484
:101E3000AB3188234CF4F12CE12CD12CC12C04C003
:101E4000F12CE12CD12CC12CCF92DF92EF92FF929A
:101E500081E092E29F938F93DF93CF931F930F9331
:101E60000E944538EDB7FEB73A96EDBFFEBF8C171E
:101E70009D072CF0F801108281E090E002C080E024
:101E800090E0DF91CF911F910F91FF90EF90DF9045
:101E9000CF900895DF92EF92FF920F931F93CF930D
:101EA000DF9380E20E94F530C0E0D2E08C8781E2CF
:101EB0000E94F5308D8784E20E94F53000E412E044
:101EC000F801848785E20E94F530F8018587E0E01B
:101ED000F6E014821082A0E2B6E014961C921497E9
:101EE0001C9287E0808B818B828B838B848B858B8C
:101EF000868B50968C93509751968C93519752960F
:101F00008C93529753968C93539754968C935497E3
:101F100055968C93559756968C93569757968C93C7
:101F20006894DD24D4F8D78AD98250E25A8346ECEB
:101F30004B8333E03C836894FF24F1F8F8A2F8A6C1
:101F4000F8AAF8AE89E289A399E199A791E399AB40
:101F500021E629AFEE24E394EAA2E882F801D182D7
:101F6000528343833483F0A2F0A6F0AAF0AE21A3FB
:101F700021E521A791AB81AFE082E0EAF0E0828128
:101F800081608283E5EEF9E28BEA9AEAA6E2B2E4A6
:101F900080879187A287B38747E251E164EB72E4BF
:101FA0004487558766877787808B918BA28BB38B0D
:101FB0004FE15EE860EB72E4448B558B668B778B68
:101FC00080A391A3A2A3B3A34DE555E86FE672E405
:101FD00044A355A366A377A380A791A7A2A7B3A7FD
:101FE00080E090E0A8E4B2E484A795A7A6A7B7A7ED
:101FF00044E050E060E070E08DEE99E20E945530E0
:1020000044E050E060E170E081EF99E20E945530D9
:1020100044E050E060E270E08DEE99E20E945530BD
:1020200044E050E060E370E081EF99E20E945530B7
:1020300042E050E060E470E085EE99E20E945530A5
:1020400042E050E064E470E087EE99E20E9455308F
:1020500042E050E068E470E089EE99E20E94553079
:1020600042E050E06CE470E08BEE99E20E94553063
:1020700044E050E060E570E085E09AE20E9455306F
:1020800044E050E060E670E089E09AE20E9455305A
:1020900044E050E060E770E08DE09AE20E94553045
:1020A00044E050E060E870E081E19AE20E9455303F
:1020B00042E050E060E970E08DEF99E20E94553017
:1020C00042E050E064E970E08FEF99E20E94553001
:1020D00042E050E068E970E081E09AE20E94553009
:1020E00042E050E06CE970E083E09AE20E945530F3
:1020F000E0E2F3E085E080831182D2828EEA95E00F
:10210000808F918FE0E0F8E011821382148280E0EA
:1021100099E186A397A31682178210A211A2E082EA
:10212000A0E8B1E080EC8C93E0E4F8E08CE0808300
:1021300011821382148216821782E0868FEF9FEF3E
:1021400086A397A3E0E4F6E080E48283E68A86E64D
:1021500014968C9314971C96FC92E0E6F6E090851A
:102160008085807321E0803209F020E0211108C0D1
:10217000907381E0903109F080E0882309F449C030
:10218000809168068073803119F08BE092E202C082
:1021900086E092E221E030E040E759E068EE7EE040
:1021A0000E94A901809168068073803119F085E151
:1021B00092E202C080E192E221E030E040E050E0B3
:1021C00060EB7EE00E94A9018091680680738031F7
:1021D00019F08FE192E202C08AE192E221E030E060
:1021E00040E050E066E57EE00E94A901809168062B
:1021F0008073803119F089E292E202C084E292E2B7
:1022000021E030E040E050E068E17EE00E94A9017A
:10221000AFC021E030E040E050E06EEB7DE08EE2C8
:1022200092E20E94A90121E030E040E050E064E643
:102230007DE083E392E20E94A90121E030E040E0EA
:1022400050E06CEF7CE088E392E20E94A90125E077
:1022500030E040E050E062E97CE08DE392E20E94F1
:10226000A90121E030E040E050E068E37CE082E456
:1022700092E20E94A90121E030E040E050E06EEDE2
:102280007BE087E492E20E94A90121E030E040E097
:1022900050E066E77BE08CE492E20E94A90125E031
:1022A00030E040E050E06CE07BE081E592E20E94AB
:1022B000A90121E030E040E050E064ED7AE086E5FD
:1022C00092E20E94A9012AE030E040E050E064E997
:1022D0007AE08BE592E20E94A90180916806807302
:1022E00009F046C021E030E040E759E062E37AE0DF
:1022F00086E092E20E94A90121E030E040E050E057
:1023000060EB7EE080E192E20E94A90121E030E0F2
:1023100040E050E066E57EE08AE192E20E94A90199
:1023200021E030E040E050E068E17EE084E292E2CB
:102330000E94A9012AE030E040E050E06AEF79E035
:1023400080E692E20E94A90125E030E040E050E002
:1023500068EB79E085E692E20E94A90125E030E091
:1023600040E050E066E779E08AE692E20E94A90147
:10237000809168068073803129F0809168068073AF
:10238000803269F486E696EAA7E5B0E08093E0281B
:102390009093E128A093E228B093E3280CC086E64E
:1023A00096E6AAE4B0E08093E0289093E128A09319
:1023B000E228B093E328DF91CF911F910F91FF9016
:1023C000EF90DF9008952F923F924F925F926F921D
:1023D0007F928F929F92AF92BF92CF92DF92EF92B5
:1023E000FF920F931F93CF93DF93CDB7DEB7C35AFE
:1023F000D109CDBFDEBF282EA92E80E6E4E6F0E2AB
:10240000DE01119601900D928A95E1F781E08093AB
:102410006729809167298111FCCF8091C92990910A
:10242000CA29A091CB29B091CC2985369105A10567
:10243000B10558F0222D3A2D42E450E061E070E001
:1024400085E792E20E940338BAC5222D3A2D48E171
:1024500050E061E070E088EB92E20E94033800E611
:1024600016E00F2EF9EFEF2EF2E2FF2EF02D222DC7
:102470003A2D47E250E061E070E081ED92E20E9487
:102480000338D12C1FC0FC01EE0FFF1FE80FF91F0E
:10249000EE0FFF1FEE0FFF1F21E030E02C0F3D1F5E
:1024A000E20FF31F21812F9320812F9301969F9399
:1024B0008F93FF92EF92AF922F920E94BB37D394EB
:1024C000CDBFDEBF8D2D0D2C000C990BD8011896B9
:1024D0002C91189718964C91407331E0403209F0D6
:1024E00030E031110AC0207331E0203109F030E0D2
:1024F000311103C028E030E002C024E030E0821750
:1025000093070CF2222D3A2D43E050E061E070E099
:1025100085E093E20E94033802C00E94EA2D0E94E7
:10252000DF2D8111FACF0E94EA2D0F2EFFECBF2E76
:10253000F02DB80E222D3A2D42E050E061E070E01F
:102540008BE294E20E940338BD141CF4BB200CF013
:102550005AC3222D3A2D40E250E061E070E089E05C
:1025600093E20E94033883CF0E94EA2D0E94DF2D60
:102570008111FACFB11003C082E792E202C08FE668
:1025800092E2C32C032C000CDD089F938F93C601AD
:1025900001969F938F93AAE2B3E2BF93AF93AF925A
:1025A0002F920E94BB37CDBFDEBF412C512C320190
:1025B0000E94EA2D182F282F082E000C330B2053D1
:1025C00031092A30310508F078C3622D7A2D082EA2
:1025D000000C990B0E94CB37440C551C661C771CD1
:1025E000D301C201880F991FAA1FBB1F880F991F13
:1025F000AA1FBB1F480E591E6A1E7B1E812F110F7A
:10260000990BAA0BBB0B480E591E6A1E7B1E30E3AA
:10261000431A510861087108CBCF80916729811155
:10262000FCCFCD56DF4FA881B981C359D040ED9181
:10263000FC9160817181828193810E94603220E0EF
:1026400030E040E857E30E945E332B013C01CC0CA4
:10265000DD1CCC0CDD1CE1E6F0E0EC0FFD1FEC0D09
:10266000FD1D6083718382839383C956DF4FE881A8
:10267000F981C759D040C080D180D6018D919D91FC
:102680000D90BC91A02DC157DF4F88839983AA83F9
:10269000BB83CF58D04020E030E04AE754E4C30188
:1026A000B2010E94B0319F938F937F936F93C15774
:1026B000DF4F288139814A815B81CF58D040C301E7
:1026C000B2010E94B0319F938F937F936F931F93BA
:1026D0000F93FF92EF92AFE5B3E2BF93AF93AF9248
:1026E0002F920E94BB37CDBFDEBF0E94EA2D982FEC
:1026F000893709F444C3893509F404C38F7D8E34C6
:1027000009F412C39B3189F728C3339434E033159D
:10271000D4F0222D3A2D47E250E061E070E083EBE7
:1027200093E20E9403380E94EA2D982F893709F41A
:1027300038C3893509F447C38F7D8E3409F455C3F6
:102740009B3189F752C381E083151CF4131464F0A4
:10275000C7C3222D3A2D42E550E061E070E08BEDD9
:1027600093E20E9403382BC43E0195E7690E711C69
:102770002E01A1E64A0E511C72018301CD56DF4F96
:10278000188219821A821B82C359D040C157DF4F69
:10279000188219821A821B82CF58D040B12CF801BE
:1027A00021913191419151918F01C157DF4F688142
:1027B00079818A819B81CF58D0400E943F31C15797
:1027C000DF4F688379838A839B83CF58D040D701BA
:1027D0002D913D914D915D917D01CD56DF4F6881E9
:1027E00079818A819B81C359D0400E943F31CD5667
:1027F000DF4F688379838A839B83C359D040B39426
:102800003B10CDCF07C3F4016191719181919191FA
:102810004F01202F3B2D4F2D5E2D0E943E312B016D
:102820003C019B01AC010E945E339B01AC01C1578E
:10283000DF4F688179818A819B81CF58D0400E9487
:102840003F31C157DF4F688379838A839B83CF5899
:10285000D040D6016D917D918D919D916D01C956AC
:10286000DF4F2881C759D040C356DF4F3881CD593B
:10287000D040C256DF4F4881CE59D040C156DF4FBD
:102880005881CF59D0400E943E319B01AC01C30119
:10289000B2010E945E339B01AC01CD56DF4F6881CF
:1028A00079818A819B81C359D0400E943F31CD56A6
:1028B000DF4F688379838A839B83C359D0401F5F2E
:1028C0003112A1CFC056DF4F88809980C05AD040C6
:1028D000CE55DF4FC880D980C25AD040C157DF4F94
:1028E000288139814A815B81CF58D040CD56DF4F56
:1028F000688179818A819B81C359D0400E94B0311F
:10290000C157DF4F688379838A839B83CF58D04038
:10291000202F3B2D4F2D5E2D0E945E339B01AC017D
:10292000C956DF4F6881C759D040C356DF4F788101
:10293000CD59D040C256DF4F8881CE59D040C156C4
:10294000DF4F9881CF59D0400E943E31C956DF4FAA
:10295000688379838A839B83C759D04002C00E94D1
:10296000EA2D0E94DF2D8111FACFC456DF4FB881C6
:10297000CC59D040BF93C556DF4FE881CB59D040EA
:10298000EF938EE294E29F938F93AF922F920E94E7
:10299000BB37D6014D905D906D907C90F401EE0FA9
:1029A000FF1FE80DF91DEE0FFF1FEE0FFF1FEC0FCD
:1029B000FD1F07811085F8010190F081E02DCD56B3
:1029C000DF4FE883F983C359D040D801ED90FC90E4
:1029D000C956DF4F688179818A819B81C759D04070
:1029E0000E94CB33C956DF4F688379838A839B83E8
:1029F000C759D0407F926F925F924F92CE56DF4F71
:102A0000B881C259D040BF93CF56DF4FE881C1593A
:102A1000D040EF93C057DF4FF881C059D040FF93AB
:102A2000C157DF4F2881CF58D0402F93CC56DF4F6E
:102A30003881C459D0403F93CD56DF4F8881C35968
:102A4000D0408F93B701FF0C880B990B0E94603226
:102A5000C956DF4F288139814A815B81C759D040EF
:102A60000E943F319F938F937F936F9382E594E20F
:102A70009F938F93AF922F920E94BB37CDBFDEBF43
:102A80000E94EA2D982F893709F461C2893509F42B
:102A900070C28F7D8E3409F47EC29B3189F77BC270
:102AA000F80160817181072E000C880B990B0E9440
:102AB00060329B01AC01C956DF4F688179818A8100
:102AC0009B81C759D0400E943F310E942232D801D9
:102AD0006D937C93C157DF4F88819981AA81BB8117
:102AE000CF58D040F60180839183A283B3837401D1
:102AF000EE0CFF1CF701E80DF91DEE0FFF1FEE0FA6
:102B0000FF1F21E030E02C0F3D1FE20FF31F628416
:102B1000738442E050E0B301C8010E94B630F7016F
:102B2000E80DF91DEE0FFF1FEE0FFF1F81E090E093
:102B30008C0F9D1FE80FF91FE084F18444E050E002
:102B4000B701C6010E94B630F60180819181A28151
:102B5000B381F80120813181BF93AF939F938F930D
:102B60003F932F9389E994E29F938F93AF922F9293
:102B70000E94BB3742E050E0B301CE0187579F4F20
:102B80000E94553044E050E0B701CE0185579F4F79
:102B90000E945530C257DF4F8881CE58D0408F9366
:102BA000C357DF4F8881CD58D0408F93C457DF4F34
:102BB0008881CC58D0408F93C557DF4F8881CB5840
:102BC000D0408F93C657DF4F8881CA58D0408F932B
:102BD000C757DF4F8881C958D0408F938FEB94E25D
:102BE0009F938F93AF922F920E94BB37222D3A2D45
:102BF0004CE250E061E070E085EE94E20E94033820
:102C0000CDBFDEBFDCC18B2C0B2C000C9908F4016E
:102C1000EE0FFF1FE80DF91DEE0FFF1FEE0FFF1F58
:102C200081E090E08C0F9D1FE80FF91F9081C55641
:102C3000DF4F9883CB59D040A181C456DF4FA88382
:102C4000CC59D040AF939F9382E195E29F938F93AD
:102C5000AF922F920E94BB371F9285E08F938BE239
:102C600095E29F938F93AF922F920E94BB37CDBF77
:102C7000DEBF312CFB2DF170BF2EC401880F991FD0
:102C8000880D991D880F991F880F991F21E030E04A
:102C90002C0F3D1F820F931FDC011296CD56DF4F84
:102CA000A883B983C359D040FC013496C956DF4F7D
:102CB000E883F983C759D04059CCC301B2010E94BF
:102CC000603220E030E04AE754E40E94B031E62E62
:102CD000F72E082F192FF601EE0FFF1FEE0FFF1F23
:102CE00025E730E02C0F3D1FE20FF31F862F9F2DAD
:102CF000A02FB12F80839183A283B38381E080933F
:102D000067298BCC1F9289E58F93A9E5B5E2BF9324
:102D1000AF93AF922F920E94BB370F900F900F90FE
:102D20000F900F900F90F1CC292F092E000C330B30
:102D30003F939F93A9E5B5E2BF93AF93AF922F92D4
:102D40000E94BB370F900F900F900F900F900F9035
:102D5000F4E0F3150CF00ACCF6CC1F928BE18F93C4
:102D600089E595E29F938F93AF922F920E94BB3794
:102D70000F900F900F900F900F900F90E4CC1F9238
:102D800089E78F93A9E5B5E2BF93AF93AF922F92F6
:102D90000E94BB370F900F900F900F900F900F90E5
:102DA000B4CC1F9289E78F93A9E5B5E2BF93AF93A7
:102DB000AF922F920E94BB370F900F900F900F9001
:102DC0000F900F90D3CB1F9289E58F93A9E5B5E2C1
:102DD000BF93AF93AF922F920E94BB370F900F908B
:102DE0000F900F900F900F90C1CB292F092E000C40
:102DF000330B3F939F9389E595E29F938F93AF9217
:102E00002F920E94BB370F900F900F900F900F9052
:102E10000F9099CC632D032C000C770B880B990B2A
:102E20000E946032C956DF4F688379838A839B830F
:102E3000C759D0409B01AC01C157DF4F68817981F0
:102E40008A819B81CF58D0400E94B031062FB72E87
:102E5000F82EE92EC956DF4F288139814A815B81DE
:102E6000C759D040CD56DF4F688179818A819B81D7
:102E7000C359D0400E94B031C956DF4F6883C7594B
:102E8000D040C356DF4F7883CD59D040C256DF4F74
:102E90008883CE59D040C156DF4F9883CF59D04058
:102EA000CD56DF4F188219821A821B82C359D04037
:102EB000C157DF4F188219821A821B82CF58D04027
:102EC00010E0C056DF4F88829982C05AD04043013B
:102ED000CE55DF4FC882D982C25AD040620193CC0E
:102EE000632D330C770B880B990B0E9460329B018A
:102EF000AC0160E070E0CB010E94B031062FB72E2C
:102F0000F82EE92EC956DF4F6883C759D040C35603
:102F1000DF4F7883CD59D040C256DF4F8883CE59DA
:102F2000D040C156DF4F9883CF59D040CD56DF4FA8
:102F3000188219821A821B82C359D040C157DF4FB1
:102F4000188219821A821B82CF58D040C7CC1F9298
:102F500089E78F9389E595E29F938F93AF922F92A4
:102F60000E94BB370F900F900F900F900F900F9013
:102F700097CD1F9289E58F9389E595E29F938F9373
:102F8000AF922F920E94BB370F900F900F900F902F
:102F90000F900F9085CD292F092E000C330B3F93F6
:102FA0009F9389E595E29F938F93AF922F920E9412
:102FB000BB370F900F900F900F900F900F90CD5543
:102FC000DF4FCDBFDEBFDF91CF911F910F91FF90FB
:102FD000EF90DF90CF90BF90AF909F908F907F90B9
:102FE0006F905F904F903F902F90089581E0809375
:102FF000672908950F931F930091E5281091E62803
:103000002091E7283091E82802C08B019C01609153
:10301000E5287091E6288091E7289091E828061726
:1030200017072807390789F71F910F9108952F92E5
:103030003F924F925F926F927F928F929F92AF9248
:10304000BF92CF92DF92EF92FF920F931F93CF9395
:10305000DF93CDB7DEB7C15DD109CDBFDEBFCA54A6
:10306000DF4F8883C65BD040C954DF4F9883C75B6E
:10307000D040809167298111FCCF6091D82970914F
:10308000D9298091DA299091DB290E945E3220E0D3
:1030900030E44CE955E40E94B031C854DF4F6883F6
:1030A000C85BD040C754DF4F7883C95BD040C6545B
:1030B000DF4F8883CA5BD040C554DF4F9883CB5B1A
:1030C000D0402091CF2991E080E0211190E0C057BD
:1030D000DF4F9883C059D040CF56DF4F8883C15906
:1030E000D0408091E0299091E129A091E229B0910E
:1030F000E329892B8A2B8B2B69F16091E029709150
:10310000E1298091E2299091E3290E94603220E038
:1031100030E040E857E30E945E339B01AC0160E081
:1031200070E88BE894E40E94B031C453DF4F6883A9
:10313000CC5CD040C353DF4F7883CD5CD040C253CA
:10314000DF4F8883CE5CD040C153DF4F9883CF5C84
:10315000D04014C0C453DF4F1882CC5CD040C3535E
:10316000DF4F1882CD5CD040C253DF4F1882CE5C57
:10317000D040C153DF4F1882CF5CD0401091E4297A
:103180006091D4297091D5298091D6299091D72921
:103190000E945E3220E030E44CE955E40E94B031F8
:1031A000C454DF4F6883CC5BD040C354DF4F788377
:1031B000CD5BD040C254DF4F8883CE5BD040C1543A
:1031C000DF4F9883CF5BD0402091CE2991E080E003
:1031D000211190E0CE56DF4F9883C259D040CD5692
:1031E000DF4F8883C359D0406091D0297091D12995
:1031F0008091D2299091D3290E945E3220E030E460
:103200004CE955E40E94B031C054DF4F6883C05C84
:10321000D040CF53DF4F7883C15CD040CE53DF4FD7
:103220008883C25CD040CD53DF4F9883C35CD040CD
:103230002091CD2991E080E0211190E0CC56DF4F24
:103240009883C459D040CB56DF4F8883C559D040AE
:103250000F2EFCE6EF2EF9E2FF2EF02DD701999606
:103260006D917D918D919C919C970E945E3220E0A2
:1032700030E44CE955E40E94B031CC53DF4F688311
:10328000C45CD040CB53DF4F7883C55CD040CA5379
:10329000DF4F8883C65CD040C953DF4F9883C75C3B
:1032A000D040F70120A591E080E0211101C090E01D
:1032B000CA56DF4F9883C659D040C956DF4F88831E
:1032C000C759D0406091C9297091CA298091CB29F2
:1032D0009091CC290E945E3227EB33EF4DE75DE3FE
:1032E0000E945E33C853DF4F6883C85CD040C75329
:1032F000DF4F7883C95CD040C653DF4F8883CA5CF8
:10330000D040C553DF4F9883CB5CD0406091C52936
:103310007091C6298091C7299091C82961157105BE
:103320008105910509F10E94603220E030E040E81B
:1033300057E30E945E339B01AC0160E070E88BE8CC
:1033400094E40E94B0316983072F382E292E20E0A3
:1033500030E040E85FE30E94AB3188234CF41982EF
:1033600000E0312C212C04C0198200E0312C212CEA
:103370002CE639E26091DE297091DF294091DC2949
:103380005091DD294A835B83C0909929D0909A2976
:10339000E0909B29F0909C29EDEBF9E25081C85612
:1033A000DF4F5883C859D0408181C756DF4F88838B
:1033B000C959D0409281C656DF4F9883CA59D04030
:1033C000A381C556DF4FA883CB59D040B481C456E2
:1033D000DF4FB883CC59D0404581C356DF4F488377
:1033E000CD59D0405681C256DF4F5883CE59D04078
:1033F0008781C156DF4F8883CF59D04040900D2A36
:1034000050900E2A60900F2A7090102A8090112AF6
:103410009090122AA090132AB090142A8091B1297A
:103420009091B229A091B329B091B4298C839D8346
:10343000AE83BF8380910D2A90910E2AA0910F2A0E
:10344000B091102A88879987AA87BB878091112A13
:103450009091122AA091132AB091142A8C879D87EB
:10346000AE87BF878091A9299091AA29A091AB2905
:10347000B091AC29888B998BAA8BBB8B8091112A38
:103480009091122AA091132AB091142A8C8B9D8BB3
:10349000AE8BBF8B8091A5299091A629A091A729D9
:1034A000B091A829888F998FAA8FBB8F80910D2A00
:1034B00090910E2AA0910F2AB091102A8C8F9D8F87
:1034C000AE8FBF8FA5EBB9E29C91C056DF4F9883BA
:1034D000C05AD0401196EC911197CF55DF4FE88339
:1034E000C15AD0401296FC911297CE55DF4FF88307
:1034F000C25AD04013968C911397CD55DF4F8883D5
:10350000C35AD04014969C911497CC55DF4F9883A2
:10351000C45AD0401596EC911597CB55DF4FE883F0
:10352000C55AD0401696FC911697CA55DF4FF883BE
:10353000C65AD04017968C91C053DF4F8883C05D28
:10354000D0408091052A9091062AA091072AB09137
:10355000082A88A399A3AAA3BBA38091092A9091C2
:103560000A2AA0910B2AB0910C2A8CA39DA3AEA38A
:10357000BFA38091AD299091AE29A091AF29B091C0
:10358000B02988A799A7AAA7BBA78091052A9091DF
:10359000062AA091072AB091082A8CA79DA7AEA75A
:1035A000BFA78091092A90910A2AA0910B2AB09175
:1035B0000C2A88AB99ABAAABBBAB8091A1299091A7
:1035C000A229A091A329B091A4298CAB9DABAEAB4D
:1035D000BFAB8091092A90910A2AA0910B2AB09141
:1035E0000C2A88AF99AFAAAFBBAF80919D2990916B
:1035F0009E29A0919F29B091A0298CAF9DAFAEAF1D
:10360000BFAF8091052A9091062AA091072AB09118
:10361000082A24968CAF9DAFAEAFBFAF2497909190
:103620008C29C955DF4F9883C75AD040A0918D2966
:10363000C855DF4FA883C85AD040B0918E29C755CE
:10364000DF4FB883C95AD040E0918F29C655DF4F6C
:10365000E883CA5AD040F0919029C555DF4FF883CE
:10366000CB5AD04080919129C455DF4F8883CC5AE2
:10367000D04090919229C355DF4F9883CD5AD040C6
:10368000A0919329CF52DF4FA883C15DD040809194
:10369000F5299091F629A091F729B091F82928965B
:1036A0008CAF9DAFAEAFBFAF28978091F9299091B5
:1036B000FA29A091FB29B091FC292C968CAF9DAFE3
:1036C000AEAFBFAF2C978091802990918129A091B6
:1036D0008229B091832960968CAF9DAFAEAFBFAF0A
:1036E00060978091F5299091F629A091F729B091E2
:1036F000F82964968CAF9DAFAEAFBFAF6497809151
:10370000F9299091FA29A091FB29B091FC2968969A
:103710008CAF9DAFAEAFBFAF689780917829909185
:103720007929A0917A29B0917B296C968CAF9DAFB5
:10373000AEAFBFAF6C978091F9299091FA29A09113
:10374000FB29B091FC29A0968CAF9DAFAEAFBFAF67
:10375000A0978091742990917529A0917629B091B4
:103760007729A4968CAF9DAFAEAFBFAFA4978091E1
:10377000F5299091F629A091F729B091F829A896FA
:103780008CAF9DAFAEAFBFAFA89790918429C255C3
:10379000DF4F9883CE5AD040A0918529C155DF4F85
:1037A000A883CF5AD040B0918629C055DF4FB88347
:1037B000C05BD040E0918729CF54DF4FE883C15BE5
:1037C000D040F0918829CE54DF4FF883C25BD040BF
:1037D00080918929CD54DF4F8883C35BD04090917D
:1037E0008A29CC54DF4F9883C45BD040A0918B29A9
:1037F000CB54DF4FA883C55BD0408091ED299091D9
:10380000EE29A091EF29B091F029AC968CAF9DAF35
:10381000AEAFBFAFAC978091F1299091F229A09102
:10382000F329B091F429E0968CAF9DAFAEAFBFAF56
:10383000E09780917C2990917D29A0917E29B0917B
:103840007F29E4968CAF9DAFAEAFBFAFE497809178
:10385000ED299091EE29A091EF29B091F029E896F9
:103860008CAF9DAFAEAFBFAFE8978091F12990913B
:10387000F229A091F329B091F429EC968CAF9DAF79
:10388000AEAFBFAFEC978091702990917129A09154
:103890007229B0917329C458DF4F88839983AA8312
:1038A000BB83CC57D0408091F1299091F229A0910F
:1038B000F329B091F429C058DF4F88839983AA83F4
:1038C000BB83C058D040D9018D919D910D90BC9182
:1038D000A02DCC57DF4F88839983AA83BB83C4581C
:1038E000D0408091ED299091EE29A091EF29B091DF
:1038F000F029C857DF4F88839983AA83BB83C858B0
:10390000D040209168293091692940916A295091CD
:103910006B29C457DF4F288339834A835B83CC5894
:10392000D040C554DF4F3881CB5BD0403F93C65465
:10393000DF4F4881CA5BD0404F93C754DF4F588157
:10394000C95BD0405F93C854DF4F8881C85BD040CB
:103950008F93CF56DF4F9881C159D0409F93C05766
:10396000DF4FA881C059D040AF93C153DF4FB8811A
:10397000CF5CD040BF93C253DF4FE881CE5CD040D4
:10398000EF93C353DF4FF881CD5CD040FF93C45316
:10399000DF4F2881CC5CD0402F931F921F93C154DE
:1039A000DF4F3881CF5BD0403F93C254DF4F488117
:1039B000CE5BD0404F93C354DF4F5881CD5BD04096
:1039C0005F93C454DF4F8881CC5BD0408F93CD563A
:1039D000DF4F9881C359D0409F93CE56DF4FA881C7
:1039E000C259D040AF93CD53DF4FB881C35CD040B4
:1039F000BF93CE53DF4FE881C25CD040EF93CF53EB
:103A0000DF4FF881C15CD040FF93C054DF4F288165
:103A1000C05CD0402F93CB56DF4F3881C559D04082
:103A20003F93CC56DF4F4881C459D0404F93C95380
:103A3000DF4F5881C75CD0405F93CA53DF4F888106
:103A4000C65CD0408F93CB53DF4F9881C55CD0408C
:103A50009F93CC53DF4FA881C45CD040AF93C9562D
:103A6000DF4FB881C759D040BF93CA56DF4FE881B6
:103A7000C659D040EF93C553DF4FF881CB5CD0409F
:103A8000FF93C653DF4F2881CA5CD0402F93C753A2
:103A9000DF4F3881C95CD0403F93C853DF4F488126
:103AA000C85CD0404F932F923F920F9359815F9300
:103AB00080E090E00E945E3223E333E343E254E48B
:103AC0000E94B0319F938F937F936F93AA81BB81A4
:103AD000BD0180E090E00E945E3227E137EB41EDCE
:103AE0005EE30E94B0319F938F937F936F93C701E2
:103AF000B6010E94603220E030E040E259E40E94CA
:103B0000B0319F938F937F936F93C856DF4F288177
:103B1000C859D040C756DF4F3881C959D040C65622
:103B2000DF4F4881CA59D040C556DF4F5881CB5925
:103B3000D040C456DF4F6881CC59D040C356DF4FC8
:103B40007881CD59D040C256DF4F8881CE59D040C0
:103B5000C156DF4F9881CF59D0400E9458326B0137
:103B60007C0120E030E44CE955E4C301B2010E943D
:103B70005E33A50194010E945E339B01AC01C70135
:103B8000B6010E94B0319F938F937F936F936C81A6
:103B90007D818E819F810E9460326B017C0120E0DB
:103BA00030E040E853E4688579858A859B850E94EA
:103BB0005E332C853D854E855F850E945E339B017B
:103BC000AC01C701B6010E94B0319F938F937F93E0
:103BD0006F93688979898A899B890E9460326B0119
:103BE0007C0120E030E040E857E46C897D898E89D3
:103BF0009F890E945E339B01AC01C701B6010E9400
:103C0000B0319F938F937F936F93688D798D8A8D59
:103C10009B8D0E9460326B017C0120E030E040E827
:103C200057E46C8D7D8D8E8D9F8D0E945E339B0140
:103C3000AC01C701B6010E94B0319F938F937F936F
:103C40006F93C056DF4F2881C05AD040CF55DF4F09
:103C50003881C15AD040CE55DF4F4881C25AD0403A
:103C6000CD55DF4F5881C35AD040CC55DF4F6881C6
:103C7000C45AD040CB55DF4F7881C55AD040CA5581
:103C8000DF4F8881C65AD040C053DF4F9881C05D56
:103C9000D0400E9458326B017C0120E030E44CE9B6
:103CA00055E468A179A18AA19BA10E945E332CA151
:103CB0003DA14EA15FA10E945E339B01AC01C701F3
:103CC000B6010E94B0319F938F937F936F9368A545
:103CD00079A58AA59BA50E9460326B017C0120E03A
:103CE00030E040E853E46CA57DA58EA59FA50E9419
:103CF0005E3328A939A94AA95BA90E945E339B01BA
:103D0000AC01C701B6010E94B0319F938F937F939E
:103D10006F936CA97DA98EA99FA90E9460326B0147
:103D20007C0120E030E040E857E468AD79AD8AAD31
:103D30009BAD0E945E339B01AC01C701B6010E949E
:103D4000B0319F938F937F936F936CAD7DAD8EADAC
:103D50009FAD0E9460326B017C0120E030E040E8C2
:103D600057E424966CAD7DAD8EAD9FAD24970E9437
:103D70005E339B01AC01C701B6010E94B0319F9335
:103D80008F937F936F93C955DF4F2881C75AD040D7
:103D9000C855DF4F3881C85AD040C755DF4F4881DA
:103DA000C95AD040C655DF4F5881CA5AD040C55570
:103DB000DF4F6881CB5AD040C455DF4F7881CC5A51
:103DC000D040C355DF4F8881CD5AD040CF52DF4F0E
:103DD0009881C15DD0400E9458326B017C0120E087
:103DE00030E44CE955E428966CAD7DAD8EAD9FADC9
:103DF00028970E945E332C962CAD3DAD4EAD5FAD45
:103E00002C970E945E339B01AC01C701B6010E9452
:103E1000B0319F938F937F936F9360966CAD7DAD20
:103E20008EAD9FAD60970E9460326B017C0120E0F7
:103E300030E040E853E464966CAD7DAD8EAD9FAD4F
:103E400064970E945E3368962CAD3DAD4EAD5FAD7C
:103E500068970E945E339B01AC01C701B6010E94C6
:103E6000B0319F938F937F936F936C966CAD7DADC4
:103E70008EAD9FAD6C970E9460326B017C0120E09B
:103E800030E040E857E4A0966CAD7DAD8EAD9FADBF
:103E9000A0970E945E339B01AC01C701B6010E944E
:103EA000B0319F938F937F936F93A4966CAD7DAD4C
:103EB0008EAD9FADA4970E9460326B017C0120E023
:103EC00030E040E857E4A8966CAD7DAD8EAD9FAD77
:103ED000A8970E945E339B01AC01C701B6010E9406
:103EE000B0319F938F937F936F93C255DF4F28819B
:103EF000CE5AD040C155DF4F3881CF5AD040C0553F
:103F0000DF4F4881C05BD040CF54DF4F5881C15B49
:103F1000D040CE54DF4F6881C25BD040CD54DF4FDC
:103F20007881C35BD040CC54DF4F8881C45BD040E4
:103F3000CB54DF4F9881C55BD0400E9458326B0153
:103F40007C0120E030E44CE955E4AC966CAD7DADED
:103F50008EAD9FADAC970E945E33E0962CAD3DAD2B
:103F60004EAD5FADE0970E945E339B01AC01C7018F
:103F7000B6010E94B0319F938F937F936F93E49625
:103F80006CAD7DAD8EAD9FADE4970E9460326B014C
:103F90007C0120E030E040E853E4E8966CAD7DAD74
:103FA0008EAD9FADE8970E945E33EC962CAD3DAD93
:103FB0004EAD5FADEC970E945E339B01AC01C70133
:103FC000B6010E94B0319F938F937F936F93C45833
:103FD000DF4F688179818A819B81CC57D0400E94D4
:103FE00060326B017C0120E030E040E857E4C058CB
:103FF000DF4F688179818A819B81C058D0400E94BF
:104000005E339B01AC01C701B6010E94B0319F93A2
:104010008F937F936F93CC57DF4F688179818A812B
:104020009B81C458D0400E9460326B017C0120E02B
:1040300030E040E857E4C857DF4F688179818A81D2
:104040009B81C858D0400E945E339B01AC01C701E0
:10405000B6010E94B0319F938F937F936F93C457A3
:10406000DF4F688179818A819B81CC58D0400E9442
:104070005E3220E030E44CE955E40E94B0319F9379
:104080008F937F936F938EEC95E29F938F93C95498
:10409000DF4FB881C75BD040BF93CA54DF4FE88180
:1040A000C65BD040EF930E94BB37CDBFDEBFCF527F
:1040B000DF4FCDBFDEBFDF91CF911F910F91FF90FA
:1040C000EF90DF90CF90BF90AF909F908F907F90B8
:1040D0006F905F904F903F902F9008952F923F9256
:1040E0004F925F926F927F928F929F92AF92BF9208
:1040F000CF92DF92EF92FF920F931F93CF93DF93B4
:10410000CDB7DEB7C358D109CDBFDEBFAE968FAFF6
:10411000AE97AF969FAFAF97809167298111FCCF83
:104120006091D8297091D9298091DA299091DB2961
:104130000E945E3220E030E44CE955E40E94B03148
:10414000E0966FAFE097E1967FAFE197E2968FAF91
:10415000E297E3969FAFE3972091CF2991E080E02B
:10416000211190E069969FAF69976A968FAF6A9721
:104170008091E0299091E129A091E229B091E32971
:10418000892B8A2B8B2B69F16091E0297091E129B1
:104190008091E2299091E3290E94603220E030E092
:1041A00040E857E30E945E339B01AC0160E078E594
:1041B00084EA94E40E94B031C158DF4F6883CF573E
:1041C000D040C058DF4F7883C058D040CF57DF4F22
:1041D0008883C158D040CE57DF4F9883C258D04013
:1041E00014C0C158DF4F1882CF57D040C058DF4F9E
:1041F0001882C058D040CF57DF4F1882C158D040E6
:10420000CE57DF4F1882C258D0401091E4296091F8
:10421000D4297091D5298091D6299091D7290E94CF
:104220005E3220E030E44CE955E40E94B031E4967F
:104230006FAFE497E5967FAFE597E6968FAFE69789
:10424000E7969FAFE7972091CE2991E080E021117A
:1042500090E06B969FAF6B976C968FAF6C97609169
:10426000D0297091D1298091D2299091D3290E948F
:104270005E3220E030E44CE955E40E94B031E8962B
:104280006FAFE897E9967FAFE997EA968FAFEA9725
:10429000EB969FAFEB972091CD2991E080E0211123
:1042A00090E06D969FAF6D976E968FAF6E97609111
:1042B000C9297091CA298091CB299091CC290E945B
:1042C0005E322FED36E945E95DE30E945E33EC9600
:1042D0006FAFEC97ED967FAFED97EE968FAFEE97C1
:1042E000EF969FAFEF976091C5297091C629809195
:1042F000C7299091C829611571058105910509F1BA
:104300000E94603220E030E040E857E30E945E33D4
:104310009B01AC0160E078E584EA94E40E94B0314E
:104320006983072F382E292E20E030E040E85FE334
:104330000E94AB3188234CF4198200E0312C212CEF
:1043400004C0198200E0312C212C4CE659E2609126
:10435000DE297091DF292091DC293091DD292A8323
:104360003B83DA019D96CD90DD90ED90FC90D09747
:10437000EDEBF9E2B0816F96BFAF6F972181A09608
:104380002FAFA0973281A1963FAFA1978381A296CC
:104390008FAFA2979481A3969FAFA397A581A49670
:1043A000AFAFA497B681A596BFAFA5972781A69674
:1043B0002FAFA69725EE39E2D90198964D905D90E2
:1043C0006D907C909B979C968D909D90AD90BC90AD
:1043D0009F978091B1299091B229A091B329B09172
:1043E000B4298C839D83AE83BF83D90198968D9128
:1043F0009D910D90BC91A02D88879987AA87BB8736
:10440000D9019C968D919D910D90BC91A02D8C878A
:104410009D87AE87BF878091A9299091AA29A091F5
:10442000AB29B091AC29888B998BAA8BBB8BD90116
:104430009C968D919D910D90BC91A02D8C8B9D8B08
:10444000AE8BBF8BDA01D9968D919D910D90BC9169
:10445000A02D888F998FAA8FBB8FD90198968D91A7
:104460009D910D90BC91A02D8C8F9D8FAE8FBF8F95
:10447000A5EBB9E2EC91A796EFAFA7971196FC9147
:104480001197A896FFAFA89712968C911297A996AC
:104490008FAFA99713969C911397AA969FAFAA974F
:1044A0001496EC911497AB96EFAFAB971596FC91E1
:1044B0001597AC96FFAFAC9716968C911697AD9664
:1044C0008FAFAD9717969C91CD57DF4F9883C35808
:1044D000D040D90190968D919D910D90BC91A02DC9
:1044E00088A399A3AAA3BBA3D90194968D919D916A
:1044F0000D90BC91A02D8CA39DA3AEA3BFA38091D2
:10450000AD299091AE29A091AF29B091B02988A78B
:1045100099A7AAA7BBA7D90190968D919D910D90BF
:10452000BC91A02D8CA79DA7AEA7BFA7D90194963B
:104530008D919D910D90BC91A02D88AB99ABAAABAC
:10454000BBABDA01D5968D919D910D90BC91A02DBC
:104550008CAB9DABAEABBFABD90194968D919D91C9
:104560000D90BC91A02D88AF99AFAAAFBBAFDA0177
:10457000D1968D919D910D90BC91A02D8CAF9DAF4A
:10458000AEAFBFAFD90190968D919D910D90BC912A
:10459000A02D24968CAF9DAFAEAFBFAF2497DA01AC
:1045A00014968D919D910D90BC91A02D28968CAF65
:1045B0009DAFAEAFBFAF2897DA018D919D910D9061
:1045C000BC91A02D2C968CAF9DAFAEAFBFAF2C97FA
:1045D000DA011C968D919D910D90BC91A02D609655
:1045E0008CAF9DAFAEAFBFAF6097DA0118968D91DB
:1045F0009D910D90BC91A02D64968CAF9DAFAEAFF8
:10460000BFAF64978091682990916929A0916A2928
:10461000B0916B2968968CAF9DAFAEAFBFAF689776
:10462000E3969FADE3979F93E296AFADE297AF938A
:10463000E196BFADE197BF93E096EFADE097EF93C2
:104640006A96FFAD6A97FF9369962FAD69972F938E
:10465000CE57DF4F3881C258D0403F93CF57DF4FFE
:104660008881C158D0408F93C058DF4F9881C0587F
:10467000D0409F93C158DF4FA881CF57D040AF9310
:104680001F921F93E796BFADE797BF93E696EFADF6
:10469000E697EF93E596FFADE597FF93E4962FAD90
:1046A000E4972F936C963FAD6C973F936B968FADCD
:1046B0006B978F93EB969FADEB979F93EA96AFAD79
:1046C000EA97AF93E996BFADE997BF93E896EFAD50
:1046D000E897EF936E96FFAD6E97FF936D962FADB3
:1046E0006D972F93EF963FADEF973F93EE968FAD7B
:1046F000EE978F93ED969FADED979F93EC96AFADB0
:10470000EC97AF932F923F920F93B981BF9380E0C4
:1047100090E00E945E3223E333E343E254E40E94DC
:10472000B0319F938F937F936F93EA81FB81BF0199
:1047300080E090E00E945E3227E137EB41ED5EE3DE
:104740000E94B0319F938F937F936F93C701B601FF
:104750000E94603220E030E040E259E40E94B03133
:104760009F938F937F936F936F962FAD6F97A096C4
:104770003FADA097A1964FADA197A2965FADA2972E
:10478000A3966FADA397A4967FADA497A5968FAD82
:10479000A597A6969FADA6970E9458326B017C0103
:1047A00020E030E44CE955E4C301B2010E945E33DD
:1047B000A50194010E945E339B01AC01C701B601C3
:1047C0000E94B0319F938F937F936F936C817D8113
:1047D0008E819F810E9460326B017C0120E030E07D
:1047E00040E853E4688579858A859B850E945E331D
:1047F0002C853D854E855F850E945E339B01AC0113
:10480000C701B6010E94B0319F938F937F936F933E
:10481000688979898A899B890E9460326B017C0151
:1048200020E030E040E857E46C897D898E899F89DB
:104830000E945E339B01AC01C701B6010E94B031FA
:104840009F938F937F936F93688D798D8A8D9B8DC6
:104850000E9460326B017C0120E030E040E857E4C8
:104860006C8D7D8D8E8D9F8D0E945E339B01AC0182
:10487000C701B6010E94B0319F938F937F936F93CE
:10488000A7962FADA797A8963FADA897A9964FAD2D
:10489000A997AA965FADAA97AB966FADAB97AC966A
:1048A0007FADAC97AD968FADAD97CD57DF4F98816B
:1048B000C358D0400E9458326B017C0120E030E4A4
:1048C0004CE955E468A179A18AA19BA10E945E33BD
:1048D0002CA13DA14EA15FA10E945E339B01AC01C2
:1048E000C701B6010E94B0319F938F937F936F935E
:1048F00068A579A58AA59BA50E9460326B017C0101
:1049000020E030E040E853E46CA57DA58EA59FA58E
:104910000E945E3328A939A94AA95BA90E945E3387
:104920009B01AC01C701B6010E94B0319F938F93E8
:104930007F936F936CA97DA98EA99FA90E94603275
:104940006B017C0120E030E040E857E468AD79ADD0
:104950008AAD9BAD0E945E339B01AC01C701B601DD
:104960000E94B0319F938F937F936F936CAD7DAD19
:104970008EAD9FAD0E9460326B017C0120E030E083
:1049800040E857E424966CAD7DAD8EAD9FAD249785
:104990000E945E339B01AC01C701B6010E94B03199
:1049A0009F938F937F936F9328966CAD7DAD8EAD63
:1049B0009FAD28970E94603225E535E545E859E42A
:1049C0000E94B0319F938F937F936F932C966CAD21
:1049D0007DAD8EAD9FAD2C970E94603225E535E50B
:1049E00045E859E40E94B0319F938F937F936F9372
:1049F00060966CAD7DAD8EAD9FAD60970E946032CC
:104A000020E030E040E857E30E945E339F938F93AD
:104A10007F936F9364966CAD7DAD8EAD9FAD6497C3
:104A20000E94603220E030E040E857E30E945E33AD
:104A30009F938F937F936F9368966CAD7DAD8EAD92
:104A40009FAD68970E945E3220E030E44CE955E467
:104A50000E94B0319F938F937F936F938CE696E281
:104A60009F938F93AF96FFADAF97FF93AE962FAD09
:104A7000AE972F930E94BB37CDBFDEBFCD57DF4F20
:104A8000CDBFDEBFDF91CF911F910F91FF90EF90CF
:104A9000DF90CF90BF90AF909F908F907F906F905E
:104AA0005F904F903F902F900895CF93DF93D82F32
:104AB000C92F282F392F4FE150E061E070E08EEED2
:104AC00096E20E9403388D2F9C2F0E94CF2F0E94C8
:104AD000BD2F1F928F938EE097E29F938F93CF937A
:104AE000DF930E94BB378D2F9C2F0E940B302D2F00
:104AF0003C2F4DE150E061E070E08CE197E20E94D4
:104B000003380F900F900F900F900F900F90DF9140
:104B1000CF9108951F920F920FB60F9211240BB6EA
:104B20000F922F923F924F925F926F927F928F924D
:104B30009F92AF92BF92CF92DF92EF92FF920F932C
:104B40001F932F933F934F935F936F937F938F9315
:104B50009F93AF93BF93CF93DF93EF93FF93E0E4E3
:104B6000F6E0D085D470C085C07280858071582EE3
:104B700080858270382E208440906008809168067D
:104B80008073803131F0809168068073803209F043
:104B9000D3C080911002909111022091480625FB0C
:104BA000222720F931E02327E3E6F8E24081518112
:104BB00062817381C52ED62EE72EFF24E7FCFA947E
:104BC0004C195D096E097F09092E000CAA0BBB0B5D
:104BD000BA2FA92F982F8827840F951FA61FB71FBC
:104BE00080839183A283B383E0E4F2E083A180FF1A
:104BF000FDCFE0E4F2E081E083A380899189E3E6E0
:104C0000F8E24481558166817781C52ED62EE72E44
:104C1000FF24E7FCFA944C195D096E097F09092EFF
:104C2000000CAA0BBB0BBA2FA92F982F8827840F33
:104C3000951FA61FB71F84839583A683B783E0E0E3
:104C4000F2E083A580FFFDCFE0E0F2E081E083A702
:104C500082899389E3E6F8E2408551856285738510
:104C6000C52ED62EE72EFF24E7FCFA944C195D09D9
:104C70006E097F09092E000CAA0BBB0BBA2FA92FB6
:104C8000982F8827840F951FA61FB71F80879187AD
:104C9000A287B387E0E4F2E083A580FFFDCFE0E4E4
:104CA000F2E081E083A782899389E3E6F8E2448514
:104CB000558566857785C52ED62EE72EFF24E7FC21
:104CC000FA944C195D096E097F09092E000CAA0B94
:104CD000BB0BBA2FA92F982F8827840F951FA61FCB
:104CE000B71F84879587A687B787822F90E0A0E0BB
:104CF000B0E04089518962897389481759076A076A
:104D00007B0709F45AC1E0E8F6E027E0258328E0B4
:104D10002583E3E6F8E2808B918BA28BB38B8091A5
:104D2000E5289091E628A091E728B091E828848BA7
:104D3000958BA68BB78B41C1209110023091110247
:104D40004091E5295091E629809188068071782E5E
:104D5000E3E6F8E280819181A281B381241B350BC7
:104D6000032E000C440B550BC92EDA2EEB2EFF241C
:104D7000E7FCFA948C199D09AE09BF09CC24D22E08
:104D8000E32EF42E8C0D9D1DAE1DBF1D80839183DF
:104D9000A283B383E0E4F2E083A180FFFDCFE0E4EF
:104DA000F2E081E083A3608971898091E729909185
:104DB000E829E3E6F8E2C480D580E680F780681B46
:104DC000790B072E000C880B990B8D2C9E2CAF2C89
:104DD000BB24A7FCBA94C818D908EA08FB088824A1
:104DE000962EA72EB82EC80CD91CEA1CFB1CC48218
:104DF000D582E682F7820E941834C088D188E28882
:104E0000F3883327F7FC3A952F2D1E2D0D2DC01A50
:104E1000D10AE20AF30AC60ED71EE81EF91EC08A9E
:104E2000D18AE28AF38A6B017C01FF0CCC08DC2C6E
:104E30007601262F372F482F592F6C2D7C2D8C2D46
:104E40009C2DA08CB18CC28CD38CE48CF58C068DFF
:104E5000178D0E943334208F318F428F538F648F90
:104E6000758F868F978FE0E0F2E083A580FFFDCFFE
:104E7000E0E0F2E081E083A7228933894091E929CB
:104E80005091EA29E3E6F8E280859185A285B38511
:104E9000241B350B032E000C440B550BC92EDA2EA8
:104EA000EB2EFF24E7FCFA948C199D09AE09BF098B
:104EB000CC24D22EE32EF42E8C0D9D1DAE1DBF1DD5
:104EC00080879187A287B387E0E4F2E083A580FF23
:104ED000FDCFE0E4F2E081E083A7628973898091ED
:104EE000EB299091EC29E3E6F8E2C484D584E684CA
:104EF000F784681B790B072E000C880B990B8D2CFF
:104F00009E2CAF2CBB24A7FCBA94C818D908EA0879
:104F1000FB088824962EA72EB82EC80CD91CEA1C94
:104F2000FB1CC486D586E686F7860E941834C488A2
:104F3000D588E688F7883327F7FC3A952F2D1E2D64
:104F40000D2DC01AD10AE20AF30AC60ED71EE81EBA
:104F5000F91EC48AD58AE68AF78A6B017C01FF0CA8
:104F6000CC08DC2C7601262F372F482F592F6C2D9B
:104F70007C2D8C2D9C2DA0A0B1A0C2A0D3A0E4A01C
:104F8000F5A006A117A10E94333420A331A342A3A8
:104F900053A364A375A386A397A380A5781669F08D
:104FA00070A68091E5289091E628A091E728B0911D
:104FB000E82881A792A7A3A7B4A7E0E0F2E083A91D
:104FC00080FFFDCFE0E0F2E081E083AB848995894A
:104FD000873D924094F41092622880916128882342
:104FE00009F467C0809160288F5F809360288530C6
:104FF00008F45FC0109261285CC010926028809114
:105000006128811156C0809162288F5F8093622849
:10501000853008F44EC081E080936128E0ECF8E22E
:1050200080819181A281B3810196A11DB11D8083F0
:105030009183A283B3838091E5289091E628A09183
:10504000E728B091E82840915C2850915D28609154
:105050005E2870915F28841B950BA60BB70B8238D6
:105060009640A105B10578F48091E5289091E62855
:10507000A091E728B091E828841B950B8093062027
:105080009093072006C082E896E0809306209093D4
:1050900007208091E5289091E628A091E728B0911B
:1050A000E82880935C2890935D28A0935E28B093B5
:1050B0005F288091E5289091E628A091E728B0919B
:1050C000E82840915C2850915D2860915E2870919D
:1050D0005F28841B950BA60BB70B83389640A10560
:1050E000B10538F082E896E080930620909307207F
:1050F00027C0C090E528D090E628E090E728F090FF
:10510000E828C41AD50AE60AF70A80910620909189
:105110000720092E000CAA0BBB0B8C159D05AE05B4
:10512000BF0570F48091E5289091E628A091E728CA
:10513000B091E828841B950B80930620909307205C
:10514000ECEBF8E280819181A281B381492F5A2F43
:105150006B2F772767FD7A958C019D01041B150B3A
:10516000260B370B8091062090910720092E000C0A
:10517000AA0BBB0BBA2FA92F982F8827800F911F3E
:10518000A21FB31F80839183A283B383E0E4F2E084
:1051900083A980FFFDCFE0E4F2E081E083AB848966
:1051A0009589E3E6F8E245A556A567A570A9C52E41
:1051B000D62EE72EFF24E7FCFA944C195D096E0900
:1051C0007F09092E000CAA0BBB0BBA2FA92F982F11
:1051D0008827840F951FA61FB71F85A796A7A7A787
:1051E000B0ABE0E0F2E083AD80FFFDCF81E08093E3
:1051F0003B02E0E4F2E083AD80FFFDCF81E08093ED
:105200007B0280915B28882309F4C1C0612C6894DB
:10521000772471F8D30156962D913C915797A5EEBE
:10522000B9E25C968D919C915D97E3E6F8E2C1ACA2
:10523000D2ACE3ACF4AC281B390B032E000C440BAE
:10524000550B8D2C9E2CAF2CBB24A7FCBA94C818F0
:10525000D908EA08FB088824922EA32EB42EC80C85
:10526000D91CEA1CFB1CC1AED2AEE3AEF4AEE0E446
:10527000F2E0668977895E968D919C915F97A0EAAE
:10528000B8E2CD90DD90ED90FC901397681B790B00
:10529000072E000C880B990B8D2C9E2CAF2CBB2459
:1052A000A7FCBA94C818D908EA08FB088824962EE7
:1052B000A72EB82EC80CD91CEA1CFB1CCD92DD927F
:1052C000ED92FC9213970E941834A8EAB8E2CD90B0
:1052D000DD90ED90FC9013973327F7FC3A952F2D36
:1052E0001E2D0D2DC01AD10AE20AF30AC60ED71ED2
:1052F000E81EF91ECD92DD92ED92FC921397A4EB7D
:10530000B8E2660F771F881F991F6B017C01FF0CA5
:10531000CC08DC2C7601262F372F482F592F6C2DE7
:105320007C2D8C2D9C2DAC901196BC9011971296D3
:10533000CC9012971396DC9013971496EC901497D8
:105340001596FC90159716960C91169717961C912A
:1053500017970E9433342C9311963C931197129611
:105360004C93129713965C93139714966C9314971F
:1053700015967C93159716968C93169717969C9373
:1053800081E6D301D9968C9389E281AFA0C0612CCC
:105390006894772471F8F30126893789A5EEB9E27C
:1053A00058968D919C915997E3E6F8E2C1A8D2A84E
:1053B000E3A8F4A8281B390B032E000C440B550B53
:1053C0008D2C9E2CAF2CBB24A7FCBA94C818D908EE
:1053D000EA08FB088824922EA32EB42EC80CD91CF0
:1053E000EA1CFB1CC1AAD2AAE3AAF4AA6091560245
:1053F000709157025A968D919C915B97C5A8D6A83B
:10540000E7A8F0AC681B790B072E000C880B990BF2
:105410008D2C9E2CAF2CBB24A7FCBA94C818D9089D
:10542000EA08FB088824962EA72EB82EC80CD91C93
:10543000EA1CFB1CC5AAD6AAE7AAF0AE0E94183443
:10544000E4EAF8E2C080D180E280F3803327F7FC01
:105450003A952F2D1E2D0D2DC01AD10AE20AF30AFE
:10546000C60ED71EE81EF91EC082D182E282F382E8
:10547000ECEAF8E2DC01CB01880F991FAA1FBB1FE1
:105480006C017D01FF0CCC08DC2C7601282F392F14
:105490004A2F5B2F6C2D7C2D8C2D9C2DA080B180F4
:1054A000C280D380E480F580068117810E94333466
:1054B00020833183428353836483758386839783F8
:1054C00089E5D301D9968C9389E38093790281E0B1
:1054D00090915B28911180E080935B2831102FC060
:1054E0008091D5289091D628292F3327821B930BA2
:1054F00026FC05C08093D5289093D62806C08150FD
:105500009F4F8093D5289093D628E3EDF8E28081D1
:105510009181292F33278C01021B130B842D90E0DE
:1055200040915A28841B9109880F991F880F991F51
:10553000880F991F800F911F8083918308C010925C
:10554000D5281092D6281092D3281092D4284092B1
:105550005A288091C428851591F05092C4288091D2
:10556000E5289091E628A091E728B091E82880935B
:10557000C7289093C828A093C928B093CA288091BF
:10558000C5288D1709F44AC0D093C5288091E52815
:105590009091E628A091E728B091E8288093CB2845
:1055A0009093CC28A093CD28B093CE28D1112FC0B2
:1055B0008091BC289091BD28A091BE28B091BF28B1
:1055C000009710EDA107B10514F521E020935928AB
:1055D00022E02093DB288093D7289093D828A093AB
:1055E000D928B093DA288093552890935628A09311
:1055F0005728B093582888E893E1809353289093D4
:105600005428E0E8F6E085E08583268307C0109201
:1056100059288091C6288C1306C010C18091C628D5
:105620008C1709F473C0C093C6288091E528909127
:10563000E628A091E728B091E8288093CF2890939E
:10564000D028A093D128B093D228C1115CC081E0AA
:10565000809359288091BC289091BD28A091BE28A4
:10566000B091BF288093552890935628A09357282F
:10567000B09358284091E0285091E1286091E228A9
:105680007091E328481759076A077B07A4F48091B3
:10569000E0289091E128A091E228B091E32880933E
:1056A000D7289093D828A093D928B093DA2887E0F8
:1056B0008093DB280BC08093D7289093D828A093A1
:1056C000D928B093DA2882E08093DB2888E893E138
:1056D00080935328909354288091DB28811104C033
:1056E00087E08093860612C0873019F48093850680
:1056F0000DC080958770E0E8F6E085838091DB2817
:105700008770868303C01092592898C080915928C9
:10571000882309F493C080915328909154280197CD
:105720008093532890935428892B09F087C0C11186
:1057300016C08091E428882391F08091DC28909114
:10574000DD28A091DE28B091DF288093D7289093A0
:10575000D828A093D928B093DA281092E428809111
:10576000BC289091BD28A091BE28B091BF2840913F
:10577000D7285091D8286091D9287091DA284817F5
:1057800059076A077B07ACF40091552810915628F9
:105790002091572830915828081719072A073B07E6
:1057A00044F42091DB28273020F42F5F2093DB285E
:1057B00019C084179507A607B707A4F44091552888
:1057C0005091562860915728709158288417950752
:1057D000A607B7073CF48091DB28882339F0815075
:1057E0008093DB288091DB28811104C087E08093BF
:1057F00086060EC0873019F48093850609C080950F
:105800008770E0E8F6E085838091DB2887708683E7
:1058100088E893E180935328909354288091BC2882
:105820009091BD28A091BE28B091BF2880935528A3
:1058300090935628A0935728B09358288091E92830
:105840008823E1F089E7E3E6F8E2AEEEB8E2019002
:105850000D928A95E1F78091E5289091E628A09134
:10586000E728B091E8288093EA289093EB28A0934A
:10587000EC28B093ED281092E9281FC08091672989
:105880008823D9F089E7E3E6F8E2ACE6B9E20190D3
:105890000D928A95E1F78091E5289091E628A091F4
:1058A000E728B091E8288093682990936929A0930C
:1058B0006A29B0936B29109267298091E52890910D
:1058C000E628A091E728B091E8280196A11DB11D16
:1058D0008093E5289093E628A093E728B093E828E2
:1058E000FF91EF91DF91CF91BF91AF919F918F91F8
:1058F0007F916F915F914F913F912F911F910F91E8
:10590000FF90EF90DF90CF90BF90AF909F908F90DF
:105910007F906F905F904F903F902F900F900BBEB5
:105920000F900FBE0F901F901895AC01FB01808166
:10593000982F9D7F953281F0811119C020E00DC014
:105940009D932F5F2E3471F09191392F3D7F353229
:1059500021F09111F5CF01C020E0FA01E20FF11D15
:1059600010820895FA01E35BFF4F10820895DA0177
:105970008D93FB01319621E0E7CF88E090E20E9411
:10598000952C80E090E0089581EB9AE20E94952C9E
:1059900080E090E0089583E69AE20E94952C80E0F2
:1059A00090E0089585E19AE20E94952C80E090E0D5
:1059B00008956DEB7CE28AE397E20E94F80164ECC3
:1059C0007CE28FE397E20E94F8016BEC7CE284E4D6
:1059D00097E20E94F80162ED7CE289E497E20E947E
:1059E000F801089525E13AE23F932F9323E63AE246
:1059F0003F932F9321EB3AE23F932F9328E030E23D
:105A00003F932F932EE437E23F932F939F938F93EF
:105A10000E94BB378DB79EB70C968DBF9EBF089571
:105A2000CF93DF93F8941092A4081092B40820EA60
:105A300039E0D90114961C92C0EBD9E01C82109277
:105A4000A40A1092B40A60EA7BE0FB011482E0E64B
:105A5000F6E088E1828B868B40EA56E0DA015296C6
:105A60008C93529798E8958392E096839AE8918375
:105A700094E4928398E015969C93159711969C93C5
:105A8000119794E012969C9390E1908B948B958B58
:105A900045EFF901468390EB97834E839F839CE00B
:105AA000DB0116969C93169792EB17969C9317978B
:105AB00084838C8314968C93149780E283838B83E6
:105AC00013968C93E0EAF0E0828183608283DF9119
:105AD000CF9108958091CF2D9091CE2D891710F000
