S02100004832415F5345434F4D5F4D6F746F724472697665725F365F322E7372656370
S11300000C94AF010C94D0010C94D0010C94D00149
S11300100C94D0010C94D0010C94D0010C94D00118
S11300200C94D0010C94D0010C94D0010C94D00108
S11300300C94D0010C94D0010C94D0010C94D001F8
S11300400C94D0010C94D0010C94D0010C94D001E8
S11300500C94D0010C94D0010C94D0010C94D001D8
S11300600C94D0010C94D0010C94D0010C94D001C8
S11300700C94D0010C94D0010C94D0010C94D001B8
S11300800C94D0010C94D0010C94D0010C94D001A8
S11300900C94D0010C94D0010C94D0010C94D00198
S11300A00C94D0010C94D0010C94D0010C94D00188
S11300B00C94D0010C94D0010C94D0010C94D00178
S11300C00C94D0010C94D0010C94D0010C94D00168
S11300D00C94D0010C94D0010C94D0010C94D00158
S11300E00C94D0010C94D0010C94D0010C94D00148
S11300F00C94D0010C94D0010C94D0010C94D00138
S11301000C94D0010C94D0010C94D0010C94D00127
S11301100C94D0010C94D0010C94D0010C94DD25E6
S11301200C94D0010C94D0010C94D0010C94D00107
S11301300C94D0010C94D0010C94D0010C94D001F7
S11301400C94D0010C94D0010C94D0010C94D001E7
S11301500C94D0010C94D0010C94D0010C94D001D7
S11301600C94DD2E0C94052F0C94362F0C94532FE5
S11301700C947B2F0C94D0010C94D0010C94D001DE
S11301800C94D0010C94D0010C94D0010C94D001A7
S11301900C94D0010C94D0010C94D0010C94D00197
S11301A00C94D0010C94D0010C94D0010C94D00187
S11301B00C94D0010C94D0010C94D0010C94D00177
S11301C00C94D0010C94D0010C94D0010C94D00167
S11301D00C94D0010C94D0010C94D0010C94AC2F4D
S11301E00C94D42F0C94D0010C94D0010C94D00115
S11301F00C94D0010C94D0010C94D0010C94FF0AFF
S11302000C94E10B0C94490C0C94442D0C94FD0CAF
S11302100C943F0B0C94290E0C941B0F0C949D0A08
S11302200C94670D0C94770B0C94530F0C94830E61
S11302300C94E1090C943D2D0C94230A0C94DB09D5
S11302400C94AD2E0C942F2D0C94CF0D0C94C10E48
S11302500C94A30C0C94362D0C94650A6E616E00FC
S1130260696E660000407A10F35A00A0724E1809B5
S11302700010A5D4E80000E87648170000E40B5409
S1130280020000CA9A3B000000E1F50500008096D8
S11302909800000040420F000000A086010000000A
S11302A0102700000000E8030000000064000000C4
S11302B000000A00000000000100000000002C768D
S11302C0D888DC674F0823DFC1DFAE59E1B1B796A8
S11302D0E5E3E453C63AE651997696E8E6C2842605
S11302E0EB898C9B62ED407C6FFCEFBC9C9F40F2E1
S11302F0BAA56FA5F490055A2AF75C936B6CF9675D
S11303006DC11BFCE0E40D47FEF520E6B500D0ED21
S1130310902E0300943577050080841E0800002089
S11303204E0A000000C80C333333330F986E128327
S11303301141EF8D2114893BE65516CFFEE6DB18FB
S1130340D1844B381BF77C1D901DA4BBE4242032C0
S113035084725E228100C9F124ECA1E53D271124B9
S11303601FBECFEFCDBFDFE5DEBF00E00CBF17E25D
S1130370A0E0B0E2E8EFFCE700E00BBF02C00790AA
S11303800D92A83AB107D9F72EE2A8EAB7E201C064
S11303901D92AC3AB207E1F70E9407060C947A3E2C
S11303A00C9400000F93CF93DF931F92CDB7DEB769
S11303B02FB72983F8941BBEFC0108ED04BF6083AA
S11303C089818FBF0F90DF91CF910F9108956111B3
S11303D002C090E001C090E2842B892B80935200EC
S11303E008956F71862B809355000895E0E5F0E041
S11303F09081282F209592239083908189230895BA
S11304000F931F93CF93C82F00E410E0F80160818D
S1130410687F682B80E490E00E94D201F80180811B
S11304208C23CF911F910F9108958093032890936B
S1130430042810920128109202281092FF2710928B
S113044000281092FD271092FE271092FB2710928D
S1130450FC2708958F929F92AF92BF92CF92DF9222
S1130460EF92FF920F931F93CF93DF934C016B0195
S11304705A01790100910128109102280F5F1F4F42
S11304808BE0809FE001819FD00D1124BE018091FB
S1130490FD279091FE270E947F398093FD2790933A
S11304A0FE270097B9F02B97C80FD91F44E050E0FE
S11304B0B401CE010E94953C1C82A986BA86CF82E3
S11304C0D886ED82FE82009301281093022880E0F2
S11304D090E002C081E090E0DF91CF911F910F91F5
S11304E0FF90EF90DF90CF90BF90AF909F908F9050
S11304F00895AF92BF92CF92DF92EF92FF920F9343
S11305001F93CF93DF935C016B01E090FF27F09082
S113051000288FEFE81AF80A8701000F111F000F57
S1130520111F000F111F0E191F09B8018091FB271D
S11305309091FC270E947F398093FB279093FC279E
S11305400097A9F007501109EC01C00FD11F44E036
S113055050E0B501CE010E94953C1C82CD82DE8222
S1130560E092FF27F092002880E090E002C081E052
S113057090E0DF91CF911F910F91FF90EF90DF906A
S1130580CF90BF90AF9008950F931F93CF93DF93B5
S1130590809101289091022818161906E4F400E0CD
S11305A010E0C0E0D0E08091FD279091FE27800FFD
S11305B0911FDC011996ED91FC911A97309709F07F
S11305C019952196055F1F4F80910128909102286B
S11305D0C817D90744F3DF91CF911F910F91089564
S11305E09F92AF92BF92CF92DF92EF92FF920F93BE
S11305F01F93CF93DF93CDB7DEB72597CDBFDEBF73
S1130600D82EC92E8B01685F7F4F44E050E0CE01A5
S113061001960E94953C1D8244E050E064EC70E237
S1130620CE0101960E94873C892B41F04091FF271F
S1130630509100281416150624F080C00E94C402AC
S113064099C0A090FB27B090FC2739816A817B81F7
S11306509C80F501EE24EA94FE2C80E090E0DF011A
S113066020812A3211F0231317C011962C9111976F
S11306702A3211F0261310C012962C9112972A32A6
S113068011F0271309C013962C912A3221F0291155
S113069003C07C0101C07C010196379648175907B5
S11306A0F1F68FEFE816F80609F448C0B801645F64
S11306B07F4FC701880F991F880F991F880F991FB3
S11306C08E199F09F501E80FF91F0580F681E02DC9
S11306D0CE0101961995892BA1F4809104288F935A
S11306E0809103288F9389EC90E29F938F931F92BC
S11306F08DE48F93CF92DF920E943D3DCDBFDEBF4C
S113070039C0ED2DFC2DDF010D900020E9F780911B
S113071004288F93809103288F9382ED90E29F9316
S11307208F93EA1BFB0BE15BFF4FFF93EF93CF9299
S1130730DF920E943D3DCDBFDEBF1CC0ED2DFC2DE0
S1130740DF010D900020E9F7809104288F938091B8
S113075003288F9381EE90E29F938F93EA1BFB0B08
S1130760E15BFF4FFF93EF93CF92DF920E943D3DF9
S1130770CDBFDEBF2596CDBFDEBFDF91CF911F91E8
S11307800F91FF90EF90DF90CF90BF90AF909F902C
S11307900895CF93DF93EC0107C00E940D2E86E6E7
S11307A094E000000197E9F789918111F6CF8DE07B
S11307B00E940D2E8AE00E940D2EDF91CF910895A4
S11307C01F93CF93DF93EC0110E020C00E94E72D2C
S11307D09DED980F923018F48883198217C0988180
S11307E09352923098F4FE0101900020E9F731977A
S11307F0EC1BFD0BE23550F49E012E0F311DF90167
S11308008083118211E08A3009F010E00E94DC2D0F
S1130810882311F01123D1F2812FDF91CF911F9101
S113082008954F925F926F927F928F929F92AF92B0
S1130830BF92CF92DF92EF92FF920F931F93CF93C9
S1130840DF93CDB7DEB72597CDBFDEBF8C014AE07D
S113085050E060E070E001960E94643AF801208163
S1130860233209F0BDC18481E0900328F09004286C
S1130870E616F70619F0672B21F0B4C1E114F10470
S113088049F4833509F0A8C1B80188EA97E20E94C7
S1130890F002A2C1893401F130F4813459F0873473
S11308A009F4C5C066C1833509F45EC1873509F40E
S11308B069C05FC1FF92EF928DEF90E29F938F9397
S11308C01F928DE48F9388EA97E29F938F930E94FF
S11308D03D3DCDBFDEBF4DC14AE050E060E070E079
S11308E0C80105960E94643A16161706B4F540919D
S11308F0012850910228461757077CF12BE0269FC8
S1130900F001279FF00D11249F012B503109E09134
S1130910FD27F091FE27E20FF31F7F936F9326814B
S11309202F9325812F93FF93EF937F936F93809160
S113093004288F93809103288F9385E191E29F93FC
S11309408F931F928DE48F9388EA97E29F938F93FE
S11309500E943D3DCDBFDEBF0CC17F936F9380915C
S113096004288F93809103288F9382E391E29F93CD
S11309708F9388EA97E29F938F930E94743DCDBF33
S1130980DEBFF7C04AE050E060E070E0C8010596C1
S11309900E94643A9B01161617068CF54091FF27B6
S11309A0509100284617570754F1220F331F220F86
S11309B0331F220F331F261B370B27503109409159
S11309C0FB275091FC27240F351F3F932F937F93D0
S11309D06F93809104288F93809103288F9381E5EE
S11309E091E29F938F931F928DE48F9388EA97E20D
S11309F09F938F930E943D3DCDBFDEBFBAC07F93CE
S1130A006F93809104288F93809103288F938BE6B2
S1130A1091E29F938F931F928DE48F9388EA97E2DC
S1130A209F938F930E943D3DCDBFDEBFA2C044E0A3
S1130A3050E0B8016B5F7F4FCE0101960E94953C58
S1130A401D828090012890900228181419040CF03B
S1130A5078C0DE011196FD0101900020E9F731977D
S1130A603F016A1A7B0AA090FD27B090FE27442418
S1130A704A94542CC12CD12CA301B501CE0101966A
S1130A800E94873C892B09F426019FEFC91AD90AD1
S1130A90EBE0AE0EB11CC814D90471F7FFEF4F168A
S1130AA05F0609F44EC0FF92EF9284E891E29F93AF
S1130AB08F930F2EF8EAEF2EF7E2FF2EF02DFF9220
S1130AC0EF920E94743DF70101900020E9F73197FD
S1130AD0E85AF7424DE450E04E1B5F0BBF016855E6
S1130AE0784D2BE0249DC001259D900D1124E091AB
S1130AF0FD27F091FE27E80FF91F0780F085E02D10
S1130B00CE01019619950F900F900F900F900F90B2
S1130B100F90892B71F1809104288F938091032881
S1130B208F938BE891E29F938F93C7019F93EF92EA
S1130B300E94743D0F900F900F900F900F900F90A4
S1130B4018C0FF92EF9281EA91E29F938F9388EA13
S1130B5097E29F938F930E94743D0F900F900F9094
S1130B600F900F900F9005C0B80188EA97E20E9499
S1130B70F0028091A927853261F0882361F0EAEAC6
S1130B80F7E290E098278191853231F08111FACF14
S1130B9003C090E001C090E0E8EAF7E20190002091
S1130BA0E9F73197E85AF7421F929F938BEB91E252
S1130BB09F938F9383E590E08E1B9F0B9F938F935E
S1130BC0E855F84DFF93EF930E943D3D88EA97E284
S1130BD00E94C903CDBFDEBFF801108281E003C0CB
S1130BE080E001C080E02596CDBFDEBFDF91CF91CC
S1130BF01F910F91FF90EF90DF90CF90BF90AF9037
S1130C009F908F907F906F905F904F9008954BE0EE
S1130C1060E080EC0E94E701E0E5F0E0808188601C
S1130C208083818183FFFDCF62E080EC0E94F1012B
S1130C30E0E5F0E0808180618083818184FFFDCFE5
S1130C4084E00E94000281E00E94F60182E00E949A
S1130C50F601E0E4F6E08FE7828380E1808BE0E652
S1130C60F6E091E09283808BE0E8F6E08FEC8083FD
S1130C708FE08683E0EAF6E089EF808388E3868369
S1130C800E9474310E9405300E94822D0E942E30F1
S1130C9090E00E9415020E94B50F0E9470070E9406
S1130CA04B2D789486E590E20E94A825C0E0312C73
S1130CB0412C512C3201812C912C540100EA16E074
S1130CC0D0E30E9415070E94512E8823E1F00E9470
S1130CD05C2E833451F0833641F08B3151F461E062
S1130CE089E790E00E94D20104C086E590E20E9468
S1130CF04E120E9459184B015C010E9459186B0155
S1130D007C01C1E007C00E9459186B017C01CC230F
S1130D1009F484C0D701C60188199909AA09BB0935
S1130D2088389341A105B10508F078C062C082E01B
S1130D30381609F441C0831530F0332041F0E1E066
S1130D403E1621F154C0F3E03F1251C03FC0C41815
S1130D50D508E608F70820ECC21626ECD2062DE2E8
S1130D60E206F10468F080EC480E86EC581E8DE231
S1130D70681E711C86E590E20E94A825C0E039C077
S1130D800E945518C0E03324339433C08091680620
S1130D90807349F486E590E20E947618C0E0689476
S1130DA0332431F826C086E590E20E949A20C0E000
S1130DB06894332431F81DC086E590E20E9423092B
S1130DC0C0E00F2EF3E03F2EF02D13C086E590E235
S1130DD00E94642D26E530E243E050E061E070E0DB
S1130DE082EC91E20E94FB3CC0E0312C02C0C0E0E6
S1130DF0312C0E94DC2D882319F0F801D68302C01F
S1130E00F801D58385E098E20E94E003813009F07F
S1130E1058CF85E098E20E94110453CF0E94712EAE
S1130E20863908F084CFC0E0E4CF08950F931F9370
S1130E30CF93DF93413021F491E09093460640C074
S1130E4090E8909346063CC09683DE01022E02C0D1
S1130E50AA0FBB1F0A94E2F7AA2324F4D80115961B
S1130E608C9303C0D80116968C9395832F5F3F4FC4
S1130E702830310549F780E090E0E0E6F6E021E033
S1130E8070E0C0E8D6E030E42683DB01082E02C01F
S1130E90AA0FBB1F0A94E2F7AA2314F43D8301C0EE
S1130EA03E83258301968830910571F7413021F402
S1130EB081E0809345060FC080E8809345060BC00F
S1130EC020E030E0E0E6F6E091E0C82FD0E000E872
S1130ED016E080E4B9CFDF91CF911F910F9108956F
S1130EE0CF93DF93A0E8B6E020E411962C931197FA
S1130EF0E0E4F6E081E0818390E89183C0E6D6E007
S1130F0089838D8316962C93169785839583809376
S1130F10A20612969C9340E067E480E20E941607C2
S1130F2040E068E081E20E94160740E064E984E260
S1130F300E94160740E060E285E20E94160740E046
S1130F4060E086E20E94160741E06FE880E20E94BA
S1130F50160741E060E081E20E941607DF91CF911D
S1130F6008954F925F927F928F929F92AF92BF9219
S1130F70CF92DF92EF92FF920F931F93CF93DF9361
S1130F80762E413021F491E09093460603C090E818
S1130F9090934606806860E070E0A82FB0E00F2EC2
S1130FA0F0E8EF2EF6E0FF2EF02D80E4E0E6F6E028
S1130FB091E09D01062E02C0220F331F0A94E2F72E
S1130FC027FF03C0E7018D8302C0E7018E83968368
S1130FD095836F5F7F4F6830710559F780E4809384
S1130FE0850698E020E030E0E0E0F0E0C0E6D6E0FE
S1130FF051E00F2EF0EACF2EF6E0DF2EF02D0F2E6B
S1131000F0E8EF2EF6E0FF2EF02D5E835D83D6012F
S113101018968C91EE0FFF1FFF2780FB442440F8A5
S1131020512CE429F529D7011896AC904901880C74
S1131030991C99242A2DAA0C330B5901AA24BB0C00
S1131040AA1CBB249501282939299150F1F6B1E055
S1131050B715D8F580E090E0C0E0D0E00F2EF0E6C0
S1131060EF2EF6E0FF2EF02D51E00F2EF0EAAF2E1A
S1131070F6E0BF2EF02D0F2EF0E8CF2EF6E0DF2E97
S1131080F02DD70116965C93D50118969C90CC0F41
S1131090DD1FDD27092D017010E0C02BD12BD601F7
S11310A018969C90880F991F9927A92D990CBB0B12
S11310B0AA27BB0FAA1FBB278A2B9B2BD7011596E8
S11310C05C9361507109E9F604C080E090E0C0E0EF
S11310D0D0E0413041F481E0809345069C2F88277D
S11310E08E2B9F2B07C040E840934506982F8827F6
S11310F0822B932BDF91CF911F910F91FF90EF9053
S1131100DF90CF90BF90AF909F908F907F905F9033
S11311104F90089540E062E085EC0E94B107BC0165
S1131120990F880B990B0E94D33220E030E040E005
S11311305EE30E94D1330895811106C040E062E06D
S113114088EC0E94B10712C0813031F440E062E0C3
S11311508AEC0E94B1070AC0823031F440E062E0B8
S11311608CEC0E94B10702C080E090E0BC01990FB2
S1131170880B990B0E94D33220E030E04AE754E414
S11311800E9423322AE037ED43E25EE30E94D1332A
S11311900895811106C040E062E088EE0E94B10724
S11311A012C0813031F440E062E08AEE0E94B1075F
S11311B00AC0823031F440E062E08CEE0E94B10754
S11311C002C080E090E0BC01990F880B990B0E944B
S11311D0D33220E030E04AE754E40E94233223EC87
S11311E035EF4CE151E40E94D13323E23BED49EF6A
S11311F05DE30E94D1330895811106C041E062E0AD
S113120088E60E94B10712C0813031F441E062E007
S11312108AE60E94B1070AC0823031F441E062E0FC
S11312208CE60E94B10702C080E090E0BC01990FF7
S1131230880B990B0E94D33229E23CE54FE05CE332
S11312400E94D13308952F923F924F925F926F92F2
S11312507F928F929F92AF92BF92CF92DF92EF9242
S1131260FF920F931F93CF93DF93CDB7DEB76697AB
S1131270CDBFDEBF8B8B9C8B0E948A08562E472ED7
S1131280382E292E82E00E94FC08962E872E782E76
S1131290692E81E00E94FC0869837A83B82EA92E06
S11312A080E00E94FC086B837C838D839E8382E0B4
S11312B00E949C086F83788789879A8781E00E94BF
S11312C09C086B877C878D879E8780E00E949C08A2
S11312D06F87788B898B9A8B82E00E94C908F62EDF
S11312E0E72ED82EC92E81E00E94C9086D8B7E8B13
S11312F0182F092F80E00E94C9082F923F924F9225
S11313005F926F927F928F929F92AF92BF922A8147
S11313102F9329812F932E812F932D812F932C810D
S11313202F932B812F932A852F9329852F932885FB
S11313302F932F812F932E852F932D852F932C85DB
S11313402F932B852F932A892F9329892F932889CB
S11313502F932F852F93CF92DF92EF92FF920F93CB
S11313601F932E892F932D892F939F938F937F9370
S11313706F9386EC91E29F938F938C898F939B89D3
S11313809F930E94AF3CCDBFDEBF6696CDBFDEBF4C
S1131390DF91CF911F910F91FF90EF90DF90CF904D
S11313A0BF90AF909F908F907F906F905F904F9081
S11313B03F902F90089581E08093F32880E090E09F
S11313C00895FF920F931F93CF93DF938B01EA014C
S11313D060916529709166298091672990916829A7
S11313E0F0905B290E94D13220E030E44CE955E4CE
S11313F00E9423329F938F937F936F9381E090E0B9
S1131400F11080E09F938F9389EF91E29F938F93E4
S1131410DF93CF931F930F930E943D3DEDB7FEB72B
S11314203C96EDBFFEBF8C179D072CF0F80110828F
S113143081E090E002C080E090E0DF91CF911F91C5
S11314400F91FF900895FF920F931F93CF93DF9313
S11314508B01EA0160915D2970915E2980915F2979
S113146090916029F09059290E94D13220E030E413
S11314704CE955E40E9423329F938F937F936F939B
S113148081E090E0F11080E09F938F9389EF91E2E7
S11314909F938F93DF93CF931F930F930E943D3DB0
S11314A0EDB7FEB73C96EDBFFEBF8C179D072CF041
S11314B0F801108281E090E002C080E090E0DF91CA
S11314C0CF911F910F91FF9008950F931F93CF9386
S11314D0DF938B01EA01609125297091262980917F
S11314E02729909128290E94D33220E030E040E25D
S11314F059E40E9423329F938F937F936F9381E0EB
S113150092E29F938F93DF93CF931F930F930E9445
S11315103D3DEDB7FEB73A96EDBFFEBF8C179D0774
S11315202CF0F801108281E090E002C080E090E0AD
S1131530DF91CF911F910F910895CF92DF92EF9297
S1131540FF920F931F93CF93DF938B01EA01609176
S113155051297091522980915329909154296115F0
S113156071058105910509F10E94D33220E030E034
S113157040E857E30E94D1339B01AC0160E070E87E
S11315808BE894E40E942332F62EE72ED82EC92E3F
S113159020E030E040E85FE30E941E3288234CF4F0
S11315A0F12CE12CD12CC12C04C0F12CE12CD12C38
S11315B0C12CCF92DF92EF92FF9281E092E29F934F
S11315C08F93DF93CF931F930F930E943D3DEDB70D
S11315D0FEB73A96EDBFFEBF8C179D072CF0F801BD
S11315E0108281E090E002C080E090E0DF91CF9132
S11315F01F910F91FF90EF90DF90CF900895FF928D
S11316000F931F93CF93DF938B01EA01E8EFF8E286
S113161061A572A583A594A5F0A40E94D13220E00F
S113162030E44CE955E40E9423329F938F937F93D7
S11316306F9381E090E0F11001C080E09F938F935D
S113164089EF91E29F938F93DF93CF931F930F932F
S11316500E943D3DEDB7FEB73C96EDBFFEBF8C1733
S11316609D072CF0F801108281E090E002C080E038
S113167090E0DF91CF911F910F91FF9008950F9308
S11316801F93CF93DF938B01EA016091F42870914B
S1131690F5288091F6289091F7280E94D13220E015
S11316A030E44CE955E40E9423329F938F937F9357
S11316B06F938CEF91E29F938F93DF93CF931F935C
S11316C00F930E943D3DEDB7FEB73A96EDBFFEBFC6
S11316D08C179D072CF0F801108281E090E002C085
S11316E080E090E0DF91CF911F910F9108954F9288
S11316F05F926F927F928F929F92AF92BF92CF929E
S1131700DF92EF92FF920F931F93CF93DF938B019E
S1131710EA01E8EFF8E220A131A142A153A164A1BA
S113172075A186A197A1E9EFF9E240885188628802
S1131730738884889588A688B7880E94CB326B0109
S11317407C0120E030E44CE955E4C301B2010E947D
S1131750D133A50194010E94D1339B01AC01C7018F
S1131760B6010E9423329F938F937F936F9381E0FE
S113177092E29F938F93DF93CF931F930F930E94D3
S11317803D3DEDB7FEB73A96EDBFFEBF8C179D0702
S11317902CF0F801108281E090E002C080E090E03B
S11317A0DF91CF911F910F91FF90EF90DF90CF9039
S11317B0BF90AF909F908F907F906F905F904F906D
S11317C008954F925F926F927F928F929F92AF9201
S11317D0BF92CF92DF92EF92FF920F931F93CF931A
S11317E0DF938B01EA0160910C2970910D2980919E
S11317F00E2990910F29E9EFF9E240885188628817
S1131800738884889588A688B7880E94D3326B0130
S11318107C0120E030E040E853E4C301B2010E94BF
S1131820D133A50194010E94D1339B01AC01C701BE
S1131830B6010E9423329F938F937F936F9381E02D
S113184092E29F938F93DF93CF931F930F930E9402
S11318503D3DEDB7FEB73A96EDBFFEBF8C179D0731
S11318602CF0F801108281E090E002C080E090E06A
S1131870DF91CF911F910F91FF90EF90DF90CF9068
S1131880BF90AF909F908F907F906F905F904F909C
S113189008958F929F92AF92BF92CF92DF92EF9270
S11318A0FF920F931F93CF93DF938B01EA01609113
S11318B00429709105298091062990910729809027
S11318C00D2A90900E2AA0900F2AB090102A0E9400
S11318D0D3326B017C0120E030E040E857E4C501DD
S11318E0B4010E94D1339B01AC01C701B6010E942F
S11318F023329F938F937F936F9381E092E29F9320
S11319008F93DF93CF931F930F930E943D3DEDB7C9
S1131910FEB73A96EDBFFEBF8C179D072CF0F80179
S1131920108281E090E002C080E090E0DF91CF91EE
S11319301F910F91FF90EF90DF90CF90BF90AF90E9
S11319409F908F9008958F929F92AF92BF92CF9263
S1131950DF92EF92FF920F931F93CF93DF938B014C
S1131960EA016091002970910129809102299091E6
S113197003298090092A90900A2AA0900B2AB090FB
S11319800C2A0E94D3326B017C0120E030E040E855
S113199057E4C501B4010E94D1339B01AC01C701D6
S11319A0B6010E9423329F938F937F936F9381E0BC
S11319B092E29F938F93DF93CF931F930F930E9491
S11319C03D3DEDB7FEB73A96EDBFFEBF8C179D07C0
S11319D02CF0F801108281E090E002C080E090E0F9
S11319E0DF91CF911F910F91FF90EF90DF90CF90F7
S11319F0BF90AF909F908F9008954F925F926F9297
S1131A007F928F929F92AF92BF92CF92DF92EF928A
S1131A10FF920F931F93CF93DF938B01EA01E8EFBB
S1131A20F8E2208D318D428D538D648D758D868DB8
S1131A30978DE9EFF9E2408451846284738484844D
S1131A409584A684B7840E94CB326B017C0120E08C
S1131A5030E44CE955E4C301B2010E94D133A5013D
S1131A6094010E94D1339B01AC01C701B6010E94CD
S1131A7023329F938F937F936F9381E092E29F939E
S1131A808F93DF93CF931F930F930E943D3DEDB748
S1131A90FEB73A96EDBFFEBF8C179D072CF0F801F8
S1131AA0108281E090E002C080E090E0DF91CF916D
S1131AB01F910F91FF90EF90DF90CF90BF90AF9068
S1131AC09F908F907F906F905F904F9008954F926A
S1131AD05F926F927F928F929F92AF92BF92CF92BA
S1131AE0DF92EF92FF920F931F93CF93DF938B01BB
S1131AF0EA01609108297091092980910A2990913D
S1131B000B29E9EFF9E2408451846284738484846C
S1131B109584A684B7840E94D3326B017C0120E0B3
S1131B2030E040E853E4C301B2010E94D133A5017F
S1131B3094010E94D1339B01AC01C701B6010E94FC
S1131B4023329F938F937F936F9381E092E29F93CD
S1131B508F93DF93CF931F930F930E943D3DEDB777
S1131B60FEB73A96EDBFFEBF8C179D072CF0F80127
S1131B70108281E090E002C080E090E0DF91CF919C
S1131B801F910F91FF90EF90DF90CF90BF90AF9097
S1131B909F908F907F906F905F904F9008958F9259
S1131BA09F92AF92BF92CF92DF92EF92FF920F93E8
S1131BB01F93CF93DF938B01EA016091FC2870910E
S1131BC0FD288091FE289091FF288090052A90900E
S1131BD0062AA090072AB090082A0E94D3326B01EB
S1131BE07C0120E030E040E857E4C501B4010E94E4
S1131BF0D1339B01AC01C701B6010E9423329F93EC
S1131C008F937F936F9381E092E29F938F93DF93FF
S1131C10CF931F930F930E943D3DEDB7FEB73A96C5
S1131C20EDBFFEBF8C179D072CF0F801108281E0F8
S1131C3090E002C080E090E0DF91CF911F910F917E
S1131C40FF90EF90DF90CF90BF90AF909F908F90D8
S1131C5008958F929F92AF92BF92CF92DF92EF92AC
S1131C60FF920F931F93CF93DF938B01EA0160914F
S1131C70F8287091F9288091FA289091FB28809097
S1131C80012A9090022AA090032AB090042A0E946C
S1131C90D3326B017C0120E030E040E857E4C50119
S1131CA0B4010E94D1339B01AC01C701B6010E946B
S1131CB023329F938F937F936F9381E092E29F935C
S1131CC08F93DF93CF931F930F930E943D3DEDB706
S1131CD0FEB73A96EDBFFEBF8C179D072CF0F801B6
S1131CE0108281E090E002C080E090E0DF91CF912B
S1131CF01F910F91FF90EF90DF90CF90BF90AF9026
S1131D009F908F9008950F931F93CF93DF938B0130
S1131D10EA0160912D2970912E2980912F299091AB
S1131D2030290E94D33220E030E048E45BE40E9492
S1131D30233220E030E04AE75CE40E9423329F93A0
S1131D408F937F936F9381E092E29F938F93DF93BE
S1131D50CF931F930F930E943D3DEDB7FEB73A9684
S1131D60EDBFFEBF8C179D072CF0F801108281E0B7
S1131D7090E002C080E090E0DF91CF911F910F913D
S1131D8008958F929F92AF92BF92CF92DF92EF927B
S1131D90FF920F931F93CF93DF938B01EA0160911E
S1131DA0292970912A2980912B2990912C2980909E
S1131DB0192A90901A2AA0901B2AB0901C2A0E94DB
S1131DC0D3326B017C0120E030E040E857E4C501E8
S1131DD0B4010E94D1339B01AC01C701B6010E943A
S1131DE023329F938F937F936F9381E092E29F932B
S1131DF08F93DF93CF931F930F930E943D3DEDB7D5
S1131E00FEB73A96EDBFFEBF8C179D072CF0F80184
S1131E10108281E090E002C080E090E0DF91CF91F9
S1131E201F910F91FF90EF90DF90CF90BF90AF90F4
S1131E309F908F9008950F931F93CF93DF938B01FF
S1131E40EA01609155297091562980915729909102
S1131E5058290E94D1322EE432E640EE5CE30E941F
S1131E60D1339F938F937F936F9381E092E29F93FB
S1131E708F93DF93CF931F930F930E943D3DEDB754
S1131E80FEB73A96EDBFFEBF8C179D072CF0F80104
S1131E90108281E090E002C080E090E0DF91CF9179
S1131EA01F910F910895CF92DF92EF92FF920F93BB
S1131EB01F93CF93DF938B01EA01609151297091B5
S1131EC052298091532990915429611571058105F6
S1131ED0910509F10E94D33220E030E040E857E355
S1131EE00E94D1339B01AC0160E074E886EF93E477
S1131EF00E942332F62EE72ED82EC92E20E030E0A1
S1131F0040E85FE30E941E3288234CF4F12CE12C5C
S1131F10D12CC12C04C0F12CE12CD12CC12CCF929A
S1131F20DF92EF92FF9281E092E29F938F93DF938F
S1131F30CF931F930F930E943D3DEDB7FEB73A96A2
S1131F40EDBFFEBF8C179D072CF0F801108281E0D5
S1131F5090E002C080E090E0DF91CF911F910F915B
S1131F60FF90EF90DF90CF900895DF92EF92FF9271
S1131F700F931F93CF93DF9380E20E946831C0E0F8
S1131F80D2E08C8781E20E9468318D8784E20E94CE
S1131F90683100E412E0F801848785E20E94683128
S1131FA0F8018587E0E0F6E014821082A0E2B6E052
S1131FB014961C9214971C9287E0808B818B828BE1
S1131FC0838B848B858B868B50968C9350975196FC
S1131FD08C93519752968C93529753968C93539714
S1131FE054968C93549755968C93559756968C93F8
S1131FF0569757968C936894DD24D4F8D78AD9825F
S113200050E25A8346EC4B8333E03C836894FF24CC
S1132010F1F8F8A2F8A6F8AAF8AE89E289A399E142
S113202099A791E399AB21E629AFEE24E394EAA2C0
S1132030E882F801D182528343833483F0A2F0A66C
S1132040F0AAF0AE21A321E521A791AB81AFE082F4
S1132050E0EAF0E0828181608283E9EFF9E28BEAD1
S11320609AEAA6E2B2E480879187A287B38747E21F
S113207051E164EB72E44487558766877787808BE8
S1132080918BA28BB38B4FE15EE860EB72E4448BDF
S1132090558B668B778B80A391A3A2A3B3A34DE545
S11320A055E86FE672E444A355A366A377A380A71B
S11320B091A7A2A7B3A780E090E0A8E4B2E484A724
S11320C095A7A6A7B7A744E050E060E070E081E0E0
S11320D09AE20E94C63044E050E060E170E085E09E
S11320E09AE20E94C63044E050E060E270E089E089
S11320F09AE20E94C63044E050E060E370E08DE074
S11321009AE20E94C63042E050E060E470E089EF59
S113211099E20E94C63042E050E064E470E08BEF44
S113212099E20E94C63042E050E068E470E08DEF2E
S113213099E20E94C63042E050E06CE470E08FEF18
S113214099E20E94C63044E050E060E570E089E125
S11321509AE20E94C63044E050E060E670E08DE10F
S11321609AE20E94C63044E050E060E770E081E209
S11321709AE20E94C63044E050E060E870E085E2F4
S11321809AE20E94C63042E050E060E970E081E1EA
S11321909AE20E94C63042E050E064E970E083E1D4
S11321A09AE20E94C63042E050E068E970E085E1BE
S11321B09AE20E94C63042E050E06CE970E087E1A8
S11321C09AE20E94C630E0E2F3E085E08083118267
S11321D0D2828EEA95E0808F918FE0E0F8E0118260
S11321E01382148280E099E186A397A31682178252
S11321F010A211A2E082A0E8B1E080EC8C93E0E4AC
S1132200F8E08CE080831182138214821682178294
S1132210E0868FEF9FEF86A397A3E0E4F6E080E4E7
S11322208283E68A86E614968C9314971C96FC9215
S1132230E0E6F6E080859085807321E0803109F046
S113224020E0211108C0907381E0903209F080E011
S1132250882309F449C0809168068073803119F09D
S11322608BE092E202C086E092E221E030E04BEDA6
S113227059E063E57FE00E942A028091680680733A
S1132280803119F085E192E202C080E192E221E01E
S113229030E040E050E06BE17FE00E942A02809150
S11322A068068073803119F08FE192E202C08AE1FE
S11322B092E221E030E040E050E061EC7EE00E94F8
S11322C02A02809168068073803119F089E292E2D3
S11322D002C084E292E221E030E040E050E063E8B2
S11322E07EE00E942A02AFC021E030E040E050E0EE
S11322F069E27EE08EE292E20E942A0221E030E06E
S113230040E050E06FEC7DE083E392E20E942A0219
S113231021E030E040E050E067E67DE088E392E2CF
S11323200E942A0225E030E040E050E06DEF7CE0BE
S11323308DE392E20E942A0221E030E040E050E086
S113234063EA7CE082E492E20E942A0221E030E027
S113235040E050E069E47CE087E492E20E942A02D3
S113236021E030E040E050E061EE7BE08CE492E27A
S11323700E942A0225E030E040E050E067E77BE07D
S113238081E592E20E942A0221E030E040E050E040
S11323906FE37BE086E592E20E942A022AE030E0C5
S11323A040E050E06FEF7AE08BE592E20E942A026F
S11323B080916806807309F046C021E030E04BED5F
S11323C059E06DE97AE086E092E20E942A0221E077
S11323D030E040E050E06BE17FE080E192E20E9477
S11323E02A0221E030E040E050E061EC7EE08AE146
S11323F092E20E942A0221E030E040E050E063E8EB
S11324007EE084E292E20E942A022AE030E040E088
S113241050E065E67AE080E692E20E942A0225E036
S113242030E040E050E063E27AE085E692E20E9428
S11324302A0225E030E040E050E061EE79E08AE6EF
S113244092E20E942A02809168068073803129F00A
S1132450809168068073803269F486E69EEDA0E27E
S1132460B0E08093EA289093EB28A093EC28B093F3
S1132470ED280CC086E696E6AAE4B0E08093EA284C
S11324809093EB28A093EC28B093ED28DF91CF91A3
S11324901F910F91FF90EF90DF9008952F923F923C
S11324A04F925F926F927F928F929F92AF92BF9260
S11324B0CF92DF92EF92FF920F931F93CF93DF930C
S11324C0CDB7DEB7C25AD109CDBFDEBF282E892EC3
S11324D080E6E4E6F0E2DE01119601900D928A9521
S11324E0E1F781E080937629809176298111FCCFF0
S11324F08091D8299091D929A091DA29B091DB292A
S113250085369105A105B10558F0222D382D42E4F8
S113251050E061E070E08FE692E20E94FB3CAEC5C1
S1132520222D382D48E150E061E070E082EB92E228
S11325300E94FB3C00E616E00F2EF3EFEF2EF2E2D2
S1132540FF2EF02D222D382D47E250E061E070E09F
S11325508BEC92E20E94FB3CD12C1FC0FC01EE0FDD
S1132560FF1FE80FF91FEE0FFF1FEE0FFF1F21E003
S113257030E02C0F3D1FE20FF31F21812F932081A8
S11325802F9301969F938F93FF92EF928F922F92A6
S11325900E94AF3CD394CDBFDEBF8D2D0D2C000C1B
S11325A0990BD80118962C91189718963C91207382
S11325B041E0203109F040E041110AC0307321E0CC
S11325C0303209F020E0211103C028E030E002C0DD
S11325D024E030E0821793070CF2222D382D43E0DB
S11325E050E061E070E08FEF92E20E94FB3C02C099
S11325F00E945C2E0E94512E8111FACF0E945C2E03
S11326000F2EFFECCF2EF02DC80E222D382D42E0D8
S113261050E061E070E085E294E20E94FB3CCD145E
S11326201CF4CC200CF048C3222D382D40E250E09D
S113263061E070E083E093E20E94FB3C83CF0E9460
S11326405C2E0E94512E8111FACFC32C032C000C56
S1132650DD089F92AF92C60101969F938F93E4E2A7
S1132660F3E2FF93EF938F922F920E94AF3CCDBF82
S1132670DEBF412C512C32010E945C2E182F082EF3
S1132680000C990BC0970A9708F08AC3622D782D25
S1132690812F012E000C990B0E94BF3C440C551C49
S11326A0661C771CD301C201880F991FAA1FBB1F88
S11326B0880F991FAA1FBB1F480E591E6A1E7B1E36
S11326C0812F110F990BAA0BBB0B480E591E6A1EC2
S11326D07B1E90E3491A510861087108CDCF80919F
S11326E076298111FCCFCD56DF4FA881B981C3591A
S11326F0D040ED91FC9160817181828193810E942F
S1132700D33220E030E040E857E30E94D1332B017C
S11327103C01CC0CDD1CCC0CDD1CE1E6F0E0EC0F44
S1132720FD1FEC0DFD1D6083718382839383C95665
S1132730DF4FE881F981C759D040C080D180D601EC
S11327408D919D910D90BC91A02DC157DF4F888331
S11327509983AA83BB83CF58D04020E030E04AE776
S113276054E4C301B2010E9423329F938F937F9359
S11327706F93C157DF4F288139814A815B81CF58DC
S1132780D040C301B2010E9423329F938F937F9361
S11327906F931F930F93FF92EF92E9E5F3E2FF9398
S11327A0EF938F922F920E94AF3CCDBFDEBF0E9469
S11327B05C2E982F893709F454C3893509F414C35E
S11327C08F7D8E3409F422C39B3189F738C3339447
S11327D094E09315D4F0222D382D47E250E061E0C7
S11327E070E08DEA93E20E94FB3C0E945C2E982FDD
S11327F0893709F448C3893509F457C38F7D8E346A
S113280009F465C39B3189F762C3A1E0A3151CF4E5
S1132810131464F0CCC3222D382D42E550E061E05E
S113282070E085ED93E20E94FB3C28C43E01B5E7CD
S11328306B0E711C5E01E1E6AE0EB11C75018301E5
S1132840CD56DF4F188219821A821B82C359D04099
S1132850C157DF4F188219821A821B82CF58D04089
S1132860912CD8012D913D914D915D918D01C157D0
S1132870DF4F688179818A819B81CF58D0400E9443
S1132880B231C157DF4F688379838A839B83CF58E2
S1132890D040F70121913191419151917F01CD5661
S11328A0DF4F688179818A819B81C359D0400E941E
S11328B0B231CD56DF4F688379838A839B83C359B2
S11328C0D04093943910CDCF17C3D3016D917D912E
S11328D08D919D913D01202F3F2D4D2D5E2D0E9408
S11328E0B131C157DF4F688379838A839B83CF5883
S11328F0D0409B01AC010E94D1339B01AC01CD5669
S1132900DF4F688179818A819B81C359D0400E94BD
S1132910B231CD56DF4F688379838A839B83C35951
S1132920D040F50161917191819191915F01C156FE
S1132930DF4F2881CF59D040392D442D552D0E9489
S1132940B131C157DF4F288139814A815B81CF582A
S1132950D0400E94D1339B01AC01C956DF4F68813E
S113296079818A819B81C759D0400E94B231C9566E
S1132970DF4F688379838A839B83C759D0401F5F65
S11329803112A3CFCF55DF4FC880D980C15AD04070
S1132990CD56DF4F288139814A815B81C359D040AC
S11329A0C956DF4F688179818A819B81C759D0409C
S11329B00E942332C157DF4F688379838A839B83C4
S11329C0CF58D040202F3F2DC056DF4F4881C05AEA
S11329D0D0405E2D0E94D1339B01AC01C156DF4F24
S11329E06881CF59D040792D842D952D0E94B13125
S11329F0CD56DF4F688379838A839B83C359D04044
S1132A0002C00E945C2E0E94512E8111FACFC25640
S1132A10DF4FF881CE59D040FF93C356DF4F288152
S1132A20CD59D0402F9388E294E29F938F938F9255
S1132A302F920E94AF3CD6014D905D906D907C909A
S1132A40C556DF4FE881F981CB59D040EE0FFF1F07
S1132A50C556DF4F28813981CB59D040E20FF31F8F
S1132A60EE0FFF1FEE0FFF1FEC0FFD1F07811085F8
S1132A70D801AD90BC901197ED90FC90CD56DF4FEE
S1132A80688179818A819B81C359D0400E943E34F8
S1132A90CD56DF4F688379838A839B83C359D040A3
S1132AA07F926F925F924F92CE56DF4FB881C25998
S1132AB0D040BF93CF56DF4FE881C159D040EF9348
S1132AC0C057DF4FF881C059D040FF93C157DF4F43
S1132AD02881CF58D0402F93BF92AF92B701FF0CFB
S1132AE0880B990B0E94D332CD56DF4F2881398150
S1132AF04A815B81C359D0400E94B2319F938F9326
S1132B007F936F938CE494E29F938F938F922F9291
S1132B100E94AF3CCDBFDEBF0E945C2E982F893748
S1132B2009F474C2893509F483C28F7D8E3409F4A3
S1132B3091C29B3189F78EC2D8016D917C91072E89
S1132B40000C880B990B0E94D332CD56DF4F28819D
S1132B5039814A815B81C359D0400E94B2310E94BD
S1132B609532F80160837183C157DF4F8881998161
S1132B70AA81BB81CF58D040F60180839183A28380
S1132B80B383C556DF4FE880F980CB59D040EE0CB3
S1132B90FF1CC556DF4FE881F981CB59D040EE0DBB
S1132BA0FF1DEE0FFF1FEE0FFF1F21E030E02C0F83
S1132BB03D1FE20FF31FA284B38442E050E0B5014D
S1132BC0C8010E942931C556DF4FE881F981CB59EC
S1132BD0D040EE0DFF1DEE0FFF1FEE0FFF1F81E033
S1132BE090E08C0F9D1FE80FF91FE084F18444E00E
S1132BF050E0B701C6010E942931F601808191811C
S1132C00A281B381F80120813181BF93AF939F9357
S1132C108F933F932F9383E994E29F938F938F92A3
S1132C202F920E94AF3C42E050E0B501CE0187579D
S1132C309F4F0E94C63044E050E0B701CE01855753
S1132C409F4F0E94C630C257DF4F8881CE58D04074
S1132C508F93C357DF4F8881CD58D0408F93C4578B
S1132C60DF4F8881CC58D0408F93C557DF4F888180
S1132C70CB58D0408F93C657DF4F8881CA58D04075
S1132C808F93C757DF4F8881C958D0408F9389EB02
S1132C9094E29F938F938F922F920E94AF3C222DA8
S1132CA0382D4CE250E061E070E08FED94E20E9438
S1132CB0FB3CCDBFDEBFE2C18C2D0C2C000C990B6C
S1132CC0C556DF4F88839983CB59D040FC01EE0F62
S1132CD0FF1FE80FF91FEE0FFF1FEE0FFF1FA1E00C
S1132CE0B0E0AC0FBD1FEA0FFB1FB081C356DF4F2E
S1132CF0B883CD59D0402181C256DF4F2883CE59A5
S1132D00D0402F93BF938CE095E29F938F938F9243
S1132D102F920E94AF3C1F9285E08F9385E295E24B
S1132D209F938F938F922F920E94AF3CCDBFDEBFB3
S1132D30C0FE03C083E595E202C086E595E2A82EB5
S1132D40992E312CBB24B394C556DF4F88819981C9
S1132D50CB59D040880F991FC556DF4FA881B98140
S1132D60CB59D0408A0F9B1F880F991F880F991F3A
S1132D70E1E0F0E0EC0FFD1F8E0F9F1F9C012E5F22
S1132D803F4FCD56DF4F28833983C359D040DC01F0
S1132D901496C956DF4FA883B983C759D04051CC84
S1132DA0C301B2010E94D33220E030E04AE754E488
S1132DB00E942332E62EF72E082F192FF601EE0F6C
S1132DC0FF1FEE0FFF1F25E730E02C0F3D1FE20F22
S1132DD0F31F862F9F2DA02FB12F80839183A28371
S1132DE0B383B09276297BCC1F9289E58F9389E5D2
S1132DF095E29F938F938F922F920E94AF3C0F90F6
S1132E000F900F900F900F900F90E1CC292F092E67
S1132E10000C330B3F939F93E9E5F5E2FF93EF93A7
S1132E208F922F920E94AF3C0F900F900F900F90B3
S1132E300F900F9034E033150CF003CCE6CC1F92C6
S1132E408BE18F9389E595E29F938F938F922F92D5
S1132E500E94AF3C0F900F900F900F900F900F9027
S1132E60D4CC1F9289E78F9389E595E29F938F9342
S1132E708F922F920E94AF3C0F900F900F900F9063
S1132E800F900F90A4CC1F9289E78F93E9E5F5E2A8
S1132E90FF93EF938F922F920E94AF3C0F900F906D
S1132EA00F900F900F900F90CCCB1F9289E58F93CA
S1132EB089E595E29F938F938F922F920E94AF3C66
S1132EC00F900F900F900F900F900F90BACB292F67
S1132ED0092E000C330B3F939F9389E595E29F9352
S1132EE08F938F922F920E94AF3C0F900F900F9070
S1132EF00F900F900F9089CC632D032C000C770B4F
S1132F00880B990B0E94D332C956DF4F68837983AB
S1132F108A839B83C759D0409B01AC01C157DF4FC3
S1132F20688179818A819B81CF58D0400E94233265
S1132F30062FF72EC056DF4F8883C05AD040E92EA3
S1132F40C956DF4F288139814A815B81C759D040F6
S1132F50CD56DF4F688179818A819B81C359D040E6
S1132F600E942332C156DF4F6883CF59D040972E39
S1132F70482E592EC956DF4F188219821A821B8295
S1132F80C759D040CD56DF4F188219821A821B824E
S1132F90C359D04010E0CF55DF4FC882D982C15AFF
S1132FA0D040C056DF4FD880C05AD0408ECC632D5D
S1132FB0330C770B880B990B0E94D3329B01AC0125
S1132FC060E070E0CB010E942332062FF72EC0563A
S1132FD0DF4F8883C05AD040E92EC156DF4F688343
S1132FE0CF59D040972E482E592EC956DF4F1882FC
S1132FF019821A821B82C759D040CD56DF4F1882DE
S113300019821A821B82C359D040C2CC1F9289E70D
S11330108F9389E595E29F938F938F922F920E94CD
S1133020AF3C0F900F900F900F900F900F9084CDA6
S11330301F9289E58F9389E595E29F938F938F92F1
S11330402F920E94AF3C0F900F900F900F900F9013
S11330500F9072CD292F092E000C330B3F939F93B1
S113306089E595E29F938F938F922F920E94AF3CB4
S11330700F900F900F900F900F900F90CE55DF4F41
S1133080CDBFDEBFDF91CF911F910F91FF90EF90E5
S1133090DF90CF90BF90AF909F908F907F906F9074
S11330A05F904F903F902F90089581E08093762910
S11330B008950F931F930091EF281091F028209109
S11330C0F1283091F22802C08B019C016091EF2815
S11330D07091F0288091F1289091F2280617170733
S11330E02807390789F71F910F9108952F923F926E
S11330F04F925F926F927F928F929F92AF92BF9204
S1133100CF92DF92EF92FF920F931F93CF93DF93AF
S1133110CDB7DEB7C15DD109CDBFDEBFCA54DF4F25
S11331208883C65BD040C954DF4F9883C75BD040C7
S1133130809176298111FCCF6091EC297091ED2961
S11331408091EE299091EF290E94D13220E030E461
S11331504CE955E40E942332C854DF4F6883C85BAE
S1133160D040C754DF4F7883C95BD040C654DF4F8B
S11331708883CA5BD040C554DF4F9883CB5BD04073
S11331802091DF2991E080E0211190E0C057DF4FCA
S11331909883C059D040CF56DF4F8883C159D0405F
S11331A08091F4299091F529A091F629B091F729FD
S11331B0892B8A2B8B2B69F16091F4297091F52965
S11331C08091F6299091F7290E94D33220E030E0D3
S11331D040E857E30E94D1339B01AC0160E070E802
S11331E08BE894E40E942332C453DF4F6883CC5CA1
S11331F0D040C353DF4F7883CD5CD040C253DF4F00
S11332008883CE5CD040C153DF4F9883CF5CD040DD
S113321014C0C453DF4F1882CC5CD040C353DF4F7B
S11332201882CD5CD040C253DF4F1882CE5CD040B0
S1133230C153DF4F1882CF5CD0401091F8296091C0
S1133240E8297091E9298091EA299091EB290E945B
S1133250D13220E030E44CE955E40E942332C454D6
S1133260DF4F6883CC5BD040C354DF4F7883CD5BA2
S1133270D040C254DF4F8883CE5BD040C154DF4F6F
S11332809883CF5BD0402091DE2991E080E021112A
S113329090E0CE56DF4F9883C259D040CD56DF4FD1
S11332A08883C359D0406091E0297091E1298091CD
S11332B0E2299091E3290E94D13220E030E44CE9E4
S11332C055E40E942332C054DF4F6883C05CD04071
S11332D0CF53DF4F7883C15CD040CE53DF4F888318
S11332E0C25CD040CD53DF4F9883C35CD040209163
S11332F0DC2991E080E0211190E0CC56DF4F9883E7
S1133300C459D040CB56DF4F8883C559D040609113
S1133310A4297091A5298091A6299091A7290E949A
S1133320D13220E030E44CE955E40E942332CC53FE
S1133330DF4F6883C45CD040CB53DF4F7883C55CD8
S1133340D040CA53DF4F8883C65CD040C953DF4F97
S11333509883C75CD0402091A32991E080E021119B
S113336001C090E0CA56DF4F9883C659D040C95671
S1133370DF4F8883C759D0406091D8297091D929EB
S11333808091DA299091DB290E94D13227EB33EF27
S11333904DE75DE30E94D133C853DF4F6883C85CB7
S11333A0D040C753DF4F7883C95CD040C653DF4F4A
S11333B08883CA5CD040C553DF4F9883CB5CD04030
S11333C06091D4297091D5298091D6299091D729DB
S11333D0611571058105910509F10E94D33220E040
S11333E030E040E857E30E94D1339B01AC0160E038
S11333F070E88BE894E40E9423326983072F382E07
S1133400292E20E030E040E85FE30E941E3288234A
S11334104CF4198200E0312C212C04C0198200E004
S1133420312C212CEBE7F9E26091F2297091F32918
S11334302091F0293091F1292A833B83C5A4D6A495
S1133440E7A4F0A8ACECB9E23C91C856DF4F38834E
S1133450C859D04011964C911197C756DF4F4883F5
S1133460C959D04012965C911297C656DF4F5883C3
S1133470CA59D04013968C911397C556DF4F888351
S1133480CB59D04014969C911497C456DF4F98831F
S1133490CC59D04015962C911597C356DF4F2883ED
S11334A0CD59D04016963C911697C256DF4F3883BB
S11334B0CE59D04017964C91C156DF4F4883CF590F
S11334C0D0404090212A5090222A6090232A709064
S11334D0242A8090252A9090262AA090272AB0900A
S11334E0282A8091C0299091C129A091C229B09124
S11334F0C3298C839D83AE83BF832091212A30917D
S1133500222A4091232A5091242A288739874A87DE
S11335105B878091252A9091262AA091272AB09131
S1133520282A8C879D87AE87BF872091B829309140
S1133530B9294091BA295091BB29288B398B4A8BE0
S11335405B8B8091252A9091262AA091272AB091FD
S1133550282A8C8B9D8BAE8BBF8B21AD32AD43ADB6
S113356054AD288F398F4A8F5B8F8091212A909197
S1133570222AA091232AB091242A8C8F9D8FAE8F6A
S1133580BF8F24EC39E2D901BC91C056DF4FB88318
S1133590C05AD0404091C529CF55DF4F4883C15A06
S11335A0D0405091C629CE55DF4F5883C25AD040DF
S11335B08091C729CD55DF4F8883C35AD04090915D
S11335C0C829CC55DF4F9883C45AD040A091C9294B
S11335D0CB55DF4FA883C55AD040B091CA29CA55EC
S11335E0DF4FB883C65AD0404091CB29C053DF4F38
S11335F04883C05DD0408091192A90911A2AA091E5
S11336001B2AB0911C2A88A399A3AAA3BBA3209127
S11336101D2A30911E2A40911F2A5091202A2CA342
S11336203DA34EA35FA38091BC299091BD29A09195
S1133630BE29B091BF2988A799A7AAA7BBA72091A3
S1133640192A30911A2A40911B2A50911C2A2CA71E
S11336503DA74EA75FA780911D2A90911E2AA09195
S11336601F2AB091202A88AB99ABAAABBBAB25A982
S113367036A947A950AD2CAB3DAB4EAB5FAB8091A7
S11336801D2A90911E2AA0911F2AB091202A88AF4A
S113369099AFAAAFBBAF21A932A943A954A92CAFB2
S11336A03DAF4EAF5FAF8091192A90911A2AA09135
S11336B01B2AB0911C2A24968CAF9DAFAEAFBFAF2E
S11336C0249790A1C955DF4F9883C75AD040A1A130
S11336D0C855DF4FA883C85AD040B2A1C755DF4FA1
S11336E0B883C95AD04023A1C655DF4F2883CA5A8C
S11336F0D04034A1C555DF4F3883CB5AD04045A1C3
S1133700C455DF4F4883CC5AD04056A1C355DF4F30
S11337105883CD5AD04087A1CF52DF4F8883C15DF3
S1133720D0402091092A30910A2A40910B2A5091C5
S11337300C2A28962CAF3DAF4EAF5FAF28978091EF
S11337400D2A90910E2AA0910F2AB091102A2C963E
S11337508CAF9DAFAEAFBFAF2C9724893589468916
S1133760578960962CAF3DAF4EAF5FAF60978091A5
S1133770092A90910A2AA0910B2AB0910C2A6496E6
S11337808CAF9DAFAEAFBFAF649720910D2A30913F
S11337900E2A40910F2A5091102A68962CAF3DAF03
S11337A04EAF5FAF689784859585A685B7856C967F
S11337B08CAF9DAFAEAFBFAF6C9720910D2A309107
S11337C00E2A40910F2A5091102AA0962CAF3DAF9B
S11337D04EAF5FAFA09780859185A285B385A496EF
S11337E08CAF9DAFAEAFBFAFA4972091092A3091A3
S11337F00A2A40910B2A50910C2AA8962CAF3DAF6F
S11338004EAF5FAFA897308DC255DF4F3883CE5A85
S1133810D040418DC155DF4F4883CF5AD040528D9F
S1133820C055DF4F5883C05BD040838DCF54DF4FEA
S11338308883C15BD040948DCE54DF4F9883C25BA4
S1133840D040A58DCD54DF4FA883C35BD040B68D47
S1133850CC54DF4FB883C45BD040278DCB54DF4FAB
S11338602883C55BD0408091012A9091022AA091BF
S1133870032AB091042AAC968CAF9DAFAEAFBFAF14
S1133880AC972091052A3091062A4091072A50913D
S1133890082AE0962CAF3DAF4EAF5FAFE09780892A
S11338A09189A289B389E4968CAF9DAFAEAFBFAFC7
S11338B0E4972091012A3091022A4091032A5091E1
S11338C0042AE8962CAF3DAF4EAF5FAFE8978091E6
S11338D0052A9091062AA091072AB091082AEC960D
S11338E08CAF9DAFAEAFBFAFEC97248135814681DD
S11338F05781C458DF4F288339834A835B83CC576D
S1133900D0408091052A9091062AA091072AB0916F
S1133910082AC058DF4F88839983AA83BB83C05881
S1133920D0402081318142815381CC57DF4F28839D
S113393039834A835B83C458D0408091012A909193
S1133940022AA091032AB091042AC857DF4F888322
S11339509983AA83BB83C858D0402091772930919A
S113396078294091792950917A29C457DF4F2883C7
S113397039834A835B83CC58D040C554DF4F3881A8
S1133980CB5BD0403F93C654DF4F4881CA5BD040E5
S11339904F93C754DF4F5881C95BD0405F93C854DD
S11339A0DF4F8881C85BD0408F93CF56DF4F98811B
S11339B0C159D0409F93C057DF4FA881C059D04010
S11339C0AF93C153DF4FB881CF5CD040BF93C25394
S11339D0DF4F2881CE5CD0402F93C353DF4F388113
S11339E0CD5CD0403F93C453DF4F4881CC5CD04082
S11339F04F931F921F93C154DF4F5881CF5BD04028
S1133A005F93C254DF4F8881CE5BD0408F93C35401
S1133A10DF4F9881CD5BD0409F93C454DF4FA88182
S1133A20CC5BD040AF93CD56DF4FB881C359D04063
S1133A30BF93CE56DF4F2881C259D0402F93CD5328
S1133A40DF4F3881C35CD0403F93CE53DF4F488172
S1133A50C25CD0404F93CF53DF4F5881C15CD040FC
S1133A605F93C054DF4F8881C05CD0408F93CB56A6
S1133A70DF4F9881C559D0409F93CC56DF4FA88122
S1133A80C459D040AF93C953DF4FB881C75CD0400D
S1133A90BF93CA53DF4F2881C65CD0402F93CB53CA
S1133AA0DF4F3881C55CD0403F93CC53DF4F488112
S1133AB0C45CD0404F93C956DF4F5881C759D0409A
S1133AC05F93CA56DF4F8881C659D0408F93C55340
S1133AD0DF4F9881CB5CD0409F93C653DF4FA881C2
S1133AE0CA5CD040AF93C753DF4FB881C95CD040A4
S1133AF0BF93C853DF4F2881C85CD0402F932F92C7
S1133B003F920F9339813F9380E090E00E94D1323D
S1133B1023E333E343E254E40E9423329F938F93DD
S1133B207F936F934A815B81BA0180E090E00E94A9
S1133B30D13227E137EB41ED5EE30E9423329F93BC
S1133B408F937F936F93C701B6010E94D33220E015
S1133B5030E040E259E40E9423329F938F937F9395
S1133B606F93C856DF4F2881C859D040C756DF4FDE
S1133B703881C959D040C656DF4F4881CA59D04010
S1133B80C556DF4F5881CB59D040C456DF4F6881AA
S1133B90CC59D040C356DF4F7881CD59D040C2565E
S1133BA0DF4F8881CE59D040C156DF4F9881CF591D
S1133BB0D0400E94CB326B017C0120E030E44CE920
S1133BC055E4C301B2010E94D133A50194010E94BE
S1133BD0D1339B01AC01C701B6010E9423329F93EC
S1133BE08F937F936F936C817D818E819F810E94DF
S1133BF0D3326B017C0120E030E040E853E4688577
S1133C0079858A859B850E94D1332C853D854E8597
S1133C105F850E94D1339B01AC01C701B6010E94AC
S1133C2023329F938F937F936F93688979898A89CD
S1133C309B890E94D3326B017C0120E030E040E894
S1133C4057E46C897D898E899F890E94D1339B01B9
S1133C50AC01C701B6010E9423329F938F937F93D7
S1133C606F93688D798D8A8D9B8D0E94D3326B0101
S1133C707C0120E030E040E857E46C8D7D8D8E8D32
S1133C809F8D0E94D1339B01AC01C701B6010E94F4
S1133C9023329F938F937F936F93C056DF4F288176
S1133CA0C05AD040CF55DF4F3881C15AD040CE558D
S1133CB0DF4F4881C25AD040CD55DF4F5881C35A97
S1133CC0D040CC55DF4F6881C45AD040CB55DF4F2C
S1133CD07881C55AD040CA55DF4F8881C65AD04032
S1133CE0C053DF4F9881C05DD0400E94CB326B013E
S1133CF07C0120E030E44CE955E468A179A18AA173
S1133D009BA10E94D1332CA13DA14EA15FA10E9491
S1133D10D1339B01AC01C701B6010E9423329F93AA
S1133D208F937F936F9368A579A58AA59BA50E941D
S1133D30D3326B017C0120E030E040E853E46CA511
S1133D407DA58EA59FA50E94D13328A939A94AA98A
S1133D505BA90E94D1339B01AC01C701B6010E944B
S1133D6023329F938F937F936F936CA97DA98EA920
S1133D709FA90E94D3326B017C0120E030E040E82F
S1133D8057E468AD79AD8AAD9BAD0E94D1339B01F8
S1133D90AC01C701B6010E9423329F938F937F9396
S1133DA06F936CAD7DAD8EAD9FAD0E94D3326B0130
S1133DB07C0120E030E040E857E424966CAD7DAD12
S1133DC08EAD9FAD24970E94D1339B01AC01C701F6
S1133DD0B6010E9423329F938F937F936F93C955AB
S1133DE0DF4F2881C75AD040C855DF4F3881C85AA1
S1133DF0D040C755DF4F4881C95AD040C655DF4F20
S1133E005881CA5AD040C555DF4F6881CB5AD0403B
S1133E10C455DF4F7881CC5AD040C355DF4F8881D9
S1133E20CD5AD040CF52DF4F9881C15DD0400E941F
S1133E30CB326B017C0120E030E44CE955E4289658
S1133E406CAD7DAD8EAD9FAD28970E94D1332C967D
S1133E502CAD3DAD4EAD5FAD2C970E94D1339B018F
S1133E60AC01C701B6010E9423329F938F937F93C5
S1133E706F9360966CAD7DAD8EAD9FAD60970E94E3
S1133E80D3326B017C0120E030E040E853E46496D7
S1133E906CAD7DAD8EAD9FAD64970E94D1336896B5
S1133EA02CAD3DAD4EAD5FAD68970E94D1339B0103
S1133EB0AC01C701B6010E9423329F938F937F9375
S1133EC06F936C966CAD7DAD8EAD9FAD6C970E947B
S1133ED0D3326B017C0120E030E040E857E4A09647
S1133EE06CAD7DAD8EAD9FADA0970E94D1339B018B
S1133EF0AC01C701B6010E9423329F938F937F9335
S1133F006F93A4966CAD7DAD8EAD9FADA4970E94CA
S1133F10D3326B017C0120E030E040E857E4A896FE
S1133F206CAD7DAD8EAD9FADA8970E94D1339B0142
S1133F30AC01C701B6010E9423329F938F937F93F4
S1133F406F93C255DF4F2881CE5AD040C155DF4F01
S1133F503881CF5AD040C055DF4F4881C05BD04034
S1133F60CF54DF4F5881C15BD040CE54DF4F6881BE
S1133F70C25BD040CD54DF4F7881C35BD040CC547A
S1133F80DF4F8881C45BD040CB54DF4F9881C55B41
S1133F90D0400E94CB326B017C0120E030E44CE93C
S1133FA055E4AC966CAD7DAD8EAD9FADAC970E94E3
S1133FB0D133E0962CAD3DAD4EAD5FADE0970E94A0
S1133FC0D1339B01AC01C701B6010E9423329F93F8
S1133FD08F937F936F93E4966CAD7DAD8EAD9FAD63
S1133FE0E4970E94D3326B017C0120E030E040E88A
S1133FF053E4E8966CAD7DAD8EAD9FADE8970E941D
S1134000D133EC962CAD3DAD4EAD5FADEC970E9437
S1134010D1339B01AC01C701B6010E9423329F93A7
S11340208F937F936F93C458DF4F688179818A811E
S11340309B81CC57D0400E94D3326B017C0120E09D
S113404030E040E857E4C058DF4F688179818A81C5
S11340509B81C058D0400E94D1339B01AC01C70161
S1134060B6010E9423329F938F937F936F93CC5713
S1134070DF4F688179818A819B81C458D0400E9436
S1134080D3326B017C0120E030E040E857E4C857AC
S1134090DF4F688179818A819B81C858D0400E9412
S11340A0D1339B01AC01C701B6010E9423329F9317
S11340B08F937F936F93C457DF4F688179818A818F
S11340C09B81CC58D0400E94D13220E030E44CE9AE
S11340D055E40E9423329F938F937F936F938EECCA
S11340E095E29F938F93C954DF4F5881C75BD040AB
S11340F05F93CA54DF4F8881C65BD0408F930E9480
S1134100AF3CCDBFDEBFCF52DF4FCDBFDEBFDF91AF
S1134110CF911F910F91FF90EF90DF90CF90BF90C0
S1134120AF909F908F907F906F905F904F903F9053
S11341302F9008952F923F924F925F926F927F92A9
S11341408F929F92AF92BF92CF92DF92EF92FF92A3
S11341500F931F93CF93DF93CDB7DEB7C858D10920
S1134160CDBFDEBFAF968FAFAF97E0969FAFE0971E
S1134170809176298111FCCF6091EC297091ED2911
S11341808091EE299091EF290E94D13220E030E411
S11341904CE955E40E942332E1966FAFE197E29631
S11341A07FAFE297E3968FAFE397E4969FAFE497F0
S11341B02091DF2991E080E0211190E06A969FAF81
S11341C06A976B968FAF6B978091F4299091F5293C
S11341D0A091F629B091F729892B8A2B8B2B69F1B1
S11341E06091F4297091F5298091F6299091F7292D
S11341F00E94D33220E030E040E857E30E94D133FC
S11342009B01AC0160E074E886EF93E40E942332E2
S1134210CC57DF4F6883C458D040CB57DF4F7883E7
S1134220C558D040CA57DF4F8883C658D040C957B5
S1134230DF4F9883C758D04014C0CC57DF4F188243
S1134240C458D040CB57DF4F1882C558D040CA5706
S1134250DF4F1882C658D040C957DF4F1882C7585D
S1134260D0400091F8296091E8297091E929809162
S1134270EA299091EB290E94D13220E030E44CE904
S113428055E40E942332E5966FAFE597E6967FAF3B
S1134290E697E7968FAFE797E8969FAFE897209168
S11342A0DE2991E080E0211190E06C969FAF6C973D
S11342B06D968FAF6D976091E4297091E529809197
S11342C0E6299091E7290E94D13220E030E44CE9BC
S11342D055E40E942332E9966FAFE997EA967FAFDF
S11342E0EA97EB968FAFEB97EC969FAFEC97109114
S11342F0DD296091E0297091E1298091E229909172
S1134300E3290E94D13220E030E44CE955E40E94D4
S11343102332ED966FAFED97EE967FAFEE97EF9663
S11343208FAFEF97C158DF4F9883CF57D04020917C
S1134330DC2991E080E0211190E06E969FAF6E97AA
S11343406F968FAF6F976091D8297091D92980911A
S1134350DA299091DB290E94D1322EE432E640EE34
S11343605CE30E94D133C058DF4F6883C058D0400B
S1134370CF57DF4F7883C158D040CE57DF4F888363
S1134380C258D040CD57DF4F9883C358D040609176
S1134390D4297091D5298091D6299091D729611576
S11343A071058105910509F10E94D33220E030E0C6
S11343B040E857E30E94D1339B01AC0160E074E80C
S11343C086EF93E40E94233269837A83382E292E60
S11343D020E030E040E85FE30E941E3288234CF482
S11343E019821A82312C212C04C019821A82312C90
S11343F0212C6091F2297091F3292091F0293091B8
S1134400F1292B833C83C090A829D090A929E0905E
S1134410AA29F090AB29ECECF9E23081A0963FAFE9
S1134420A0974181A1964FAFA1975281A2965FAF09
S1134430A2978381A3968FAFA3979481A4969FAFED
S1134440A497A581A596AFAFA597B681A696BFAF51
S1134450A6972781A7962FAFA797E9EFF9E240A483
S113446051A462A473A484A495A4A6A4B7A480911F
S1134470C0299091C129A091C229B091C3298D83EB
S11344809E83AF83B88720A531A542A553A529876C
S11344903A874B875C8784A595A5A6A5B7A58D8784
S11344A09E87AF87B88B2091B8293091B929409164
S11344B0BA295091BB29298B3A8B4B8B5C8B84A5F1
S11344C095A5A6A5B7A58D8B9E8BAF8BB88F209194
S11344D0B4293091B5294091B6295091B729298F33
S11344E03A8F4B8F5C8F80A591A5A2A5B3A58D8F24
S11344F09E8FAF8FB8A324EC39E2D901BC91A89662
S1134500BFAFA8974091C529A9964FAFA9975091DD
S1134510C629AA965FAFAA978091C729AB968FAF99
S1134520AB979091C829AC969FAFAC97A091C9293D
S1134530AD96AFAFAD97B091CA29AE96BFAFAE9767
S11345404091CB29C857DF4F4883C858D04080A139
S113455091A1A2A1B3A189A39AA3ABA3BCA324A1B3
S113456035A146A157A12DA33EA34FA358A78091DF
S1134570BC299091BD29A091BE29B091BF2989A7DA
S11345809AA7ABA7BCA720A131A142A153A12DA7F3
S11345903EA74FA758AB84A195A1A6A1B7A189AB0B
S11345A09AABABABBCAB2091B0293091B12940910F
S11345B0B2295091B3292DAB3EAB4FAB58AF84A178
S11345C095A1A6A1B7A189AF9AAFABAFBCAF20911B
S11345D0AC293091AD294091AE295091AF29219653
S11345E02CAF3DAF4EAF5FAF219780A191A1A2A1A7
S11345F0B3A125968CAF9DAFAEAFBFAF25972091E9
S11346007F293091802940918129509182292996CE
S11346102CAF3DAF4EAF5FAF2997ABE7B9E28D91B9
S11346209D910D90BC91A02D2D968CAF9DAFAEAFFA
S1134630BFAF2D97209187293091882940918929EE
S113464050918A2961962CAF3DAF4EAF5FAF619711
S11346508091832990918429A0918529B0918629FC
S113466065968CAF9DAFAEAFBFAF659720917729AC
S1134670309178294091792950917A2969962CAF03
S11346803DAF4EAF5FAF6997E4963FADE4973F937C
S1134690E3964FADE3974F93E2965FADE2975F9356
S11346A0E1968FADE1978F936B969FAD6B979F9338
S11346B06A96AFAD6A97AF93C957DF4FB881C758B1
S11346C0D040BF93CA57DF4FE881C658D040EF931C
S11346D0CB57DF4FF881C558D040FF93CC57DF4FFD
S11346E02881C458D0402F931F920F93E8963FAD72
S11346F0E8973F93E7964FADE7974F93E6965FAD04
S1134700E6975F93E5968FADE5978F936D969FAD92
S11347106D979F936C96AFAD6C97AF93EC96BFADCE
S1134720EC97BF93EB96EFADEB97EF93EA96FFAD63
S1134730EA97FF93E9962FADE9972F931F921F9362
S1134740C158DF4F3881CF57D0403F93EF964FADDC
S1134750EF974F93EE965FADEE975F93ED968FAD27
S1134760ED978F936F969FAD6F979F936E96AFADB6
S11347706E97AF93CD57DF4FB881C358D040BF93E6
S1134780CE57DF4FE881C258D040EF93CF57DF4F69
S1134790F881C158D040FF93C058DF4F2881C058DA
S11347A0D0402F932F923F923A813F9349814F9368
S11347B080E090E00E94D13223E333E343E254E407
S11347C00E9423329F938F937F936F93AB81BC811D
S11347D0BD0180E090E00E94D13227E137EB41ED4A
S11347E05EE30E9423329F938F937F936F93C7015D
S11347F0B6010E94D33220E030E040E259E40E9446
S113480023329F938F937F936F93A0962FADA0979E
S1134810A1963FADA197A2964FADA297A3965FAD87
S1134820A397A4966FADA497A5967FADA597A696DA
S11348308FADA697A7969FADA7970E94CB326B0129
S11348407C0120E030E44CE955E4C301B2010E944C
S1134850D133A50194010E94D1339B01AC01C7015E
S1134860B6010E9423329F938F937F936F936D8140
S11348707E818F8198850E94D3326B017C0120E078
S113488030E040E853E469857A858B859C850E94F5
S1134890D1332D853E854F8558890E94D1339B01A4
S11348A0AC01C701B6010E9423329F938F937F937B
S11348B06F9369897A898B899C890E94D3326B01B1
S11348C07C0120E030E040E857E46D897E898F89DF
S11348D0988D0E94D1339B01AC01C701B6010E949F
S11348E023329F938F937F936F93698D7A8D8B8DF2
S11348F09C8D0E94D3326B017C0120E030E040E8C3
S113490057E46D8D7E8D8F8D98A10E94D1339B01CC
S1134910AC01C701B6010E9423329F938F937F930A
S11349206F93A8962FADA897A9963FADA997AA967D
S11349304FADAA97AB965FADAB97AC966FADAC9706
S1134940AD967FADAD97AE968FADAE97C857DF4F9E
S11349509881C858D0400E94CB326B017C0120E082
S113496030E44CE955E469A17AA18BA19CA10E9491
S1134970D1332DA13EA14FA158A50E94D1339B0153
S1134980AC01C701B6010E9423329F938F937F939A
S11349906F9369A57AA58BA59CA50E94D3326B0160
S11349A07C0120E030E040E853E46DA57EA58FA5AE
S11349B098A90E94D13329A93AA94BA95CA90E94BC
S11349C0D1339B01AC01C701B6010E9423329F93EE
S11349D08F937F936F936DA97EA98FA998AD0E9441
S11349E0D3326B017C0120E030E040E857E469AD4C
S11349F07AAD8BAD9CAD0E94D1339B01AC01C70154
S1134A00B6010E9423329F938F937F936F932196D5
S1134A106CAD7DAD8EAD9FAD21970E94D3326B01FD
S1134A207C0120E030E040E857E425966CAD7DAD94
S1134A308EAD9FAD25970E94D1339B01AC01C70178
S1134A40B6010E9423329F938F937F936F9329968D
S1134A506CAD7DAD8EAD9FAD29970E94D33225E517
S1134A6035E545E859E40E9423329F938F937F9361
S1134A706F932D966CAD7DAD8EAD9FAD2D970E943D
S1134A80D33225E535E545E859E40E9423329F9366
S1134A908F937F936F9361966CAD7DAD8EAD9FAD1B
S1134AA061970E94D33220E030E040E857E30E944F
S1134AB0D1339F938F937F936F9365966CAD7DAD48
S1134AC08EAD9FAD65970E94D33220E030E040E880
S1134AD057E30E94D1339F938F937F936F9369968B
S1134AE06CAD7DAD8EAD9FAD69970E94D13220E053
S1134AF030E44CE955E40E9423329F938F937F93D3
S1134B006F938CE696E29F938F93E096BFADE09708
S1134B10BF93AF96EFADAF97EF930E94AF3CCDBF7D
S1134B20DEBFC857DF4FCDBFDEBFDF91CF911F91EE
S1134B300F91FF90EF90DF90CF90BF90AF909F9038
S1134B408F907F906F905F904F903F902F9008953B
S1134B50CF93DF93D82FC92F282F392F4FE150E05F
S1134B6061E070E086EF96E20E94FB3C8D2F9C2F63
S1134B700E9440300E942E301F928F9386E197E26C
S1134B809F938F93CF93DF930E94AF3C8D2F9C2FE5
S1134B900E947C302D2F3C2F4DE150E061E070E00D
S1134BA084E297E20E94FB3C0F900F900F900F90CD
S1134BB00F900F90DF91CF9108951F920F920FB62F
S1134BC00F9211240BB60F922F923F924F925F9245
S1134BD06F927F928F929F92AF92BF92CF92DF9209
S1134BE0EF92FF920F931F932F933F934F935F93F3
S1134BF06F937F938F939F93AF93BF93CF93DF93E1
S1134C00EF93FF93E0E4F6E0D085D470C085C072E2
S1134C1080858071582E80858270382E2084409043
S1134C206008809168068073803131F08091680655
S1134C308073803209F0C7C08091100290911102F4
S1134C402091480625FB222720F931E02327E8E6B6
S1134C50F8E24081518162817381C52ED62EE72E00
S1134C60FF24E7FCFA944C195D096E097F09092EAB
S1134C70000CAA0BBB0BBA2FA92F982F8827840FDF
S1134C80951FA61FB71F80839183A283B383E0E49B
S1134C90F2E083A180FFFDCFE0E4F2E081E083A3B2
S1134CA080899189E8E6F8E24481558166817781BB
S1134CB0C52ED62EE72EFF24E7FCFA944C195D0985
S1134CC06E097F09092E000CAA0BBB0BBA2FA92F62
S1134CD0982F8827840F951FA61FB71F8483958359
S1134CE0A683B783E0E0F2E083A580FFFDCFE0E098
S1134CF0F2E081E083A782899389E8E6F8E24085BF
S1134D00518562857385C52ED62EE72EFF24E7FCD8
S1134D10FA944C195D096E097F09092E000CAA0B3F
S1134D20BB0BBA2FA92F982F8827840F951FA61F76
S1134D30B71F80879187A287B387E0E4F2E083A559
S1134D4080FFFDCFE0E4F2E081E083A782899389CC
S1134D50E8E6F8E24485558566857785C52ED62E26
S1134D60E72EFF24E7FCFA944C195D096E097F09CC
S1134D70092E000CAA0BBB0BBA2FA92F982F88273A
S1134D80840F951FA61FB71F84879587A687B787AB
S1134D908091CA28281709F457C188E080938506B2
S1134DA02093CA288091EF289091F028A091F128AF
S1134DB0B091F2288093D1289093D228A093D3283D
S1134DC0B093D42841C12091100230911102409136
S1134DD0F9295091FA29809188068071782EE8E6A5
S1134DE0F8E280819181A281B381241B350B032ECB
S1134DF0000C440B550BC92EDA2EEB2EFF24E7FCD6
S1134E00FA948C199D09AE09BF09CC24D22EE32E45
S1134E10F42E8C0D9D1DAE1DBF1D80839183A28336
S1134E20B383E0E4F2E083A180FFFDCFE0E4F2E0AD
S1134E3081E083A3608971898091FB299091FC2989
S1134E40E8E6F8E2C480D580E680F780681B790B39
S1134E50072E000C880B990B8D2C9E2CAF2CBB2499
S1134E60A7FCBA94C818D908EA08FB088824962E27
S1134E70A72EB82EC80CD91CEA1CFB1CC482D582F0
S1134E80E682F7820E942B38C088D188E288F388B2
S1134E903327F7FC3A952F2D1E2D0D2DC01AD10A5C
S1134EA0E20AF30AC60ED71EE81EF91EC08AD18A8A
S1134EB0E28AF38A6B017C01FF0CCC08DC2C7601BE
S1134EC0262F372F482F592F6C2D7C2D8C2D9C2D60
S1134ED0A08CB18CC28CD38CE48CF58C068D178D90
S1134EE00E944638208F318F428F538F648F758F85
S1134EF0868F978FE0E0F2E083A580FFFDCFE0E0AE
S1134F00F2E081E083A7228933894091FD29509101
S1134F10FE29E8E6F8E280859185A285B385241B05
S1134F20350B032E000C440B550BC92EDA2EEB2E39
S1134F30FF24E7FCFA948C199D09AE09BF09CC241F
S1134F40D22EE32EF42E8C0D9D1DAE1DBF1D808729
S1134F509187A287B387E0E4F2E083A580FFFDCFC9
S1134F60E0E4F2E081E083A7628973898091FF29FC
S1134F709091002AE8E6F8E2C484D584E684F784B4
S1134F80681B790B072E000C880B990B8D2C9E2C1B
S1134F90AF2CBB24A7FCBA94C818D908EA08FB08AC
S1134FA08824962EA72EB82EC80CD91CEA1CFB1CEC
S1134FB0C486D586E686F7860E942B38C488D588B1
S1134FC0E688F7883327F7FC3A952F2D1E2D0D2DF3
S1134FD0C01AD10AE20AF30AC60ED71EE81EF91E49
S1134FE0C48AD58AE68AF78A6B017C01FF0CCC0857
S1134FF0DC2C7601262F372F482F592F6C2D7C2D32
S11350008C2D9C2DA0A0B1A0C2A0D3A0E4A0F5A09B
S113501006A117A10E94463820A331A342A353A39B
S113502064A375A386A397A380A5781669F070A6D8
S11350308091EF289091F028A091F128B091F22866
S113504081A792A7A3A7B4A7E0E0F2E083A980FF19
S1135050FDCFE0E0F2E081E083AB84899589873D70
S1135060924094F41092672880916628882309F46A
S113507067C0809165288F5F80936528853008F428
S11350805FC0109266285CC01092652880916628E3
S1135090811156C0809167288F5F8093672885307F
S11350A008F44EC081E080936628E5ECF8E2808144
S11350B09181A281B3810196A11DB11D8083918349
S11350C0A283B3838091EF289091F028A091F128D6
S11350D0B091F22840916128509162286091632830
S11350E070916428841B950BA60BB70B82389640ED
S11350F0A105B10578F48091EF289091F028A09152
S1135100F128B091F228841B950B8093062090938C
S1135110072006C082E896E080930620909307203B
S11351208091EF289091F028A091F128B091F22875
S11351308093612890936228A0936328B093642895
S11351408091EF289091F028A091F128B091F22855
S1135150409161285091622860916328709164287D
S1135160841B950BA60BB70B83389640A105B1059C
S113517038F082E896E0809306209093072027C0B9
S1135180C090EF28D090F028E090F128F090F22819
S1135190C41AD50AE60AF70A8091062090910720DE
S11351A0092E000CAA0BBB0B8C159D05AE05BF0583
S11351B070F48091EF289091F028A091F128B0919B
S11351C0F228841B950B8093062090930720E1EC32
S11351D0F8E280819181A281B381492F5A2F6B2FEC
S11351E0772767FD7A958C019D01041B150B260B0F
S11351F0370B8091062090910720092E000CAA0BF2
S1135200BB0BBA2FA92F982F8827800F911FA21F9D
S1135210B31F80839183A283B383E0E4F2E083A984
S113522080FFFDCFE0E4F2E081E083AB84899589DF
S1135230E8E6F8E245A556A567A570A9C52ED62EC1
S1135240E72EFF24E7FCFA944C195D096E097F09E7
S1135250092E000CAA0BBB0BBA2FA92F982F882755
S1135260840F951FA61FB71F85A796A7A7A7B0AB46
S1135270E0E0F2E083AD80FFFDCF81E080933B026C
S1135280E0E4F2E083AD80FFFDCF81E080937B0218
S113529080916028882309F4C1C0612C6894772424
S11352A071F8D30156962D913C915797A9EFB9E225
S11352B05C968D919C915D97E8E6F8E2C1ACD2AC26
S11352C0E3ACF4AC281B390B032E000C440B550B38
S11352D08D2C9E2CAF2CBB24A7FCBA94C818D908DB
S11352E0EA08FB088824922EA32EB42EC80CD91CDD
S11352F0EA1CFB1CC1AED2AEE3AEF4AEE0E4F2E0D5
S1135300668977895E968D919C915F97A5EAB8E24C
S1135310CD90DD90ED90FC901397681B790B072ED0
S1135320000C880B990B8D2C9E2CAF2CBB24A7FC56
S1135330BA94C818D908EA08FB088824962EA72E20
S1135340B82EC80CD91CEA1CFB1CCD92DD92ED9240
S1135350FC9213970E942B38ADEAB8E2CD90DD9011
S1135360ED90FC9013973327F7FC3A952F2D1E2DC3
S11353700D2DC01AD10AE20AF30AC60ED71EE81E82
S1135380F91ECD92DD92ED92FC921397A9EBB8E24F
S1135390660F771F881F991F6B017C01FF0CCC08D7
S11353A0DC2C7601262F372F482F592F6C2D7C2D7E
S11353B08C2D9C2DAC901196BC9011971296CC908C
S11353C012971396DC9013971496EC9014971596F5
S11353D0FC90159716960C91169717961C91179793
S11353E00E9446382C9311963C93119712964C9335
S11353F0129713965C93139714966C9314971596BF
S11354007C93159716968C93169717969C9381E622
S1135410D301D9968C9389E281AFA0C0612C6894A2
S1135420772471F8F30126893789A9EFB9E25896F0
S11354308D919C915997E8E6F8E2C1A8D2A8E3A817
S1135440F4A8281B390B032E000C440B550B8D2C90
S11354509E2CAF2CBB24A7FCBA94C818D908EA0820
S1135460FB088824922EA32EB42EC80CD91CEA1C47
S1135470FB1CC1AAD2AAE3AAF4AA609156027091B5
S113548057025A968D919C915B97C5A8D6A8E7A818
S1135490F0AC681B790B072E000C880B990B8D2C34
S11354A09E2CAF2CBB24A7FCBA94C818D908EA08D0
S11354B0FB088824962EA72EB82EC80CD91CEA1CEB
S11354C0FB1CC5AAD6AAE7AAF0AE0E942B38E9EACB
S11354D0F8E2C080D180E280F3803327F7FC3A956C
S11354E02F2D1E2D0D2DC01AD10AE20AF30AC60E65
S11354F0D71EE81EF91EC082D182E282F382E1EB5C
S1135500F8E2DC01CB01880F991FAA1FBB1F6C01B5
S11355107D01FF0CCC08DC2C7601282F392F4A2F73
S11355205B2F6C2D7C2D8C2D9C2DA080B180C28096
S1135530D380E480F580068117810E944638208359
S1135540318342835383648375838683978389E598
S1135550D301D9968C9389E38093790281E0909169
S11355606028911180E08093602831102EC08091D2
S1135570DF289091E028292F3327821B930B26FCE8
S113558005C08093DF289093E02806C081509F4F88
S11355908093DF289093E028EDEDF8E220813181BB
S11355A0842D90E040915F28841B9109880F991FF6
S11355B0880F991F880F991F432F5527241B350BDC
S11355C0820F931F8083918308C01092DF2810926A
S11355D0E0281092DD281092DE2840925F28809106
S11355E0C928581691F05092C9288091EF289091BB
S11355F0F028A091F128B091F2288093CD289093BF
S1135600CE28A093CF28B093D0288091CB28D81748
S113561009F45DC0D093CB288091EF289091F028B5
S1135620A091F128B091F2288093D5289093D628A0
S1135630A093D728B093D828D11142C04091C12853
S11356405091C2286091C3287091C4288091680643
S1135650807329F080E090E0AEE4B0E004C080E024
S113566090E0A0EDB0E0481759076A077B0744F5BE
S113567081E080935E2882E08093E5284093E128CE
S11356805093E2286093E3287093E42840935A28C7
S113569050935B2860935C2870935D2888E893E1BD
S11356A08093582890935928E0E8F6E085E08583B4
S11356B08AE086838091CC28C81709F479C10CC08C
S11356C010925E288091CC28C81306C01EC1809118
S11356D0CC28C81709F47AC0C093CC288091EF284D
S11356E09091F028A091F128B091F2288093D928C4
S11356F09093DA28A093DB28B093DC28C11163C00F
S113570081E080935E288091C1289091C228A09165
S1135710C328B091C42880935A2890935B28A093FF
S11357205C28B0935D284091EA285091EB28609161
S1135730EC287091ED28481759076A077B07A4F4F1
S11357408091EA289091EB28A091EC28B091ED2863
S11357508093E1289093E228A093E328B093E4286F
S113576087E08093E5280BC08093E1289093E2289A
S1135770A093E328B093E42882E08093E52888E8A6
S113578093E180935828909359288091E5288111BA
S113579004C08FE08093860619C0873019F4809383
S11357A0850614C0813021F488E0809385060EC0FC
S11357B080958770E0E8F6E085838091E52887701E
S11357C08860868303C010925E289FC080915E2803
S11357D0882309F49AC080915828909159280197F8
S11357E08093582890935928892B09F08EC0C111B1
S11357F016C08091EE28882391F08091E62890913C
S1135800E728A091E828B091E9288093E1289093B3
S1135810E228A093E328B093E4281092EE28809124
S1135820C1289091C228A091C328B091C428409166
S1135830E1285091E2286091E3287091E428481708
S113584059076A077B07ACF400915A2810915B282A
S113585020915C2830915D28081719072A073B0717
S113586044F42091E528273020F42F5F2093E52885
S113587019C084179507A607B707A4F440915A28BE
S113588050915B2860915C2870915D28841795077E
S1135890A607B7073CF48091E528882339F08150A6
S11358A08093E5288091E528811104C08FE08093DE
S11358B0860615C0873019F48093850610C08130A0
S11358C021F488E0809385060AC080958770E0E81B
S11358D0F6E085838091E52887708860868388E870
S11358E093E180935828909359288091C1289091EE
S11358F0C228A091C328B091C42880935A289093B9
S11359005B28A0935C28B0935D288091F3288823BA
S1135910E1F08EE7E8E6F8E2A8EFB8E201900D9234
S11359208A95E1F78091EF289091F028A091F128D1
S1135930B091F2288093F4289093F528A093F62848
S1135940B093F7281092F3281FC0809176298823FA
S1135950D9F08EE7E8E6F8E2ABE7B9E201900D9200
S11359608A95E1F78091EF289091F028A091F12891
S1135970B091F2288093772990937829A09379297C
S1135980B0937A29109276298091EF289091F0288B
S1135990A091F128B091F2280196A11DB11D809328
S11359A0EF289093F028A093F128B093F2280AC02E
S11359B08091582890915928019780935828909362
S11359C05928A3CFFF91EF91DF91CF91BF91AF9170
S11359D09F918F917F916F915F914F913F912F9103
S11359E01F910F91FF90EF90DF90CF90BF90AF90F9
S11359F09F908F907F906F905F904F903F902F90EB
S1135A000F900BBE0F900FBE0F901F901895AC0116
S1135A10FB018081982F9D7F953281F0811119C0FF
S1135A2020E00DC09D932F5F2E3471F09191392F9A
S1135A303D7F353221F09111F5CF01C020E0FA010C
S1135A40E20FF11D10820895FA01E35BFF4F10820B
S1135A500895DA018D93FB01319621E0E7CF88E0C8
S1135A6090E20E94072D80E090E0089585EC9AE290
S1135A700E94072D80E090E0089587E79AE20E9453
S1135A80072D80E090E0089589E29AE20E94072DB4
S1135A9080E090E008956FE27DE282E497E20E9464
S1135AA0790266E37DE287E497E20E9479026DE37E
S1135AB07DE28CE497E20E94790264E47DE281E570
S1135AC097E20E947902089529E23AE23F932F93E4
S1135AD027E73AE23F932F9325EC3AE23F932F9343
S1135AE028E030E23F932F9326E537E23F932F934C
S1135AF09F938F930E94AF3C8DB79EB70C968DBF3A
S1135B009EBF0895CF93DF93F8941092A408109247
S1135B10B40820EA39E0D90114961C92C0EBD9E00C
S1135B201C821092A40A1092B40A60EA7BE0FB0182
S1135B301482E0E6F6E088E1828B868B40EA56E048
S1135B40DA0152968C93529798E8958392E0968363
S1135B509AE8918394E4928398E015969C93159720
S1135B6011969C93119794E012969C9390E1908BDC
S1135B70948B958B45EFF901468390EB97834E8385
S1135B809F839CE0DB0116969C93169792EB1796E5
S1135B909C93179784838C8314968C93149780E238
S1135BA083838B8313968C93E0EAF0E08281836095
S1135BB08283DF91CF9108958091E32D9091E22D1E
S1135BC0891710F0891B08958C54891B0895CF936D
S1135BD0C091E22D0E94DC2D8823E1F3EC2FF0E04C
S1135BE0E25DF24D808191E09C0F943B08F090E0DF
S1135BF09093E22DCF91089520919A2E91E0920FE7
S1135C008091992E943B10F09DE4920F891710F027
S1135C10891B08958C54891B08950F931F93CF9368
S1135C20DF93D82F00EA19E0C1E202C0F801C38370
S1135C300E94FC2D8823D1F3C0919A2EEC2FF0E022
S1135C40EB51F24DD083CF5FC43B08F0C0E0E0EAF3
S1135C50F0E01281812F8E7F82838091E42D88234E
S1135C6029F0C0939A2E1093A20016C082E080936C
S1135C7065060E94153021E02093E42DC0939A2EEE
S1135C80C0EAD9E020E22B831093A20063E070E025
S1135C900E941A3081E28B83DF91CF911F910F9183
S1135CA008958091312C9091302C891710F0891B24
S1135CB00895805B891B0895CF93C091302C0E9476
S1135CC0512E8823E1F3EC2FF0E0E052F44D808173
S1135CD091E09C0F903508F090E09093302CCF9198
