:100000000C94AF010C94D0010C94D0010C94D0014D
:100010000C94D0010C94D0010C94D0010C94D0011C
:100020000C94D0010C94D0010C94D0010C94D0010C
:100030000C94D0010C94D0010C94D0010C94D001FC
:100040000C94D0010C94D0010C94D0010C94D001EC
:100050000C94D0010C94D0010C94D0010C94D001DC
:100060000C94D0010C94D0010C94D0010C94D001CC
:100070000C94D0010C94D0010C94D0010C94D001BC
:100080000C94D0010C94D0010C94D0010C94D001AC
:100090000C94D0010C94D0010C94D0010C94D0019C
:1000A0000C94D0010C94D0010C94D0010C94D0018C
:1000B0000C94D0010C94D0010C94D0010C94D0017C
:1000C0000C94D0010C94D0010C94D0010C94D0016C
:1000D0000C94D0010C94D0010C94D0010C94D0015C
:1000E0000C94D0010C94D0010C94D0010C94D0014C
:1000F0000C94D0010C94D0010C94D0010C94D0013C
:100100000C94D0010C94D0010C94D0010C94D0012B
:100110000C94D0010C94D0010C94D0010C94942533
:100120000C94D0010C94D0010C94D0010C94D0010B
:100130000C94D0010C94D0010C94D0010C94D001FB
:100140000C94D0010C94D0010C94D0010C94D001EB
:100150000C94D0010C94D0010C94D0010C94D001DB
:100160000C94902E0C94B82E0C94E92E0C94062F1F
:100170000C942E2F0C94D0010C94D0010C94D0012F
:100180000C94D0010C94D0010C94D0010C94D001AB
:100190000C94D0010C94D0010C94D0010C94D0019B
:1001A0000C94D0010C94D0010C94D0010C94D0018B
:1001B0000C94D0010C94D0010C94D0010C94D0017B
:1001C0000C94D0010C94D0010C94D0010C94D0016B
:1001D0000C94D0010C94D0010C94D0010C945F2F9E
:1001E0000C94872F0C94D0010C94D0010C94D00166
:1001F0000C94D0010C94D0010C94D0010C94FF0A03
:100200000C94E10B0C94490C0C94F72C0C94FD0C01
:100210000C943F0B0C94290E0C941B0F0C949D0A0C
:100220000C94670D0C94770B0C94530F0C94830E65
:100230000C94E1090C94F02C0C94230A0C94DB0927
:100240000C94602E0C94E22C0C94CF0D0C94C10EE7
:100250000C94A30C0C94E92C0C94650A6E616E004E
:10026000696E660000407A10F35A00A0724E1809B9
:100270000010A5D4E80000E87648170000E40B540D
:10028000020000CA9A3B000000E1F50500008096DC
:100290009800000040420F000000A086010000000E
:1002A000102700000000E8030000000064000000C8
:1002B00000000A00000000000100000000002C7691
:1002C000D888DC674F0823DFC1DFAE59E1B1B796AC
:1002D000E5E3E453C63AE651997696E8E6C2842609
:1002E000EB898C9B62ED407C6FFCEFBC9C9F40F2E5
:1002F000BAA56FA5F490055A2AF75C936B6CF96761
:100300006DC11BFCE0E40D47FEF520E6B500D0ED25
:10031000902E0300943577050080841E080000208D
:100320004E0A000000C80C333333330F986E12832B
:100330001141EF8D2114893BE65516CFFEE6DB18FF
:10034000D1844B381BF77C1D901DA4BBE4242032C4
:1003500084725E228100C9F124ECA1E53D271124BD
:100360001FBECFEFCDBFDFE5DEBF00E00CBF17E261
:10037000A0E0B0E2EEE5FCE700E00BBF02C00790B2
:100380000D92A03AB107D9F72EE2A0EAB7E201C078
:100390001D92A539B207E1F70E9407060C942D3E85
:1003A0000C9400000F93CF93DF931F92CDB7DEB76D
:1003B0002FB72983F8941BBEFC0108ED04BF6083AE
:1003C00089818FBF0F90DF91CF910F9108956111B7
:1003D00002C090E001C090E2842B892B80935200F0
:1003E00008956F71862B809355000895E0E5F0E045
:1003F0009081282F209592239083908189230895BE
:100400000F931F93CF93C82F00E410E0F801608191
:10041000687F682B80E490E00E94D201F80180811F
:100420008C23CF911F910F9108958093FB27909378
:10043000FC271092F9271092FA271092F7271092B2
:10044000F8271092F5271092F6271092F3271092B2
:10045000F42708958F929F92AF92BF92CF92DF922E
:10046000EF92FF920F931F93CF93DF934C016B0199
:100470005A0179010091F9271091FA270F5F1F4F58
:100480008BE0809FE001819FD00D1124BE018091FF
:10049000F5279091F6270E9432398093F5279093A3
:1004A000F6270097B9F02B97C80FD91F44E050E00A
:1004B000B401CE010E94483C1C82A986BA86CF8234
:1004C000D886ED82FE820093F9271093FA2780E008
:1004D00090E002C081E090E0DF91CF911F910F91F9
:1004E000FF90EF90DF90CF90BF90AF909F908F9054
:1004F0000895AF92BF92CF92DF92EF92FF920F9347
:100500001F93CF93DF935C016B01E090F727F0908E
:10051000F8278FEFE81AF80A8701000F111F000F64
:10052000111F000F111F0E191F09B8018091F32729
:100530009091F4270E9432398093F3279093F42707
:100540000097A9F007501109EC01C00FD11F44E03A
:1005500050E0B501CE010E94483C1C82CD82DE8273
:10056000E092F727F092F82780E090E002C081E067
:1005700090E0DF91CF911F910F91FF90EF90DF906E
:10058000CF90BF90AF9008950F931F93CF93DF93B9
:100590008091F9279091FA2718161906E4F400E0E3
:1005A00010E0C0E0D0E08091F5279091F627800F11
:1005B000911FDC011996ED91FC911A97309709F083
:1005C00019952196055F1F4F8091F9279091FA2781
:1005D000C817D90744F3DF91CF911F910F91089568
:1005E0009F92AF92BF92CF92DF92EF92FF920F93C2
:1005F0001F93CF93DF93CDB7DEB72597CDBFDEBF77
:10060000D82EC92E8B01685F7F4F44E050E0CE01A9
:1006100001960E94483C1D8244E050E064EC70E288
:10062000CE0101960E943A3C892B41F04091F72778
:100630005091F8271416150624F080C00E94C402B9
:1006400099C0A090F327B090F42739816A817B810B
:100650009C80F501EE24EA94FE2C80E090E0DF011E
:1006600020812A3211F0231317C011962C91119773
:100670002A3211F0261310C012962C9112972A32AA
:1006800011F0271309C013962C912A3221F0291159
:1006900003C07C0101C07C010196379648175907B9
:1006A000F1F68FEFE816F80609F448C0B801645F68
:1006B0007F4FC701880F991F880F991F880F991FB7
:1006C0008E199F09F501E80FF91F0580F681E02DCD
:1006D000CE0101961995892BA1F48091FC278F9367
:1006E0008091FB278F9389EC90E29F938F931F92C9
:1006F0008DE48F93CF92DF920E94F03CCDBFDEBF9E
:1007000039C0ED2DFC2DDF010D900020E9F780911F
:10071000FC278F938091FB278F9382ED90E29F932C
:100720008F93EA1BFB0BE15BFF4FFF93EF93CF929D
:10073000DF920E94F03CCDBFDEBF1CC0ED2DFC2D32
:10074000DF010D900020E9F78091FC278F938091C5
:10075000FB278F9381EE90E29F938F93EA1BFB0B15
:10076000E15BFF4FFF93EF93CF92DF920E94F03C4B
:10077000CDBFDEBF2596CDBFDEBFDF91CF911F91EC
:100780000F91FF90EF90DF90CF90BF90AF909F9030
:100790000895CF93DF93EC0107C00E94C02D86E639
:1007A00094E000000197E9F789918111F6CF8DE07F
:1007B0000E94C02D8AE00E94C02DDF91CF91089544
:1007C0001F93CF93DF93EC0110E020C00E949A2D7D
:1007D0009DED980F923018F48883198217C0988184
:1007E0009352923098F4FE0101900020E9F731977E
:1007F000EC1BFD0BE23550F49E012E0F311DF9016B
:100800008083118211E08A3009F010E00E948F2D60
:10081000882311F01123D1F2812FDF91CF911F9105
:1008200008954F925F926F927F928F929F92AF92B4
:10083000BF92CF92DF92EF92FF920F931F93CF93CD
:10084000DF93CDB7DEB72597CDBFDEBF8C014AE081
:1008500050E060E070E001960E94173AF8012081B4
:10086000233209F0BDC18481E090FB27F090FC2782
:10087000E616F70619F0672B21F0B4C1E114F10474
:1008800049F4833509F0A8C1B80180EA97E20E94D3
:10089000F002A2C1893401F130F4813459F0873477
:1008A00009F4C5C066C1833509F45EC1873509F412
:1008B00069C05FC1FF92EF928DEF90E29F938F939B
:1008C0001F928DE48F9380EA97E29F938F930E940B
:1008D000F03CCDBFDEBF4DC14AE050E060E070E0CB
:1008E000C80105960E94173A16161706B4F54091EE
:1008F000F9275091FA27461757077CF12BE0269FDE
:10090000F001279FF00D11249F012B503109E09138
:10091000F527F091F627E20FF31F7F936F9326815F
:100920002F9325812F93FF93EF937F936F93809164
:10093000FC278F938091FB278F9385E191E29F9312
:100940008F931F928DE48F9380EA97E29F938F930A
:100950000E94F03CCDBFDEBF0CC17F936F938091AE
:10096000FC278F938091FB278F9382E391E29F93E3
:100970008F9380EA97E29F938F930E94273DCDBF8C
:10098000DEBFF7C04AE050E060E070E0C8010596C5
:100990000E94173A9B01161617068CF54091F7270F
:1009A0005091F8274617570754F1220F331F220F93
:1009B000331F220F331F261B370B2750310940915D
:1009C000F3275091F427240F351F3F932F937F93E4
:1009D0006F938091FC278F938091FB278F9381E504
:1009E00091E29F938F931F928DE48F9380EA97E219
:1009F0009F938F930E94F03CCDBFDEBFBAC07F9320
:100A00006F938091FC278F938091FB278F938BE6C8
:100A100091E29F938F931F928DE48F9380EA97E2E8
:100A20009F938F930E94F03CCDBFDEBFA2C044E0F5
:100A300050E0B8016B5F7F4FCE0101960E94483CA9
:100A40001D828090F9279090FA27181419040CF051
:100A500078C0DE011196FD0101900020E9F7319781
:100A60003F016A1A7B0AA090F527B090F62744242C
:100A70004A94542CC12CD12CA301B501CE0101966E
:100A80000E943A3C892B09F426019FEFC91AD90A22
:100A9000EBE0AE0EB11CC814D90471F7FFEF4F168E
:100AA0005F0609F44EC0FF92EF9284E891E29F93B3
:100AB0008F930F2EF0EAEF2EF7E2FF2EF02DFF922C
:100AC000EF920E94273DF70101900020E9F731974E
:100AD000E05AF7424DE450E04E1B5F0BBF016056F9
:100AE000784D2BE0249DC001259D900D1124E091AF
:100AF000F527F091F627E80FF91F0780F085E02D24
:100B0000CE01019619950F900F900F900F900F90B6
:100B10000F90892B71F18091FC278F938091FB2797
:100B20008F938BE891E29F938F93C7019F93EF92EE
:100B30000E94273D0F900F900F900F900F900F90F5
:100B400018C0FF92EF9281EA91E29F938F9380EA1F
:100B500097E29F938F930E94273D0F900F900F90E5
:100B60000F900F900F9005C0B80180EA97E20E94A5
:100B7000F0028091A127853261F0882361F0E2EADA
:100B8000F7E290E098278191853231F08111FACF18
:100B900003C090E001C090E0E0EAF7E2019000209D
:100BA000E9F73197E05AF7421F929F938BEB91E25E
:100BB0009F938F9383E590E08E1B9F0B9F938F9362
:100BC000E056F84DFF93EF930E94F03C80EA97E2E5
:100BD0000E94C903CDBFDEBFF801108281E003C0CF
:100BE00080E001C080E02596CDBFDEBFDF91CF91D0
:100BF0001F910F91FF90EF90DF90CF90BF90AF903B
:100C00009F908F907F906F905F904F9008954BE0F2
:100C100060E080EC0E94E701E0E5F0E08081886020
:100C20008083818183FFFDCF62E080EC0E94F1012F
:100C3000E0E5F0E0808180618083818184FFFDCFE9
:100C400084E00E94000281E00E94F60182E00E949E
:100C5000F601E0E4F6E08FE7828380E1808BE0E656
:100C6000F6E091E09283808BE0E8F6E08FEC808301
:100C70008FE08683E0EAF6E089EF808388E386836D
:100C80000E9427310E94B82F0E94352D0E94E12F2B
:100C900090E00E9415020E94B50F0E9470070E940A
:100CA000FE2C789486E590E20E945F25C0E0312C0E
:100CB000412C512C3201812C912C540100EA16E078
:100CC000D0E30E9415070E94042E8823E1F00E94C1
:100CD0000F2E833451F0833641F08B3151F461E0B3
:100CE00089E790E00E94D20104C086E590E20E946C
:100CF0004E120E9459184B015C010E9459186B0159
:100D00007C01C1E007C00E9459186B017C01CC2313
:100D100009F484C0D701C60188199909AA09BB0939
:100D200088389341A105B10508F078C062C082E01F
:100D3000381609F441C0831530F0332041F0E1E06A
:100D40003E1621F154C0F3E03F1251C03FC0C41819
:100D5000D508E608F70820ECC21626ECD2062DE2EC
:100D6000E206F10468F080EC480E86EC581E8DE235
:100D7000681E711C86E590E20E945F25C0E039C0C4
:100D80000E945518C0E03324339433C08091680624
:100D9000807349F486E590E20E947618C0E068947A
:100DA000332431F826C086E590E20E949A20C0E004
:100DB0006894332431F81DC086E590E20E9423092F
:100DC000C0E00F2EF3E03F2EF02D13C086E590E239
:100DD0000E94172D26E530E243E050E061E070E02C
:100DE00082EC91E20E94AE3CC0E0312C02C0C0E037
:100DF000312C0E948F2D882319F0F801D68302C070
:100E0000F801D5838DEF97E20E94E003813009F06D
:100E100058CF8DEF97E20E94110453CF0E94242EE9
:100E2000863908F084CFC0E0E4CF08950F931F9374
:100E3000CF93DF93413021F491E09093460640C078
:100E400090E8909346063CC09683DE01022E02C0D5
:100E5000AA0FBB1F0A94E2F7AA2324F4D80115961F
:100E60008C9303C0D80116968C9395832F5F3F4FC8
:100E70002830310549F780E090E0E0E6F6E021E037
:100E800070E0C0E8D6E030E42683DB01082E02C023
:100E9000AA0FBB1F0A94E2F7AA2314F43D8301C0F2
:100EA0003E83258301968830910571F7413021F406
:100EB00081E0809345060FC080E8809345060BC013
:100EC00020E030E0E0E6F6E091E0C82FD0E000E876
:100ED00016E080E4B9CFDF91CF911F910F91089573
:100EE000CF93DF93A0E8B6E020E411962C931197FE
:100EF000E0E4F6E081E0818390E89183C0E6D6E00B
:100F000089838D8316962C9316978583958380937A
:100F1000A20612969C9340E067E480E20E941607C6
:100F200040E068E081E20E94160740E064E984E264
:100F30000E94160740E060E285E20E94160740E04A
:100F400060E086E20E94160741E06FE880E20E94BE
:100F5000160741E060E081E20E941607DF91CF9121
:100F600008954F925F927F928F929F92AF92BF921D
:100F7000CF92DF92EF92FF920F931F93CF93DF9365
:100F8000762E413021F491E09093460603C090E81C
:100F900090934606806860E070E0A82FB0E00F2EC6
:100FA000F0E8EF2EF6E0FF2EF02D80E4E0E6F6E02C
:100FB00091E09D01062E02C0220F331F0A94E2F732
:100FC00027FF03C0E7018D8302C0E7018E8396836C
:100FD00095836F5F7F4F6830710559F780E4809388
:100FE000850698E020E030E0E0E0F0E0C0E6D6E002
:100FF00051E00F2EF0EACF2EF6E0DF2EF02D0F2E6F
:10100000F0E8EF2EF6E0FF2EF02D5E835D83D60133
:1010100018968C91EE0FFF1FFF2780FB442440F8A9
:10102000512CE429F529D7011896AC904901880C78
:10103000991C99242A2DAA0C330B5901AA24BB0C04
:10104000AA1CBB249501282939299150F1F6B1E059
:10105000B715D8F580E090E0C0E0D0E00F2EF0E6C4
:10106000EF2EF6E0FF2EF02D51E00F2EF0EAAF2E1E
:10107000F6E0BF2EF02D0F2EF0E8CF2EF6E0DF2E9B
:10108000F02DD70116965C93D50118969C90CC0F45
:10109000DD1FDD27092D017010E0C02BD12BD601FB
:1010A00018969C90880F991F9927A92D990CBB0B16
:1010B000AA27BB0FAA1FBB278A2B9B2BD7011596EC
:1010C0005C9361507109E9F604C080E090E0C0E0F3
:1010D000D0E0413041F481E0809345069C2F882781
:1010E0008E2B9F2B07C040E840934506982F8827FA
:1010F000822B932BDF91CF911F910F91FF90EF9057
:10110000DF90CF90BF90AF909F908F907F905F9037
:101110004F90089540E062E085EC0E94B107BC0169
:10112000990F880B990B0E94863220E030E040E056
:101130005EE30E9484330895811106C040E062E0BE
:1011400088EC0E94B10712C0813031F440E062E0C7
:101150008AEC0E94B1070AC0823031F440E062E0BC
:101160008CEC0E94B10702C080E090E0BC01990FB6
:10117000880B990B0E94863220E030E04AE754E465
:101180000E94D6312AE037ED43E25EE30E948433C9
:101190000895811106C040E062E088EE0E94B10728
:1011A00012C0813031F440E062E08AEE0E94B10763
:1011B0000AC0823031F440E062E08CEE0E94B10758
:1011C00002C080E090E0BC01990F880B990B0E944F
:1011D000863220E030E04AE754E40E94D63123EC26
:1011E00035EF4CE151E40E94843323E23BED49EFBB
:1011F0005DE30E9484330895811106C041E062E0FE
:1012000088E60E94B10712C0813031F441E062E00B
:101210008AE60E94B1070AC0823031F441E062E000
:101220008CE60E94B10702C080E090E0BC01990FFB
:10123000880B990B0E94863229E23CE54FE05CE383
:101240000E94843308952F923F924F925F926F9243
:101250007F928F929F92AF92BF92CF92DF92EF9246
:10126000FF920F931F93CF93DF93CDB7DEB76697AF
:10127000CDBFDEBF8B8B9C8B0E948A08562E472EDB
:10128000382E292E82E00E94FC08962E872E782E7A
:10129000692E81E00E94FC0869837A83B82EA92E0A
:1012A00080E00E94FC086B837C838D839E8382E0B8
:1012B0000E949C086F83788789879A8781E00E94C3
:1012C0009C086B877C878D879E8780E00E949C08A6
:1012D0006F87788B898B9A8B82E00E94C908F62EE3
:1012E000E72ED82EC92E81E00E94C9086D8B7E8B17
:1012F000182F092F80E00E94C9082F923F924F9229
:101300005F926F927F928F929F92AF92BF922A814B
:101310002F9329812F932E812F932D812F932C8111
:101320002F932B812F932A852F9329852F932885FF
:101330002F932F812F932E852F932D852F932C85DF
:101340002F932B852F932A892F9329892F932889CF
:101350002F932F852F93CF92DF92EF92FF920F93CF
:101360001F932E892F932D892F939F938F937F9374
:101370006F9386EC91E29F938F938C898F939B89D7
:101380009F930E94623CCDBFDEBF6696CDBFDEBF9D
:10139000DF91CF911F910F91FF90EF90DF90CF9051
:1013A000BF90AF909F908F907F906F905F904F9085
:1013B0003F902F90089581E08093E62880E090E0B0
:1013C0000895FF920F931F93CF93DF938B01EA0150
:1013D00060915329709154298091552990915629F3
:1013E000F0904D290E94843220E030E44CE955E42D
:1013F0000E94D6319F938F937F936F9381E090E00B
:10140000F11080E09F938F9389EF91E29F938F93E8
:10141000DF93CF931F930F930E94F03CEDB7FEB77D
:101420003C96EDBFFEBF8C179D072CF0F801108293
:1014300081E090E002C080E090E0DF91CF911F91C9
:101440000F91FF900895FF920F931F93CF93DF9317
:101450008B01EA0160914F297091502980915129A7
:1014600090915229F0904C290E94843220E030E47F
:101470004CE955E40E94D6319F938F937F936F93ED
:1014800081E090E0F11080E09F938F9389EF91E2EB
:101490009F938F93DF93CF931F930F930E94F03C02
:1014A000EDB7FEB73C96EDBFFEBF8C179D072CF045
:1014B000F801108281E090E002C080E090E0DF91CE
:1014C000CF911F910F91FF9008950F931F93CF938A
:1014D000DF938B01EA01609118297091192980919D
:1014E0001A2990911B290E94863220E030E040E2C8
:1014F00059E40E94D6319F938F937F936F9381E03D
:1015000092E29F938F93DF93CF931F930F930E9449
:10151000F03CEDB7FEB73A96EDBFFEBF8C179D07C6
:101520002CF0F801108281E090E002C080E090E0B1
:10153000DF91CF911F910F910895CF92DF92EF929B
:10154000FF920F931F93CF93DF938B01EA0160917A
:101550004429709145298091462990914729611528
:1015600071058105910509F10E94863220E030E085
:1015700040E857E30E9484339B01AC0160E070E8CF
:101580008BE894E40E94D631F62EE72ED82EC92E91
:1015900020E030E040E85FE30E94D13188234CF442
:1015A000F12CE12CD12CC12C04C0F12CE12CD12C3C
:1015B000C12CCF92DF92EF92FF9281E092E29F9353
:1015C0008F93DF93CF931F930F930E94F03CEDB75F
:1015D000FEB73A96EDBFFEBF8C179D072CF0F801C1
:1015E000108281E090E002C080E090E0DF91CF9136
:1015F0001F910F91FF90EF90DF90CF900895FF9291
:101600000F931F93CF93DF938B01EA01EBEEF8E288
:1016100061A572A583A594A5F0A40E94843220E060
:1016200030E44CE955E40E94D6319F938F937F9329
:101630006F9381E090E0F11001C080E09F938F9361
:1016400089EF91E29F938F93DF93CF931F930F9333
:101650000E94F03CEDB7FEB73C96EDBFFEBF8C1785
:101660009D072CF0F801108281E090E002C080E03C
:1016700090E0DF91CF911F910F91FF9008950F930C
:101680001F93CF93DF938B01EA016091E72870915C
:10169000E8288091E9289091EA280E94843220E08D
:1016A00030E44CE955E40E94D6319F938F937F93A9
:1016B0006F938CEF91E29F938F93DF93CF931F9360
:1016C0000F930E94F03CEDB7FEB73A96EDBFFEBF18
:1016D0008C179D072CF0F801108281E090E002C089
:1016E00080E090E0DF91CF911F910F9108954F928C
:1016F0005F926F927F928F929F92AF92BF92CF92A2
:10170000DF92EF92FF920F931F93CF93DF938B01A2
:10171000EA01EBEEF8E220A131A142A153A164A1BC
:1017200075A186A197A1E2EEF9E24088518862880E
:10173000738884889588A688B7880E947E326B015A
:101740007C0120E030E44CE955E4C301B2010E9481
:101750008433A50194010E9484339B01AC01C7012D
:10176000B6010E94D6319F938F937F936F9381E050
:1017700092E29F938F93DF93CF931F930F930E94D7
:10178000F03CEDB7FEB73A96EDBFFEBF8C179D0754
:101790002CF0F801108281E090E002C080E090E03F
:1017A000DF91CF911F910F91FF90EF90DF90CF903D
:1017B000BF90AF909F908F907F906F905F904F9071
:1017C00008954F925F926F927F928F929F92AF9205
:1017D000BF92CF92DF92EF92FF920F931F93CF931E
:1017E000DF938B01EA016091FF28709100298091BD
:1017F000012990910229E2EEF9E24088518862883D
:10180000738884889588A688B7880E9486326B0181
:101810007C0120E030E040E853E4C301B2010E94C3
:101820008433A50194010E9484339B01AC01C7015C
:10183000B6010E94D6319F938F937F936F9381E07F
:1018400092E29F938F93DF93CF931F930F930E9406
:10185000F03CEDB7FEB73A96EDBFFEBF8C179D0783
:101860002CF0F801108281E090E002C080E090E06E
:10187000DF91CF911F910F91FF90EF90DF90CF906C
:10188000BF90AF909F908F907F906F905F904F90A0
:1018900008958F929F92AF92BF92CF92DF92EF9274
:1018A000FF920F931F93CF93DF938B01EA01609117
:1018B000F7287091F8288091F9289091FA28809063
:1018C000F6299090F729A090F829B090F9290E9464
:1018D00086326B017C0120E030E040E857E4C5012E
:1018E000B4010E9484339B01AC01C701B6010E9480
:1018F000D6319F938F937F936F9381E092E29F9372
:101900008F93DF93CF931F930F930E94F03CEDB71B
:10191000FEB73A96EDBFFEBF8C179D072CF0F8017D
:10192000108281E090E002C080E090E0DF91CF91F2
:101930001F910F91FF90EF90DF90CF90BF90AF90ED
:101940009F908F9008958F929F92AF92BF92CF9267
:10195000DF92EF92FF920F931F93CF93DF938B0150
:10196000EA016091F3287091F4288091F528909114
:10197000F6288090F2299090F329A090F429B09055
:10198000F5290E9486326B017C0120E030E040E8BE
:1019900057E4C501B4010E9484339B01AC01C70127
:1019A000B6010E94D6319F938F937F936F9381E00E
:1019B00092E29F938F93DF93CF931F930F930E9495
:1019C000F03CEDB7FEB73A96EDBFFEBF8C179D0712
:1019D0002CF0F801108281E090E002C080E090E0FD
:1019E000DF91CF911F910F91FF90EF90DF90CF90FB
:1019F000BF90AF909F908F9008954F925F926F929B
:101A00007F928F929F92AF92BF92CF92DF92EF928E
:101A1000FF920F931F93CF93DF938B01EA01EBEEBD
:101A2000F8E2208D318D428D538D648D758D868DBC
:101A3000978DE2EEF9E24084518462847384848459
:101A40009584A684B7840E947E326B017C0120E0DD
:101A500030E44CE955E4C301B2010E948433A5018E
:101A600094010E9484339B01AC01C701B6010E941E
:101A7000D6319F938F937F936F9381E092E29F93F0
:101A80008F93DF93CF931F930F930E94F03CEDB79A
:101A9000FEB73A96EDBFFEBF8C179D072CF0F801FC
:101AA000108281E090E002C080E090E0DF91CF9171
:101AB0001F910F91FF90EF90DF90CF90BF90AF906C
:101AC0009F908F907F906F905F904F9008954F926E
:101AD0005F926F927F928F929F92AF92BF92CF92BE
:101AE000DF92EF92FF920F931F93CF93DF938B01BF
:101AF000EA016091FB287091FC288091FD2890916B
:101B0000FE28E2EEF9E24084518462847384848486
:101B10009584A684B7840E9486326B017C0120E004
:101B200030E040E853E4C301B2010E948433A501D0
:101B300094010E9484339B01AC01C701B6010E944D
:101B4000D6319F938F937F936F9381E092E29F931F
:101B50008F93DF93CF931F930F930E94F03CEDB7C9
:101B6000FEB73A96EDBFFEBF8C179D072CF0F8012B
:101B7000108281E090E002C080E090E0DF91CF91A0
:101B80001F910F91FF90EF90DF90CF90BF90AF909B
:101B90009F908F907F906F905F904F9008958F925D
:101BA0009F92AF92BF92CF92DF92EF92FF920F93EC
:101BB0001F93CF93DF938B01EA016091EF2870911F
:101BC000F0288091F1289091F2288090EE29909051
:101BD000EF29A090F029B090F1290E9486326B0184
:101BE0007C0120E030E040E857E4C501B4010E94E8
:101BF00084339B01AC01C701B6010E94D6319F938B
:101C00008F937F936F9381E092E29F938F93DF9303
:101C1000CF931F930F930E94F03CEDB7FEB73A9617
:101C2000EDBFFEBF8C179D072CF0F801108281E0FC
:101C300090E002C080E090E0DF91CF911F910F9182
:101C4000FF90EF90DF90CF90BF90AF909F908F90DC
:101C500008958F929F92AF92BF92CF92DF92EF92B0
:101C6000FF920F931F93CF93DF938B01EA01609153
:101C7000EB287091EC288091ED289091EE288090CF
:101C8000EA299090EB29A090EC29B090ED290E94D0
:101C900086326B017C0120E030E040E857E4C5016A
:101CA000B4010E9484339B01AC01C701B6010E94BC
:101CB000D6319F938F937F936F9381E092E29F93AE
:101CC0008F93DF93CF931F930F930E94F03CEDB758
:101CD000FEB73A96EDBFFEBF8C179D072CF0F801BA
:101CE000108281E090E002C080E090E0DF91CF912F
:101CF0001F910F91FF90EF90DF90CF90BF90AF902A
:101D00009F908F9008950F931F93CF93DF938B0134
:101D1000EA016091202970912129809122299091D6
:101D200023290E94863220E030E048E45BE40E94F0
:101D3000D63120E030E04AE75CE40E94D6319F9340
:101D40008F937F936F9381E092E29F938F93DF93C2
:101D5000CF931F930F930E94F03CEDB7FEB73A96D6
:101D6000EDBFFEBF8C179D072CF0F801108281E0BB
:101D700090E002C080E090E0DF91CF911F910F9141
:101D800008958F929F92AF92BF92CF92DF92EF927F
:101D9000FF920F931F93CF93DF938B01EA01609122
:101DA0001C2970911D2980911E2990911F298090D6
:101DB000022A9090032AA090042AB090052A0E943B
:101DC00086326B017C0120E030E040E857E4C50139
:101DD000B4010E9484339B01AC01C701B6010E948B
:101DE000D6319F938F937F936F9381E092E29F937D
:101DF0008F93DF93CF931F930F930E94F03CEDB727
:101E0000FEB73A96EDBFFEBF8C179D072CF0F80188
:101E1000108281E090E002C080E090E0DF91CF91FD
:101E20001F910F91FF90EF90DF90CF90BF90AF90F8
:101E30009F908F9008950F931F93CF93DF938B0103
:101E4000EA01609148297091492980914A2990912D
:101E50004B290E9484322EE432E640EE5CE30E947D
:101E600084339F938F937F936F9381E092E29F934C
:101E70008F93DF93CF931F930F930E94F03CEDB7A6
:101E8000FEB73A96EDBFFEBF8C179D072CF0F80108
:101E9000108281E090E002C080E090E0DF91CF917D
:101EA0001F910F910895CF92DF92EF92FF920F93BF
:101EB0001F93CF93DF938B01EA01609144297091C6
:101EC0004529809146299091472961157105810521
:101ED000910509F10E94863220E030E040E857E3A6
:101EE0000E9484339B01AC0160E074E886EF93E4C8
:101EF0000E94D631F62EE72ED82EC92E20E030E0F3
:101F000040E85FE30E94D13188234CF4F12CE12CAE
:101F1000D12CC12C04C0F12CE12CD12CC12CCF929E
:101F2000DF92EF92FF9281E092E29F938F93DF9393
:101F3000CF931F930F930E94F03CEDB7FEB73A96F4
:101F4000EDBFFEBF8C179D072CF0F801108281E0D9
:101F500090E002C080E090E0DF91CF911F910F915F
:101F6000FF90EF90DF90CF900895DF92EF92FF9275
:101F70000F931F93CF93DF9380E20E941B31C0E049
:101F8000D2E08C8781E20E941B318D8784E20E941F
:101F90001B3100E412E0F801848785E20E941B31C6
:101FA000F8018587E0E0F6E014821082A0E2B6E056
:101FB00014961C9214971C9287E0808B818B828BE5
:101FC000838B848B858B868B50968C935097519600
:101FD0008C93519752968C93529753968C93539718
:101FE00054968C93549755968C93559756968C93FC
:101FF000569757968C936894DD24D4F8D78AD98263
:1020000050E25A8346EC4B8333E03C836894FF24D0
:10201000F1F8F8A2F8A6F8AAF8AE89E289A399E146
:1020200099A791E399AB21E629AFEE24E394EAA2C4
:10203000E882F801D182528343833483F0A2F0A670
:10204000F0AAF0AE21A321E521A791AB81AFE082F8
:10205000E0EAF0E0828181608283E2EEF9E28BEADD
:102060009AEAA6E2B2E480879187A287B38747E223
:1020700051E164EB72E44487558766877787808BEC
:10208000918BA28BB38B4FE15EE860EB72E4448BE3
:10209000558B668B778B80A391A3A2A3B3A34DE549
:1020A00055E86FE672E444A355A366A377A380A71F
:1020B00091A7A2A7B3A780E090E0A8E4B2E484A728
:1020C00095A7A6A7B7A744E050E060E070E08AEECD
:1020D00099E20E94793044E050E060E170E08EEED9
:1020E00099E20E94793044E050E060E270E082EFD3
:1020F00099E20E94793044E050E060E370E086EFBE
:1021000099E20E94793042E050E060E470E082EEB3
:1021100099E20E94793042E050E064E470E084EE9D
:1021200099E20E94793042E050E068E470E086EE87
:1021300099E20E94793042E050E06CE470E088EE71
:1021400099E20E94793044E050E060E570E082E07E
:102150009AE20E94793044E050E060E670E086E068
:102160009AE20E94793044E050E060E770E08AE053
:102170009AE20E94793044E050E060E870E08EE03E
:102180009AE20E94793042E050E060E970E08AEF24
:1021900099E20E94793042E050E064E970E08CEF0F
:1021A00099E20E94793042E050E068E970E08EEFF9
:1021B00099E20E94793042E050E06CE970E080E002
:1021C0009AE20E947930E0E2F3E085E080831182B8
:1021D000D2828EEA95E0808F918FE0E0F8E0118264
:1021E0001382148280E099E186A397A31682178256
:1021F00010A211A2E082A0E8B1E080EC8C93E0E4B0
:10220000F8E08CE080831182138214821682178298
:10221000E0868FEF9FEF86A397A3E0E4F6E080E4EB
:102220008283E68A86E614968C9314971C96FC9219
:10223000E0E6F6E080859085807321E0803109F04A
:1022400020E0211108C0907381E0903209F080E015
:10225000882309F449C0809168068073803119F0A1
:102260008BE092E202C086E092E221E030E04BEDAA
:1022700059E063E57FE00E942A028091680680733E
:10228000803119F085E192E202C080E192E221E022
:1022900030E040E050E06BE17FE00E942A02809154
:1022A00068068073803119F08FE192E202C08AE102
:1022B00092E221E030E040E050E061EC7EE00E94FC
:1022C0002A02809168068073803119F089E292E2D7
:1022D00002C084E292E221E030E040E050E063E8B6
:1022E0007EE00E942A02AFC021E030E040E050E0F2
:1022F00069E27EE08EE292E20E942A0221E030E072
:1023000040E050E06FEC7DE083E392E20E942A021D
:1023100021E030E040E050E067E67DE088E392E2D3
:102320000E942A0225E030E040E050E06DEF7CE0C2
:102330008DE392E20E942A0221E030E040E050E08A
:1023400063EA7CE082E492E20E942A0221E030E02B
:1023500040E050E069E47CE087E492E20E942A02D7
:1023600021E030E040E050E061EE7BE08CE492E27E
:102370000E942A0225E030E040E050E067E77BE081
:1023800081E592E20E942A0221E030E040E050E044
:102390006FE37BE086E592E20E942A022AE030E0C9
:1023A00040E050E06FEF7AE08BE592E20E942A0273
:1023B00080916806807309F046C021E030E04BED63
:1023C00059E06DE97AE086E092E20E942A0221E07B
:1023D00030E040E050E06BE17FE080E192E20E947B
:1023E0002A0221E030E040E050E061EC7EE08AE14A
:1023F00092E20E942A0221E030E040E050E063E8EF
:102400007EE084E292E20E942A022AE030E040E08C
:1024100050E065E67AE080E692E20E942A0225E03A
:1024200030E040E050E063E27AE085E692E20E942C
:102430002A0225E030E040E050E061EE79E08AE6F3
:1024400092E20E942A02809168068073803129F00E
:10245000809168068073803269F486E69EEDA0E282
:10246000B0E08093DD289093DE28A093DF28B0931E
:10247000E0280CC086E696E6AAE4B0E08093DD286A
:102480009093DE28A093DF28B093E028DF91CF91CE
:102490001F910F91FF90EF90DF9008952F923F9240
:1024A0004F925F926F927F928F929F92AF92BF9264
:1024B000CF92DF92EF92FF920F931F93CF93DF9310
:1024C000CDB7DEB7C25AD109CDBFDEBF282E892EC7
:1024D00080E6E4E6F0E2DE01119601900D928A9525
:1024E000E1F781E080936429809164298111FCCF18
:1024F0008091C6299091C729A091C829B091C92976
:1025000085369105A105B10558F0222D382D42E4FC
:1025100050E061E070E08FE692E20E94AE3CAEC512
:10252000222D382D48E150E061E070E082EB92E22C
:102530000E94AE3C00E616E00F2EF3EFEF2EF2E223
:10254000FF2EF02D222D382D47E250E061E070E0A3
:102550008BEC92E20E94AE3CD12C1FC0FC01EE0F2E
:10256000FF1FE80FF91FEE0FFF1FEE0FFF1F21E007
:1025700030E02C0F3D1FE20FF31F21812F932081AC
:102580002F9301969F938F93FF92EF928F922F92AA
:102590000E94623CD394CDBFDEBF8D2D0D2C000C6C
:1025A000990BD80118962C91189718963C91207386
:1025B00041E0203109F040E041110AC0307321E0D0
:1025C000303209F020E0211103C028E030E002C0E1
:1025D00024E030E0821793070CF2222D382D43E0DF
:1025E00050E061E070E08FEF92E20E94AE3C02C0EA
:1025F0000E940F2E0E94042E8111FACF0E940F2EEE
:102600000F2EFFECCF2EF02DC80E222D382D42E0DC
:1026100050E061E070E085E294E20E94AE3CCD14AF
:102620001CF4CC200CF048C3222D382D40E250E0A1
:1026300061E070E083E093E20E94AE3C83CF0E94B1
:102640000F2E0E94042E8111FACFC32C032C000CF4
:10265000DD089F92AF92C60101969F938F93E4E2AB
:10266000F3E2FF93EF938F922F920E94623CCDBFD3
:10267000DEBF412C512C32010E940F2E182F082E44
:10268000000C990BC0970A9708F08AC3622D782D29
:10269000812F012E000C990B0E94723C440C551C9A
:1026A000661C771CD301C201880F991FAA1FBB1F8C
:1026B000880F991FAA1FBB1F480E591E6A1E7B1E3A
:1026C000812F110F990BAA0BBB0B480E591E6A1EC6
:1026D0007B1E90E3491A510861087108CDCF8091A3
:1026E00064298111FCCFCD56DF4FA881B981C35930
:1026F000D040ED91FC9160817181828193810E9433
:10270000863220E030E040E857E30E9484332B011A
:102710003C01CC0CDD1CCC0CDD1CE1E6F0E0EC0F48
:10272000FD1FEC0DFD1D6083718382839383C95669
:10273000DF4FE881F981C759D040C080D180D601F0
:102740008D919D910D90BC91A02DC157DF4F888335
:102750009983AA83BB83CF58D04020E030E04AE77A
:1027600054E4C301B2010E94D6319F938F937F93AB
:102770006F93C157DF4F288139814A815B81CF58E0
:10278000D040C301B2010E94D6319F938F937F93B3
:102790006F931F930F93FF92EF92E9E5F3E2FF939C
:1027A000EF938F922F920E94623CCDBFDEBF0E94BA
:1027B0000F2E982F893709F454C3893509F414C3AF
:1027C0008F7D8E3409F422C39B3189F738C333944B
:1027D00094E09315D4F0222D382D47E250E061E0CB
:1027E00070E08DEA93E20E94AE3C0E940F2E982F7B
:1027F000893709F448C3893509F457C38F7D8E346E
:1028000009F465C39B3189F762C3A1E0A3151CF4E9
:10281000131464F0CCC3222D382D42E550E061E062
:1028200070E085ED93E20E94AE3C28C43E01B5E71E
:102830006B0E711C5E01E1E6AE0EB11C75018301E9
:10284000CD56DF4F188219821A821B82C359D0409D
:10285000C157DF4F188219821A821B82CF58D0408D
:10286000912CD8012D913D914D915D918D01C157D4
:10287000DF4F688179818A819B81CF58D0400E9447
:102880006531C157DF4F688379838A839B83CF5833
:10289000D040F70121913191419151917F01CD5665
:1028A000DF4F688179818A819B81C359D0400E9422
:1028B0006531CD56DF4F688379838A839B83C35903
:1028C000D04093943910CDCF17C3D3016D917D9132
:1028D0008D919D913D01202F3F2D4D2D5E2D0E940C
:1028E0006431C157DF4F688379838A839B83CF58D4
:1028F000D0409B01AC010E9484339B01AC01CD56BA
:10290000DF4F688179818A819B81C359D0400E94C1
:102910006531CD56DF4F688379838A839B83C359A2
:10292000D040F50161917191819191915F01C15602
:10293000DF4F2881CF59D040392D442D552D0E948D
:102940006431C157DF4F288139814A815B81CF587B
:10295000D0400E9484339B01AC01C956DF4F68818F
:1029600079818A819B81C759D0400E946531C956BF
:10297000DF4F688379838A839B83C759D0401F5F69
:102980003112A3CFCF55DF4FC880D980C15AD04074
:10299000CD56DF4F288139814A815B81C359D040B0
:1029A000C956DF4F688179818A819B81C759D040A0
:1029B0000E94D631C157DF4F688379838A839B8316
:1029C000CF58D040202F3F2DC056DF4F4881C05AEE
:1029D000D0405E2D0E9484339B01AC01C156DF4F75
:1029E0006881CF59D040792D842D952D0E94643176
:1029F000CD56DF4F688379838A839B83C359D04048
:102A000002C00E940F2E0E94042E8111FACFC256DE
:102A1000DF4FF881CE59D040FF93C356DF4F288156
:102A2000CD59D0402F9388E294E29F938F938F9259
:102A30002F920E94623CD6014D905D906D907C90EB
:102A4000C556DF4FE881F981CB59D040EE0FFF1F0B
:102A5000C556DF4F28813981CB59D040E20FF31F93
:102A6000EE0FFF1FEE0FFF1FEC0FFD1F07811085FC
:102A7000D801AD90BC901197ED90FC90CD56DF4FF2
:102A8000688179818A819B81C359D0400E94F1334A
:102A9000CD56DF4F688379838A839B83C359D040A7
:102AA0007F926F925F924F92CE56DF4FB881C2599C
:102AB000D040BF93CF56DF4FE881C159D040EF934C
:102AC000C057DF4FF881C059D040FF93C157DF4F47
:102AD0002881CF58D0402F93BF92AF92B701FF0CFF
:102AE000880B990B0E948632CD56DF4F28813981A1
:102AF0004A815B81C359D0400E9465319F938F9377
:102B00007F936F938CE494E29F938F938F922F9295
:102B10000E94623CCDBFDEBF0E940F2E982F8937E6
:102B200009F474C2893509F483C28F7D8E3409F4A7
:102B300091C29B3189F78EC2D8016D917C91072E8D
:102B4000000C880B990B0E948632CD56DF4F2881EE
:102B500039814A815B81C359D0400E9465310E940E
:102B60004832F80160837183C157DF4F88819981B2
:102B7000AA81BB81CF58D040F60180839183A28384
:102B8000B383C556DF4FE880F980CB59D040EE0CB7
:102B9000FF1CC556DF4FE881F981CB59D040EE0DBF
:102BA000FF1DEE0FFF1FEE0FFF1F21E030E02C0F87
:102BB0003D1FE20FF31FA284B38442E050E0B50151
:102BC000C8010E94DC30C556DF4FE881F981CB593E
:102BD000D040EE0DFF1DEE0FFF1FEE0FFF1F81E037
:102BE00090E08C0F9D1FE80FF91FE084F18444E012
:102BF00050E0B701C6010E94DC30F601808191816E
:102C0000A281B381F80120813181BF93AF939F935B
:102C10008F933F932F9383E994E29F938F938F92A7
:102C20002F920E94623C42E050E0B501CE018757EE
:102C30009F4F0E94793044E050E0B701CE018557A4
:102C40009F4F0E947930C257DF4F8881CE58D040C5
:102C50008F93C357DF4F8881CD58D0408F93C4578F
:102C6000DF4F8881CC58D0408F93C557DF4F888184
:102C7000CB58D0408F93C657DF4F8881CA58D04079
:102C80008F93C757DF4F8881C958D0408F9389EB06
:102C900094E29F938F938F922F920E94623C222DF9
:102CA000382D4CE250E061E070E08FED94E20E943C
:102CB000AE3CCDBFDEBFE2C18C2D0C2C000C990BBD
:102CC000C556DF4F88839983CB59D040FC01EE0F66
:102CD000FF1FE80FF91FEE0FFF1FEE0FFF1FA1E010
:102CE000B0E0AC0FBD1FEA0FFB1FB081C356DF4F32
:102CF000B883CD59D0402181C256DF4F2883CE59A9
:102D0000D0402F93BF938CE095E29F938F938F9247
:102D10002F920E94623C1F9285E08F9385E295E29C
:102D20009F938F938F922F920E94623CCDBFDEBF04
:102D3000C0FE03C083E595E202C086E595E2A82EB9
:102D4000992E312CBB24B394C556DF4F88819981CD
:102D5000CB59D040880F991FC556DF4FA881B98144
:102D6000CB59D0408A0F9B1F880F991F880F991F3E
:102D7000E1E0F0E0EC0FFD1F8E0F9F1F9C012E5F26
:102D80003F4FCD56DF4F28833983C359D040DC01F4
:102D90001496C956DF4FA883B983C759D04051CC88
:102DA000C301B2010E94863220E030E04AE754E4D9
:102DB0000E94D631E62EF72E082F192FF601EE0FBE
:102DC000FF1FEE0FFF1F25E730E02C0F3D1FE20F26
:102DD000F31F862F9F2DA02FB12F80839183A28375
:102DE000B383B09264297BCC1F9289E58F9389E5E8
:102DF00095E29F938F938F922F920E94623C0F9047
:102E00000F900F900F900F900F90E1CC292F092E6B
:102E1000000C330B3F939F93E9E5F5E2FF93EF93AB
:102E20008F922F920E94623C0F900F900F900F9004
:102E30000F900F9034E033150CF003CCE6CC1F92CA
:102E40008BE18F9389E595E29F938F938F922F92D9
:102E50000E94623C0F900F900F900F900F900F9078
:102E6000D4CC1F9289E78F9389E595E29F938F9346
:102E70008F922F920E94623C0F900F900F900F90B4
:102E80000F900F90A4CC1F9289E78F93E9E5F5E2AC
:102E9000FF93EF938F922F920E94623C0F900F90BE
:102EA0000F900F900F900F90CCCB1F9289E58F93CE
:102EB00089E595E29F938F938F922F920E94623CB7
:102EC0000F900F900F900F900F900F90BACB292F6B
:102ED000092E000C330B3F939F9389E595E29F9356
:102EE0008F938F922F920E94623C0F900F900F90C1
:102EF0000F900F900F9089CC632D032C000C770B53
:102F0000880B990B0E948632C956DF4F68837983FC
:102F10008A839B83C759D0409B01AC01C157DF4FC7
:102F2000688179818A819B81CF58D0400E94D631B7
:102F3000062FF72EC056DF4F8883C05AD040E92EA7
:102F4000C956DF4F288139814A815B81C759D040FA
:102F5000CD56DF4F688179818A819B81C359D040EA
:102F60000E94D631C156DF4F6883CF59D040972E8B
:102F7000482E592EC956DF4F188219821A821B8299
:102F8000C759D040CD56DF4F188219821A821B8252
:102F9000C359D04010E0CF55DF4FC882D982C15A03
:102FA000D040C056DF4FD880C05AD0408ECC632D61
:102FB000330C770B880B990B0E9486329B01AC0176
:102FC00060E070E0CB010E94D631062FF72EC0568C
:102FD000DF4F8883C05AD040E92EC156DF4F688347
:102FE000CF59D040972E482E592EC956DF4F188200
:102FF00019821A821B82C759D040CD56DF4F1882E2
:1030000019821A821B82C359D040C2CC1F9289E711
:103010008F9389E595E29F938F938F922F920E94D1
:10302000623C0F900F900F900F900F900F9084CDF7
:103030001F9289E58F9389E595E29F938F938F92F5
:103040002F920E94623C0F900F900F900F900F9064
:103050000F9072CD292F092E000C330B3F939F93B5
:1030600089E595E29F938F938F922F920E94623C05
:103070000F900F900F900F900F900F90CE55DF4F45
:10308000CDBFDEBFDF91CF911F910F91FF90EF90E9
:10309000DF90CF90BF90AF909F908F907F906F9078
:1030A0005F904F903F902F90089581E08093642926
:1030B00008950F931F930091E2281091E328209127
:1030C000E4283091E52802C08B019C016091E22840
:1030D0007091E3288091E4289091E528061717075E
:1030E0002807390789F71F910F9108952F923F9272
:1030F0004F925F926F927F928F929F92AF92BF9208
:10310000CF92DF92EF92FF920F931F93CF93DF93B3
:10311000CDB7DEB7C15DD109CDBFDEBFCA54DF4F29
:103120008883C65BD040C954DF4F9883C75BD040CB
:10313000809164298111FCCF6091D5297091D629A5
:103140008091D7299091D8290E94843220E030E4E0
:103150004CE955E40E94D631C854DF4F6883C85B00
:10316000D040C754DF4F7883C95BD040C654DF4F8F
:103170008883CA5BD040C554DF4F9883CB5BD04077
:103180002091CC2991E080E0211190E0C057DF4FE1
:103190009883C059D040CF56DF4F8883C159D04063
:1031A0008091DD299091DE29A091DF29B091E0295D
:1031B000892B8A2B8B2B69F16091DD297091DE2997
:1031C0008091DF299091E0290E94863220E030E052
:1031D00040E857E30E9484339B01AC0160E070E853
:1031E0008BE894E40E94D631C453DF4F6883CC5CF3
:1031F000D040C353DF4F7883CD5CD040C253DF4F04
:103200008883CE5CD040C153DF4F9883CF5CD040E1
:1032100014C0C453DF4F1882CC5CD040C353DF4F7F
:103220001882CD5CD040C253DF4F1882CE5CD040B4
:10323000C153DF4F1882CF5CD0401091E1296091DB
:10324000D1297091D2298091D3299091D4290E94BB
:10325000843220E030E44CE955E40E94D631C45475
:10326000DF4F6883CC5BD040C354DF4F7883CD5BA6
:10327000D040C254DF4F8883CE5BD040C154DF4F73
:103280009883CF5BD0402091CB2991E080E0211141
:1032900090E0CE56DF4F9883C259D040CD56DF4FD5
:1032A0008883C359D0406091CD297091CE298091F7
:1032B000CF299091D0290E94843220E030E44CE95B
:1032C00055E40E94D631C054DF4F6883C05CD040C3
:1032D000CF53DF4F7883C15CD040CE53DF4F88831C
:1032E000C25CD040CD53DF4F9883C35CD040209167
:1032F000CA2991E080E0211190E0CC56DF4F9883FD
:10330000C459D040CB56DF4F8883C559D040609117
:1033100092297091932980919429909195290E94E6
:10332000843220E030E44CE955E40E94D631CC539D
:10333000DF4F6883C45CD040CB53DF4F7883C55CDC
:10334000D040CA53DF4F8883C65CD040C953DF4F9B
:103350009883C75CD0402091912991E080E02111B1
:1033600001C090E0CA56DF4F9883C659D040C95675
:10337000DF4F8883C759D0406091C6297091C72913
:103380008091C8299091C9290E94843227EB33EF9C
:103390004DE75DE30E948433C853DF4F6883C85C08
:1033A000D040C753DF4F7883C95CD040C653DF4F4E
:1033B0008883CA5CD040C553DF4F9883CB5CD04034
:1033C0006091C2297091C3298091C4299091C52927
:1033D000611571058105910509F10E94863220E091
:1033E00030E040E857E30E9484339B01AC0160E089
:1033F00070E88BE894E40E94D6316983072F382E59
:10340000292E20E030E040E85FE30E94D13188239C
:103410004CF4198200E0312C212C04C0198200E008
:10342000312C212CE9E6F9E26091DB297091DC294D
:103430002091D9293091DA292A833B83C5A4D6A4C7
:10344000E7A4F0A8AAEBB9E23C91C856DF4F388355
:10345000C859D04011964C911197C756DF4F4883F9
:10346000C959D04012965C911297C656DF4F5883C7
:10347000CA59D04013968C911397C556DF4F888355
:10348000CB59D04014969C911497C456DF4F988323
:10349000CC59D04015962C911597C356DF4F2883F1
:1034A000CD59D04016963C911697C256DF4F3883BF
:1034B000CE59D04017964C91C156DF4F4883CF5913
:1034C000D04040900A2A50900B2A60900C2A7090AD
:1034D0000D2A80900E2A90900F2AA090102AB0906A
:1034E000112A8091AE299091AF29A091B029B09175
:1034F000B1298C839D83AE83BF8320910A2A3091AA
:103500000B2A40910C2A50910D2A288739874A8727
:103510005B8780910E2A90910F2AA091102AB0917A
:10352000112A8C879D87AE87BF872091A62930916D
:10353000A7294091A8295091A929288B398B4A8B1A
:103540005B8B80910E2A90910F2AA091102AB09146
:10355000112A8C8B9D8BAE8BBF8B21AD32AD43ADD1
:1035600054AD288F398F4A8F5B8F80910A2A9091B2
:103570000B2AA0910C2AB0910D2A8C8F9D8FAE8FB3
:10358000BF8F22EB39E2D901BC91C056DF4FB8831F
:10359000C05AD0404091B329CF55DF4F4883C15A1C
:1035A000D0405091B429CE55DF4F5883C25AD040F5
:1035B0008091B529CD55DF4F8883C35AD040909173
:1035C000B629CC55DF4F9883C45AD040A091B72973
:1035D000CB55DF4FA883C55AD040B091B829CA5502
:1035E000DF4FB883C65AD0404091B929C053DF4F4E
:1035F0004883C05DD0408091022A9091032AA09117
:10360000042AB091052A88A399A3AAA3BBA3209159
:10361000062A3091072A4091082A5091092A2CA3A2
:103620003DA34EA35FA38091AA299091AB29A091BD
:10363000AC29B091AD2988A799A7AAA7BBA72091CB
:10364000022A3091032A4091042A5091052A2CA77E
:103650003DA74EA75FA78091062A9091072AA091C7
:10366000082AB091092A88AB99ABAAABBBAB25A9B4
:1036700036A947A950AD2CAB3DAB4EAB5FAB8091AB
:10368000062A9091072AA091082AB091092A88AFAA
:1036900099AFAAAFBBAF21A932A943A954A92CAFB6
:1036A0003DAF4EAF5FAF8091022A9091032AA09167
:1036B000042AB091052A24968CAF9DAFAEAFBFAF60
:1036C000249790A1C955DF4F9883C75AD040A1A134
:1036D000C855DF4FA883C85AD040B2A1C755DF4FA5
:1036E000B883C95AD04023A1C655DF4F2883CA5A90
:1036F000D04034A1C555DF4F3883CB5AD04045A1C7
:10370000C455DF4F4883CC5AD04056A1C355DF4F34
:103710005883CD5AD04087A1CF52DF4F8883C15DF7
:10372000D0402091F2293091F3294091F429509111
:10373000F52928962CAF3DAF4EAF5FAF289780910B
:10374000F6299091F729A091F829B091F9292C96A2
:103750008CAF9DAFAEAFBFAF2C972489358946891A
:10376000578960962CAF3DAF4EAF5FAF60978091A9
:10377000F2299091F329A091F429B091F52964964A
:103780008CAF9DAFAEAFBFAF64972091F62930915B
:10379000F7294091F8295091F92968962CAF3DAF4F
:1037A0004EAF5FAF689784859585A685B7856C9683
:1037B0008CAF9DAFAEAFBFAF6C972091F629309123
:1037C000F7294091F8295091F929A0962CAF3DAFE7
:1037D0004EAF5FAFA09780859185A285B385A496F3
:1037E0008CAF9DAFAEAFBFAFA4972091F2293091BF
:1037F000F3294091F4295091F529A8962CAF3DAFBB
:103800004EAF5FAFA897308DC255DF4F3883CE5A89
:10381000D040418DC155DF4F4883CF5AD040528DA3
:10382000C055DF4F5883C05BD040838DCF54DF4FEE
:103830008883C15BD040948DCE54DF4F9883C25BA8
:10384000D040A58DCD54DF4FA883C35BD040B68D4B
:10385000CC54DF4FB883C45BD040278DCB54DF4FAF
:103860002883C55BD0408091EA299091EB29A091F3
:10387000EC29B091ED29AC968CAF9DAFAEAFBFAF48
:10388000AC972091EE293091EF294091F029509189
:10389000F129E0962CAF3DAF4EAF5FAFE097808946
:1038A0009189A289B389E4968CAF9DAFAEAFBFAFCB
:1038B000E4972091EA293091EB294091EC2950912D
:1038C000ED29E8962CAF3DAF4EAF5FAFE897809102
:1038D000EE299091EF29A091F029B091F129EC9671
:1038E0008CAF9DAFAEAFBFAFEC97248135814681E1
:1038F0005781C458DF4F288339834A835B83CC5771
:10390000D0408091EE299091EF29A091F029B091BB
:10391000F129C058DF4F88839983AA83BB83C0589D
:10392000D0402081318142815381CC57DF4F2883A1
:1039300039834A835B83C458D0408091EA299091AF
:10394000EB29A091EC29B091ED29C857DF4F88836E
:103950009983AA83BB83C858D040209165293091B0
:1039600066294091672950916829C457DF4F288301
:1039700039834A835B83CC58D040C554DF4F3881AC
:10398000CB5BD0403F93C654DF4F4881CA5BD040E9
:103990004F93C754DF4F5881C95BD0405F93C854E1
:1039A000DF4F8881C85BD0408F93CF56DF4F98811F
:1039B000C159D0409F93C057DF4FA881C059D04014
:1039C000AF93C153DF4FB881CF5CD040BF93C25398
:1039D000DF4F2881CE5CD0402F93C353DF4F388117
:1039E000CD5CD0403F93C453DF4F4881CC5CD04086
:1039F0004F931F921F93C154DF4F5881CF5BD0402C
:103A00005F93C254DF4F8881CE5BD0408F93C35405
:103A1000DF4F9881CD5BD0409F93C454DF4FA88186
:103A2000CC5BD040AF93CD56DF4FB881C359D04067
:103A3000BF93CE56DF4F2881C259D0402F93CD532C
:103A4000DF4F3881C35CD0403F93CE53DF4F488176
:103A5000C25CD0404F93CF53DF4F5881C15CD04000
:103A60005F93C054DF4F8881C05CD0408F93CB56AA
:103A7000DF4F9881C559D0409F93CC56DF4FA88126
:103A8000C459D040AF93C953DF4FB881C75CD04011
:103A9000BF93CA53DF4F2881C65CD0402F93CB53CE
:103AA000DF4F3881C55CD0403F93CC53DF4F488116
:103AB000C45CD0404F93C956DF4F5881C759D0409E
:103AC0005F93CA56DF4F8881C659D0408F93C55344
:103AD000DF4F9881CB5CD0409F93C653DF4FA881C6
:103AE000CA5CD040AF93C753DF4FB881C95CD040A8
:103AF000BF93C853DF4F2881C85CD0402F932F92CB
:103B00003F920F9339813F9380E090E00E9484328E
:103B100023E333E343E254E40E94D6319F938F932F
:103B20007F936F934A815B81BA0180E090E00E94AD
:103B3000843227E137EB41ED5EE30E94D6319F935B
:103B40008F937F936F93C701B6010E94863220E066
:103B500030E040E259E40E94D6319F938F937F93E7
:103B60006F93C856DF4F2881C859D040C756DF4FE2
:103B70003881C959D040C656DF4F4881CA59D04014
:103B8000C556DF4F5881CB59D040C456DF4F6881AE
:103B9000CC59D040C356DF4F7881CD59D040C25662
:103BA000DF4F8881CE59D040C156DF4F9881CF5921
:103BB000D0400E947E326B017C0120E030E44CE971
:103BC00055E4C301B2010E948433A50194010E940F
:103BD00084339B01AC01C701B6010E94D6319F938B
:103BE0008F937F936F936C817D818E819F810E94E3
:103BF00086326B017C0120E030E040E853E46885C8
:103C000079858A859B850E9484332C853D854E85E8
:103C10005F850E9484339B01AC01C701B6010E94FD
:103C2000D6319F938F937F936F93688979898A891F
:103C30009B890E9486326B017C0120E030E040E8E5
:103C400057E46C897D898E899F890E9484339B010A
:103C5000AC01C701B6010E94D6319F938F937F9329
:103C60006F93688D798D8A8D9B8D0E9486326B0152
:103C70007C0120E030E040E857E46C8D7D8D8E8D36
:103C80009F8D0E9484339B01AC01C701B6010E9445
:103C9000D6319F938F937F936F93C056DF4F2881C8
:103CA000C05AD040CF55DF4F3881C15AD040CE5591
:103CB000DF4F4881C25AD040CD55DF4F5881C35A9B
:103CC000D040CC55DF4F6881C45AD040CB55DF4F30
:103CD0007881C55AD040CA55DF4F8881C65AD04036
:103CE000C053DF4F9881C05DD0400E947E326B018F
:103CF0007C0120E030E44CE955E468A179A18AA177
:103D00009BA10E9484332CA13DA14EA15FA10E94E2
:103D100084339B01AC01C701B6010E94D6319F9349
:103D20008F937F936F9368A579A58AA59BA50E9421
:103D300086326B017C0120E030E040E853E46CA562
:103D40007DA58EA59FA50E94843328A939A94AA9DB
:103D50005BA90E9484339B01AC01C701B6010E949C
:103D6000D6319F938F937F936F936CA97DA98EA972
:103D70009FA90E9486326B017C0120E030E040E880
:103D800057E468AD79AD8AAD9BAD0E9484339B0149
:103D9000AC01C701B6010E94D6319F938F937F93E8
:103DA0006F936CAD7DAD8EAD9FAD0E9486326B0181
:103DB0007C0120E030E040E857E424966CAD7DAD16
:103DC0008EAD9FAD24970E9484339B01AC01C70147
:103DD000B6010E94D6319F938F937F936F93C955FD
:103DE000DF4F2881C75AD040C855DF4F3881C85AA5
:103DF000D040C755DF4F4881C95AD040C655DF4F24
:103E00005881CA5AD040C555DF4F6881CB5AD0403F
:103E1000C455DF4F7881CC5AD040C355DF4F8881DD
:103E2000CD5AD040CF52DF4F9881C15DD0400E9423
:103E30007E326B017C0120E030E44CE955E42896A9
:103E40006CAD7DAD8EAD9FAD28970E9484332C96CE
:103E50002CAD3DAD4EAD5FAD2C970E9484339B01E0
:103E6000AC01C701B6010E94D6319F938F937F9317
:103E70006F9360966CAD7DAD8EAD9FAD60970E94E7
:103E800086326B017C0120E030E040E853E4649628
:103E90006CAD7DAD8EAD9FAD64970E948433689606
:103EA0002CAD3DAD4EAD5FAD68970E9484339B0154
:103EB000AC01C701B6010E94D6319F938F937F93C7
:103EC0006F936C966CAD7DAD8EAD9FAD6C970E947F
:103ED00086326B017C0120E030E040E857E4A09698
:103EE0006CAD7DAD8EAD9FADA0970E9484339B01DC
:103EF000AC01C701B6010E94D6319F938F937F9387
:103F00006F93A4966CAD7DAD8EAD9FADA4970E94CE
:103F100086326B017C0120E030E040E857E4A8964F
:103F20006CAD7DAD8EAD9FADA8970E9484339B0193
:103F3000AC01C701B6010E94D6319F938F937F9346
:103F40006F93C255DF4F2881CE5AD040C155DF4F05
:103F50003881CF5AD040C055DF4F4881C05BD04038
:103F6000CF54DF4F5881C15BD040CE54DF4F6881C2
:103F7000C25BD040CD54DF4F7881C35BD040CC547E
:103F8000DF4F8881C45BD040CB54DF4F9881C55B45
:103F9000D0400E947E326B017C0120E030E44CE98D
:103FA00055E4AC966CAD7DAD8EAD9FADAC970E94E7
:103FB0008433E0962CAD3DAD4EAD5FADE0970E94F1
:103FC00084339B01AC01C701B6010E94D6319F9397
:103FD0008F937F936F93E4966CAD7DAD8EAD9FAD67
:103FE000E4970E9486326B017C0120E030E040E8DB
:103FF00053E4E8966CAD7DAD8EAD9FADE8970E9421
:104000008433EC962CAD3DAD4EAD5FADEC970E9488
:1040100084339B01AC01C701B6010E94D6319F9346
:104020008F937F936F93C458DF4F688179818A8122
:104030009B81CC57D0400E9486326B017C0120E0EE
:1040400030E040E857E4C058DF4F688179818A81C9
:104050009B81C058D0400E9484339B01AC01C701B2
:10406000B6010E94D6319F938F937F936F93CC5765
:10407000DF4F688179818A819B81C458D0400E943A
:1040800086326B017C0120E030E040E857E4C857FD
:10409000DF4F688179818A819B81C858D0400E9416
:1040A00084339B01AC01C701B6010E94D6319F93B6
:1040B0008F937F936F93C457DF4F688179818A8193
:1040C0009B81CC58D0400E94843220E030E44CE9FF
:1040D00055E40E94D6319F938F937F936F938EEC1C
:1040E00095E29F938F93C954DF4F5881C75BD040AF
:1040F0005F93CA54DF4F8881C65BD0408F930E9484
:10410000623CCDBFDEBFCF52DF4FCDBFDEBFDF9100
:10411000CF911F910F91FF90EF90DF90CF90BF90C4
:10412000AF909F908F907F906F905F904F903F9057
:104130002F9008952F923F924F925F926F927F92AD
:104140008F929F92AF92BF92CF92DF92EF92FF92A7
:104150000F931F93CF93DF93CDB7DEB7C358D10929
:10416000CDBFDEBFAE968FAFAE97AF969FAFAF9786
:10417000809164298111FCCF6091D5297091D62955
:104180008091D7299091D8290E94843220E030E490
:104190004CE955E40E94D631E0966FAFE097E19686
:1041A0007FAFE197E2968FAFE297E3969FAFE397F9
:1041B0002091CC2991E080E0211190E069969FAF99
:1041C00069976A968FAF6A978091DD299091DE2971
:1041D000A091DF29B091E029892B8A2B8B2B69F1E3
:1041E0006091DD297091DE298091DF299091E0298D
:1041F0000E94863220E030E040E857E30E9484339A
:104200009B01AC0160E074E886EF93E40E94D63134
:10421000C158DF4F6883CF57D040C058DF4F7883F5
:10422000C058D040CF57DF4F8883C158D040CE57B9
:10423000DF4F9883C258D04014C0C158DF4F188256
:10424000CF57D040C058DF4F1882C058D040CF570A
:10425000DF4F1882C158D040CE57DF4F1882C25866
:10426000D0401091E1296091D1297091D22980919B
:10427000D3299091D4290E94843220E030E44CE983
:1042800055E40E94D631E4966FAFE497E5967FAF90
:10429000E597E6968FAFE697E7969FAFE797209171
:1042A000CB2991E080E0211190E06B969FAF6B9756
:1042B0006C968FAF6C976091CD297091CE298091CB
:1042C000CF299091D0290E94843220E030E44CE93B
:1042D00055E40E94D631E8966FAFE897E9967FAF34
:1042E000E997EA968FAFEA97EB969FAFEB9720910D
:1042F000CA2991E080E0211190E06D969FAF6D9703
:104300006E968FAF6E976091C6297091C729809184
:10431000C8299091C9290E9484322EE432E640EEE9
:104320005CE30E948433EC966FAFEC97ED967FAF21
:10433000ED97EE968FAFEE97EF969FAFEF97609168
:10434000C2297091C3298091C4299091C529611512
:1043500071058105910509F10E94863220E030E067
:1043600040E857E30E9484339B01AC0160E074E8AD
:1043700086EF93E40E94D6316983072F382E292EC9
:1043800020E030E040E85FE30E94D13188234CF424
:10439000198200E0312C212C04C0198200E0312C5C
:1043A000212C6091DB297091DC292091D929309151
:1043B000DA292A833B83C0909629D0909729E090F0
:1043C0009829F0909929EAEBF9E230816F963FAF96
:1043D0006F974181A0964FAFA0975281A1965FAF92
:1043E000A1978381A2968FAFA2979481A3969FAF46
:1043F000A397A581A496AFAFA497B681A596BFAFAA
:10440000A5972781A6962FAFA697E2EEF9E240A4E2
:1044100051A462A473A484A495A4A6A4B7A4809173
:10442000AE299091AF29A091B029B091B1298C8388
:104430009D83AE83BF8320A531A542A553A52887C0
:1044400039874A875B8784A595A5A6A5B7A58C87DC
:104450009D87AE87BF872091A6293091A7294091DB
:10446000A8295091A929288B398B4A8B5B8B84A56D
:1044700095A5A6A5B7A58C8B9D8BAE8BBF8B2091E8
:10448000A2293091A3294091A4295091A529288FD0
:10449000398F4A8F5B8F80A591A5A2A5B3A58C8F7C
:1044A0009D8FAE8FBF8F22EB39E2D901BC91A796C9
:1044B000BFAFA7974091B329A8964FAFA897509147
:1044C000B429A9965FAFA9978091B529AA968FAF15
:1044D000AA979091B629AB969FAFAB97A091B729B9
:1044E000AC96AFAFAC97B091B829AD96BFAFAD97D2
:1044F0004091B929CD57DF4F4883C358D04080A1A0
:1045000091A1A2A1B3A188A399A3AAA3BBA324A10B
:1045100035A146A157A12CA33DA34EA35FA3809133
:10452000AA299091AB29A091AC29B091AD2988A777
:1045300099A7AAA7BBA720A131A142A153A12CA74B
:104540003DA74EA75FA784A195A1A6A1B7A188AB5F
:1045500099ABAAABBBAB20919E2930919F2940918A
:10456000A0295091A1292CAB3DAB4EAB5FAB84A1F0
:1045700095A1A6A1B7A188AF99AFAAAFBBAF209173
:104580009A2930919B2940919C2950919D292CAFCB
:104590003DAF4EAF5FAF80A191A1A2A1B3A1249680
:1045A0008CAF9DAFAEAFBFAF249720916D293091F6
:1045B0006E2940916F295091702928962CAF3DAFFC
:1045C0004EAF5FAF2897A9E6B9E28D919D910D900E
:1045D000BC91A02D2C968CAF9DAFAEAFBFAF2C97EA
:1045E0002091752930917629409177295091782929
:1045F00060962CAF3DAF4EAF5FAF60978091712951
:1046000090917229A0917329B091742964968CAF0E
:104610009DAFAEAFBFAF64972091652930916629F9
:10462000409167295091682968962CAF3DAF4EAFF5
:104630005FAF6897E3963FADE3973F93E2964FAD48
:10464000E2974F93E1965FADE1975F93E0968FAD70
:10465000E0978F936A969FAD6A979F936996AFADE7
:104660006997AF93CE57DF4FB881C258D040BF9300
:10467000CF57DF4FE881C158D040EF93C058DF4F8C
:10468000F881C058D040FF93C158DF4F2881CF57E1
:10469000D0402F931F921F93E7963FADE7973F932C
:1046A000E6964FADE6974F93E5965FADE5975F933E
:1046B000E4968FADE4978F936C969FAD6C979F9324
:1046C0006B96AFAD6B97AF93EB96BFADEB97BF9388
:1046D000EA96EFADEA97EF93E996FFADE997FF937E
:1046E000E8962FADE8972F936E963FAD6E973F9368
:1046F0006D964FAD6D974F93EF965FADEF975F93CC
:10470000EE968FADEE978F93ED969FADED979F93BD
:10471000EC96AFADEC97AF932F923F920F93B98188
:10472000BF9380E090E00E94843223E333E343E2CE
:1047300054E40E94D6319F938F937F936F93EA81C5
:10474000FB81BF0180E090E00E94843227E137EBDB
:1047500041ED5EE30E94D6319F938F937F936F93D9
:10476000C701B6010E94863220E030E040E259E401
:104770000E94D6319F938F937F936F936F962FAD47
:104780006F97A0963FADA097A1964FADA197A29627
:104790005FADA297A3966FADA397A4967FADA497A4
:1047A000A5968FADA597A6969FADA6970E947E323F
:1047B0006B017C0120E030E44CE955E4C301B20117
:1047C0000E948433A50194010E9484339B01AC01B3
:1047D000C701B6010E94D6319F938F937F936F9349
:1047E0006C817D818E819F810E9486326B017C016C
:1047F00020E030E040E853E4688579858A859B8530
:104800000E9484332C853D854E855F850E948433CC
:104810009B01AC01C701B6010E94D6319F938F93D3
:104820007F936F93688979898A899B890E948632F0
:104830006B017C0120E030E040E857E46C897D8921
:104840008E899F890E9484339B01AC01C701B60108
:104850000E94D6319F938F937F936F93688D798D4C
:104860008A8D9B8D0E9486326B017C0120E030E0B6
:1048700040E857E46C8D7D8D8E8D9F8D0E94843332
:104880009B01AC01C701B6010E94D6319F938F9363
:104890007F936F93A7962FADA797A8963FADA89744
:1048A000A9964FADA997AA965FADAA97AB966FADA3
:1048B000AB97AC967FADAC97AD968FADAD97CD571E
:1048C000DF4F9881C358D0400E947E326B017C013B
:1048D00020E030E44CE955E468A179A18AA19BA1CC
:1048E0000E9484332CA13DA14EA15FA10E9484337C
:1048F0009B01AC01C701B6010E94D6319F938F93F3
:104900007F936F9368A579A58AA59BA50E9486329F
:104910006B017C0120E030E040E853E46CA57DA50C
:104920008EA59FA50E94843328A939A94AA95BA90D
:104930000E9484339B01AC01C701B6010E94D631AD
:104940009F938F937F936F936CA97DA98EA99FA945
:104950000E9486326B017C0120E030E040E857E4A1
:1049600068AD79AD8AAD9BAD0E9484339B01AC01EB
:10497000C701B6010E94D6319F938F937F936F93A7
:104980006CAD7DAD8EAD9FAD0E9486326B017C011A
:1049900020E030E040E857E424966CAD7DAD8EAD6C
:1049A0009FAD24970E9484339B01AC01C701B601DF
:1049B0000E94D6319F938F937F936F9328966CAD0F
:1049C0007DAD8EAD9FAD28970E94863225E535E5F9
:1049D00045E859E40E94D6319F938F937F936F935C
:1049E0002C966CAD7DAD8EAD9FAD2C970E9486321E
:1049F00025E535E545E859E40E94D6319F938F932C
:104A00007F936F9360966CAD7DAD8EAD9FAD6097DB
:104A10000E94863220E030E040E857E30E94843371
:104A20009F938F937F936F9364966CAD7DAD8EADA6
:104A30009FAD64970E94863220E030E040E857E363
:104A40000E9484339F938F937F936F9368966CAD8E
:104A50007DAD8EAD9FAD68970E94843220E030E43A
:104A60004CE955E40E94D6319F938F937F936F93C7
:104A70008CE696E29F938F93AF96FFADAF97FF932F
:104A8000AE962FADAE972F930E94623CCDBFDEBF96
:104A9000CD57DF4FCDBFDEBFDF91CF911F910F917B
:104AA000FF90EF90DF90CF90BF90AF909F908F904E
:104AB0007F906F905F904F903F902F900895CF938D
:104AC000DF93D82FC92F282F392F4FE150E061E015
:104AD00070E08EEE96E20E94AE3C8D2F9C2F0E94DD
:104AE000F32F0E94E12F1F928F938EE097E29F9306
:104AF0008F93CF93DF930E94623C8D2F9C2F0E9457
:104B00002F302D2F3C2F4DE150E061E070E08CE123
:104B100097E20E94AE3C0F900F900F900F900F9075
:104B20000F90DF91CF9108951F920F920FB60F92C1
:104B300011240BB60F922F923F924F925F926F9279
:104B40007F928F929F92AF92BF92CF92DF92EF921D
:104B5000FF920F931F932F933F934F935F936F9306
:104B60007F938F939F93AF93BF93CF93DF93EF93F5
:104B7000FF93E0E4F6E0D085D470C085C0728085F4
:104B80008071582E80858270382E20844090600875
:104B9000809168068073803131F08091680680735F
:104BA000803209F0D3C080911002909111022091BF
:104BB000480625FB222720F931E02327E0E6F8E22A
:104BC0004081518162817381C52ED62EE72EFF244C
:104BD000E7FCFA944C195D096E097F09092E000C57
:104BE000AA0BBB0BBA2FA92F982F8827840F951FCC
:104BF000A61FB71F80839183A283B383E0E4F2E012
:104C000083A180FFFDCFE0E4F2E081E083A380890F
:104C10009189E0E6F8E24481558166817781C52E6D
:104C2000D62EE72EFF24E7FCFA944C195D096E0995
:104C30007F09092E000CAA0BBB0BBA2FA92F982FA6
:104C40008827840F951FA61FB71F84839583A6838B
:104C5000B783E0E0F2E083A580FFFDCFE0E0F2E083
:104C600081E083A782899389E0E6F8E24085518557
:104C700062857385C52ED62EE72EFF24E7FCFA94B5
:104C80004C195D096E097F09092E000CAA0BBB0B9C
:104C9000BA2FA92F982F8827840F951FA61FB71FFB
:104CA00080879187A287B387E0E4F2E083A580FF45
:104CB000FDCFE0E4F2E081E083A782899389E0E61A
:104CC000F8E24485558566857785C52ED62EE72E74
:104CD000FF24E7FCFA944C195D096E097F09092E3F
:104CE000000CAA0BBB0BBA2FA92F982F8827840F73
:104CF000951FA61FB71F84879587A687B787822F22
:104D000090E0A0E0B0E0408951896289738948173A
:104D100059076A077B0709F45AC1E0E8F6E027E083
:104D2000258328E02583E0E6F8E2808B918BA28B37
:104D3000B38B8091E2289091E328A091E428B09170
:104D4000E528848B958BA68BB78B41C120911002EF
:104D5000309111024091E2295091E3298091880617
:104D60008071782EE0E6F8E280819181A281B381A2
:104D7000241B350B032E000C440B550BC92EDA2EC9
:104D8000EB2EFF24E7FCFA948C199D09AE09BF09AC
:104D9000CC24D22EE32EF42E8C0D9D1DAE1DBF1DF6
:104DA00080839183A283B383E0E4F2E083A180FF58
:104DB000FDCFE0E4F2E081E083A360897189809116
:104DC000E4299091E529E0E6F8E2C480D580E68008
:104DD000F780681B790B072E000C880B990B8D2C24
:104DE0009E2CAF2CBB24A7FCBA94C818D908EA089B
:104DF000FB088824962EA72EB82EC80CD91CEA1CB6
:104E0000FB1CC482D582E682F7820E94DE37C0880E
:104E1000D188E288F3883327F7FC3A952F2D1E2D91
:104E20000D2DC01AD10AE20AF30AC60ED71EE81EDB
:104E3000F91EC08AD18AE28AF38A6B017C01FF0CD9
:104E4000CC08DC2C7601262F372F482F592F6C2DBC
:104E50007C2D8C2D9C2DA08CB18CC28CD38CE48CA1
:104E6000F58C068D178D0E94F937208F318F428F78
:104E7000538F648F758F868F978FE0E0F2E083A564
:104E800080FFFDCFE0E0F2E081E083A72289338953
:104E90004091E6295091E729E0E6F8E28085918586
:104EA000A285B385241B350B032E000C440B550B38
:104EB000C92EDA2EEB2EFF24E7FCFA948C199D09FB
:104EC000AE09BF09CC24D22EE32EF42E8C0D9D1DED
:104ED000AE1DBF1D80879187A287B387E0E4F2E013
:104EE00083A580FFFDCFE0E4F2E081E083A7628943
:104EF00073898091E8299091E929E0E6F8E2C48479
:104F0000D584E684F784681B790B072E000C880B88
:104F1000990B8D2C9E2CAF2CBB24A7FCBA94C818DF
:104F2000D908EA08FB088824962EA72EB82EC80CAC
:104F3000D91CEA1CFB1CC486D586E686F7860E942F
:104F4000DE37C488D588E688F7883327F7FC3A959A
:104F50002F2D1E2D0D2DC01AD10AE20AF30AC60EFE
:104F6000D71EE81EF91EC48AD58AE68AF78A6B0125
:104F70007C01FF0CCC08DC2C7601262F372F482F24
:104F8000592F6C2D7C2D8C2D9C2DA0A0B1A0C2A0E2
:104F9000D3A0E4A0F5A006A117A10E94F93720A391
:104FA00031A342A353A364A375A386A397A380A5AB
:104FB000781669F070A68091E2289091E328A0917C
:104FC000E428B091E52881A792A7A3A7B4A7E0E0C1
:104FD000F2E083A980FFFDCFE0E0F2E081E083AB67
:104FE00084899589873D924094F410925F2880913E
:104FF0005E28882309F467C080915D288F5F8093C5
:105000005D28853008F45FC010925E285CC0109265
:105010005D2880915E28811156C080915F288F5F46
:1050200080935F28853008F44EC081E080935E282D
:10503000EDEBF8E280819181A281B3810196A11DFF
:10504000B11D80839183A283B3838091E2289091E4
:10505000E328A091E428B091E52840915928509187
:105060005A2860915B2870915C28841B950BA60BD5
:10507000B70B82389640A105B10578F48091E228FB
:105080009091E328A091E428B091E528841B950B2A
:10509000809306209093072006C082E896E08093D4
:1050A0000620909307208091E2289091E328A09118
:1050B000E428B091E5288093592890935A28A0932A
:1050C0005B28B0935C288091E2289091E328A0911E
:1050D000E428B091E5284091592850915A286091D0
:1050E0005B2870915C28841B950BA60BB70B83384B
:1050F0009640A105B10538F082E896E0809306203D
:105100009093072027C0C090E228D090E328E09039
:10511000E428F090E528C41AD50AE60AF70A809137
:10512000062090910720092E000CAA0BBB0B8C15B2
:105130009D05AE05BF0570F48091E2289091E328AB
:10514000A091E428B091E528841B950B809306205C
:1051500090930720E9EBF8E280819181A281B381ED
:10516000492F5A2F6B2F772767FD7A958C019D0168
:10517000041B150B260B370B8091062090910720FE
:10518000092E000CAA0BBB0BBA2FA92F982F88272A
:10519000800F911FA21FB31F80839183A283B383CB
:1051A000E0E4F2E083A980FFFDCFE0E4F2E081E0FB
:1051B00083AB84899589E0E6F8E245A556A567A505
:1051C00070A9C52ED62EE72EFF24E7FCFA944C19C1
:1051D0005D096E097F09092E000CAA0BBB0BBA2FC3
:1051E000A92F982F8827840F951FA61FB71F85A763
:1051F00096A7A7A7B0ABE0E0F2E083AD80FFFDCFBC
:1052000081E080933B02E0E4F2E083AD80FFFDCFDC
:1052100081E080937B0280915828882309F4C1C0E3
:10522000612C6894772471F8D30156962D913C91A6
:105230005797A2EEB9E25C968D919C915D97E0E65E
:10524000F8E2C1ACD2ACE3ACF4AC281B390B032EB2
:10525000000C440B550B8D2C9E2CAF2CBB24A7FCB3
:10526000BA94C818D908EA08FB088824922EA32EFD
:10527000B42EC80CD91CEA1CFB1CC1AED2AEE3AEE6
:10528000F4AEE0E4F2E0668977895E968D919C91B8
:105290005F97ADE9B8E2CD90DD90ED90FC9013976B
:1052A000681B790B072E000C880B990B8D2C9E2CFC
:1052B000AF2CBB24A7FCBA94C818D908EA08FB088D
:1052C0008824962EA72EB82EC80CD91CEA1CFB1CCD
:1052D000CD92DD92ED92FC9213970E94DE37A5EA03
:1052E000B8E2CD90DD90ED90FC9013973327F7FC5A
:1052F0003A952F2D1E2D0D2DC01AD10AE20AF30A60
:10530000C60ED71EE81EF91ECD92DD92ED92FC92DC
:105310001397A1EBB8E2660F771F881F991F6B01E7
:105320007C01FF0CCC08DC2C7601262F372F482F70
:10533000592F6C2D7C2D8C2D9C2DAC901196BC90F2
:1053400011971296CC9012971396DC90139714969F
:10535000EC9014971596FC90159716960C9116974D
:1053600017961C9117970E94F9372C9311963C932E
:10537000119712964C93129713965C931397149669
:105380006C93149715967C93159716968C93169795
:1053900017969C9381E6D301D9968C9389E281AFCD
:1053A000A0C0612C6894772471F8F30126893789AD
:1053B000A2EEB9E258968D919C915997E0E6F8E2F9
:1053C000C1A8D2A8E3A8F4A8281B390B032E000C0F
:1053D000440B550B8D2C9E2CAF2CBB24A7FCBA94F0
:1053E000C818D908EA08FB088824922EA32EB42EE8
:1053F000C80CD91CEA1CFB1CC1AAD2AAE3AAF4AAB5
:1054000060915602709157025A968D919C915B97CC
:10541000C5A8D6A8E7A8F0AC681B790B072E000C2E
:10542000880B990B8D2C9E2CAF2CBB24A7FCBA9417
:10543000C818D908EA08FB088824962EA72EB82E8B
:10544000C80CD91CEA1CFB1CC5AAD6AAE7AAF0AE58
:105450000E94DE37E1EAF8E2C080D180E280F3808A
:105460003327F7FC3A952F2D1E2D0D2DC01AD10A8A
:10547000E20AF30AC60ED71EE81EF91EC082D182C8
:10548000E282F382E9EAF8E2DC01CB01880F991F9E
:10549000AA1FBB1F6C017D01FF0CCC08DC2C760120
:1054A000282F392F4A2F5B2F6C2D7C2D8C2D9C2D76
:1054B000A080B180C280D380E480F580068117810E
:1054C0000E94F93720833183428353836483758339
:1054D0008683978389E5D301D9968C9389E380935A
:1054E000790281E090915828911180E080935828AA
:1054F00031102EC08091D2289091D328292F3327A4
:10550000821B930B26FC05C08093D2289093D3284E
:1055100006C081509F4F8093D2289093D328E0ED0E
:10552000F8E220813181842D90E040915728841B3E
:105530009109880F991F880F991F880F991F432F72
:105540005527241B350B820F931F8083918308C03E
:105550001092D2281092D3281092D0281092D128DD
:10556000409257288091C128581691F05092C12836
:105570008091E2289091E328A091E428B091E52859
:105580008093C4289093C528A093C628B093C728B9
:105590008091C228D81709F45BC0D093C2288091AB
:1055A000E2289091E328A091E428B091E528809327
:1055B000C8289093C928A093CA28B093CB28D111AA
:1055C00040C04091B9285091BA286091BB28709191
:1055D000BC2880916806807329F080E090E0AEE4FA
:1055E000B0E004C080E090E0A0EDB0E048175907BB
:1055F0006A077B0734F581E08093562882E0809328
:10560000D8284093D4285093D5286093D6287093F7
:10561000D72840935228509353286093542870936E
:10562000552828E833E12093502830935128E0E8AA
:10563000F6E095E0958386838091C328C8130DC05A
:105640006AC1109256288091C328C81306C010C1A1
:105650008091C328C81709F473C0C093C3288091F0
:10566000E2289091E328A091E428B091E528809366
:10567000CC289093CD28A093CE28B093CF28C111E9
:105680005CC081E0809356288091B9289091BA2817
:10569000A091BB28B091BC288093522890935328A6
:1056A000A0935428B09355284091DD285091DE28CE
:1056B0006091DF287091E028481759076A077B0737
:1056C000A4F48091DD289091DE28A091DF28B0918C
:1056D000E0288093D4289093D528A093D628B0931F
:1056E000D72887E08093D8280BC08093D428909344
:1056F000D528A093D628B093D72882E08093D828C5
:1057000088E893E180935028909351288091D8287D
:10571000811104C087E08093860612C0873019F497
:10572000809385060DC080958770E0E8F6E085835C
:105730008091D8288770868303C01092562898C01D
:1057400080915628882309F493C080915028909125
:10575000512801978093502890935128892B09F064
:1057600087C0C11116C08091E128882391F08091F3
:10577000D9289091DA28A091DB28B091DC28809379
:10578000D4289093D528A093D628B093D7281092E8
:10579000E1288091B9289091BA28A091BB28B091B6
:1057A000BC284091D4285091D5286091D62870917A
:1057B000D728481759076A077B07ACF4009152288D
:1057C0001091532820915428309155280817190713
:1057D0002A073B0744F42091D828273020F42F5F74
:1057E0002093D82819C084179507A607B707A4F4F3
:1057F0004091522850915328609154287091552817
:1058000084179507A607B7073CF48091D82888230A
:1058100039F081508093D8288091D828811104C014
:1058200087E0809386060EC0873019F48093850642
:1058300009C080958770E0E8F6E085838091D828DC
:105840008770868388E893E180935028909351284D
:105850008091B9289091BA28A091BB28B091BC281A
:105860008093522890935328A0935428B09355289E
:105870008091E6288823E1F089E7E0E6F8E2ABEEE4
:10588000B8E201900D928A95E1F78091E22890911B
:10589000E328A091E428B091E5288093E72890932D
:1058A000E828A093E928B093EA281092E6281FC0C0
:1058B000809164298823D9F089E7E0E6F8E2A9E637
:1058C000B9E201900D928A95E1F78091E2289091DA
:1058D000E328A091E428B091E5288093652990936E
:1058E0006629A0936729B093682910926429809152
:1058F000E2289091E328A091E428B091E528019650
:10590000A11DB11D8093E2289093E328A093E42881
:10591000B093E5280AC080915028909151280197B2
:105920008093502890935128A3CFFF91EF91DF915E
:10593000CF91BF91AF919F918F917F916F915F9127
:105940004F913F912F911F910F91FF90EF90DF901A
:10595000CF90BF90AF909F908F907F906F905F900F
:105960004F903F902F900F900BBE0F900FBE0F9057
:105970001F901895AC01FB018081982F9D7F953277
:1059800081F0811119C020E00DC09D932F5F2E344E
:1059900071F09191392F3D7F353221F09111F5CF82
:1059A00001C020E0FA01E20FF11D10820895FA0112
:1059B000E35BFF4F10820895DA018D93FB0131966E
:1059C00021E0E7CF88E090E20E94BA2C80E090E0EE
:1059D00008958EEA9AE20E94BA2C80E090E0089541
:1059E00080E69AE20E94BA2C80E090E0089582E17D
:1059F0009AE20E94BA2C80E090E0089562EE7CE288
:105A00008AE397E20E94790269EE7CE28FE397E2F3
:105A10000E94790260EF7CE284E497E20E947902BE
:105A200067EF7CE289E497E20E947902089522E11F
:105A30003AE23F932F9320E63AE23F932F932EEAE8
:105A40003AE23F932F9328E030E23F932F932EE4E6
:105A500037E23F932F939F938F930E94623C8DB7C1
:105A60009EB70C968DBF9EBF0895CF93DF93F89499
:105A70001092A4081092B40820EA39E0D9011496D3
:105A80001C92C0EBD9E01C821092A40A1092B40AB6
:105A900060EA7BE0FB011482E0E6F6E088E1828BBD
:105AA000868B40EA56E0DA0152968C93529798E83A
:105AB000958392E096839AE8918394E4928398E0A8
:105AC00015969C93159711969C93119794E01296B6
:105AD0009C9390E1908B948B958B45EFF9014683D5
