:100000000C94AF010C94D0010C94D0010C94D0014D
:100010000C94D0010C94D0010C94D0010C94D0011C
:100020000C94D0010C94D0010C94D0010C94D0010C
:100030000C94D0010C94D0010C94D0010C94D001FC
:100040000C94D0010C94D0010C94D0010C94D001EC
:100050000C94D0010C94D0010C94D0010C94D001DC
:100060000C94D0010C94D0010C94D0010C94D001CC
:100070000C94D0010C94D0010C94D0010C94D001BC
:100080000C94D0010C94D0010C94D0010C94D001AC
:100090000C94D0010C94D0010C94D0010C94D0019C
:1000A0000C94D0010C94D0010C94D0010C94D0018C
:1000B0000C94D0010C94D0010C94D0010C94D0017C
:1000C0000C94D0010C94D0010C94D0010C94D0016C
:1000D0000C94D0010C94D0010C94D0010C94D0015C
:1000E0000C94D0010C94D0010C94D0010C94D0014C
:1000F0000C94D0010C94D0010C94D0010C94D0013C
:100100000C94D0010C94D0010C94D0010C94D0012B
:100110000C94D0010C94D0010C94D0010C949B252C
:100120000C94D0010C94D0010C94D0010C94D0010B
:100130000C94D0010C94D0010C94D0010C94D001FB
:100140000C94D0010C94D0010C94D0010C94D001EB
:100150000C94D0010C94D0010C94D0010C94D001DB
:100160000C94602F0C94882F0C94B92F0C94D62FDC
:100170000C94FE2F0C94D0010C94D0010C94D0015F
:100180000C94D0010C94D0010C94D0010C94D001AB
:100190000C94D0010C94D0010C94D0010C94D0019B
:1001A0000C94D0010C94D0010C94D0010C94D0018B
:1001B0000C94D0010C94D0010C94D0010C94D0017B
:1001C0000C94D0010C94D0010C94D0010C94D0016B
:1001D0000C94D0010C94D0010C94D0010C942F30CD
:1001E0000C9457300C94D0010C94D0010C94D00195
:1001F0000C94D0010C94D0010C94D0010C94FD0A05
:100200000C94DF0B0C94470C0C94B92D0C94FB0C44
:100210000C943D0B0C94270E0C94190F0C949B0A14
:100220000C94650D0C94750B0C94510F0C94810E6D
:100230000C94DF090C94B22D0C94210A0C94D9096A
:100240000C94302F0C94CD0D0C94BF0E0C94A10C7B
:100250000C94C72D0C94630A0C94C02D6E616E0033
:10026000696E660000407A10F35A00A0724E1809B9
:100270000010A5D4E80000E87648170000E40B540D
:10028000020000CA9A3B000000E1F50500008096DC
:100290009800000040420F000000A086010000000E
:1002A000102700000000E8030000000064000000C8
:1002B00000000A00000000000100000000002C7691
:1002C000D888DC674F0823DFC1DFAE59E1B1B796AC
:1002D000E5E3E453C63AE651997696E8E6C2842609
:1002E000EB898C9B62ED407C6FFCEFBC9C9F40F2E5
:1002F000BAA56FA5F490055A2AF75C936B6CF96761
:100300006DC11BFCE0E40D47FEF520E6B500D0ED25
:10031000902E0300943577050080841E080000208D
:100320004E0A000000C80C333333330F986E12832B
:100330001141EF8D2114893BE65516CFFEE6DB18FF
:10034000D1844B381BF77C1D901DA4BBE4242032C4
:1003500084725E228100C9F124ECA1E53D271124BD
:100360001FBECFEFCDBFDFE5DEBF00E00CBF17E261
:10037000A0E0B0E2EEEFFDE700E00BBF02C00790A7
:100380000D92A03AB107D9F72EE2A0EAB7E201C078
:100390001D92A43AB207E1F70E9405060C94FD3EB7
:1003A0000C9400000F93CF93DF931F92CDB7DEB76D
:1003B0002FB72983F8941BBEFC0108ED04BF6083AE
:1003C00089818FBF0F90DF91CF910F9108956111B7
:1003D00002C090E001C090E2842B892B80935200F0
:1003E00008956F71862B809355000895E0E5F0E045
:1003F0009081282F209592239083908189230895BE
:100400000F931F93CF93C82F00E410E0F801608191
:10041000687F682B80E490E00E94D201F80180811F
:100420008C23CF911F910F9108958093FB27909378
:10043000FC271092F9271092FA271092F7271092B2
:10044000F8271092F5271092F6271092F3271092B2
:10045000F42708958F929F92AF92BF92CF92DF922E
:10046000EF92FF920F931F93CF93DF934C016B0199
:100470005A0179010091F9271091FA270F5F1F4F58
:100480008BE0809FE001819FD00D1124BE018091FF
:10049000F5279091F6270E94023A8093F5279093D2
:1004A000F6270097B9F02B97C80FD91F44E050E00A
:1004B000B401CE010E94183D1C82A986BA86CF8263
:1004C000D886ED82FE820093F9271093FA2780E008
:1004D00090E002C081E090E0DF91CF911F910F91F9
:1004E000FF90EF90DF90CF90BF90AF909F908F9054
:1004F0000895AF92BF92CF92DF92EF92FF920F9347
:100500001F93CF93DF935C016B01E090F727F0908E
:10051000F8278FEFE81AF80A8701000F111F000F64
:10052000111F000F111F0E191F09B8018091F32729
:100530009091F4270E94023A8093F3279093F42736
:100540000097A9F007501109EC01C00FD11F44E03A
:1005500050E0B501CE010E94183D1C82CD82DE82A2
:10056000E092F727F092F82780E090E002C081E067
:1005700090E0DF91CF911F910F91FF90EF90DF906E
:10058000CF90BF90AF9008950F931F93CF93DF93B9
:100590008091F9279091FA2718161906E4F400E0E3
:1005A00010E0C0E0D0E08091F5279091F627800F11
:1005B000911FDC011996ED91FC911A97309709F083
:1005C00019952196055F1F4F8091F9279091FA2781
:1005D000C817D90744F3DF91CF911F910F91089568
:1005E0009F92AF92BF92CF92DF92EF92FF920F93C2
:1005F0001F93CF93DF93CDB7DEB72597CDBFDEBF77
:10060000D82EC92E8B01685F7F4F44E050E0CE01A9
:1006100001960E94183D1D8244E050E064EC70E2B7
:10062000CE0101960E940A3D892B41F04091F727A7
:100630005091F8271416150624F080C00E94C402B9
:1006400099C0A090F327B090F42739816A817B810B
:100650009C80F501EE24EA94FE2C80E090E0DF011E
:1006600020812A3211F0231317C011962C91119773
:100670002A3211F0261310C012962C9112972A32AA
:1006800011F0271309C013962C912A3221F0291159
:1006900003C07C0101C07C010196379648175907B9
:1006A000F1F68FEFE816F80609F448C0B801645F68
:1006B0007F4FC701880F991F880F991F880F991FB7
:1006C0008E199F09F501E80FF91F0580F681E02DCD
:1006D000CE0101961995892BA1F48091FC278F9367
:1006E0008091FB278F9389EC90E29F938F931F92C9
:1006F0008DE48F93CF92DF920E94C03DCDBFDEBFCD
:1007000039C0ED2DFC2DDF010D900020E9F780911F
:10071000FC278F938091FB278F9382ED90E29F932C
:100720008F93EA1BFB0BE15BFF4FFF93EF93CF929D
:10073000DF920E94C03DCDBFDEBF1CC0ED2DFC2D61
:10074000DF010D900020E9F78091FC278F938091C5
:10075000FB278F9381EE90E29F938F93EA1BFB0B15
:10076000E15BFF4FFF93EF93CF92DF920E94C03D7A
:10077000CDBFDEBF2596CDBFDEBFDF91CF911F91EC
:100780000F91FF90EF90DF90CF90BF90AF909F9030
:100790000895CF93DF93EC018881882331F021966F
:1007A0000E94902E89918111FBCF8DE00E94902EA6
:1007B0008AE00E94902EDF91CF9108951F93CF93EE
:1007C000DF93EC0110E020C00E946A2E9DED980F8F
:1007D000923018F48883198217C09881935292300E
:1007E00098F4FE0101900020E9F73197EC1BFD0B16
:1007F000E23550F49E012E0F311DF90180831182E4
:1008000011E08A3009F010E00E945F2E882311F079
:100810001123D1F2812FDF91CF911F9108954F9233
:100820005F926F927F928F929F92AF92BF92CF9280
:10083000DF92EF92FF920F931F93CF93DF93CDB789
:10084000DEB72597CDBFDEBF8C014AE050E060E007
:1008500070E001960E94E73AF8012081233209F006
:10086000BDC18481E090FB27F090FC27E616F706D7
:1008700019F0672B21F0B4C1E114F10449F4833578
:1008800009F0A8C1B80180EA97E20E94F002A2C173
:10089000893401F130F4813459F0873409F4C5C04A
:1008A00066C1833509F45EC1873509F469C05FC14B
:1008B000FF92EF928DEF90E29F938F931F928DE4C2
:1008C0008F9380EA97E29F938F930E94C03DCDBFA4
:1008D000DEBF4DC14AE050E060E070E0C80105961F
:1008E0000E94E73A16161706B4F54091F927509181
:1008F000FA27461757077CF12BE0269FF001279F28
:10090000F00D11249F012B503109E091F527F09152
:10091000F627E20FF31F7F936F9326812F93258194
:100920002F93FF93EF937F936F938091FC278F9387
:100930008091FB278F9385E191E29F938F931F9284
:100940008DE48F9380EA97E29F938F930E94C03D3E
:10095000CDBFDEBF0CC17F936F938091FC278F9337
:100960008091FB278F9382E391E29F938F9380EA9C
:1009700097E29F938F930E94F73DCDBFDEBFF7C0F4
:100980004AE050E060E070E0C80105960E94E73A56
:100990009B01161617068CF54091F7275091F82702
:1009A0004617570754F1220F331F220F331F220F10
:1009B000331F261B370B275031094091F3275091E5
:1009C000F427240F351F3F932F937F936F938091CC
:1009D000FC278F938091FB278F9381E591E29F9372
:1009E0008F931F928DE48F9380EA97E29F938F936A
:1009F0000E94C03DCDBFDEBFBAC07F936F93809190
:100A0000FC278F938091FB278F938BE691E29F9336
:100A10008F931F928DE48F9380EA97E29F938F9339
:100A20000E94C03DCDBFDEBFA2C044E050E0B8018F
:100A30006B5F7F4FCE0101960E94183D1D82809012
:100A4000F9279090FA27181419040CF078C0DE01E9
:100A50001196FD0101900020E9F731973F016A1AD4
:100A60007B0AA090F527B090F62744244A94542C92
:100A7000C12CD12CA301B501CE0101960E940A3DE3
:100A8000892B09F426019FEFC91AD90AEBE0AE0EB3
:100A9000B11CC814D90471F7FFEF4F165F0609F4B3
:100AA0004EC0FF92EF9284E891E29F938F930F2EB6
:100AB000F0EAEF2EF7E2FF2EF02DFF92EF920E9468
:100AC000F73DF70101900020E9F73197E05AF7422E
:100AD0004DE450E04E1B5F0BBF016056784D2BE09C
:100AE000249DC001259D900D1124E091F527F091E2
:100AF000F627E80FF91F0780F085E02DCE0101965B
:100B000019950F900F900F900F900F900F90892BC9
:100B100071F18091FC278F938091FB278F938BE855
:100B200091E29F938F93C7019F93EF920E94F73DAD
:100B30000F900F900F900F900F900F9018C0FF9292
:100B4000EF9281EA91E29F938F9380EA97E29F93DD
:100B50008F930E94F73D0F900F900F900F900F9082
:100B60000F9005C0B80180EA97E20E94F0028091E0
:100B7000A127853261F0882361F0E2EAF7E290E094
:100B800098278191853231F08111FACF03C090E02E
:100B900001C090E0E0EAF7E201900020E9F7319728
:100BA000E05AF7421F929F938BEB91E29F938F93B2
:100BB00083E590E08E1B9F0B9F938F93E056F84D3B
:100BC000FF93EF930E94C03D80EA97E20E94C90321
:100BD000CDBFDEBFF801108281E003C080E001C01C
:100BE00080E02596CDBFDEBFDF91CF911F910F91A1
:100BF000FF90EF90DF90CF90BF90AF909F908F903D
:100C00007F906F905F904F9008954BE060E080EC94
:100C10000E94E701E0E5F0E08081886080838181C7
:100C200083FFFDCF62E080EC0E94F101E0E5F0E09F
:100C3000808180618083818184FFFDCF84E00E9478
:100C4000000281E00E94F60182E00E94F601E0E4E9
:100C5000F6E08FE7828380E1808BE0E6F6E091E0CA
:100C60009283808BE0E8F6E08FEC80838FE08683D0
:100C7000E0EAF6E089EF808388E386830E94F7311B
:100C80000E9488300E94052E0E94B13090E00E94A0
:100C900015020E94B30F0E946E070E94CE2D789419
:100CA00086E590E20E946625C0E0312C412C512C53
:100CB0003201812C912C540100EA16E0D0E30E940D
:100CC00013070E94D42E8823E1F00E94DF2E833484
:100CD00051F0833641F08B3151F461E089E790E0C7
:100CE0000E94D20104C086E590E20E944C120E944C
:100CF00057184B015C010E9457186B017C01C1E041
:100D000007C00E9457186B017C01CC2309F484C0F2
:100D1000D701C60188199909AA09BB0988389341E6
:100D2000A105B10508F078C062C082E0381609F468
:100D300041C0831530F0332041F0E1E03E1621F14F
:100D400054C0F3E03F1251C03FC0C418D508E608B4
:100D5000F70820ECC21626ECD2062DE2E206F104DA
:100D600068F080EC480E86EC581E8DE2681E711CFF
:100D700086E590E20E946625C0E039C00E945318C3
:100D8000C0E03324339433C080916806807349F403
:100D900086E590E20E947418C0E06894332431F82C
:100DA00026C086E590E20E949C20C0E0689433242F
:100DB00031F81DC086E590E20E942109C0E00F2EA7
:100DC000F3E03F2EF02D13C086E590E20E94E72D60
:100DD00026E530E243E050E061E070E082EC91E231
:100DE0000E947E3DC0E0312C02C0C0E0312C0E9448
:100DF0005F2E882319F0F801D68302C0F801D5834D
:100E00008DEF97E20E94DE03019709F058CF8DEF36
:100E100097E20E940F0453CF0E94F42E863908F007
:100E200084CFC0E0E4CF08950F931F93CF93DF9357
:100E3000413021F491E09093460640C090E89093B1
:100E400046063CC09683DE01022E02C0AA0FBB1FDD
:100E50000A94E2F7AA2324F4D80115968C9303C0D0
:100E6000D80116968C9395832F5F3F4F283031051C
:100E700049F780E090E0E0E6F6E021E070E0C0E8CD
:100E8000D6E030E42683DB01082E02C0AA0FBB1F88
:100E90000A94E2F7AA2314F43D8301C03E8325831C
:100EA00001968830910571F7413021F481E08093FB
:100EB00045060FC080E8809345060BC020E030E077
:100EC000E0E6F6E091E0C82FD0E000E816E080E42C
:100ED000B9CFDF91CF911F910F910895CF93DF93F9
:100EE000A0E8B6E020E411962C931197E0E4F6E038
:100EF00081E0818390E89183C0E6D6E089838D8389
:100F000016962C931697858395838093A206129646
:100F10009C9340E067E480E20E94140740E068E0B0
:100F200081E20E94140740E064E984E20E94140711
:100F300040E060E285E20E94140740E060E086E263
:100F40000E94140741E06FE880E20E94140741E02C
:100F500060E081E20E941407DF91CF9108954F92E3
:100F60005F927F928F929F92AF92BF92CF92DF92C9
:100F7000EF92FF920F931F93CF93DF93762E413022
:100F800021F491E09093460603C090E890934606C2
:100F9000806860E070E0A82FB0E00F2EF0E8EF2E40
:100FA000F6E0FF2EF02D80E4E0E6F6E091E09D0112
:100FB000062E02C0220F331F0A94E2F727FF03C058
:100FC000E7018D8302C0E7018E83968395836F5F6F
:100FD0007F4F6830710559F780E48093850698E06B
:100FE00020E030E0E0E0F0E0C0E6D6E051E00F2E97
:100FF000F0EACF2EF6E0DF2EF02D0F2EF0E8EF2EE8
:10100000F6E0FF2EF02D5E835D83D60118968C915D
:10101000EE0FFF1FFF2780FB442440F8512CE429EA
:10102000F529D7011896AC904901880C991C992490
:101030002A2DAA0C330B5901AA24BB0CAA1CBB24D1
:101040009501282939299150F1F6B1E0B715D8F565
:1010500080E090E0C0E0D0E00F2EF0E6EF2EF6E06A
:10106000FF2EF02D51E00F2EF0EAAF2EF6E0BF2E4E
:10107000F02D0F2EF0E8CF2EF6E0DF2EF02DD70169
:1010800016965C93D50118969C90CC0FDD1FDD273A
:10109000092D017010E0C02BD12BD60118969C9021
:1010A000880F991F9927A92D990CBB0BAA27BB0F55
:1010B000AA1FBB278A2B9B2BD70115965C936150E7
:1010C0007109E9F604C080E090E0C0E0D0E0413072
:1010D00041F481E0809345069C2F88278E2B9F2B1F
:1010E00007C040E840934506982F8827822B932B12
:1010F000DF91CF911F910F91FF90EF90DF90CF90F4
:10110000BF90AF909F908F907F905F904F90089589
:1011100040E062E085EC0E94AF07BC01990F880BAC
:10112000990B0E94563320E030E040E05EE30E94DD
:1011300054340895811106C040E062E088EC0E94BA
:10114000AF0712C0813031F440E062E08AEC0E94C7
:10115000AF070AC0823031F440E062E08CEC0E94BC
:10116000AF0702C080E090E0BC01990F880B990B9B
:101170000E94563320E030E04AE754E40E94A63251
:101180002AE037ED43E25EE30E9454340895811172
:1011900006C040E062E088EE0E94AF0712C08130D6
:1011A00031F440E062E08AEE0E94AF070AC082306C
:1011B00031F440E062E08CEE0E94AF0702C080E0B4
:1011C00090E0BC01990F880B990B0E94563320E0E8
:1011D00030E04AE754E40E94A63223EC35EF4CE1BC
:1011E00051E40E94543423E23BED49EF5DE30E9459
:1011F00054340895811106C041E062E088E60E94FF
:10120000AF0712C0813031F441E062E08AE60E940B
:10121000AF070AC0823031F441E062E08CE60E9400
:10122000AF0702C080E090E0BC01990F880B990BDA
:101230000E94563329E23CE54FE05CE30E945434BF
:1012400008952F923F924F925F926F927F928F926A
:101250009F92AF92BF92CF92DF92EF92FF920F9345
:101260001F93CF93DF93CDB7DEB76697CDBFDEBFB9
:101270008B8B9C8B0E948808562E472E382E292E49
:1012800082E00E94FA08962E872E782E692E81E041
:101290000E94FA0869837A83B82EA92E80E00E9402
:1012A000FA086B837C838D839E8382E00E949A0878
:1012B0006F83788789879A8781E00E949A086B8775
:1012C0007C878D879E8780E00E949A086F87788B45
:1012D000898B9A8B82E00E94C708F62EE72ED82EC3
:1012E000C92E81E00E94C7086D8B7E8B182F092FB5
:1012F00080E00E94C7082F923F924F925F926F92B8
:101300007F928F929F92AF92BF922A812F932981D1
:101310002F932E812F932D812F932C812F932B810F
:101320002F932A852F9329852F9328852F932F81FB
:101330002F932E852F932D852F932C852F932B85DF
:101340002F932A892F9329892F9328892F932F85CB
:101350002F93CF92DF92EF92FF920F931F932E89DC
:101360002F932D892F939F938F937F936F9386EC69
:1013700091E29F938F938C898F939B899F930E9477
:10138000323DCDBFDEBF6696CDBFDEBFDF91CF91D0
:101390001F910F91FF90EF90DF90CF90BF90AF9093
:1013A0009F908F907F906F905F904F903F902F9085
:1013B000089581E08093EB2880E090E00895FF920B
:1013C0000F931F93CF93DF938B01EA0160915D2907
:1013D00070915E2980915F2990916029F090572942
:1013E0000E94543320E030E44CE955E40E94A632D8
:1013F0009F938F937F936F9381E090E0F11080E053
:101400009F938F9389EF91E29F938F93DF93CF9375
:101410001F930F930E94C03DEDB7FEB73C96EDBF02
:10142000FEBF8C179D072CF0F801108281E090E040
:1014300002C080E090E0DF91CF911F910F91FF906B
:101440000895FF920F931F93CF93DF938B01EA01CF
:101450006091592970915A2980915B2990915C295A
:10146000F09056290E94543320E030E44CE955E4D2
:101470000E94A6329F938F937F936F9381E090E0B9
:10148000F11080E09F938F9389EF91E29F938F9368
:10149000DF93CF931F930F930E94C03DEDB7FEB72C
:1014A0003C96EDBFFEBF8C179D072CF0F801108213
:1014B00081E090E002C080E090E0DF91CF911F9149
:1014C0000F91FF9008950F931F93CF93DF938B019C
:1014D000EA01609122297091232980912429909119
:1014E00025290E94563320E030E040E259E40E9472
:1014F000A6329F938F937F936F9381E092E29F93A5
:101500008F93DF93CF931F930F930E94C03DEDB74E
:10151000FEB73A96EDBFFEBF8C179D072CF0F80181
:10152000108281E090E002C080E090E0DF91CF91F6
:101530001F910F910895CF92DF92EF92FF920F9338
:101540001F93CF93DF938B01EA0160914E29709135
:101550004F2980915029909151296115710581057C
:10156000910509F10E94563320E030E040E857E34E
:101570000E9454349B01AC0160E070E88BE894E475
:101580000E94A632F62EE72ED82EC92E20E030E09B
:1015900040E85FE30E94A13288234CF4F12CE12C57
:1015A000D12CC12C04C0F12CE12CD12CC12CCF9218
:1015B000DF92EF92FF9281E092E29F938F93DF930D
:1015C000CF931F930F930E94C03DEDB7FEB73A969D
:1015D000EDBFFEBF8C179D072CF0F801108281E053
:1015E00090E002C080E090E0DF91CF911F910F91D9
:1015F000FF90EF90DF90CF900895FF920F931F938D
:10160000CF93DF938B01EA01E0EFF8E266A577A5BF
:1016100080A991A9F5A40E94543320E030E44CE95C
:1016200055E40E94A6329F938F937F936F9381E03E
:1016300090E0F11001C080E09F938F9389EF91E2D9
:101640009F938F93DF93CF931F930F930E94C03D7F
:10165000EDB7FEB73C96EDBFFEBF8C179D072CF093
:10166000F801108281E090E002C080E090E0DF911C
:10167000CF911F910F91FF9008950F931F93CF93D8
:10168000DF938B01EA016091EC287091ED28809145
:10169000EE289091EF280E94543320E030E44CE98A
:1016A00055E40E94A6329F938F937F936F938CEFA4
:1016B00091E29F938F93DF93CF931F930F930E9499
:1016C000C03DEDB7FEB73A96EDBFFEBF8C179D0744
:1016D0002CF0F801108281E090E002C080E090E000
:1016E000DF91CF911F910F9108954F925F926F926A
:1016F0007F928F929F92AF92BF92CF92DF92EF92A2
:10170000FF920F931F93CF93DF938B01EA01E0EFDA
:10171000F8E220A131A142A153A164A175A186A143
:1017200097A1E1EFF9E24088518862887388848844
:101730009588A688B7880E944E336B017C0120E013
:1017400030E44CE955E4C301B2010E945434A501D0
:1017500094010E9454349B01AC01C701B6010E9460
:10176000A6329F938F937F936F9381E092E29F9332
:101770008F93DF93CF931F930F930E94C03DEDB7DC
:10178000FEB73A96EDBFFEBF8C179D072CF0F8010F
:10179000108281E090E002C080E090E0DF91CF9184
:1017A0001F910F91FF90EF90DF90CF90BF90AF907F
:1017B0009F908F907F906F905F904F9008954F9281
:1017C0005F926F927F928F929F92AF92BF92CF92D1
:1017D000DF92EF92FF920F931F93CF93DF938B01D2
:1017E000EA01609104297091052980910629909160
:1017F0000729E1EFF9E2408851886288738884887C
:101800009588A688B7880E9456336B017C0120E03A
:1018100030E040E853E4C301B2010E945434A50112
:1018200094010E9454349B01AC01C701B6010E948F
:10183000A6329F938F937F936F9381E092E29F9361
:101840008F93DF93CF931F930F930E94C03DEDB70B
:10185000FEB73A96EDBFFEBF8C179D072CF0F8013E
:10186000108281E090E002C080E090E0DF91CF91B3
:101870001F910F91FF90EF90DF90CF90BF90AF90AE
:101880009F908F907F906F905F904F9008958F9270
:101890009F92AF92BF92CF92DF92EF92FF920F93FF
:1018A0001F93CF93DF938B01EA016091FC28709125
:1018B000FD288091FE289091FF288090052A909025
:1018C000062AA090072AB090082A0E9456336B017E
:1018D0007C0120E030E040E857E4C501B4010E94FB
:1018E00054349B01AC01C701B6010E94A6329F93FC
:1018F0008F937F936F9381E092E29F938F93DF9317
:10190000CF931F930F930E94C03DEDB7FEB73A9659
:10191000EDBFFEBF8C179D072CF0F801108281E00F
:1019200090E002C080E090E0DF91CF911F910F9195
:10193000FF90EF90DF90CF90BF90AF909F908F90EF
:1019400008958F929F92AF92BF92CF92DF92EF92C3
:10195000FF920F931F93CF93DF938B01EA01609166
:10196000F8287091F9288091FA289091FB288090AE
:10197000012A9090022AA090032AB090042A0E9483
:1019800056336B017C0120E030E040E857E4C501AC
:10199000B4010E9454349B01AC01C701B6010E94FE
:1019A000A6329F938F937F936F9381E092E29F93F0
:1019B0008F93DF93CF931F930F930E94C03DEDB79A
:1019C000FEB73A96EDBFFEBF8C179D072CF0F801CD
:1019D000108281E090E002C080E090E0DF91CF9142
:1019E0001F910F91FF90EF90DF90CF90BF90AF903D
:1019F0009F908F9008954F925F926F927F928F92F7
:101A00009F92AF92BF92CF92DF92EF92FF920F938D
:101A10001F93CF93DF938B01EA01E0EFF8E2208D73
:101A2000318D428D538D648D758D868D978DE1EF4F
:101A3000F9E2408451846284738484849584A6840A
:101A4000B7840E944E336B017C0120E030E44CE906
:101A500055E4C301B2010E945434A50194010E94CF
:101A600054349B01AC01C701B6010E94A6329F937A
:101A70008F937F936F9381E092E29F938F93DF9395
:101A8000CF931F930F930E94C03DEDB7FEB73A96D8
:101A9000EDBFFEBF8C179D072CF0F801108281E08E
:101AA00090E002C080E090E0DF91CF911F910F9114
:101AB000FF90EF90DF90CF90BF90AF909F908F906E
:101AC0007F906F905F904F9008954F925F926F92CA
:101AD0007F928F929F92AF92BF92CF92DF92EF92BE
:101AE000FF920F931F93CF93DF938B01EA016091D5
:101AF0000029709101298091022990910329E1EF39
:101B0000F9E2408451846284738484849584A68439
:101B1000B7840E9456336B017C0120E030E040E83E
:101B200053E4C301B2010E945434A50194010E9400
:101B300054349B01AC01C701B6010E94A6329F93A9
:101B40008F937F936F9381E092E29F938F93DF93C4
:101B5000CF931F930F930E94C03DEDB7FEB73A9607
:101B6000EDBFFEBF8C179D072CF0F801108281E0BD
:101B700090E002C080E090E0DF91CF911F910F9143
:101B8000FF90EF90DF90CF90BF90AF909F908F909D
:101B90007F906F905F904F9008958F929F92AF9239
:101BA000BF92CF92DF92EF92FF920F931F93CF934A
:101BB000DF938B01EA016091F4287091F528809100
:101BC000F6289091F7288090FD299090FE29A0900A
:101BD000FF29B090002A0E9456336B017C0120E05F
:101BE00030E040E857E4C501B4010E9454349B0141
:101BF000AC01C701B6010E94A6329F938F937F93D9
:101C00006F9381E092E29F938F93DF93CF931F9323
:101C10000F930E94C03DEDB7FEB73A96EDBFFEBFF1
:101C20008C179D072CF0F801108281E090E002C033
:101C300080E090E0DF91CF911F910F91FF90EF90A6
:101C4000DF90CF90BF90AF909F908F9008958F922C
:101C50009F92AF92BF92CF92DF92EF92FF920F933B
:101C60001F93CF93DF938B01EA016091F02870916D
:101C7000F1288091F2289091F3288090F929909092
:101C8000FA29A090FB29B090FC290E9456336B01E1
:101C90007C0120E030E040E857E4C501B4010E9437
:101CA00054349B01AC01C701B6010E94A6329F9338
:101CB0008F937F936F9381E092E29F938F93DF9353
:101CC000CF931F930F930E94C03DEDB7FEB73A9696
:101CD000EDBFFEBF8C179D072CF0F801108281E04C
:101CE00090E002C080E090E0DF91CF911F910F91D2
:101CF000FF90EF90DF90CF90BF90AF909F908F902C
:101D000008950F931F93CF93DF938B01EA016091A6
:101D10002A2970912B2980912C2990912D290E949C
:101D2000563320E030E048E45BE40E94A63220E035
:101D300030E04AE75CE40E94A6329F938F937F9342
:101D40006F9381E092E29F938F93DF93CF931F93E2
:101D50000F930E94C03DEDB7FEB73A96EDBFFEBFB0
:101D60008C179D072CF0F801108281E090E002C0F2
:101D700080E090E0DF91CF911F910F9108958F92B5
:101D80009F92AF92BF92CF92DF92EF92FF920F930A
:101D90001F93CF93DF938B01EA0160912629709105
:101DA000272980912829909129298090112A9090A3
:101DB000122AA090132AB090142A0E9456336B0165
:101DC0007C0120E030E040E857E4C501B4010E9406
:101DD00054349B01AC01C701B6010E94A6329F9307
:101DE0008F937F936F9381E092E29F938F93DF9322
:101DF000CF931F930F930E94C03DEDB7FEB73A9665
:101E0000EDBFFEBF8C179D072CF0F801108281E01A
:101E100090E002C080E090E0DF91CF911F910F91A0
:101E2000FF90EF90DF90CF90BF90AF909F908F90FA
:101E300008950F931F93CF93DF938B01EA01609175
:101E400052297091532980915429909155290E94CB
:101E500054332EE432E640EE5CE30E9454349F9308
:101E60008F937F936F9381E092E29F938F93DF93A1
:101E7000CF931F930F930E94C03DEDB7FEB73A96E4
:101E8000EDBFFEBF8C179D072CF0F801108281E09A
:101E900090E002C080E090E0DF91CF911F910F9120
:101EA0000895CF92DF92EF92FF920F931F93CF93FB
:101EB000DF938B01EA0160914E2970914F29809147
:101EC000502990915129611571058105910509F1FC
:101ED0000E94563320E030E040E857E30E9454343B
:101EE0009B01AC0160E074E886EF93E40E94A632A7
:101EF000F62EE72ED82EC92E20E030E040E85FE332
:101F00000E94A13288234CF4F12CE12CD12CC12C5D
:101F100004C0F12CE12CD12CC12CCF92DF92EF9296
:101F2000FF9281E092E29F938F93DF93CF931F9371
:101F30000F930E94C03DEDB7FEB73A96EDBFFEBFCE
:101F40008C179D072CF0F801108281E090E002C010
:101F500080E090E0DF91CF911F910F91FF90EF9083
:101F6000DF90CF900895DF92EF92FF920F931F932F
:101F7000CF93DF9380E20E94EB31C0E0D2E08C8708
:101F800081E20E94EB318D8784E20E94EB3100E414
:101F900012E0F801848785E20E94EB31F801858721
:101FA000E0E0F6E014821082A0E2B6E014961C9203
:101FB00014971C9287E0808B818B828B838B848B20
:101FC000858B868B50968C93509751968C93519716
:101FD00052968C93529753968C93539754968C9316
:101FE000549755968C93559756968C93569757962B
:101FF0008C936894DD24D4F8D78AD98250E25A832E
:1020000046EC4B8333E03C836894FF24F1F8F8A25C
:10201000F8A6F8AAF8AE89E289A399E199A791E315
:1020200099AB21E629AFEE24E394EAA2E882F80115
:10203000D182528343833483F0A2F0A6F0AAF0AE9B
:1020400021A321E521A791AB81AFE082E0EAF0E096
:10205000828181608283E1EFF9E28BEA9AEAA6E26B
:10206000B2E480879187A287B38747E251E164EBAE
:1020700072E44487558766877787808B918BA28B24
:10208000B38B4FE15EE860EB72E4448B558B668B5B
:10209000778B80A391A3A2A3B3A34DE555E86FE688
:1020A00072E444A355A366A377A380A791A7A2A730
:1020B000B3A780E090E0A8E4B2E484A795A7A6A720
:1020C000B7A744E050E060E070E089EF99E20E9439
:1020D000493144E050E060E170E08DEF99E20E9408
:1020E000493144E050E060E270E081E09AE20E9411
:1020F000493144E050E060E370E085E09AE20E94FC
:10210000493142E050E060E470E081EF99E20E94E2
:10211000493142E050E064E470E083EF99E20E94CC
:10212000493142E050E068E470E085EF99E20E94B6
:10213000493142E050E06CE470E087EF99E20E94A0
:10214000493144E050E060E570E081E19AE20E94AC
:10215000493144E050E060E670E085E19AE20E9497
:10216000493144E050E060E770E089E19AE20E9482
:10217000493144E050E060E870E08DE19AE20E946D
:10218000493142E050E060E970E089E09AE20E9463
:10219000493142E050E064E970E08BE09AE20E944D
:1021A000493142E050E068E970E08DE09AE20E9437
:1021B000493142E050E06CE970E08FE09AE20E9421
:1021C0004931E0E2F3E085E080831182D2828EEA39
:1021D00095E0808F918FE0E0F8E011821382148205
:1021E00080E099E186A397A31682178210A211A21C
:1021F000E082A0E8B1E080EC8C93E0E4F8E08CE0D1
:10220000808311821382148216821782E0868FEFF8
:102210009FEF86A397A3E0E4F6E080E48283E68A5A
:1022200086E614968C9314971C96FC92E0E6F6E0F2
:1022300080859085807321E0803109F020E02111B4
:1022400008C0907381E0903209F080E0882309F49F
:1022500049C0809168068073803119F08BE092E26A
:1022600002C086E092E221E030E049ED59E061E50C
:102270007FE00E942A02809168068073803119F005
:1022800085E192E202C080E192E221E030E040E0AC
:1022900050E069E17FE00E942A0280916806807325
:1022A000803119F08FE192E202C08AE192E221E0EE
:1022B00030E040E050E06FEB7EE00E942A02809127
:1022C00068068073803119F089E292E202C084E2EC
:1022D00092E221E030E040E050E061E87EE00E94E0
:1022E0002A02AFC021E030E040E050E067E27EE04B
:1022F0008EE292E20E942A0221E030E040E050E0CB
:102300006DEC7DE083E392E20E942A0221E030E05E
:1023100040E050E065E67DE088E392E20E942A0218
:1023200025E030E040E050E06BEF7CE08DE392E2AE
:102330000E942A0221E030E040E050E061EA7CE0C7
:1023400082E492E20E942A0221E030E040E050E084
:1023500067E47CE087E492E20E942A0221E030E018
:1023600040E050E06FED7BE08CE492E20E942A02B4
:1023700025E030E040E050E065E77BE081E592E277
:102380000E942A0221E030E040E050E06DE37BE073
:1023900086E592E20E942A022AE030E040E050E026
:1023A0006DEF7AE08BE592E20E942A028091680646
:1023B000807309F046C021E030E049ED59E06BE957
:1023C0007AE086E092E20E942A0221E030E040E0DA
:1023D00050E069E17FE080E192E20E942A0221E080
:1023E00030E040E050E06FEB7EE08AE192E20E9454
:1023F0002A0221E030E040E050E061E87EE084E243
:1024000092E20E942A022AE030E040E050E063E6D7
:102410007AE080E692E20E942A0225E030E040E085
:1024200050E061E27AE085E692E20E942A0225E02D
:1024300030E040E050E06FED79E08AE692E20E9401
:102440002A02809168068073803129F080916806A5
:102450008073803269F486E69EEDA0E2B0E080935E
:10246000E2289093E328A093E428B093E5280CC0D9
:1024700086E696E6AAE4B0E08093E2289093E3280B
:10248000A093E428B093E528DF91CF911F910F919D
:10249000FF90EF90DF9008952F923F924F925F92BE
:1024A0006F927F928F929F92AF92BF92CF92DF9264
:1024B000EF92FF920F931F93CF93DF93CDB7DEB7C9
:1024C000C25AD109CDBFDEBF282E892E80E6E4E6B0
:1024D000F0E2DE01119601900D928A95E1F781E01C
:1024E00080936E2980916E298111FCCF8091D5292E
:1024F0009091D629A091D729B091D82985369105F8
:10250000A105B10558F0222D382D42E450E061E0DC
:1025100070E08FE692E20E947E3DAEC5222D382DFE
:1025200048E150E061E070E082EB92E20E947E3D83
:1025300000E616E00F2EF3EFEF2EF2E2FF2EF02D65
:10254000222D382D47E250E061E070E08BEC92E202
:102550000E947E3DD12C1FC0FC01EE0FFF1FE80F33
:10256000F91FEE0FFF1FEE0FFF1F21E030E02C0FD1
:102570003D1FE20FF31F21812F9320812F9301969E
:102580009F938F93FF92EF928F922F920E94323DF2
:10259000D394CDBFDEBF8D2D0D2C000C990BD8012F
:1025A00018962C91189718963C91207341E0203191
:1025B00009F040E041110AC0307321E0303209F0E7
:1025C00020E0211103C028E030E002C024E030E028
:1025D000821793070CF2222D382D43E050E061E082
:1025E00070E08FEF92E20E947E3D02C00E94DF2EDB
:1025F0000E94D42E8111FACF0E94DF2E0F2EFFEC05
:10260000CF2EF02DC80E222D382D42E050E061E093
:1026100070E085E294E20E947E3DCD141CF4CC2053
:102620000CF048C3222D382D40E250E061E070E00C
:1026300083E093E20E947E3D83CF0E94DF2E0E94C2
:10264000D42E8111FACFC32C032C000CDD089F92ED
:10265000AF92C60101969F938F93E4E2F3E2FF935A
:10266000EF938F922F920E94323DCDBFDEBF412C5F
:10267000512C32010E94DF2E182F082E000C990BCE
:10268000C0970A9708F08AC3622D782D812F012EFA
:10269000000C990B0E94423D440C551C661C771C93
:1026A000D301C201880F991FAA1FBB1F880F991F52
:1026B000AA1FBB1F480E591E6A1E7B1E812F110FB9
:1026C000990BAA0BBB0B480E591E6A1E7B1E90E38A
:1026D000491A510861087108CDCF80916E29811186
:1026E000FCCFCD56DF4FA881B981C359D040ED91C1
:1026F000FC9160817181828193810E94563320E038
:1027000030E040E857E30E9454342B013C01CC0CEC
:10271000DD1CCC0CDD1CE1E6F0E0EC0FFD1FEC0D48
:10272000FD1D6083718382839383C956DF4FE881E7
:10273000F981C759D040C080D180D6018D919D913B
:102740000D90BC91A02DC157DF4F88839983AA8338
:10275000BB83CF58D04020E030E04AE754E4C301C7
:10276000B2010E94A6329F938F937F936F93C157BC
:10277000DF4F288139814A815B81CF58D040C30126
:10278000B2010E94A6329F938F937F936F931F9302
:102790000F93FF92EF92E9E5F3E2FF93EF938F92AD
:1027A0002F920E94323DCDBFDEBF0E94DF2E982FB8
:1027B000893709F454C3893509F414C38F7D8E34E5
:1027C00009F422C39B3189F738C3339494E09315FD
:1027D000D4F0222D382D47E250E061E070E08DEA20
:1027E00093E20E947E3D0E94DF2E982F893709F4E4
:1027F00048C3893509F457C38F7D8E3409F465C306
:102800009B3189F762C3A1E0A3151CF4131464F093
:10281000CCC3222D382D42E550E061E070E085ED1B
:1028200093E20E947E3D28C43E01B5E76B0E711C09
:102830005E01E1E6AE0EB11C75018301CD56DF4F9E
:10284000188219821A821B82C359D040C157DF4FA8
:10285000188219821A821B82CF58D040912CD8013D
:102860002D913D914D915D918D01C157DF4F688153
:1028700079818A819B81CF58D0400E943532C157DF
:10288000DF4F688379838A839B83CF58D040F701D9
:1028900021913191419151917F01CD56DF4F688156
:1028A00079818A819B81C359D0400E943532CD56AF
:1028B000DF4F688379838A839B83C359D040939485
:1028C0003910CDCF17C3D3016D917D918D919D911D
:1028D0003D01202F3F2D4D2D5E2D0E943432C157DA
:1028E000DF4F688379838A839B83CF58D0409B01D5
:1028F000AC010E9454349B01AC01CD56DF4F68817E
:1029000079818A819B81C359D0400E943532CD564E
:10291000DF4F688379838A839B83C359D040F50155
:1029200061917191819191915F01C156DF4F288131
:10293000CF59D040392D442D552D0E943432C157E6
:10294000DF4F288139814A815B81CF58D0400E9476
:1029500054349B01AC01C956DF4F688179818A816B
:102960009B81C759D0400E943532C956DF4F6883DA
:1029700079838A839B83C759D0401F5F3112A3CFCD
:10298000CF55DF4FC880D980C15AD040CD56DF4FD8
:10299000288139814A815B81C359D040C956DF4FB4
:1029A000688179818A819B81C759D0400E94A63273
:1029B000C157DF4F688379838A839B83CF58D04088
:1029C000202F3F2DC056DF4F4881C05AD0405E2D8A
:1029D0000E9454349B01AC01C156DF4F6881CF592E
:1029E000D040792D842D952D0E943432CD56DF4F65
:1029F000688379838A839B83C359D04002C00E9435
:102A0000DF2E0E94D42E8111FACFC256DF4FF881FB
:102A1000CE59D040FF93C356DF4F2881CD59D040C7
:102A20002F9388E294E29F938F938F922F920E942C
:102A3000323DD6014D905D906D907C90C556DF4F34
:102A4000E881F981CB59D040EE0FFF1FC556DF4F0B
:102A500028813981CB59D040E20FF31FEE0FFF1FC1
:102A6000EE0FFF1FEC0FFD1F07811085D801AD9001
:102A7000BC901197ED90FC90CD56DF4F6881798125
:102A80008A819B81C359D0400E94C134CD56DF4F0B
:102A9000688379838A839B83C359D0407F926F92E6
:102AA0005F924F92CE56DF4FB881C259D040BF934C
:102AB000CF56DF4FE881C159D040EF93C057DF4F69
:102AC000F881C059D040FF93C157DF4F2881CF58BC
:102AD000D0402F93BF92AF92B701FF0C880B990B98
:102AE0000E945633CD56DF4F288139814A815B8160
:102AF000C359D0400E9435329F938F937F936F9339
:102B00008CE494E29F938F938F922F920E94323D98
:102B1000CDBFDEBF0E94DF2E982F893709F474C223
:102B2000893509F483C28F7D8E3409F491C29B31BB
:102B300089F78EC2D8016D917C91072E000C880B0D
:102B4000990B0E945633CD56DF4F288139814A8137
:102B50005B81C359D0400E9435320E941833F8017E
:102B600060837183C157DF4F88819981AA81BB81BE
:102B7000CF58D040F60180839183A283B383C5569A
:102B8000DF4FE880F980CB59D040EE0CFF1CC556D2
:102B9000DF4FE881F981CB59D040EE0DFF1DEE0FDC
:102BA000FF1FEE0FFF1F21E030E02C0F3D1FE20F53
:102BB000F31FA284B38442E050E0B501C8010E9433
:102BC000AC31C556DF4FE881F981CB59D040EE0DCD
:102BD000FF1DEE0FFF1FEE0FFF1F81E090E08C0F37
:102BE0009D1FE80FF91FE084F18444E050E0B70135
:102BF000C6010E94AC31F60180819181A281B3812E
:102C0000F80120813181BF93AF939F938F933F93BE
:102C10002F9383E994E29F938F938F922F920E9438
:102C2000323D42E050E0B501CE0187579F4F0E94F0
:102C3000493144E050E0B701CE0185579F4F0E94D3
:102C40004931C257DF4F8881CE58D0408F93C35748
:102C5000DF4F8881CD58D0408F93C457DF4F888194
:102C6000CC58D0408F93C557DF4F8881CB58D04088
:102C70008F93C657DF4F8881CA58D0408F93C7576C
:102C8000DF4F8881C958D0408F9389EB94E29F939E
:102C90008F938F922F920E94323D222D382D4CE23D
:102CA00050E061E070E08FED94E20E947E3DCDBF88
:102CB000DEBFE2C18C2D0C2C000C990BC556DF4FEA
:102CC00088839983CB59D040FC01EE0FFF1FE80F9A
:102CD000F91FEE0FFF1FEE0FFF1FA1E0B0E0AC0FDA
:102CE000BD1FEA0FFB1FB081C356DF4FB883CD591C
:102CF000D0402181C256DF4F2883CE59D0402F9338
:102D0000BF938CE095E29F938F938F922F920E94B6
:102D1000323D1F9285E08F9385E295E29F938F93DA
:102D20008F922F920E94323DCDBFDEBFC0FE03C006
:102D300083E595E202C086E595E2A82E992E312C16
:102D4000BB24B394C556DF4F88819981CB59D040BD
:102D5000880F991FC556DF4FA881B981CB59D04044
:102D60008A0F9B1F880F991F880F991FE1E0F0E0E1
:102D7000EC0FFD1F8E0F9F1F9C012E5F3F4FCD5606
:102D8000DF4F28833983C359D040DC011496C956DC
:102D9000DF4FA883B983C759D04051CCC301B201DA
:102DA0000E94563320E030E04AE754E40E94A63205
:102DB000E62EF72E082F192FF601EE0FFF1FEE0F4C
:102DC000FF1F25E730E02C0F3D1FE20FF31F862F7A
:102DD0009F2DA02FB12F80839183A283B383B092C4
:102DE0006E297BCC1F9289E58F9389E595E29F93AD
:102DF0008F938F922F920E94323D0F900F900F90E1
:102E00000F900F900F90E1CC292F092E000C330B5F
:102E10003F939F93E9E5F5E2FF93EF938F922F9213
:102E20000E94323D0F900F900F900F900F900F90D7
:102E300034E033150CF003CCE6CC1F928BE18F937A
:102E400089E595E29F938F938F922F920E94323D56
:102E50000F900F900F900F900F900F90D4CC1F9267
:102E600089E78F9389E595E29F938F938F922F92B5
:102E70000E94323D0F900F900F900F900F900F9087
:102E8000A4CC1F9289E78F93E9E5F5E2FF93EF93D6
:102E90008F922F920E94323D0F900F900F900F90C3
:102EA0000F900F90CCCB1F9289E58F9389E595E227
:102EB0009F938F938F922F920E94323D0F900F908D
:102EC0000F900F900F900F90BACB292F092E000C66
:102ED000330B3F939F9389E595E29F938F938F9256
:102EE0002F920E94323D0F900F900F900F900F90F5
:102EF0000F9089CC632D032C000C770B880B990B5A
:102F00000E945633C956DF4F688379838A839B8337
:102F1000C759D0409B01AC01C157DF4F688179810F
:102F20008A819B81CF58D0400E94A632062FF72E6F
:102F3000C056DF4F8883C05AD040E92EC956DF4FB4
:102F4000288139814A815B81C759D040CD56DF4FF6
:102F5000688179818A819B81C359D0400E94A632C1
:102F6000C156DF4F6883CF59D040972E482E592E37
:102F7000C956DF4F188219821A821B82C759D04066
:102F8000CD56DF4F188219821A821B82C359D04056
:102F900010E0CF55DF4FC882D982C15AD040C05609
:102FA000DF4FD880C05AD0408ECC632D330C770BC6
:102FB000880B990B0E9456339B01AC0160E070E0D6
:102FC000CB010E94A632062FF72EC056DF4F888312
:102FD000C05AD040E92EC156DF4F6883CF59D04048
:102FE000972E482E592EC956DF4F188219821A8201
:102FF0001B82C759D040CD56DF4F188219821A82E2
:103000001B82C359D040C2CC1F9289E78F9389E5B8
:1030100095E29F938F938F922F920E94323D0F9053
:103020000F900F900F900F900F9084CD1F9289E515
:103030008F9389E595E29F938F938F922F920E94B1
:10304000323D0F900F900F900F900F900F9072CD18
:10305000292F092E000C330B3F939F9389E595E2AE
:103060009F938F938F922F920E94323D0F900F90DB
:103070000F900F900F900F90CE55DF4FCDBFDEBF5A
:10308000DF91CF911F910F91FF90EF90DF90CF9044
:10309000BF90AF909F908F907F906F905F904F9078
:1030A0003F902F90089581E080936E2908950F93AB
:1030B0001F930091E7281091E8282091E92830918A
:1030C000EA2802C08B019C016091E7287091E828F2
:1030D0008091E9289091EA280617170728073907F1
:1030E00089F71F910F9108952F923F924F925F920F
:1030F0006F927F928F929F92AF92BF92CF92DF9208
:10310000EF92FF920F931F93CF93DF93CDB7DEB76C
:10311000C15DD109CDBFDEBFCA54DF4F8883C65B16
:10312000D040C954DF4F9883C75BD04080916E294F
:103130008111FCCF6091E4297091E5298091E62905
:103140009091E7290E94543320E030E44CE955E4A3
:103150000E94A632C854DF4F6883C85BD040C75472
:10316000DF4F7883C95BD040C654DF4F8883CA5B8A
:10317000D040C554DF4F9883CB5BD0402091DB29F2
:1031800091E080E0211190E0C057DF4F9883C05953
:10319000D040CF56DF4F8883C159D0408091EC2971
:1031A0009091ED29A091EE29B091EF29892B8A2BDE
:1031B0008B2B69F16091EC297091ED298091EE29BA
:1031C0009091EF290E94563320E030E040E857E329
:1031D0000E9454349B01AC0160E070E88BE894E4F9
:1031E0000E94A632C453DF4F6883CC5CD040C353E7
:1031F000DF4F7883CD5CD040C253DF4F8883CE5CF5
:10320000D040C153DF4F9883CF5CD04014C0C4532B
:10321000DF4F1882CC5CD040C353DF4F1882CD5CA7
:10322000D040C253DF4F1882CE5CD040C153DF4F35
:103230001882CF5CD0401091F0296091E029709104
:10324000E1298091E2299091E3290E94543320E002
:1032500030E44CE955E40E94A632C454DF4F688341
:10326000CC5BD040C354DF4F7883CD5BD040C25499
:10327000DF4F8883CE5BD040C154DF4F9883CF5B54
:10328000D0402091DA2991E080E0211190E0CE56E3
:10329000DF4F9883C259D040CD56DF4F8883C35942
:1032A000D0406091DC297091DD298091DE299091D8
:1032B000DF290E94543320E030E44CE955E40E94B9
:1032C000A632C054DF4F6883C05CD040CF53DF4F7D
:1032D0007883C15CD040CE53DF4F8883C25CD0403E
:1032E000CD53DF4F9883C35CD0402091D92991E022
:1032F00080E0211190E0CC56DF4F9883C459D04034
:10330000CB56DF4F8883C559D0406091A129709179
:10331000A2298091A3299091A4290E94543320E0EE
:1033200030E44CE955E40E94A632CC53DF4F688369
:10333000C45CD040CB53DF4F7883C55CD040CA53C8
:10334000DF4F8883C65CD040C953DF4F9883C75C8A
:10335000D0402091A02991E080E0211101C090E0AF
:10336000CA56DF4F9883C659D040C956DF4F88836D
:10337000C759D0406091D5297091D6298091D7291D
:103380009091D8290E94543327EB33EF4DE75DE34A
:103390000E945434C853DF4F6883C85CD040C75381
:1033A000DF4F7883C95CD040C653DF4F8883CA5C47
:1033B000D040C553DF4F9883CB5CD0406091D1297A
:1033C0007091D2298091D3299091D42961157105EA
:1033D0008105910509F10E94563320E030E040E874
:1033E00057E30E9454349B01AC0160E070E88BE825
:1033F00094E40E94A6326983072F382E292E20E0FC
:1034000030E040E85FE30E94A13288234CF4198247
:1034100000E0312C212C04C0198200E0312C212C39
:10342000E3E7F9E26091EA297091EB292091E8291C
:103430003091E9292A833B83C2A8D3A8E4A8F5A840
:10344000A9ECB9E23C91C856DF4F3883C859D04047
:1034500011964C911197C756DF4F4883C959D040F8
:1034600012965C911297C656DF4F5883CA59D040C6
:1034700013968C911397C556DF4F8883CB59D04054
:1034800014969C911497C456DF4F9883CC59D04022
:1034900015962C911597C356DF4F2883CD59D040F0
:1034A00016963C911697C256DF4F3883CE59D040BE
:1034B00017964C91C156DF4F4883CF59D04040906A
:1034C000192A50901A2A60901B2A70901C2A80900A
:1034D0001D2A90901E2AA0901F2AB090202A809129
:1034E000BD299091BE29A091BF29B091C0298C839C
:1034F0009D83AE83BF832091192A30911A2A40916F
:103500001B2A50911C2A288739874A875B8780911C
:103510001D2A90911E2AA0911F2AB091202A8C87E3
:103520009D87AE87BF872091B5293091B6294091FC
:10353000B7295091B829288B398B4A8B5B8B8091A6
:103540001D2A90911E2AA0911F2AB091202A8C8BAF
:103550009D8BAE8BBF8B2091B1293091B2294091C8
:10356000B3295091B429288F398F4A8F5B8F80916E
:10357000192A90911A2AA0911B2AB0911C2A8C8F8B
:103580009D8FAE8FBF8F21EC39E2D901BC91C0561F
:10359000DF4FB883C05AD0404091C229CF55DF4F8A
:1035A0004883C15AD0405091C329CE55DF4F58832C
:1035B000C25AD0408091C429CD55DF4F8883C35A69
:1035C000D0409091C529CC55DF4F9883C45AD04044
:1035D000A091C629CB55DF4FA883C55AD040B091E2
:1035E000C729CA55DF4FB883C65AD0404091C82971
:1035F000C053DF4F4883C05DD0408091112A909125
:10360000122AA091132AB091142A88A399A3AAA3DD
:10361000BBA32091152A3091162A4091172A509168
:10362000182A2CA33DA34EA35FA38091B9299091A2
:10363000BA29A091BB29B091BC2988A799A7AAA7AC
:10364000BBA72091112A3091122A4091132A509140
:10365000142A2CA73DA74EA75FA78091152A909109
:10366000162AA091172AB091182A88AB99ABAAAB59
:10367000BBAB22AD33AD44AD55AD2CAB3DAB4EAB8A
:103680005FAB8091152A9091162AA091172AB091CC
:10369000182A88AF99AFAAAFBBAF26A937A940AD0A
:1036A00051AD2CAF3DAF4EAF5FAF8091112A9091DD
:1036B000122AA091132AB091142A24968CAF9DAFA0
:1036C000AEAFBFAF249790A1C955DF4F9883C75ABB
:1036D000D040A1A1C855DF4FA883C85AD040B2A19D
:1036E000C755DF4FB883C95AD04023A1C655DF4F15
:1036F0002883CA5AD04034A1C555DF4F3883CB5AEE
:10370000D04045A1C455DF4F4883CC5AD04056A184
:10371000C355DF4F5883CD5AD04087A1CF52DF4FDA
:103720008883C15DD0402091012A3091022A4091C6
:10373000032A5091042A28962CAF3DAF4EAF5FAFBD
:1037400028978091052A9091062AA091072AB09186
:10375000082A2C968CAF9DAFAEAFBFAF2C972489B3
:1037600035894689578960962CAF3DAF4EAF5FAF24
:1037700060978091012A9091022AA091032AB0912A
:10378000042A64968CAF9DAFAEAFBFAF6497209113
:10379000052A3091062A4091072A5091082A6896F6
:1037A0002CAF3DAF4EAF5FAF689784859585A685FA
:1037B000B7856C968CAF9DAFAEAFBFAF6C972091C5
:1037C000052A3091062A4091072A5091082AA0968E
:1037D0002CAF3DAF4EAF5FAFA09780859185A2859E
:1037E000B385A4968CAF9DAFAEAFBFAFA497209129
:1037F000012A3091022A4091032A5091042AA89666
:103800002CAF3DAF4EAF5FAFA897308DC255DF4FA5
:103810003883CE5AD040418DC155DF4F4883CF5AAF
:10382000D040528DC055DF4F5883C05BD040838D50
:10383000CF54DF4F8883C15BD040948DCE54DF4F8F
:103840009883C25BD040A58DCD54DF4FA883C35B66
:10385000D040B68DCC54DF4FB883C45BD040278DA9
:10386000CB54DF4F2883C55BD0408091F9299091DC
:10387000FA29A091FB29B091FC29AC968CAF9DAFA1
:10388000AEAFBFAFAC972091FD293091FE2940919A
:10389000FF295091002AE0962CAF3DAF4EAF5FAFAD
:1038A000E09780899189A289B389E4968CAF9DAF16
:1038B000AEAFBFAFE4972091F9293091FA2940913A
:1038C000FB295091FC29E8962CAF3DAF4EAF5FAF7E
:1038D000E8978091FD299091FE29A091FF29B09150
:1038E000002AEC968CAF9DAFAEAFBFAFEC972481B2
:1038F000358146815781C458DF4F288339834A83F5
:103900005B83CC57D0408091FD299091FE29A091F6
:10391000FF29B091002AC058DF4F88839983AA837A
:10392000BB83C058D0402081318142815381CC5724
:10393000DF4F288339834A835B83C458D04080910A
:10394000F9299091FA29A091FB29B091FC29C85737
:10395000DF4F88839983AA83BB83C858D0402091C6
:103960006F29309170294091712950917229C45763
:10397000DF4F288339834A835B83CC58D040C554BA
:10398000DF4F3881CB5BD0403F93C654DF4F488137
:10399000CA5BD0404F93C754DF4F5881C95BD040BA
:1039A0005F93C854DF4F8881C85BD0408F93CF5658
:1039B000DF4F9881C159D0409F93C057DF4FA881F6
:1039C000C059D040AF93C153DF4FB881CF5CD040D6
:1039D000BF93C253DF4F2881CE5CD0402F93C35397
:1039E000DF4F3881CD5CD0403F93C453DF4F4881D7
:1039F000CC5CD0404F931F921F93C154DF4F58812E
:103A0000CF5BD0405F93C254DF4F8881CE5BD04004
:103A10008F93C354DF4F9881CD5BD0409F93C454A4
:103A2000DF4FA881CC5BD040AF93CD56DF4FB8813C
:103A3000C359D040BF93CE56DF4F2881C259D040E2
:103A40002F93CD53DF4F3881C35CD0403F93CE538B
:103A5000DF4F4881C25CD0404F93CF53DF4F588136
:103A6000C15CD0405F93C054DF4F8881C05CD040C0
:103A70008F93CB56DF4F9881C559D0409F93CC563A
:103A8000DF4FA881C459D040AF93C953DF4FB881ED
:103A9000C75CD040BF93CA53DF4F2881C65CD0407B
:103AA0002F93CB53DF4F3881C55CD0403F93CC532D
:103AB000DF4F4881C45CD0404F93C956DF4F5881D7
:103AC000C759D0405F93CA56DF4F8881C659D0404E
:103AD0008F93C553DF4F9881CB5CD0409F93C653E3
:103AE000DF4FA881CA5CD040AF93C753DF4FB88186
:103AF000C95CD040BF93C853DF4F2881C85CD04019
:103B00002F932F923F920F9339813F9380E090E063
:103B10000E94543323E333E343E254E40E94A63289
:103B20009F938F937F936F934A815B81BA0180E06B
:103B300090E00E94543327E137EB41ED5EE30E94B1
:103B4000A6329F938F937F936F93C701B6010E9414
:103B5000563320E030E040E259E40E94A6329F93C1
:103B60008F937F936F93C856DF4F2881C859D040F9
:103B7000C756DF4F3881C959D040C656DF4F4881FC
:103B8000CA59D040C556DF4F5881CB59D040C45692
:103B9000DF4F6881CC59D040C356DF4F7881CD5973
:103BA000D040C256DF4F8881CE59D040C156DF4F3A
:103BB0009881CF59D0400E944E336B017C0120E0A8
:103BC00030E44CE955E4C301B2010E945434A5012C
:103BD00094010E9454349B01AC01C701B6010E94BC
:103BE000A6329F938F937F936F936C817D818E819B
:103BF0009F810E9456336B017C0120E030E040E859
:103C000053E4688579858A859B850E9454342C8588
:103C10003D854E855F850E9454349B01AC01C701F0
:103C2000B6010E94A6329F938F937F936F9368890A
:103C300079898A899B890E9456336B017C0120E037
:103C400030E040E857E46C897D898E899F890E9425
:103C500054349B01AC01C701B6010E94A6329F9368
:103C60008F937F936F93688D798D8A8D9B8D0E9442
:103C700056336B017C0120E030E040E857E46C8D66
:103C80007D8D8E8D9F8D0E9454349B01AC01C701A8
:103C9000B6010E94A6329F938F937F936F93C05675
:103CA000DF4F2881C05AD040CF55DF4F3881C15AED
:103CB000D040CE55DF4F4881C25AD040CD55DF4F5E
:103CC0005881C35AD040CC55DF4F6881C45AD04088
:103CD000CB55DF4F7881C55AD040CA55DF4F888118
:103CE000C65AD040C053DF4F9881C05DD0400E947B
:103CF0004E336B017C0120E030E44CE955E468A1CF
:103D000079A18AA19BA10E9454342CA13DA14EA16E
:103D10005FA10E9454349B01AC01C701B6010E940F
:103D2000A6329F938F937F936F9368A579A58AA5F9
:103D30009BA50E9456336B017C0120E030E040E8F7
:103D400053E46CA57DA58EA59FA50E94543428A997
:103D500039A94AA95BA90E9454349B01AC01C7014F
:103D6000B6010E94A6329F938F937F936F936CA9A5
:103D70007DA98EA99FA90E9456336B017C0120E08A
:103D800030E040E857E468AD79AD8AAD9BAD0E9464
:103D900054349B01AC01C701B6010E94A6329F9327
:103DA0008F937F936F936CAD7DAD8EAD9FAD0E9471
:103DB00056336B017C0120E030E040E857E4249664
:103DC0006CAD7DAD8EAD9FAD24970E9454349B01A8
:103DD000AC01C701B6010E94A6329F938F937F93D7
:103DE0006F93C955DF4F2881C75AD040C855DF4F60
:103DF0003881C85AD040C755DF4F4881C95AD04092
:103E0000C655DF4F5881CA5AD040C555DF4F68812B
:103E1000CB5AD040C455DF4F7881CC5AD040C355DF
:103E2000DF4F8881CD5AD040CF52DF4F9881C15D9E
:103E3000D0400E944E336B017C0120E030E44CE91D
:103E400055E428966CAD7DAD8EAD9FAD28970E9450
:103E500054342C962CAD3DAD4EAD5FAD2C970E94E9
:103E600054349B01AC01C701B6010E94A6329F9356
:103E70008F937F936F9360966CAD7DAD8EAD9FAD4C
:103E800060970E9456336B017C0120E030E040E8EF
:103E900053E464966CAD7DAD8EAD9FAD64970E948A
:103EA000543468962CAD3DAD4EAD5FAD68970E9421
:103EB00054349B01AC01C701B6010E94A6329F9306
:103EC0008F937F936F936C966CAD7DAD8EAD9FADF0
:103ED0006C970E9456336B017C0120E030E040E893
:103EE00057E4A0966CAD7DAD8EAD9FADA0970E94BE
:103EF00054349B01AC01C701B6010E94A6329F93C6
:103F00008F937F936F93A4966CAD7DAD8EAD9FAD77
:103F1000A4970E9456336B017C0120E030E040E81A
:103F200057E4A8966CAD7DAD8EAD9FADA8970E946D
:103F300054349B01AC01C701B6010E94A6329F9385
:103F40008F937F936F93C255DF4F2881CE5AD04015
:103F5000C155DF4F3881CF5AD040C055DF4F48811F
:103F6000C05BD040CF54DF4F5881C15BD040CE54AE
:103F7000DF4F6881C25BD040CD54DF4F7881C35B97
:103F8000D040CC54DF4F8881C45BD040CB54DF4F4E
:103F90009881C55BD0400E944E336B017C0120E0CC
:103FA00030E44CE955E4AC966CAD7DAD8EAD9FAD83
:103FB000AC970E945434E0962CAD3DAD4EAD5FAD54
:103FC000E0970E9454349B01AC01C701B6010E94E6
:103FD000A6329F938F937F936F93E4966CAD7DADE4
:103FE0008EAD9FADE4970E9456336B017C0120E0BB
:103FF00030E040E853E4E8966CAD7DAD8EAD9FAD0A
:10400000E8970E945434EC962CAD3DAD4EAD5FADBB
:10401000EC970E9454349B01AC01C701B6010E9489
:10402000A6329F938F937F936F93C458DF4F68811D
:1040300079818A819B81CC57D0400E9456336B0195
:104040007C0120E030E040E857E4C058DF4F688151
:1040500079818A819B81C058D0400E9454349B0151
:10406000AC01C701B6010E94A6329F938F937F9344
:104070006F93CC57DF4F688179818A819B81C458C7
:10408000D0400E9456336B017C0120E030E040E8D4
:1040900057E4C857DF4F688179818A819B81C8586E
:1040A000D0400E9454349B01AC01C701B6010E946C
:1040B000A6329F938F937F936F93C457DF4F68818E
:1040C00079818A819B81CC58D0400E94543320E072
:1040D00030E44CE955E40E94A6329F938F937F937E
:1040E0006F938EEC95E29F938F93C954DF4F588165
:1040F000C75BD0405F93CA54DF4F8881C65BD04016
:104100008F930E94323DCDBFDEBFCF52DF4FCDBF78
:10411000DEBFDF91CF911F910F91FF90EF90DF9065
:10412000CF90BF90AF909F908F907F906F905F9057
:104130004F903F902F9008952F923F924F925F9211
:104140006F927F928F929F92AF92BF92CF92DF92A7
:10415000EF92FF920F931F93CF93DF93CDB7DEB70C
:10416000C358D109CDBFDEBFAF968FAFAF97E096F2
:104170009FAFE09780916E298111FCCF6091E42977
:104180007091E5298091E6299091E7290E945433A6
:1041900020E030E44CE955E40E94A632E1966FAF8E
:1041A000E197E2967FAFE297E3968FAFE397E496CD
:1041B0009FAFE4972091DB2991E080E0211190E00E
:1041C00069969FAF69976A968FAF6A978091EC293D
:1041D0009091ED29A091EE29B091EF29892B8A2B9E
:1041E0008B2B69F16091EC297091ED298091EE297A
:1041F0009091EF290E94563320E030E040E857E3E9
:104200000E9454349B01AC0160E074E886EF93E4B3
:104210000E94A632C058DF4F6883C058D040CF57A5
:10422000DF4F7883C158D040CE57DF4F8883C258C4
:10423000D040CD57DF4F9883C358D04014C0C058EA
:10424000DF4F1882C058D040CF57DF4F1882C15877
:10425000D040CE57DF4F1882C258D040CD57DF4FE5
:104260001882C358D0401091F0296091E0297091D4
:10427000E1298091E2299091E3290E94543320E0C2
:1042800030E44CE955E40E94A632E5966FAFE5971D
:10429000E6967FAFE697E7968FAFE797E8969FAFF2
:1042A000E8972091DA2991E080E0211190E06B9667
:1042B0009FAF6B976C968FAF6C976091DC29709174
:1042C000DD298091DE299091DF290E94543320E07E
:1042D00030E44CE955E40E94A632E9966FAFE997C5
:1042E000EA967FAFEA97EB968FAFEB97EC969FAF8E
:1042F000EC972091D92991E080E0211190E06D9612
:104300009FAF6D976E968FAF6E976091D529709124
:10431000D6298091D7299091D8290E9454332EE430
:1043200032E640EE5CE30E945434ED966FAFED97B9
:10433000EE967FAFEE97EF968FAFEF97C158DF4FB6
:104340009883CF57D0406091D1297091D229809124
:10435000D3299091D429611571058105910509F141
:104360000E94563320E030E040E857E30E94543486
:104370009B01AC0160E074E886EF93E40E94A632F2
:104380006983072F382E292E20E030E040E85FE3D4
:104390000E94A13288234CF4198200E0312C212C98
:1043A00004C0198200E0312C212C6091EA2970911F
:1043B000EB292091E8293091E9292A833B83C09099
:1043C000A529D090A629E090A729F090A829E9EC8A
:1043D000F9E230816F963FAF6F978181A0968FAFE2
:1043E000A0979281A1969FAFA197A381A296AFAF0C
:1043F000A297B481A396BFAFA3972581A4962FAFB0
:10440000A4973681A5963FAFA5978781A6968FAFD3
:10441000A697E1EFF9E240A451A462A473A484A496
:1044200095A4A6A4B7A48091BD299091BE29A0917E
:10443000BF29B091C0298C839D83AE83BF8380A5A3
:1044400091A5A2A5B3A588879987AA87BB8784A5CC
:1044500095A5A6A5B7A58C879D87AE87BF878091B8
:10446000B5299091B629A091B729B091B829888B28
:10447000998BAA8BBB8B84A595A5A6A5B7A58C8B7C
:104480009D8BAE8BBF8B8091B1299091B229A09169
:10449000B329B091B429888F998FAA8FBB8F80A53B
:1044A00091A5A2A5B3A58C8F9D8FAE8FBF8FA1ECD8
:1044B000B9E29C91A7969FAFA79711962C9111975F
:1044C000A8962FAFA89712963C911297A9963FAF46
:1044D000A99713968C911397AA968FAFAA971496C3
:1044E0009C911497AB969FAFAB9715962C9115970F
:1044F000AC962FAFAC9716963C911697AD963FAF02
:10450000AD9717968C91AE968FAFAE9780A191A183
:10451000A2A1B3A188A399A3AAA3BBA384A195A197
:10452000A6A1B7A18CA39DA3AEA3BFA38091B929D7
:104530009091BA29A091BB29B091BC2988A799A7CD
:10454000AAA7BBA780A191A1A2A1B3A18CA79DA757
:10455000AEA7BFA784A195A1A6A1B7A188AB99AB2F
:10456000AAABBBAB8091AD299091AE29A091AF29A8
:10457000B091B0298CAB9DABAEABBFAB84A195A184
:10458000A6A1B7A188AF99AFAAAFBBAF8091A92967
:104590009091AA29A091AB29B091AC298CAF9DAF85
:1045A000AEAFBFAF80A191A1A2A1B3A124968CAF61
:1045B0009DAFAEAFBFAF24978091772990917829B6
:1045C000A0917929B0917A2928968CAF9DAFAEAF92
:1045D000BFAF2897A3E7B9E28D919D910D90BC9153
:1045E000A02D2C968CAF9DAFAEAFBFAF2C97809116
:1045F0007F2990918029A0918129B091822960968C
:104600008CAF9DAFAEAFBFAF609780917B2990918B
:104610007C29A0917D29B0917E2964968CAF9DAFB5
:10462000AEAFBFAF649780916F2990917029A09130
:104630007129B091722968968CAF9DAFAEAFBFAFB4
:104640006897E4969FADE4979F93E396AFADE397A9
:10465000AF93E296BFADE297BF93E196EFADE197DE
:10466000EF936A96FFAD6A97FF9369962FAD6997AE
:104670002F93CD57DF4F3881C358D0403F93CE574B
:10468000DF4F8881C258D0408F93CF57DF4F98813A
:10469000C158D0409F93C058DF4FA881C058D04028
:1046A000AF931F921F93E896BFADE897BF93E7962D
:1046B000EFADE797EF93E696FFADE697FF93E596AC
:1046C0002FADE5972F936C963FAD6C973F936B960C
:1046D0008FAD6B978F93EC969FADEC979F93EB9676
:1046E000AFADEB97AF93EA96BFADEA97BF93E9966C
:1046F000EFADE997EF936E96FFAD6E97FF936D96D2
:104700002FAD6D972F93C158DF4F3881CF57D040D1
:104710003F93EF968FADEF978F93EE969FADEE9709
:104720009F93ED96AFADED97AF932F923F920F937E
:10473000B981BF9380E090E00E94543323E333E3D8
:1047400043E254E40E94A6329F938F937F936F932A
:10475000EA81FB81BF0180E090E00E94543327E1B1
:1047600037EB41ED5EE30E94A6329F938F937F93D8
:104770006F93C701B6010E94563320E030E040E25B
:1047800059E40E94A6329F938F937F936F936F9605
:104790002FAD6F97A0963FADA097A1964FADA19773
:1047A000A2965FADA297A3966FADA397A4967FAD97
:1047B000A497A5968FADA597A6969FADA6970E94A4
:1047C0004E336B017C0120E030E44CE955E4C30139
:1047D000B2010E945434A50194010E9454349B01FB
:1047E000AC01C701B6010E94A6329F938F937F93BD
:1047F0006F936C817D818E819F810E9456336B0106
:104800007C0120E030E040E853E4688579858A85C2
:104810009B850E9454342C853D854E855F850E9482
:1048200054349B01AC01C701B6010E94A6329F938C
:104830008F937F936F93688979898A899B890E9476
:1048400056336B017C0120E030E040E857E46C898E
:104850007D898E899F890E9454349B01AC01C701D8
:10486000B6010E94A6329F938F937F936F93688DBA
:10487000798D8A8D9B8D0E9456336B017C0120E0DF
:1048800030E040E857E46C8D7D8D8E8D9F8D0E94C9
:1048900054349B01AC01C701B6010E94A6329F931C
:1048A0008F937F936F93A7962FADA797A8963FAD51
:1048B000A897A9964FADA997AA965FADAA97AB9670
:1048C0006FADAB97AC967FADAC97AD968FADAD9716
:1048D000AE969FADAE970E944E336B017C0120E0F7
:1048E00030E44CE955E468A179A18AA19BA10E941A
:1048F00054342CA13DA14EA15FA10E9454349B01D0
:10490000AC01C701B6010E94A6329F938F937F939B
:104910006F9368A579A58AA59BA50E9456336B0164
:104920007C0120E030E040E853E46CA57DA58EA535
:104930009FA50E94543428A939A94AA95BA90E94BD
:1049400054349B01AC01C701B6010E94A6329F936B
:104950008F937F936F936CA97DA98EA99FA90E94C5
:1049600056336B017C0120E030E040E857E468AD4D
:1049700079AD8AAD9BAD0E9454349B01AC01C70157
:10498000B6010E94A6329F938F937F936F936CAD75
:104990007DAD8EAD9FAD0E9456336B017C0120E052
:1049A00030E040E857E424966CAD7DAD8EAD9FAD10
:1049B00024970E9454349B01AC01C701B6010E94A8
:1049C000A6329F938F937F936F9328966CAD7DADA6
:1049D0008EAD9FAD28970E94563325E535E545E815
:1049E00059E40E94A6329F938F937F936F932C96E6
:1049F0006CAD7DAD8EAD9FAD2C970E94563325E5F5
:104A000035E545E859E40E94A6329F938F937F9342
:104A10006F9360966CAD7DAD8EAD9FAD60970E943B
:104A2000563320E030E040E857E30E9454349F932F
:104A30008F937F936F9364966CAD7DAD8EAD9FAD7C
:104A400064970E94563320E030E040E857E30E942C
:104A500054349F938F937F936F9368966CAD7DAD25
:104A60008EAD9FAD68970E94543320E030E44CE94E
:104A700055E40E94A6329F938F937F936F938CE6A9
:104A800096E29F938F93E096FFADE097FF93AF96EA
:104A90002FADAF972F930E94323DCDBFDEBFCD57D4
:104AA000DF4FCDBFDEBFDF91CF911F910F91FF9000
:104AB000EF90DF90CF90BF90AF909F908F907F90BE
:104AC0006F905F904F903F902F900895CF93DF931A
:104AD000D82FC92F282F392F4FE150E061E070E027
:104AE0008EEE96E20E947E3D8D2F9C2F0E94C33059
:104AF0000E94B1301F928F938EE097E29F938F9325
:104B0000CF93DF930E94323D8D2F9C2F0E94FF3068
:104B10002D2F3C2F4DE150E061E070E08CE197E2F9
:104B20000E947E3D0F900F900F900F900F900F906E
:104B3000DF91CF9108951F920F920FB60F9211241B
:104B40000BB60F922F923F924F925F926F927F928D
:104B50008F929F92AF92BF92CF92DF92EF92FF928D
:104B60000F931F932F933F934F935F936F937F9375
:104B70008F939F93AF93BF93CF93DF93EF93FF9365
:104B8000E0E4F6E0D085D470C085C0728085807185
:104B9000582E80858270382E208440906008809145
:104BA00068068073803131F08091680680738032AE
:104BB00009F0DBC08091100290911102209148060B
:104BC00025FB222720F931E02327E0E6F8E24081A7
:104BD000518162817381C52ED62EE72EFF24E7FC1A
:104BE000FA944C195D096E097F09092E000CAA0B75
:104BF000BB0BBA2FA92F982F8827840F951FA61FAC
:104C0000B71F80839183A283B383E0E4F2E083A1A2
:104C100080FFFDCFE0E4F2E081E083A38089918909
:104C2000E0E6F8E24481558166817781C52ED62E73
:104C3000E72EFF24E7FCFA944C195D096E097F0901
:104C4000092E000CAA0BBB0BBA2FA92F982F88276F
:104C5000840F951FA61FB71F84839583A683B783F0
:104C6000E0E0F2E083A580FFFDCFE0E0F2E081E04C
:104C700083A782899389E0E6F8E2408551856285C1
:104C80007385C52ED62EE72EFF24E7FCFA944C1927
:104C90005D096E097F09092E000CAA0BBB0BBA2F08
:104CA000A92F982F8827840F951FA61FB71F8087CD
:104CB0009187A287B387E0E4F2E083A580FFFDCF70
:104CC000E0E4F2E081E083A782899389E0E6F8E2FC
:104CD0004485558566857785C52ED62EE72EFF241B
:104CE000E7FCFA944C195D096E097F09092E000C46
:104CF000AA0BBB0BBA2FA92F982F8827840F951FBB
:104D0000A61FB71F84879587A687B787808928172E
:104D100009F4A3C1809168068073803129F08091E5
:104D200068068073803221F487E0809385060AC08C
:104D300080916806807331F4E0E8F6E087E08583CF
:104D400088E0868388E080938506E0E6F8E2208BA1
:104D50008091E7289091E828A091E928B091EA286D
:104D6000818B928BA38BB48B78C1209110023091F0
:104D700011028091F1299091F229409188064071A9
:104D8000642E8090480685FA442740F951E0742E3D
:104D90007526E0E6F8E2C080D180E280F380281B2F
:104DA000390B032E000C440B550BBB27F7FCBA95AF
:104DB000AF2D9E2D8D2DC81AD90AEA0AFB0AB42FF1
:104DC000A32F922F8827C80ED91EEA1EFB1EC08271
:104DD000D182E282F382E0E4F2E083A180FFFDCFA2
:104DE000E0E4F2E081E083A3608971898091F32996
:104DF0009091F429E0E6F8E2C480D580E680F7805F
:104E0000681B790B072E000C880B990B8D2C9E2CA0
:104E1000AF2CBB24A7FCBA94C818D908EA08FB0831
:104E20008824962EA72EB82EC80CD91CEA1CFB1C71
:104E3000C482D582E682F7820E94AE38C088D188CB
:104E4000E288F3883327F7FC3A952F2D1E2D0D2D80
:104E5000C01AD10AE20AF30AC60ED71EE81EF91ECE
:104E6000C08AD18AE28AF38A6B017C01FF0CCC08EC
:104E7000DC2C7601262F372F482F592F6C2D7C2DB7
:104E80008C2D9C2DA08CB18CC28CD38CE48CF58C99
:104E9000068D178D0E94C938208F318F428F538F16
:104EA000648F758F868F978FE0E0F2E083A580FF97
:104EB000FDCFE0E0F2E081E083A722893389809191
:104EC000F5299091F629E0E6F8E2C084D184E284E5
:104ED000F384281B390B032E000C440B550BBB2706
:104EE000F7FCBA95AF2D9E2D8D2DC81AD90AEA0A66
:104EF000FB0AB42FA32F922F8827C80ED91EEA1EB3
:104F0000FB1EC086D186E286F386E0E4F2E083A54C
:104F100080FFFDCFE0E4F2E081E083A7628973893E
:104F20008091F7299091F829E0E6F8E2C484D584CD
:104F3000E684F784681B790B072E000C880B990B0D
:104F40008D2C9E2CAF2CBB24A7FCBA94C818D90872
:104F5000EA08FB088824962EA72EB82EC80CD91C68
:104F6000EA1CFB1CC486D586E686F786E0A57E167D
:104F700051F1E0916806E073E03129F0E0916806B4
:104F8000E073E03221F4E7E0E09385060AC0E091A7
:104F90006806E07331F4E0E8F6E0A7E0A583A8E056
:104FA000A683E8E0E0938506E0E6F8E270A6C0900C
:104FB000E728D090E828E090E928F090EA28C1A6F8
:104FC000D2A6E3A6F4A60E94AE38E0E6F8E2C488D2
:104FD000D588E688F7883327F7FC3A952F2D1E2DC4
:104FE0000D2DC01AD10AE20AF30AC60ED71EE81E1A
:104FF000F91EC48AD58AE68AF78A6B017C01FF0C08
:10500000CC08DC2C7601262F372F482F592F6C2DFA
:105010007C2D8C2D9C2DA0A0B1A0C2A0D3A0E4A07B
:10502000F5A006A117A10E94C93820A331A342A36D
:1050300053A364A375A386A397A385A5681669F0F7
:1050400065A68091E7289091E828A091E928B09181
:10505000EA2886A797A7A0ABB1ABE0E0F2E083A96E
:1050600080FFFDCFE0E0F2E081E083AB84899589A9
:10507000873D924094F410925F2880915E288823A7
:1050800009F467C080915D288F5F80935D2885302B
:1050900008F45FC010925E285CC010925D28809179
:1050A0005E28811156C080915F288F5F80935F28B2
:1050B000853008F44EC081E080935E28E2ECF8E28F
:1050C00080819181A281B3810196A11DB11D808350
:1050D0009183A283B3838091E7289091E828A091DF
:1050E000E928B091EA284091592850915A286091B6
:1050F0005B2870915C28841B950BA60BB70B82383C
:105100009640A105B10578F48091E7289091E828B0
:10511000A091E928B091EA28841B950B8093062082
:105120009093072006C082E896E080930620909333
:1051300007208091E7289091E828A091E928B09174
:10514000EA288093592890935A28A0935B28B0931B
:105150005C288091E7289091E828A091E928B091F7
:10516000EA284091592850915A2860915B28709103
:105170005C28841B950BA60BB70B83389640A105C2
:10518000B10538F082E896E08093062090930720DE
:1051900027C0C090E728D090E828E090E928F09058
:1051A000EA28C41AD50AE60AF70A809106209091E7
:1051B0000720092E000CAA0BBB0B8C159D05AE0514
:1051C000BF0570F48091E7289091E828A091E92824
:1051D000B091EA28841B950B8093062090930720BA
:1051E000EEEBF8E280819181A281B381492F5A2FA1
:1051F0006B2F772767FD7A958C019D01041B150B9A
:10520000260B370B8091062090910720092E000C69
:10521000AA0BBB0BBA2FA92F982F8827800F911F9D
:10522000A21FB31F80839183A283B383E0E4F2E0E3
:1052300083A980FFFDCFE0E4F2E081E083AB8489C5
:105240009589E0E6F8E242A953A964A975A9C52E9B
:10525000D62EE72EFF24E7FCFA944C195D096E095F
:105260007F09092E000CAA0BBB0BBA2FA92F982F70
:105270008827840F951FA61FB71F82AB93ABA4ABE3
:10528000B5ABE0E0F2E083AD80FFFDCF81E080933D
:105290003B02E0E4F2E083AD80FFFDCF81E080934C
:1052A0007B0280915828882309F4C1C0612C68943E
:1052B000772471F8D30156962D913C915797A1EF21
:1052C000B9E25C968D919C915D97EEE9F8E2C08021
:1052D000D180E280F380281B390B032E000C440B95
:1052E000550B8D2C9E2CAF2CBB24A7FCBA94C81850
:1052F000D908EA08FB088824922EA32EB42EC80CE5
:10530000D91CEA1CFB1CC082D182E282F382E0E459
:10531000F2E0668977895E968D919C915F97A2EA0B
:10532000B8E2CD90DD90ED90FC901397681B790B5F
:10533000072E000C880B990B8D2C9E2CAF2CBB24B8
:10534000A7FCBA94C818D908EA08FB088824962E46
:10535000A72EB82EC80CD91CEA1CFB1CCD92DD92DE
:10536000ED92FC9213970E94AE38AAEAB8E2CD9073
:10537000DD90ED90FC9013973327F7FC3A952F2D95
:105380001E2D0D2DC01AD10AE20AF30AC60ED71E31
:10539000E81EF91ECD92DD92ED92FC921397A6EBDA
:1053A000B8E2660F771F881F991F6B017C01FF0C05
:1053B000CC08DC2C7601262F372F482F592F6C2D47
:1053C0007C2D8C2D9C2DAC901196BC901197129633
:1053D000CC9012971396DC9013971496EC90149738
:1053E0001596FC90159716960C91169717961C918A
:1053F00017970E94C9382C9311963C9311971296D7
:105400004C93129713965C93139714966C9314977E
:1054100015967C93159716968C93169717969C93D2
:1054200081E6D301D9968C9389E281AFA0C0612C2B
:105430006894772471F8F30126893789A1EFB9E2DE
:1054400058968D919C915997E0E6F8E2C6A8D7A8A6
:10545000E0ACF1AC281B390B032E000C440B550BB0
:105460008D2C9E2CAF2CBB24A7FCBA94C818D9084D
:10547000EA08FB088824922EA32EB42EC80CD91C4F
:10548000EA1CFB1CC6AAD7AAE0AEF1AE6091560298
:10549000709157025A968D919C915B97C2ACD3AC98
:1054A000E4ACF5AC681B790B072E000C880B990B4C
:1054B0008D2C9E2CAF2CBB24A7FCBA94C818D908FD
:1054C000EA08FB088824962EA72EB82EC80CD91CF3
:1054D000EA1CFB1CC2AED3AEE4AEF5AE0E94AE3801
:1054E000E6EAF8E2C080D180E280F3803327F7FC5F
:1054F0003A952F2D1E2D0D2DC01AD10AE20AF30A5E
:10550000C60ED71EE81EF91EC082D182E282F38247
:10551000EEEAF8E2DC01CB01880F991FAA1FBB1F3E
:105520006C017D01FF0CCC08DC2C7601282F392F73
:105530004A2F5B2F6C2D7C2D8C2D9C2DA080B18053
:10554000C280D380E480F580068117810E94C9382B
:105550002083318342835383648375838683978357
:1055600089E5D301D9968C9389E38093790281E010
:1055700090915828911180E08093582831102EC0C6
:105580008091D7289091D828292F3327821B930BFD
:1055900026FC05C08093D7289093D82806C0815058
:1055A0009F4F8093D7289093D828E5EDF8E220818B
:1055B0003181842D90E040915728841B9109880FF8
:1055C000991F880F991F880F991F432F5527241B58
:1055D000350B820F931F8083918308C01092D728C8
:1055E0001092D8281092D5281092D6284092572889
:1055F0008091C628581691F05092C6288091E728CD
:105600009091E828A091E928B091EA288093C928D0
:105610009093CA28A093CB28B093CC288091C72818
:10562000D81709F474C0D093C7288091E7289091C7
:10563000E828A091E928B091EA288093CD2890939A
:10564000CE28A093CF28B093D028D11159C0409133
:10565000BE285091BF286091C0287091C1288091C8
:105660006806807329F080E090E0AEE4B0E004C00A
:1056700080E090E0A0EDB0E0481759076A077B078B
:105680000CF03EC081E08093562882E08093DD28B4
:105690004093D9285093DA286093DB287093DC2854
:1056A0004093522850935328609354287093552860
:1056B00088E893E180935028909351288091680660
:1056C0008073803129F0809168068073803249F4BC
:1056D000E0E8F6E085E085838091DD2887708683A9
:1056E000D8C180916806807309F0D3C1E0E8F6E084
:1056F00085E085838091DD28877088608683C9C1B5
:10570000109256288091C828C81306C06FC1809196
:10571000C828C81709F4A2C0C093C8288091E728F8
:105720009091E828A091E928B091EA288093D128A7
:105730009093D228A093D328B093D428C1118BC0C2
:1057400081E0809356288091BE289091BF28A09137
:10575000C028B091C1288093522890935328A093D9
:105760005428B09355284091E2285091E328609145
:10577000E4287091E528481759076A077B07A4F4C5
:105780008091E2289091E328A091E428B091E52847
:105790008093D9289093DA28A093DB28B093DC2853
:1057A00087E08093DD280BC08093D9289093DA2876
:1057B000A093DB28B093DC2882E08093DD2888E882
:1057C00093E18093502890935128809168068073CC
:1057D000803129F08091680680738032B9F480911D
:1057E000DD28811104C087E08093860637C08730AA
:1057F00019F48093850632C080958770E0E8F6E062
:1058000085838091DD288770868328C08091680613
:10581000807321F58091DD28811104C08FE0809391
:1058200086061CC0873031F4E0E8F6E0858388E026
:10583000868314C0883021F48FE0809385060EC0E3
:1058400080958770E0E8F6E085838091DD28877099
:105850008860868303C010925628C8C0809156285D
:10586000882309F4C3C08091502890915128019752
:105870008093502890935128892B09F0B7C0C1110B
:1058800016C08091E628882391F08091DE289091BF
:10589000DF28A091E028B091E1288093D928909347
:1058A000DA28A093DB28B093DC281092E6288091B8
:1058B000BE289091BF28A091C028B091C1284091E6
:1058C000D9285091DA286091DB287091DC2848179C
:1058D00059076A077B07ACF40091522810915328AE
:1058E0002091542830915528081719072A073B079B
:1058F00044F42091DD28283020F42F5F2093DD2808
:105900001AC084179507A607B707ACF44091522830
:105910005091532860915428709155288417950709
:10592000A607B70744F48091DD28882309F4B6C0A0
:1059300081508093DD28809168068073803129F042
:105940008091680680738032B9F48091DD288111DE
:1059500004C087E08093860633C0873019F48093B3
:1059600085062EC080958770E0E8F6E085838091FB
:10597000DD288770868324C080916806807301F5D6
:105980008091DD28811104C08FE08093860618C0C5
:10599000873031F4E0E8F6E0858388E0868310C044
:1059A000883021F48FE0809385060AC08095877047
:1059B000E0E8F6E085838091DD2887708860868343
:1059C00088E893E180935028909351288091BE28D5
:1059D0009091BF28A091C028B091C12880935228EF
:1059E00090935328A0935428B09355288091EB2886
:1059F0008823E1F08EE7E0E6F8E2A0EFB8E201905C
:105A00000D928A95E1F78091E7289091E828A0917E
:105A1000E928B091EA288093EC289093ED28A09390
:105A2000EE28B093EF281092EB281FC080916E29CA
:105A30008823D9F08EE7E0E6F8E2A3E7B9E2019027
:105A40000D928A95E1F78091E7289091E828A0913E
:105A5000E928B091EA2880936F2990937029A09348
:105A60007129B093722910926E298091E728909144
:105A7000E828A091E928B091EA280196A11DB11D5E
:105A80008093E7289093E828A093E928B093EA2828
:105A90001CC08091C828C81739F03ECE8091680696
:105AA0008073803159F455CF8091502890915128BE
:105AB0000197809350289093512898CF8091680641
:105AC0008073803209F058CF44CFFF91EF91DF917E
:105AD000CF91BF91AF919F918F917F916F915F9186
