S01D00004832415F5345434F4D5F4D6F746F724472697665722E737265639A
S11300000C94B3010C94D4010C94D4010C94D40139
S11300100C94D4010C94D4010C94D4010C94D40108
S11300200C94D4010C94D4010C94D4010C94D401F8
S11300300C94D4010C94D4010C94D4010C94D401E8
S11300400C94D4010C94D4010C94D4010C94D401D8
S11300500C94D4010C94D4010C94D4010C94D401C8
S11300600C94D4010C94D4010C94D4010C94D401B8
S11300700C94D4010C94D4010C94D4010C94D401A8
S11300800C94D4010C94D4010C94D4010C94D40198
S11300900C94D4010C94D4010C94D4010C94D40188
S11300A00C94D4010C94D4010C94D4010C94D40178
S11300B00C94D4010C94D4010C94D4010C94D40168
S11300C00C94D4010C94D4010C94D4010C94D40158
S11300D00C94D4010C94D4010C94D4010C94D40148
S11300E00C94D4010C94D4010C94D4010C94D40138
S11300F00C94D4010C94D4010C94D4010C94D40128
S11301000C94D4010C94D4010C94D4010C94D40117
S11301100C94D4010C94D4010C94D4010C941021AB
S11301200C94D4010C94D4010C94D4010C94D401F7
S11301300C94D4010C94D4010C94D4010C94D401E7
S11301400C94D4010C94D4010C94D4010C94D401D7
S11301500C94D4010C94D4010C94D4010C94D401C7
S11301600C94252B0C944D2B0C947D2B0C949A2BD6
S11301700C94C22B0C94D4010C94D4010C94D4018F
S11301800C94D4010C94D4010C94D4010C94D40197
S11301900C94D4010C94D4010C94D4010C94D40187
S11301A00C94D4010C94D4010C94D4010C94D40177
S11301B00C94D4010C94D4010C94D4010C94D40167
S11301C00C94D4010C94D4010C94D4010C94D40157
S11301D00C94D4010C94D4010C94D4010C94F22BFF
S11301E00C941A2C0C94D4010C94D4010C94D401C6
S11301F00C94D4010C94D4010C94D4010C94E727EE
S11302000C946F290C94A9060C9469070C94510B57
S11302100C94AB0B0C94F1090C94E30B0C9468292B
S11302200C94B90A0C9476290C94130B0C947B0946
S11302300C94400C0C94D72A0C94AF060C94AB0786
S11302400C94F0060C945F0A0C94DB270C94590868
S11302500C947D290C94C7080C9431070C94210943
S11302600C94E3076E616E00696E660000407A10BC
S1130270F35A00A0724E18090010A5D4E80000E853
S11302807648170000E40B54020000CA9A3B0000B1
S113029000E1F505000080969800000040420F0040
S11302A00000A08601000000102700000000E80301
S11302B0000000006400000000000A0000000000CC
S11302C00100000000002C76D888DC674F0823DF8B
S11302D0C1DFAE59E1B1B796E5E3E453C63AE6515E
S11302E0997696E8E6C28426EB898C9B62ED407C85
S11302F06FFCEFBC9C9F40F2BAA56FA5F490055A21
S11303002AF75C936B6CF9676DC11BFCE0E40D4745
S1130310FEF520E6B500D0ED902E03009435770568
S11303200080841E080000204E0A000000C80C3320
S11303303333330F986E12831141EF8D2114893BAF
S1130340E65516CFFEE6DB18D1844B381BF77C1D2F
S1130350901DA4BBE424203284725E228100C9F182
S113036024ECA1E53D2711241FBECFEFCDBFDFE56F
S1130370DEBF00E00CBF17E2A0E0B0E2E8EAF4E779
S113038000E00BBF02C007900D92A439B107D9F762
S11303902EE2A4E9B7E201C01D92AA3DB207E1F73B
S11303A00E94A0050C94523A0C9400000F93CF9332
S11303B0DF931F92CDB7DEB72FB72983F8941BBE06
S11303C0FC0108ED04BF608389818FBF0F90DF912A
S11303D0CF910F910895662311F090E201C090E04F
S11303E0842B892B8093520008956F71682BE0E56C
S11303F0F0E065830895E0E5F0E02081982F909582
S1130400922390839081892308951F93CF93DF9340
S1130410182FC0E4D0E06881687F682B80E490E006
S11304200E94D60188818123DF91CF911F91089585
S11304308093F2279093F3271092F0271092F127DC
S11304401092EE271092EF271092EC271092ED27CE
S11304501092EA271092EB2708958F929F92AF9201
S1130460BF92CF92DF92EF92FF920F931F93CF939D
S1130470DF934C016B015A0179010091F02710912F
S1130480F1270F5F1F4F8BE0809FE001819FD00D0C
S11304901124BE018091EC279091ED270E945F35D5
S11304A08093EC279093ED270097B9F02B97C80F12
S11304B0D91F44E050E0B401CE010E947E381C8272
S11304C0A986BA86CF82D886ED82FE820093F02771
S11304D01093F12780E090E002C081E090E0DF918A
S11304E0CF911F910F91FF90EF90DF90CF90BF902D
S11304F0AF909F908F900895CF92DF92EF92FF92EA
S11305000F931F93CF93DF936C017B010091EE2730
S11305101091EF270F5F1F4F87E0809FE001819FBD
S1130520D00D1124BE018091EA279091EB270E94FF
S11305305F358093EA279093EB27009799F02797EC
S1130540C80FD91F44E050E0B601CE010E947E38A6
S11305501C82ED82FE820093EE271093EF2780E049
S113056090E002C081E090E0DF91CF911F910F9164
S1130570FF90EF90DF90CF9008950F931F93CF9348
S1130580DF9300E010E0C0E0D0E08091F02790918C
S1130590F127C817D90794F48091EC279091ED279F
S11305A0800F911FDC011996ED91FC911A973097F9
S11305B009F019952196055F1F4FE7CFDF91CF9181
S11305C01F910F910895DF92EF92FF920F931F9363
S11305D0CF93DF93CDB7DEB72597CDBFDEBF8C01B8
S11305E0BC01685F7F4F44E050E0CE0101960E9459
S11305F07E381D8244E050E064EC70E2CE01019646
S11306000E947038892B91F06091EE277091EF274A
S11306108091EA279091EB27B981FA80EB80DC8006
S1130620FC014FEF5FEF20E030E00BC00E94BD0201
S11306306DC0A081AA3249F0AB1739F02F5F3F4F4C
S1130640379626173707ACF311C0A181AA3211F0EF
S1130650AF11F4CFA281AA3211F0AE11EFCFA38172
S1130660AA3211F0AD11EACFA901E8CF4F3F2FEF25
S1130670520781F127E0249FF001259FF00D1124FA
S1130680E80FF91FB801645F7F4F0580F681E02D04
S1130690CE01019619953091F3272091F227892BE9
S11306A071F43F932F9389EC90E29F938F931F9261
S11306B08DE48F9386E997E29F938F9323C0E6E9B5
S11306C0F7E2DF010D900020E9F73F932F9382EDCD
S11306D090E20EC0E6E9F7E2DF010D900020E9F7B1
S11306E08091F3278F938091F2278F9381EE90E28C
S11306F09F938F9385EE97E28A1B9B0B9F938F9317
S1130700FF93EF930E940539CDBFDEBF2596CDBF81
S1130710DEBFDF91CF911F910F91FF90EF90DF909B
S11307200895CF93DF93EC018991882319F00E94F7
S1130730452AFACF8DE00E94452A8AE0DF91CF91C5
S11307400C94452A1F93CF93DF93EC0110E00E9491
S1130750182A882329F1111122C00E94212A80938A
S1130760E9279DED980F923018F488831982EFCF12
S113077098819352923058F7FE0101900020E9F7D6
S11307803197EC1BFD0BE23510F79E012E0F311D46
S1130790F9018083118211E08A30C1F6D8CF11E0CB
S11307A0812FDF91CF911F9108954F925F926F92A5
S11307B07F928F929F92AF92BF92CF92DF92EF92ED
S11307C0FF920F931F93CF93DF93CDB7DEB7259797
S11307D0CDBFDEBF8C014AE050E060E070E00196DE
S11307E00E944836562E472EF80144818081833278
S11307F009F091C1852D942D2091F2273091F32792
S11308008217930719F0892B19F085C1892B39F4C4
S1130810433509F07CC1C8010E94E30278C1493420
S1130820B9F1F8F4413421F1473409F045C144E009
S113083050E0B8016B5F7F4FFE0131966F01CF012D
S11308400E947E381D826090F0277090F12780907E
S1130850EC279090ED27AA24AA94BA2CE12CF12C31
S1130860CAC0433509F425C1473509F462C024C11F
S11308704F925F928DEF90E29F938F931F928DE43E
S11308808F9386E997E29F938F930E94053988C0DE
S11308904AE050E060E070E0C80105960E944836E6
S11308A06093942770939527B091F327A091F22732
S11308B0161617067CF54091F0275091F12746173C
S11308C0570744F14BE0469F9001479F300D112498
S11308D02B503109E091EC27F091ED27E20FF31F43
S11308E07F936F9326812F9325812F93FF93EF930B
S11308F07F936F93BF93AF9385E191E29F938F931F
S11309001F928DE48F9386E997E29F938F930E94C1
S1130910053946C07F936F93BF93AF9382E391E20F
S11309209F938F9386E997E29F938F930E943C391C
S113093037C04AE050E060E070E0C80105960E94CC
S11309404836F091F327E091F227161617065CF566
S11309504091EE275091EF274617570724F127E0DF
S1130960269FA001279F500D112447505109209123
S1130970EA273091EB27240F351F3F932F937F9362
S11309806F93FF93EF9381E591E29F938F931F926F
S11309908DE48F9386E997E29F938F930E940539A4
S11309A0CDBFDEBF89C07F936F93FF93EF938BE638
S11309B091E29F938F931F928DE48F9386E997E240
S11309C09F938F930E940539EBCFF601019000208D
S11309D0E9F7AF01415051094C195D09B401C60151
S11309E00E947038892B09F45701FFEFEF1AFF0AB0
S11309F08BE0880E911CE614F7043CF39FEFA916D4
S1130A00B90609F443C04F925F9284E891E29F9340
S1130A108F9386E9E82E87E2F82EFF92EF920E94E8
S1130A203C39F70101900020E9F73197E659F74284
S1130A302BE02A9DC0012B9D900D1124A091EC2741
S1130A40B091ED27A80FB91F4DE450E04E1B5F0B8A
S1130A50BF016A56784D1796ED91FC911897C6011F
S1130A6019950F900F900F900F900F900F90892B66
S1130A7019F18091F3278F938091F2278F938BE85C
S1130A8091E29F938F93FF92EF920AC04F925F92ED
S1130A9081EA91E29F938F9386E997E29F938F93E4
S1130AA00E943C390F900F900F900F900F900F9071
S1130AB003C0C8010E94E302E7E9F7E280E09191F4
S1130AC0953209F5E6E9F7E201900020E9F731975C
S1130AD0E659F7421F928F938BEB91E29F938F938A
S1130AE083E590E08E1B9F0B9F938F93EA56F84DFE
S1130AF0FF93EF930E94053986E997E20E949103E0
S1130B00CDBFDEBF04C09923E9F28927D8CFF8010D
S1130B10108281E001C080E02596CDBFDEBFDF9169
S1130B20CF911F910F91FF90EF90DF90CF90BF90E6
S1130B30AF909F908F907F906F905F904F900895AB
S1130B404BE060E080EC0E94EB01809150008860F3
S1130B50809350008091510083FFFCCF62E080ECD1
S1130B600E94F50180915000806180935000809133
S1130B70510084FFFCCF84E00E94050281E00E94C2
S1130B80FB0182E00E94FB018FE78093420680E133
S1130B908093500691E090936206809370068FECE8
S1130BA0809380068FE08093860689EF8093A00669
S1130BB088E38093A6060E94742D0E944A2C0E940A
S1130BC0BA290E94732C90E00E9418020E949D0C86
S1130BD080916806807311F40E941D280E94842964
S1130BE0789486E590E20E94E42010E0C0E0C12CF5
S1130BF0D12C7601812C912C5401D0E30E94D92868
S1130C000E94832A8823B9F00E948C2A833451F0ED
S1130C10833641F08B3151F461E089E790E00E9422
S1130C20D60104C086E590E20E94450F0E94FB13A2
S1130C304B015C0111E00E94FB132B013C011123C9
S1130C4069F0DC01CB0188199909AA09BB09883824
S1130C509341A105B10510F411E019C00E94A12A25
S1130C60863908F474C0C23009F464C028F5CC2372
S1130C7089F1C13009F065C080916806807309F07C
S1130C804AC086E590E20E94181410E0C2E00E9477
S1130C90182A882319F0D093A60602C0D093A5067B
S1130CA084EF97E20E94A203813009F0A7CF84EF7A
S1130CB097E20E94D503A2CFC33009F042C086E573
S1130CC090E20E949C2966E570E282EC91E20E9427
S1130CD0DA3837C04C185D086E087F0880EC481677
S1130CE086EC58068DE26806710460F020ECC20EB2
S1130CF026ECD21E2DE2E21EF11C86E590E20E9453
S1130D00E42025C00E94F713809168068073E1F403
S1130D100E94272819C0809168068073803329F4C3
S1130D2086E590E20E94181409C086E590E20E94CC
S1130D30FA1B04C086E590E20E94312810E0C3E06B
S1130D40A6CF10E0C0E0A3CF10E0C1E0A0CF10E038
S1130D509ECF81E08093CF2880E090E00895FF92B9
S1130D600F931F93CF93DF93EB018A0160913B298B
S1130D7070913C2980913D2990913E29F09036292B
S1130D800E94BC2E20E030E44CE955E40E941F2E62
S1130D909F938F937F936F9381E0F11080E01F9274
S1130DA08F9386EC91E29F938F931F930F93DF931E
S1130DB0CF930E9405392DB73EB7245F3F4F2DBF17
S1130DC03EBF8017910724F0188281E090E002C0B2
S1130DD080E090E0DF91CF911F910F91FF900895F3
S1130DE0FF920F931F93CF93DF93EB018A016091DE
S1130DF03729709138298091392990913A29F090B6
S1130E0035290E94BC2E20E030E44CE955E40E94D0
S1130E101F2E9F938F937F936F9381E0F11080E057
S1130E201F928F9386EC91E29F938F931F930F935E
S1130E30DF93CF930E9405392DB73EB7245F3F4F10
S1130E402DBF3EBF8017910724F0188281E090E007
S1130E5002C080E090E0DF91CF911F910F91FF904D
S1130E6008950F931F93CF93DF93EB018A01609151
S1130E7001297091022980910329909104290E94EB
S1130E80BE2E20E030E040E259E40E941F2E9F93E2
S1130E908F937F936F938EEC91E29F938F931F9325
S1130EA00F93DF93CF930E9405392DB73EB7265F8A
S1130EB03F4F2DBF3EBF8017910724F0188281E079
S1130EC090E002C080E090E0DF91CF911F910F91FC
S1130ED00895FF920F931F93CF93DF93EB018A0141
S1130EE06091FD287091FE288091FF28909100293F
S1130EF0F090FC280E94BC2E20E030E44CE955E43C
S1130F000E941F2E9F938F937F936F9381E0F11024
S1130F1001C080E01F928F9386EC91E29F938F93A0
S1130F201F930F93DF93CF930E9405392DB73EB7DC
S1130F30245F3F4F2DBF3EBF8017910724F01882D6
S1130F4081E090E002C080E090E0DF91CF911F91BA
S1130F500F91FF9008950F931F93CF93DF93EB01AD
S1130F608A016091D0287091D1288091D2289091E3
S1130F70D3280E94BC2E20E030E44CE955E40E94C2
S1130F801F2E9F938F937F936F9389EC91E29F938E
S1130F908F931F930F93DF93CF930E9405392DB73F
S1130FA03EB7265F3F4F2DBF3EBF8017910724F009
S1130FB0188281E090E002C080E090E0DF91CF9160
S1130FC01F910F9108954F925F926F927F928F922B
S1130FD09F92AF92BF92CF92DF92EF92FF920F93C4
S1130FE01F93CF93DF938B01EA012091F428309172
S1130FF0F5284091F6285091F7286091F8287091CF
S1131000F9288091FA289091FB284090D12950909A
S1131010D2296090D3297090D4298090D5299090BA
S1131020D629A090D729B090D8290E94B82E6B0158
S11310307C0120E030E44CE955E4C301B2010E9494
S1131040BC2FA50194010E94BC2F9B01AC01C701D8
S1131050B6010E941F2E9F938F937F936F938EEC04
S113106091E29F938F93DF93CF931F930F930E94EB
S11310700539EDB7FEB73A96EDBFFEBF8C179D0755
S11310802CF0F801108281E090E002C080E090E052
S1131090DF91CF911F910F91FF90EF90DF90CF9050
S11310A0BF90AF909F908F907F906F905F904F9084
S11310B008954F925F926F927F928F929F92AF9218
S11310C0BF92CF92DF92EF92FF920F931F93CF9331
S11310D0DF938B01EA016091E8287091E9288091FF
S11310E0EA289091EB284090D1295090D229609021
S11310F0D3297090D4298090D5299090D629A09096
S1131100D729B090D8290E94BE2E6B017C0120E023
S113111030E040E853E4C301B2010E94BC2FA501B2
S113112094010E94BC2F9B01AC01C701B6010E942F
S11311301F2E9F938F937F936F938EEC91E29F93D7
S11311408F93DF93CF931F930F930E940539EDB7CD
S1131150FEB73A96EDBFFEBF8C179D072CF0F80141
S1131160108281E090E002C080E090E0DF91CF91B6
S11311701F910F91FF90EF90DF90CF90BF90AF90B1
S11311809F908F907F906F905F904F9008958F9273
S11311909F92AF92BF92CF92DF92EF92FF920F9302
S11311A01F93CF93DF93EB018A016091E028709144
S11311B0E1288091E2289091E3288090D5299090AD
S11311C0D629A090D729B090D8290E94BE2E6B01B1
S11311D07C0120E030E040E857E4C501B4010E94FE
S11311E0BC2F9B01AC01C701B6010E941F2E9F9327
S11311F08F937F936F938EEC91E29F938F931F93C2
S11312000F93DF93CF930E9405392DB73EB7265F26
S11312103F4F2DBF3EBF8017910724F0188281E015
S113122090E002C080E090E0DF91CF911F910F9198
S1131230FF90EF90DF90CF90BF90AF909F908F90F2
S113124008958F929F92AF92BF92CF92DF92EF92C6
S1131250FF920F931F93CF93DF93EB018A01609169
S1131260DC287091DD288091DE289091DF28809021
S1131270D1299090D229A090D329B090D4290E944A
S1131280BE2E6B017C0120E030E040E857E4C5014C
S1131290B4010E94BC2F9B01AC01C701B6010E949E
S11312A01F2E9F938F937F936F938EEC91E29F9366
S11312B08F931F930F93DF93CF930E9405392DB71C
S11312C03EB7265F3F4F2DBF3EBF8017910724F0E6
S11312D0188281E090E002C080E090E0DF91CF913D
S11312E01F910F91FF90EF90DF90CF90BF90AF9040
S11312F09F908F9008954F925F926F927F928F92FA
S11313009F92AF92BF92CF92DF92EF92FF920F9390
S11313101F93CF93DF938B01EA012091EC28309146
S1131320ED284091EE285091EF286091F0287091BB
S1131330F1288091F2289091F3284090C929509087
S1131340CA296090CB297090CC298090CD299090A7
S1131350CE29A090CF29B090D0290E94B82E6B013D
S11313607C0120E030E44CE955E4C301B2010E9461
S1131370BC2FA50194010E94BC2F9B01AC01C701A5
S1131380B6010E941F2E9F938F937F936F938EECD1
S113139091E29F938F93DF93CF931F930F930E94B8
S11313A00539EDB7FEB73A96EDBFFEBF8C179D0722
S11313B02CF0F801108281E090E002C080E090E01F
S11313C0DF91CF911F910F91FF90EF90DF90CF901D
S11313D0BF90AF909F908F907F906F905F904F9051
S11313E008954F925F926F927F928F929F92AF92E5
S11313F0BF92CF92DF92EF92FF920F931F93CF93FE
S1131400DF938B01EA016091E4287091E5288091D3
S1131410E6289091E7284090C9295090CA29609005
S1131420CB297090CC298090CD299090CE29A09082
S1131430CF29B090D0290E94BE2E6B017C0120E000
S113144030E040E853E4C301B2010E94BC2FA5017F
S113145094010E94BC2F9B01AC01C701B6010E94FC
S11314601F2E9F938F937F936F938EEC91E29F93A4
S11314708F93DF93CF931F930F930E940539EDB79A
S1131480FEB73A96EDBFFEBF8C179D072CF0F8010E
S1131490108281E090E002C080E090E0DF91CF9183
S11314A01F910F91FF90EF90DF90CF90BF90AF907E
S11314B09F908F907F906F905F904F9008958F9240
S11314C09F92AF92BF92CF92DF92EF92FF920F93CF
S11314D01F93CF93DF93EB018A016091D828709119
S11314E0D9288091DA289091DB288090CD2990909A
S11314F0CE29A090CF29B090D0290E94BE2E6B0196
S11315007C0120E030E040E857E4C501B4010E94CA
S1131510BC2F9B01AC01C701B6010E941F2E9F93F3
S11315208F937F936F938EEC91E29F938F931F938E
S11315300F93DF93CF930E9405392DB73EB7265FF3
S11315403F4F2DBF3EBF8017910724F0188281E0E2
S113155090E002C080E090E0DF91CF911F910F9165
S1131560FF90EF90DF90CF90BF90AF909F908F90BF
S113157008958F929F92AF92BF92CF92DF92EF9293
S1131580FF920F931F93CF93DF93EB018A01609136
S1131590D4287091D5288091D6289091D72880900E
S11315A0C9299090CA29A090CB29B090CC290E9437
S11315B0BE2E6B017C0120E030E040E857E4C50119
S11315C0B4010E94BC2F9B01AC01C701B6010E946B
S11315D01F2E9F938F937F936F938EEC91E29F9333
S11315E08F931F930F93DF93CF930E9405392DB7E9
S11315F03EB7265F3F4F2DBF3EBF8017910724F0B3
S1131600188281E090E002C080E090E0DF91CF9109
S11316101F910F91FF90EF90DF90CF90BF90AF900C
S11316209F908F9008950F931F93CF93DF93EB01B7
S11316308A016091092970910A2980910B2990915E
S11316400C290E94BE2E20E030E048E45BE40E94B6
S11316501F2E20E030E04AE75CE40E941F2E9F9397
S11316608F937F936F938EEC91E29F938F931F934D
S11316700F93DF93CF930E9405392DB73EB7265FB2
S11316803F4F2DBF3EBF8017910724F0188281E0A1
S113169090E002C080E090E0DF91CF911F910F9124
S11316A008958F929F92AF92BF92CF92DF92EF9262
S11316B0FF920F931F93CF93DF93EB018A01609105
S11316C00529709106298091072990910829809015
S11316D0E1299090E229A090E329B090E4290E94A6
S11316E0BE2E6B017C0120E030E040E857E4C501E8
S11316F0B4010E94BC2F9B01AC01C701B6010E943A
S11317001F2E9F938F937F936F938EEC91E29F9301
S11317108F931F930F93DF93CF930E9405392DB7B7
S11317203EB7265F3F4F2DBF3EBF8017910724F081
S1131730188281E090E002C080E090E0DF91CF91D8
S11317401F910F91FF90EF90DF90CF90BF90AF90DB
S11317509F908F9008950F931F93CF93DF93EB0186
S11317608A016091312970913229809133299091B5
S113177034290E94BC2E2BEC37E54FE65DE30E9432
S1131780BC2F9F938F937F936F938EEC91E29F93E3
S11317908F931F930F93DF93CF930E9405392DB737
S11317A03EB7265F3F4F2DBF3EBF8017910724F001
S11317B0188281E090E002C080E090E0DF91CF9158
S11317C01F910F910895CF92DF92EF92FF920F93A2
S11317D01F93CF93DF93EB018A0160912D297091C0
S11317E02E2980912F299091302961157105810549
S11317F09105E1F00E94BE2E20E030E040E857E37E
S11318000E94BC2F9B01AC016AE979E783E894E468
S11318100E941F2EF62EE72ED82EC92E20E030E08F
S113182040E85FE30E941B2E87FF04C0F12CE12CEB
S1131830D12CC12CCF92DF92EF92FF928EEC91E2E9
S11318409F938F931F930F93DF93CF930E94053938
S11318502DB73EB7265F3F4F2DBF3EBF8017910780
S113186024F0188281E090E002C080E090E0DF91F3
S1131870CF911F910F91FF90EF90DF90CF9008953B
S1131880CF92DF92EF92FF920F931F93CF93DF9348
S1131890EB018A0160912D2970912E2980912F29C5
S11318A0909130296115710581059105E1F00E943F
S11318B0BE2E20E030E040E857E30E94BC2F9B019D
S11318C0AC0163E373E38FE594E40E941F2EF62ECC
S11318D0E72ED82EC92E20E030E040E85FE30E94D6
S11318E01B2E87FF04C0F12CE12CD12CC12CCF92EC
S11318F0DF92EF92FF928EEC91E29F938F931F936E
S11319000F93DF93CF930E9405392DB73EB7265F1F
S11319103F4F2DBF3EBF8017910724F0188281E00E
S113192090E002C080E090E0DF91CF911F910F9191
S1131930FF90EF90DF90CF9008951F93CF93DF93A4
S113194080E20E94682D80930C0281E20E94682D3F
S113195080930D0284E20E94682D80934C0285E2FC
S11319600E94682D80934D02109204061092000686
S1131970109224061092200687E08093100680932C
S113198011068093120680931306809314068093A5
S11319901506809316068093300680933106809353
S11319A03206809333068093340680933506809301
S11319B036068093370610E1109317061093010240
S11319C050E25093020246EC4093030233E030931A
S11319D00402C2E0C0932002C0932802C0933002E4
S11319E0C093380289E28093210299E190932902FD
S11319F091E39093310221E620933902D1E0D09310
S1131A002202D09300021093410250934202409369
S1131A10430230934402C0936002C0936802C093AF
S1131A207002C09378022093610221E52093690239
S1131A309093710280937902D09340028091A20026
S1131A4081608093A2008BEA9AEAA6E2B2E48093D2
S1131A50C9299093CA29A093CB29B093CC2947E2F2
S1131A6051E164EB72E44093CD295093CE29609305
S1131A70CF297093D0298093D1299093D229A09310
S1131A80D329B093D4294FE15EE860EB72E440932C
S1131A90D5295093D6296093D7297093D829809358
S1131AA0E1299093E229A093E329B093E4294DE539
S1131AB055E86FE672E44093E5295093E629609374
S1131AC0E7297093E8298093E9299093EA29A09360
S1131AD0EB29B093EC2980E090E0A8E4B2E4809391
S1131AE0ED299093EE29A093EF29B093F02944E0D7
S1131AF050E060E070E089EC99E20E94E42C44E05C
S1131B0050E060E170E08DEC99E20E94E42C44E046
S1131B1050E060E270E089EC99E20E94E42C44E039
S1131B2050E060E370E08DEC99E20E94E42C42E026
S1131B3050E060E470E081EC99E20E94E42C42E021
S1131B4050E064E470E083EC99E20E94E42C42E00B
S1131B5050E068E470E085EC99E20E94E42C42E0F5
S1131B6050E06CE470E087EC99E20E94E42C44E0DD
S1131B7050E060E570E081EE99E20E94E42C44E0DC
S1131B8050E060E670E085EE99E20E94E42C44E0C7
S1131B9050E060E770E089EE99E20E94E42C44E0B2
S1131BA050E060E870E08DEE99E20E94E42C42E09F
S1131BB050E060E970E089ED99E20E94E42C42E093
S1131BC050E064E970E08BED99E20E94E42C42E07D
S1131BD050E068E970E08DED99E20E94E42C42E067
S1131BE050E06CE970E08FED99E20E94E42C85E00E
S1131BF08093200310922103109322038EEA95E030
S1131C0080933803909339031092010810920308CB
S1131C101092040880E099E18093260890932708A5
S1131C2010920608109207081092200810922108BA
S1131C30D093000880EC809380018CE0809340086E
S1131C4010924108109243081092440810924608DA
S1131C5010924708D09348088FEF9FEF809366084F
S1131C609093670880E480934206D093560686E6F4
S1131C7080938401C0938C019091680680916806DA
S1131C808073803229F0892F8073803109F047C036
S1131C90809168068073803119F483ED91E202C06B
S1131CA088ED91E221E030E049EA56E063EE7BE022
S1131CB00E942D02809168068073803119F48DEDA5
S1131CC091E202C082EE91E221E030E040E050E097
S1131CD06BEA7BE00E942D0280916806807380315C
S1131CE019F487EE91E202C08CEE91E221E030E03B
S1131CF040E050E061E57BE00E942D02809168069F
S1131D008073803119F481EF91E202C086EF91E291
S1131D1021E030E040E050E063E17BE0ADC021E051
S1131D2030E040E050E069EB7AE08BEF91E20E9412
S1131D302D0221E030E040E050E06FE57AE080E001
S1131D4092E20E942D0221E030E040E050E061EF99
S1131D5079E085E092E20E942D0225E030E040E047
S1131D6050E06BE779E08AE092E20E942D0221E0E4
S1131D7030E040E050E061E279E08FE092E20E94DE
S1131D802D0221E030E040E050E067EC78E084E1AF
S1131D9092E20E942D0221E030E040E050E069E54B
S1131DA078E089E192E20E942D0225E030E040E0F3
S1131DB050E063EE77E08EE192E20E942D0221E092
S1131DC030E040E050E06BEA77E083E292E20E9488
S1131DD02D022AE030E040E050E069E677E088E256
S1131DE092E20E942D0280916806807309F049C036
S1131DF021E030E049EA56E060E47CE083ED91E2E2
S1131E000E942D0221E030E040E050E06BEA7BE0EC
S1131E108DED91E20E942D0221E030E040E050E09F
S1131E2061E57BE087EE91E20E942D0221E030E043
S1131E3040E050E063E17BE081EF91E20E942D02FB
S1131E402AE030E040E050E061E377E08DE292E2A6
S1131E500E942D0225E030E040E050E060EF76E0A3
S1131E6082E392E20E942D0225E030E040E050E05F
S1131E706FEA76E087E392E2DF91CF911F910C94B1
S1131E802D02DF91CF911F9108952F923F924F928F
S1131E905F926F927F928F929F92AF92BF92CF92F6
S1131EA0DF92EF92FF920F931F93CF93DF93CDB7FF
S1131EB0DEB7C45AD109CDBFDEBF1C0180E6E4E61B
S1131EC0F0E2DE01119601900D928A95E1F781E02E
S1131ED080934829809148298111FCCF8091AA29B7
S1131EE09091AB29A091AC29B091AD29B10185366F
S1131EF09105A105B10518F082E492E219C285E8C2
S1131F0092E20E94DA384CE0E42E06EC12E2B101CF
S1131F108EE992E20E94DA38F12C8F2D992787FD01
S1131F20909530916806209168062073203221F044
S1131F30232F2073203119F424E030E002C028E07C
S1131F4030E082179307E4F4E89EF001E99EF00D77
S1131F50112421E030E02C0F3D1FE20FF31F2181FB
S1131F602F9320812F9301969F938F931F930F9309
S1131F703F922F920E949838F394CDBFDEBFCDCF0D
S1131F80B10182ED92E20E94DA380E94832A88230A
S1131F9019F00E948C2AF9CF0E948C2A3FEC632E00
S1131FA0680EB10184E494E20E94DA386F140CF0F4
S1131FB057C067FC55C0A62DBB27A7FDB095C356D7
S1131FC0DF4FA883B983CD59D040B62DECE0BE02D3
S1131FD070011124E1E0F0E0EC0FFD1FEE0DFF1D98
S1131FE02081C156DF4F2883CF59D0403181C0565C
S1131FF0DF4F3883C05AD0403F932F9326ED32E20F
S11320003F932F933F922F920E9498381F9285E01E
S11320108F932FEE32E23F932F933F922F920E94A1
S11320209838CDBFDEBF10E0962D9170692ECE0199
S113203001968E0D9F1DDC011296C756DF4FA883B3
S1132040B983C959D040FC013496C556DF4FE883A3
S1132050F983CB59D04027EC422E23E2522ED9C02B
S1132060B1018DE193E20E94DA3851CFCA01B9017E
S11320700E94BE2E20E030E04AE754E40E941F2E66
S1132080762EC157DF4F7883CF58D040CB56DF4FE1
S11320908883C559D040092FAA0CBB1CAA0CBB1CB1
S11320A0E1E6F0E0EC0FFD1FEA0DFB1D382F872D54
S11320B0972FA32FB02F80839183A283B38381E0D2
S11320C080934829809148298111FCCFC756DF4F5E
S11320D0A881B981C959D040ED91FC916081718189
S11320E0828193810E94BE2E20E030E040E857E3D5
S11320F00E94BC2F6B017C01E5E7F0E0EC0FFD1FB3
S1132100EA0DFB1D6083718382839383C556DF4F81
S1132110E881F981CB59D0400190F081E02DCD5672
S1132120DF4FE883F983C359D04080809180A28037
S1132130B38020E030E04AE754E40E941F2E9F93CE
S11321408F937F936F93A5019401C701B6010E94F9
S11321501F2E9F938F937F936F930F93CB56DF4FD5
S1132160F881C559D040FF93C157DF4F2881CF581C
S1132170D0402F937F92A3E7B3E2BF93AF933F92F4
S11321802F920E949838CDBFDEBF0E948C2A082F60
S1132190893709F0D0C0202F332727FD30953F938E
S11321A00F935F924F923F922F920E9498380F9014
S11321B00F900F900F900F900F900B3109F4ADC05A
S11321C00F7D093509F0D1C01F5F15300CF0CFC069
S11321D0B1018CEC93E20E94DA380E948C2A082F19
S11321E0893709F0B5C0202F332727FD30953F9359
S11321F00F935F924F923F922F920E9498380F7DD7
S11322000F900F900F900F900F900F90093509F0D9
S11322108AC00E94832A882319F00E948C2AF9CF4D
S1132220662019F08CE392E202C08FE392E2A12EC1
S1132230BB24A7FCB0949F938F93C50101969F93F1
S11322408F93AEE3B3E2BF93AF933F922F920E947A
S11322509838CDBFDEBF20E030E0A901CF55DF4F75
S11322602883C15AD040CE55DF4F3883C25AD0405C
S1132270CD55DF4F4883C35AD040CC55DF4F5883E8
S1132280C45AD0400E948C2A082F992787FD909524
S1132290FC01F097CF55DF4F2881C15AD040CE556D
S11322A0DF4F3881C25AD040CD55DF4F4881C35AE1
S11322B0D040CC55DF4F5881C45AD0403A9708F0EB
S11322C0D5CEB1010E94A838AAE0B0E0CF55DF4FC7
S11322D02881C15AD040CE55DF4F3881C25AD040F0
S11322E0CD55DF4F4881C35AD040CC55DF4F58817C
S11322F0C45AD0400E9424349B01AC01802F9927FA
S113230087FD9095A92FB92F280F391F4A1F5B1FEE
S11323102053310941095109A1CF81E015303CF521
S1132320882309F476CF123014F5B10184EF93E2D7
S11323300E94DA3845C2893509F42DCF8E3609F466
S11323402ACF8E3409F427CF8B3109F01ECF23CF47
S1132350893509F448CF8E3609F445CF8E3409F413
S113236042CF8B3109F039CF3ECF80E0D7CFCE01B9
S11323708B589F4F4C01DE01AF59BF4F5D01C12CFB
S1132380D12C76012601370100E0F501219131912C
S1132390419151915F01C301B2010E94B72D2B01FC
S11323A03C01D4012D913D914D915D914D01C701A9
S11323B0B6010E94B72D6B017C010F5F01172CF34E
S11323C0612F772767FD7095872F972F0E94BE2E68
S11323D04B015C019B01AC01C301B2010E941F2EA1
S11323E0C157DF4F688379838A839B83CF58D0405A
S11323F0A5019401C701B6010E941F2ECB56DF4FE1
S1132400688379838A839B83C559D040FE01EB5846
S1132410FF4FC756DF4FE883F983C959D0409E0167
S11324202F593F4FC556DF4F28833983CB59D040AE
S1132430C12CD12C76014601570100E0C556DF4F6F
S1132440A881B981CB59D0406D917D918D919D9199
S1132450C556DF4FA883B983CB59D040C157DF4F4E
S1132460288139814A815B81CF58D0400E94B62DA2
S11324702B013C019B01AC010E94BC2F9B01AC01D0
S1132480C501B4010E94B72D4B015C01C756DF4F53
S1132490E881F981C959D0406191719181919191FB
S11324A0C756DF4FE883F983C959D040CB56DF4F75
S11324B0288139814A815B81C559D0400E94B62D5B
S11324C09B01AC01C301B2010E94BC2F9B01AC0172
S11324D0C701B6010E94B72D6B017C010F5F011784
S11324E00CF4ACCFA50194010E941F2E6B017C015A
S11324F0C157DF4F288139814A815B81CF58D04051
S11325000E94BC2F9B01AC01CB56DF4F68817981BF
S11325108A819B81C559D0400E94B62D2B013C0174
S11325200E94832A882319F00E948C2AF9CFC0566E
S1132530DF4FF881C05AD040FF93C156DF4F288146
S1132540CF59D0402F9387E494E29F938F933F9287
S11325502F920E949838CD56DF4FA881B981C35974
S1132560D0408D919D910D90BC91A02DC157DF4F0E
S113257088839983AA83BB83CF58D0408CE0C35609
S1132580DF4F28813981CD59D040829FF001839F4C
S1132590F00D112481E090E08C0F9D1FE80FF91FCE
S11325A0A680B780D5018D909C9011970D911C91B8
S11325B0C301B2010E941F302B013C01CE56DF4FF4
S11325C0B881C259D040BF93CF56DF4FE881C1597B
S11325D0D040EF93C057DF4FF881C059D040FF93EC
S11325E0C157DF4F2881CF58D0402F93FF92EF92ED
S11325F0DF92CF929F928F92B801882777FD8095C2
S1132600982F0E94BE2EA30192010E94B72D9F9382
S11326108F937F936F938BE694E29F938F933F9274
S11326202F920E949838CDBFDEBF0E948C2A182FAB
S1132630893741F0893531F08E3621F08E3411F02E
S11326408B3199F7212F332727FD30953F931F9323
S113265027EC33E23F932F933F922F920E949838B6
S11326601F7D0F900F900F900F900F900F901935C2
S113267009F0A6C0D5016D917C91882777FD8095DE
S1132680982F0E94BE2EA30192010E94B72D0E9492
S1132690872EF50160837183CD56DF4FA881B98100
S11326A0C359D040CD92DD92ED92FC9213978CE009
S11326B0C356DF4FE881F981CD59D0408E9F800108
S11326C08F9F100D112421E030E02C0F3D1F020FCD
S11326D0131FD8011A96ED90FC901B9742E050E02E
S11326E0B701C5010E94362DF8010085118544E02B
S11326F050E0B801CD56DF4F88819981C359D0404D
S11327000E94362DCD56DF4FE881F981C359D04060
S113271080819181A281B381F50120813181BF93B0
S1132720AF939F938F933F932F9382EB94E29F9366
S11327308F933F922F920E94983842E050E0B70165
S1132740CE0183579F4F0E94E42C44E050E0B8012F
S1132750CE0187579F4F0E94E42CC457DF4F8881D6
S1132760CC58D0408F93C557DF4F8881CB58D04089
S11327708F93C657DF4F8881CA58D0408F93C7576D
S1132780DF4F8881C958D0408F93C257DF4F88816B
S1132790CE58D0408F93C357DF4F8881CD58D04057
S11327A08F9388ED94E29F938F933F922F920E9490
S11327B09838B1018EEF94E20E94DA38CDBFDEBFC3
S11327C0CC55DF4FCDBFDEBFDF91CF911F910F916D
S11327D0FF90EF90DF90CF90BF90AF909F908F903D
S11327E07F906F905F904F903F902F90089581E07D
S11327F08093482908950F931F936091CB2870917B
S1132800CC288091CD289091CE280091CB2810918E
S1132810CC282091CD283091CE28061717072807F9
S1132820390719F0C901B801F0CF1F910F9108952C
S11328302F923F924F925F926F927F928F929F92CC
S1132840AF92BF92CF92DF92EF92FF920F931F93BA
S1132850CF93DF93CDB7DEB7CB5CD109CDBFDEBF5D
S1132860C854DF4F8883C85BD040C754DF4F988378
S1132870C95BD040809148298111FCCF8091BC294B
S11328809091BD29A091BE29B091BF29892B8A2B93
S11328908B2BE9F06091BC297091BD298091BE29F0
S11328A09091BF290E94BE2E20E030E040E857E31B
S11328B00E94BC2F9B01AC0163E373E38FE594E4B6
S11328C00E941F2E062F272E89839A8304C000E0BE
S11328D0212C19821A822091C0292B836091B4295A
S11328E07091B5298091B6299091B7290E94BC2E88
S11328F020E030E44CE955E40E941F2EC654DF4F1B
S11329006883CA5BD040C554DF4F7883CB5BD0402B
S1132910C454DF4F8883CC5BD040C354DF4F9883CB
S1132920CD5BD0402091AF2991E080E0211190E06F
S1132930CE56DF4F9883C259D040CD56DF4F88839F
S1132940C359D0406091B0297091B1298091B229C6
S11329509091B3290E94BC2E20E030E44CE955E468
S11329600E941F2EC254DF4F6883CE5BD040C154F7
S1132970DF4F7883CF5BD040C054DF4F8883C05C87
S1132980D040CF53DF4F9883C15CD0402091AE2913
S113299091E080E0211190E0CC56DF4F9883C45938
S11329A0D040CB56DF4F8883C559D04060917629FB
S11329B07091772980917829909179290E94BC2E71
S11329C020E030E44CE955E40E941F2ECE53DF4F43
S11329D06883C25CD040CD53DF4F7883C35CD04062
S11329E0CC53DF4F8883C45CD040CB53DF4F9883F4
S11329F0C55CD0402091752991E080E0211101C08F
S1132A0090E0CA56DF4F9883C659D040C956DF4F6D
S1132A108883C759D0406091AA297091AB298091CD
S1132A20AC299091AD290E94BC2E2FE539E24BE4EC
S1132A305DE30E94BC2FCA53DF4F6883C65CD0405D
S1132A40C953DF4F7883C75CD040C853DF4F8883B6
S1132A50C85CD040C753DF4F9883C95CD0406091B5
S1132A60A6297091A7298091A8299091A929611577
S1132A7071058105910521F10E94BE2E20E030E010
S1132A8040E857E30E94BC2F9B01AC0163E373E36E
S1132A908FE594E40E941F2EC553DF4F6883CB5CFF
S1132AA0D040172F382EC653DF4F9883CA5CD040CE
S1132AB020E030E040E85FE30E941B2E87FF0CC05B
S1132AC0C553DF4F1882CB5CD04010E0312CC65385
S1132AD0DF4F1882CA5CD0408091BA299091BB29FB
S1132AE04091B8295091B9294C835D83C0907A29CB
S1132AF0D0907B29E0907C29F0907D2950919E29EB
S1132B00C856DF4F5883C859D040E0919F29C75613
S1132B10DF4FE883C959D040F091A029C656DF4F52
S1132B20F883CA59D0402091A129C556DF4F288384
S1132B30CB59D0403091A229C456DF4F3883CC59A9
S1132B40D0404091A329C356DF4F4883CD59D0408C
S1132B505091A429C256DF4F5883CE59D040E091FA
S1132B60A529C156DF4FE883CF59D0404090E929C9
S1132B705090EA296090EB297090EC298090ED291F
S1132B809090EE29A090EF29B090F02920919229FD
S1132B903091932940919429509195292E833F8314
S1132BA0488759872091E9293091EA294091EB29F6
S1132BB05091EC292A873B874C875D872091ED292A
S1132BC03091EE294091EF295091F0292E873F87CB
S1132BD0488B598B20918A2930918B2940918C29DB
S1132BE050918D292A8B3B8B4C8B5D8B2091ED2949
S1132BF03091EE294091EF295091F0292E8B3F8B93
S1132C00488F598F209186293091872940918829AE
S1132C10509189292A8F3B8F4C8F5D8F2091E92910
S1132C203091EA294091EB295091EC292E8F3F8F66
S1132C3048A359A330919629C056DF4F3883C05A10
S1132C40D04040919729CF55DF4F4883C15AD04097
S1132C5050919829CE55DF4F5883C25AD040E09105
S1132C609929CD55DF4FE883C35AD040F0919A2972
S1132C70CC55DF4FF883C45AD04020919B29CB55C3
S1132C80DF4F2883C55AD04030919C29CA55DF4F65
S1132C903883C65AD04040919D29C955DF4F488397
S1132CA0C75AD0402091E1293091E2294091E3298B
S1132CB05091E4292AA33BA34CA35DA32091E529C9
S1132CC03091E6294091E7295091E8292EA33FA3AA
S1132CD048A759A720918E2930918F294091902996
S1132CE0509191292AA73BA74CA75DA72091E129E0
S1132CF03091E2294091E3295091E4292EA73FA77E
S1132D0048AB59AB2091E5293091E6294091E72958
S1132D105091E8292AAB3BAB4CAB5DAB20918229A7
S1132D203091832940918429509185292EAB3FAB62
S1132D3048AF59AF2091E5293091E6294091E72920
S1132D405091E8292AAF3BAF4CAF5DAF20917E296B
S1132D5030917F29409180295091812922962CAF6E
S1132D603DAF4EAF5FAF22972091E1293091E22928
S1132D704091E3295091E42926962CAF3DAF4EAF04
S1132D805FAF269730916D29C855DF4F3883C85AF5
S1132D90D04040916E29C755DF4F4883C95AD0406F
S1132DA050916F29C655DF4F5883CA5AD040E091DD
S1132DB07029C555DF4FE883CB5AD040F091712973
S1132DC0C455DF4FF883CC5AD04020917229C355A3
S1132DD0DF4F2883CD5AD04030917329C255DF4F3D
S1132DE03883CE5AD04040917429C155DF4F48836F
S1132DF0CF5AD0402091D1293091D2294091D32962
S1132E005091D4292A962CAF3DAF4EAF5FAF2A978D
S1132E102091D5293091D6294091D7295091D8298C
S1132E202E962CAF3DAF4EAF5FAF2E972091612908
S1132E3030916229409163295091642962962CAFA4
S1132E403DAF4EAF5FAF62972091D1293091D22927
S1132E504091D3295091D42966962CAF3DAF4EAF03
S1132E605FAF66972091D5293091D6294091D72913
S1132E705091D8296A962CAF3DAF4EAF5FAF6A9799
S1132E802091592930915A2940915B2950915C290C
S1132E906E962CAF3DAF4EAF5FAF6E972091D529A4
S1132EA03091D6294091D7295091D829A2962CAF98
S1132EB03DAF4EAF5FAFA29720915529309156296F
S1132EC04091572950915829A6962CAF3DAF4EAF4B
S1132ED05FAFA6972091D1293091D2294091D3296F
S1132EE05091D429AA962CAF3DAF4EAF5FAFAA97AD
S1132EF030916529C055DF4F3883C05BD040409185
S1132F006629CF54DF4F4883C15BD0405091672975
S1132F10CE54DF4F5883C25BD040E0916829CD5432
S1132F20DF4FE883C35BD040F0916929CC54DF4F75
S1132F30F883C45BD04020916A29CB54DF4F2883A7
S1132F40C55BD04030916B29CA54DF4F3883C65BD0
S1132F50D04040916C29C954DF4F4883C75BD040AF
S1132F602091C9293091CA294091CB295091CC296B
S1132F70AE962CAF3DAF4EAF5FAFAE972091CD294B
S1132F803091CE294091CF295091D029E2962CAF8F
S1132F903DAF4EAF5FAFE29720915D2930915E293E
S1132FA040915F2950916029E6962CAF3DAF4EAF1A
S1132FB05FAFE6972091C9293091CA294091CB2966
S1132FC05091CC29EA962CAF3DAF4EAF5FAFEA9754
S1132FD02091CD293091CE294091CF295091D029EB
S1132FE0EE962CAF3DAF4EAF5FAFEE9720915129D7
S1132FF0309152294091532950915429C258DF4F9E
S1133000288339834A835B83CE57D0402091CD29CE
S11330103091CE294091CF295091D029CE57DF4FFE
S1133020288339834A835B83C258D04020914D2939
S113303030914E2940914F2950915029CA57DF4F62
S1133040288339834A835B83C658D0402091C92999
S11330503091CA294091CB295091CC29C657DF4FD2
S1133060288339834A835B83CA58D04020914929F5
S113307030914A2940914B2950914C29C257DF4F36
S1133080288339834A835B83CE58D0403A813F9367
S113309049814F932F920F931F925B815F93C35487
S11330A0DF4FE881CD5BD040EF93C454DF4FF8810C
S11330B0CC5BD040FF93C554DF4F2881CB5BD0401D
S11330C02F93C654DF4F3881CA5BD0403F93CD560F
S11330D0DF4F4881C359D0404F93CE56DF4F5881BC
S11330E0C259D0405F93CF53DF4FE881C15CD040D9
S11330F0EF93C054DF4FF881C05CD040FF93C154BC
S1133100DF4F2881CF5BD0402F93C254DF4F3881EB
S1133110CE5BD0403F93CB56DF4F4881C559D0405A
S11331204F93CC56DF4F5881C459D0405F93CB5353
S1133130DF4FE881C55CD040EF93CC53DF4FF8817B
S1133140C45CD040FF93CD53DF4F2881C35CD04093
S11331502F93CE53DF4F3881C25CD0403F93C95682
S1133160DF4F4881C759D0404F93CA56DF4F58812B
S1133170C659D0405F93C753DF4FE881C95CD04044
S1133180EF93C853DF4FF881C85CD040FF93C95315
S1133190DF4F2881C75CD0402F93CA53DF4F38815B
S11331A0C65CD0403F93C653DF4F4881CA5CD040D1
S11331B04F933F921F93C553DF4F5881CB5CD04050
S11331C05F93BC0180E090E00E94BC2E23E333E3D4
S11331D043E254E40E941F2E9F938F937F936F9337
S11331E0EC81FD81BF0180E090E00E94BC2E27E1CC
S11331F037EB41ED5EE30E941F2E9F938F937F93E5
S11332006F93C701B6010E94BE2E20E030E040E279
S113321059E40E941F2E9F938F937F936F93C856F8
S1133220DF4F2881C859D040C756DF4F3881C9596C
S1133230D040C656DF4F4881CA59D040C556DF4FEB
S11332405881CB59D040C456DF4F6881CC59D04007
S1133250C356DF4F7881CD59D040C256DF4F8881A5
S1133260CE59D040C156DF4F9881CF59D0400E94EB
S1133270B82E6B017C0120E030E44CE955E4C30135
S1133280B2010E94BC2FA50194010E94BC2F9B0196
S1133290AC01C701B6010E941F2E9F938F937F93A9
S11332A06F936E817F81888599850E94BE2E6B0104
S11332B07C0120E030E040E853E46A857B858C851E
S11332C09D850E94BC2F2E853F85488959890E947F
S11332D0BC2F9B01AC01C701B6010E941F2E9F9316
S11332E08F937F936F936A897B898C899D890E94D0
S11332F0BE2E6B017C0120E030E040E857E46E898B
S11333007F89888D998D0E94BC2F9B01AC01C701D8
S1133310B6010E941F2E9F938F937F936F936A8DA4
S11333207B8D8C8D9D8D0E94BE2E6B017C0120E0D7
S113333030E040E857E46E8D7F8D88A199A10E940A
S1133340BC2F9B01AC01C701B6010E941F2E9F93A5
S11333508F937F936F93C056DF4F2881C05AD0401C
S1133360CF55DF4F3881C15AD040CE55DF4F488109
S1133370C25AD040CD55DF4F5881C35AD040CC55A6
S1133380DF4F6881C45AD040CB55DF4F7881C55A8E
S1133390D040CA55DF4F8881C65AD040C955DF4F47
S11333A09881C75AD0400E94B82E6B017C0120E05E
S11333B030E44CE955E46AA17BA18CA19DA10E9453
S11333C0BC2F2EA13FA148A559A50E94BC2F9B014B
S11333D0AC01C701B6010E941F2E9F938F937F9368
S11333E06F936AA57BA58CA59DA50E94BE2E6B013B
S11333F07C0120E030E040E853E46EA57FA588A975
S113340099A90E94BC2F2AA93BA94CA95DA90E9495
S1133410BC2F9B01AC01C701B6010E941F2E9F93D4
S11334208F937F936F936EA97FA988AD99AD0E9406
S1133430BE2E6B017C0120E030E040E857E46AAD29
S11334407BAD8CAD9DAD0E94BC2F9B01AC01C7012F
S1133450B6010E941F2E9F938F937F936F932296A2
S11334606CAD7DAD8EAD9FAD22970E94BE2E6B01DB
S11334707C0120E030E040E857E426966CAD7DAD59
S11334808EAD9FAD26970E94BC2F9B01AC01C70156
S1133490B6010E941F2E9F938F937F936F93C855FD
S11334A0DF4F2881C85AD040C755DF4F3881C95AE9
S11334B0D040C655DF4F4881CA5AD040C555DF4F6A
S11334C05881CB5AD040C455DF4F6881CC5AD04084
S11334D0C355DF4F7881CD5AD040C255DF4F888124
S11334E0CE5AD040C155DF4F9881CF5AD0400E9468
S11334F0B82E6B017C0120E030E44CE955E42A96B7
S11335006CAD7DAD8EAD9FAD2A970E94BC2F2E96DB
S11335102CAD3DAD4EAD5FAD2E970E94BC2F9B01EF
S1133520AC01C701B6010E941F2E9F938F937F9316
S11335306F9362966CAD7DAD8EAD9FAD62970E9428
S1133540BE2E6B017C0120E030E040E853E4669637
S11335506CAD7DAD8EAD9FAD66970E94BC2F6A9613
S11335602CAD3DAD4EAD5FAD6A970E94BC2F9B0163
S1133570AC01C701B6010E941F2E9F938F937F93C6
S11335806F936E966CAD7DAD8EAD9FAD6E970E94C0
S1133590BE2E6B017C0120E030E040E857E4A296A7
S11335A06CAD7DAD8EAD9FADA2970E94BC2F9B01EB
S11335B0AC01C701B6010E941F2E9F938F937F9386
S11335C06F93A6966CAD7DAD8EAD9FADA6970E9410
S11335D0BE2E6B017C0120E030E040E857E4AA965F
S11335E06CAD7DAD8EAD9FADAA970E94BC2F9B01A3
S11335F0AC01C701B6010E941F2E9F938F937F9346
S11336006F93C055DF4F2881C05BD040CF54DF4F4C
S11336103881C15BD040CE54DF4F4881C25BD0407B
S1133620CD54DF4F5881C35BD040CC54DF4F688109
S1133630C45BD040CB54DF4F7881C55BD040CA54C3
S1133640DF4F8881C65BD040C954DF4F9881C75B88
S1133650D0400E94B82E6B017C0120E030E44CE99C
S113366055E4AE966CAD7DAD8EAD9FADAE970E9428
S1133670BC2FE2962CAD3DAD4EAD5FADE2970E94FE
S1133680BC2F9B01AC01C701B6010E941F2E9F9362
S11336908F937F936F93E6966CAD7DAD8EAD9FADAA
S11336A0E6970E94BE2E6B017C0120E030E040E8EA
S11336B053E4EA966CAD7DAD8EAD9FADEA970E9462
S11336C0BC2FEE962CAD3DAD4EAD5FADEE970E9496
S11336D0BC2F9B01AC01C701B6010E941F2E9F9312
S11336E08F937F936F93C258DF4F688179818A816A
S11336F09B81CE57D0400E94BE2E6B017C0120E0FE
S113370030E040E857E4CE57DF4F688179818A8101
S11337109B81C258D0400E94BC2F9B01AC01C701C1
S1133720B6010E941F2E9F938F937F936F93CA5766
S1133730DF4F688179818A819B81C658D0400E947D
S1133740BE2E6B017C0120E030E040E857E4C65710
S1133750DF4F688179818A819B81CA58D0400E9459
S1133760BC2F9B01AC01C701B6010E941F2E9F9381
S11337708F937F936F93C257DF4F688179818A81DA
S11337809B81CE58D0400E94BC2E20E030E44CE90E
S113379055E40E941F2E9F938F937F936F938BE921
S11337A095E29F938F93C754DF4FF881C95BD04054
S11337B0FF93C854DF4F2881C85BD0402F930E94E9
S11337C09838CDBFDEBFC553DF4FCDBFDEBFDF911D
S11337D0CF911F910F91FF90EF90DF90CF90BF900A
S11337E0AF909F908F907F906F905F904F903F909D
S11337F02F9008952F923F924F925F926F927F92F3
S11338008F929F92AF92BF92CF92DF92EF92FF92EC
S11338100F931F93CF93DF93CDB7DEB7C358D1096E
S1133820CDBFDEBFE1968FAFE197E2969FAFE297FF
S1133830809148298111FCCF60915E2970915F29A4
S113384080916029909161290E94BC2E20E030E48F
S11338504CE955E40E941F2EE3966FAFE397E4967C
S11338607FAFE497E5968FAFE597E6969FAFE6972F
S113387020915D2991E080E0211101C090E06B96D8
S11338809FAF6B976C968FAF6C978091BC2990918A
S1133890BD29A091BE29B091BF29892B8A2B8B2BDE
S11338A0E9F06091BC297091BD298091BE29909165
S11338B0BF290E94BE2E20E030E040E857E30E947A
S11338C0BC2F9B01AC016AE979E783E894E40E9488
S11338D01F2E162F372E89839A8304C010E0312CB3
S11338E019821A822091C0292B836091B429709186
S11338F0B5298091B6299091B7290E94BC2E20E069
S113390030E44CE955E40E941F2EE7966FAFE79729
S1133910E8967FAFE897E9968FAFE997EA969FAF6D
S1133920EA972091AF2991E080E0211190E06D9613
S11339309FAF6D976E968FAF6E976091B02970911F
S1133940B1298091B2299091B3290E94BC2E20E024
S113395030E44CE955E40E941F2EEB966FAFEB97D1
S1133960EC967FAFEC97ED968FAFED97EE969FAF09
S1133970EE972091AE2991E080E0211190E06F96BE
S11339809FAF6F97A0968FAFA0976091AA2970916F
S1133990AB298091AC299091AD290E94BC2E2BECCF
S11339A037E54FE65DE30E94BC2FEF966FAFEF97CC
S11339B0C158DF4F7883CF57D040C058DF4F88833A
S11339C0C058D040CF57DF4F9883C158D040609142
S11339D0A6297091A7298091A8299091A9296115F8
S11339E071058105910521F10E94BE2E20E030E091
S11339F040E857E30E94BC2F9B01AC016AE979E7D8
S1133A0083E894E40E941F2ECE57DF4F6883C25888
S1133A10D040CD57DF4F7883C358D040282E092F8C
S1133A2020E030E040E85FE30E941B2E87FF0CC0DB
S1133A30CE57DF4F1882C258D040CD57DF4F18827F
S1133A40C358D040212C00E08091BA299091BB2921
S1133A504091B8295091B9294C835D83C0907A294B
S1133A60D0907B29E0907C29F0907D2950919E296B
S1133A70A1965FAFA197E0919F29A296EFAFA2977D
S1133A80F091A029A396FFAFA3972091A129A49612
S1133A902FAFA4973091A229A5963FAFA597409147
S1133AA0A329A6964FAFA6975091A429A7965FAFD6
S1133AB0A797E091A529A896EFAFA8974090E92988
S1133AC05090EA296090EB297090EC298090ED29C0
S1133AD09090EE29A090EF29B090F029209192299E
S1133AE03091932940919429509195292E833F83B5
S1133AF0488759872091E9293091EA294091EB2997
S1133B005091EC292A873B874C875D872091ED29CA
S1133B103091EE294091EF295091F0292E873F876B
S1133B20488B598B20918A2930918B2940918C297B
S1133B3050918D292A8B3B8B4C8B5D8B2091ED29E9
S1133B403091EE294091EF295091F0292E8B3F8B33
S1133B50488F598F2091862930918729409188294F
S1133B60509189292A8F3B8F4C8F5D8F2091E929B1
S1133B703091EA294091EB295091EC292E8F3F8F07
S1133B8048A359A330919629A9963FAFA99740918C
S1133B909729AA964FAFAA9750919829AB965FAFF1
S1133BA0AB97E0919929AC96EFAFAC97F0919A2935
S1133BB0AD96FFAFAD9720919B29AE962FAFAE97F0
S1133BC030919C29AF963FAFAF9740919D29E096E5
S1133BD04FAFE0972091E1293091E2294091E32908
S1133BE05091E4292AA33BA34CA35DA32091E5298A
S1133BF03091E6294091E7295091E8292EA33FA36B
S1133C0048A759A720918E2930918F294091902956
S1133C10509191292AA73BA74CA75DA72091E129A0
S1133C203091E2294091E3295091E4292EA73FA73E
S1133C3048AB59AB2091E5293091E6294091E72919
S1133C405091E8292AAB3BAB4CAB5DAB2091822968
S1133C503091832940918429509185292EAB3FAB23
S1133C6048AF59AF2091E5293091E6294091E729E1
S1133C705091E8292AAF3BAF4CAF5DAF20917E292C
S1133C8030917F29409180295091812922962CAF2F
S1133C903DAF4EAF5FAF22972091E1293091E229E9
S1133CA04091E3295091E42926962CAF3DAF4EAFC5
S1133CB05FAF269720915129309152294091532981
S1133CC0509154292A962CAF3DAF4EAF5FAF2A973F
S1133CD020914D2930914E2940914F2950915029DE
S1133CE02E962CAF3DAF4EAF5FAF2E972091592942
S1133CF030915A2940915B2950915C2962962CAFEE
S1133D003DAF4EAF5FAF6297209155293091562950
S1133D10409157295091582966962CAF3DAF4EAF2C
S1133D205FAF66972091492930914A2940914B29E8
S1133D3050914C296A962CAF3DAF4EAF5FAF6A9756
S1133D40E6963FADE6973F93E5964FADE5974F93E3
S1133D50E4965FADE4975F93E396EFADE397EF935B
S1133D606C96FFAD6C97FF936B962FAD6B972F936B
S1133D703A813F9349814F933F921F931F925B81F6
S1133D805F93EA96EFADEA97EF93E996FFADE99773
S1133D90FF93E8962FADE8972F93E7963FADE7970B
S1133DA03F936E964FAD6E974F936D965FAD6D9743
S1133DB05F93EE96EFADEE97EF93ED96FFADED9733
S1133DC0FF93EC962FADEC972F93EB963FADEB97CB
S1133DD03F93A0964FADA0974F936F965FAD6F97AB
S1133DE05F93CF57DF4FE881C158D040EF93C0585D
S1133DF0DF4FF881C058D040FF93C158DF4F28816E
S1133E00CF57D0402F93EF963FADEF973F930F934B
S1133E102F92CD57DF4F4881C358D0404F93CE5790
S1133E20DF4F5881C258D0405F93BC0180E090E0DE
S1133E300E94BC2E23E333E343E254E40E941F2E8A
S1133E409F938F937F936F93EC81FD81BF0180E0FB
S1133E5090E00E94BC2E27E137EB41ED5EE30E9427
S1133E601F2E9F938F937F936F93C701B6010E9478
S1133E70BE2E20E030E040E259E40E941F2E9F93C2
S1133E808F937F936F93A1962FADA197A2963FAD89
S1133E90A297A3964FADA397A4965FADA497A596BA
S1133EA06FADA597A6967FADA697A7968FADA7975A
S1133EB0A8969FADA8970E94B82E6B017C0120E0C4
S1133EC030E44CE955E4C301B2010E94BC2FA501C2
S1133ED094010E94BC2F9B01AC01C701B6010E9452
S1133EE01F2E9F938F937F936F936E817F8188851D
S1133EF099850E94BE2E6B017C0120E030E040E8F1
S1133F0053E46A857B858C859D850E94BC2F2E8514
S1133F103F85488959890E94BC2F9B01AC01C70188
S1133F20B6010E941F2E9F938F937F936F936A898C
S1133F307B898C899D890E94BE2E6B017C0120E0C7
S1133F4030E040E857E46E897F89888D998D0E941E
S1133F50BC2F9B01AC01C701B6010E941F2E9F9389
S1133F608F937F936F936A8D7B8D8C8D9D8D0E9433
S1133F70BE2E6B017C0120E030E040E857E46E8DFA
S1133F807F8D88A199A10E94BC2F9B01AC01C70120
S1133F90B6010E941F2E9F938F937F936F93A996D0
S1133FA02FADA997AA963FADAA97AB964FADAB9705
S1133FB0AC965FADAC97AD966FADAD97AE967FAD59
S1133FC0AE97AF968FADAF97E0969FADE0970E9406
S1133FD0B82E6B017C0120E030E44CE955E46AA181
S1133FE07BA18CA19DA10E94BC2F2EA13FA148A51D
S1133FF059A50E94BC2F9B01AC01C701B6010E94C8
S11340001F2E9F938F937F936F936AA57BA58CA597
S11340109DA50E94BE2E6B017C0120E030E040E8AB
S113402053E46EA57FA588A999A90E94BC2F2AA94B
S11340303BA94CA95DA90E94BC2F9B01AC01C701FF
S1134040B6010E941F2E9F938F937F936F936EA947
S11340507FA988AD99AD0E94BE2E6B017C0120E042
S113406030E040E857E46AAD7BAD8CAD9DAD0E9475
S1134070BC2F9B01AC01C701B6010E941F2E9F9368
S11340808F937F936F9322966CAD7DAD8EAD9FAD74
S113409022970E94BE2E6B017C0120E030E040E8B4
S11340A057E426966CAD7DAD8EAD9FAD26970E94EC
S11340B0BC2F9B01AC01C701B6010E941F2E9F9328
S11340C08F937F936F932A966CAD7DAD8EAD9FAD2C
S11340D02A970E94BE2E25E535E545E859E40E945D
S11340E01F2E9F938F937F936F932E966CAD7DAD10
S11340F08EAD9FAD2E970E94BE2E25E535E545E891
S113410059E40E941F2E9F938F937F936F9362961F
S11341106CAD7DAD8EAD9FAD62970E94BE2E20E04A
S113412030E040E857E30E94BC2F9F938F937F9326
S11341306F9366966CAD7DAD8EAD9FAD66970E9414
S1134140BE2E20E030E040E857E30E94BC2F9F934E
S11341508F937F936F936A966CAD7DAD8EAD9FAD5B
S11341606A970E94BC2E20E030E44CE955E40E949A
S11341701F2E9F938F937F936F9381E396E29F9378
S11341808F93E296FFADE297FF93E1962FADE1970F
S11341902F930E949838CDBFDEBFCD57DF4FCDBFE0
S11341A0DEBFDF91CF911F910F91FF90EF90DF90D1
S11341B0CF90BF90AF909F908F907F906F905F90C3
S11341C04F903F902F900895CF93DF93D82FC92F0E
S11341D0682F792F83EB96E20E94DA388D2F9C2F7B
S11341E00E94842C0E94732C1F928F9323ED36E23D
S11341F03F932F93CF93DF930E9498388D2F9C2F5A
S11342000E94A12C0F900F900F900F900F900F9081
S11342106D2F7C2F81EE96E2DF91CF910C94DA38EA
S11342201F920F920FB60F9211240BB60F928F921A
S11342309F92AF92BF92CF92DF92EF92FF920F9331
S11342401F932F933F934F935F936F937F938F931A
S11342509F93AF93BF93CF93DF93EF93FF93E0913B
S11342604806E470F0914806F071D0914806D27087
S11342708090480690906008809168068073803131
S113428031F0809168068073803209F0E2C0409179
S11342901002509111022091480625FB222720F993
S11342A081E028278091572890915828A091592877
S11342B0B0915A28C92EDA2EEB2EFF24E7FCFA948B
S11342C08C199D09AE09BF09662757FD6095762FA5
S11342D0762F652F542F4427840F951FA61FB71FD1
S11342E08093572890935828A0935928B0935A281C
S11342F08091630280FFFCCF81E080936302409150
S113430050025091510280915B2890915C28A091B9
S11343105D28B0915E28C92EDA2EEB2EFF24E7FC2F
S1134320FA948C199D09AE09BF09662757FD60955B
S1134330762F762F652F542F4427840F951FA61FA1
S1134340B71F80935B2890935C28A0935D28B0935B
S11343505E2880912B0280FFFCCF81E080932B02AA
S1134360409112025091130280915F28909160282D
S1134370A0916128B0916228C92EDA2EEB2EFF2479
S1134380E7FCFA948C199D09AE09BF09662757FD0D
S11343906095762F762F652F542F4427840F951F11
S11343A0A61FB71F80935F2890936028A09361286D
S11343B0B093622880916B0280FFFCCF81E08093F0
S11343C06B02409152025091530280916328909164
S11343D06428A0916528B0916628C92EDA2EEB2EA8
S11343E0FF24E7FCFA948C199D09AE09BF096627DE
S11343F057FD6095762F762F652F542F4427840F11
S1134400951FA61FB71F8093632890936428A093D9
S11344106528B093662880916728821709F4A9C19A
S113442087E08093850688E080938506209367283B
S11344308091CB289091CC28A091CD28B091CE2802
S11344408093682890936928A0936A28B0936B2876
S113445090C120911002309111028091C129909154
S1134460C229281B390BC0918806C0718091572836
S113447090915828A0915928B0915A28492F5A2F21
S11344806B2F772767FD7A95841B950BA60BB70BCB
S1134490A901662757FD6095762F762F652F542F37
S11344A04427840F951FA61FB71F80935728909306
S11344B05828A0935928B0935A288091630280FF0A
S11344C0FCCF81E0809363024091500250915102ED
S11344D08091C3299091C429481B590B80915B2872
S11344E090915C28A0915D28B0915E28C92EDA2EA7
S11344F0EB2EFF24E7FCFA948C199D09AE09BF0941
S11345006A01EE24D7FCE094FE2CFE2CED2CDC2C6E
S1134510CC248C0D9D1DAE1DBF1D80935B289093F4
S11345205C28A0935D28B0935E28DA010E940634CB
S1134530C0906728D0906828E0906928F0906A2895
S11345403327F7FC3A952F2D1E2D0D2DC01AD10AB5
S1134550E20AF30AC60ED71EE81EF91EC0926728A7
S1134560D0926828E0926928F0926A286B017C0155
S1134570FF0CCC08DC2C76019B01AC016C2D7C2D4E
S11345808C2D9C2DA0906F28B0907028C09071281D
S1134590D0907228E0907328F090742800917528C8
S11345A0109176280E942F3420936F28309370281E
S11345B040937128509372286093732870937428E1
S11345C0809375289093762880912B0280FFFCCFEE
S11345D081E080932B02209112023091130280918A
S11345E0C5299091C629281B390B80915F28909189
S11345F06028A0916128B0916228492F5A2F6B2F0F
S1134600772767FD7A95841B950BA60BB70BA90139
S1134610662757FD6095762F762F652F542F4427F4
S1134620840F951FA61FB71F80935F28909360285F
S1134630A0936128B093622880916B0280FFFCCF25
S113464081E080936B024091520250915302809119
S1134650C7299091C829481B590B809163289091D0
S11346606428A0916528B0916628C92EDA2EEB2E15
S1134670FF24E7FCFA948C199D09AE09BF096A016D
S1134680EE24D7FCE094FE2CFE2CED2CDC2CCC2468
S11346908C0D9D1DAE1DBF1D8093632890936428CF
S11346A0A0936528B0936628DA010E940634C0906E
S11346B06B28D0906C28E0906D28F0906E283327FA
S11346C0F7FC3A952F2D1E2D0D2DC01AD10AE20AA2
S11346D0F30AC60ED71EE81EF91EC0926B28D092AC
S11346E06C28E0926D28F0926E286B017C01FF0C1F
S11346F0CC08DC2C76019B01AC016C2D7C2D8C2D1F
S11347009C2DA0907728B0907828C0907928D090DC
S11347107A28E0907B28F0907C2800917D281091E5
S11347207E280E942F342093772830937828409352
S1134730792850937A2860937B2870937C288093FF
S11347407D2890937E2880917F288C1791F0C093C8
S11347507F288091CB289091CC28A091CD28B0912E
S1134760CE288093802890938128A0938228B093A8
S113477083288091330280FFFCCF21E02093330211
S1134780809114029091150230915528873D9240F2
S113479084F410925628332309F466C08091542877
S11347A08F5F80935428853008F45EC0109255289A
S11347B05BC010925428311157C0809156288F5FE6
S11347C080935628853008F44FC020935528809153
S11347D0B4289091B528A091B628B091B728019635
S11347E0A11DB11D8093B4289093B528A093B62839
S11347F0B093B7288091CB289091CC28A091CD2854
S1134800B091CE284091502850915128609152285F
S113481070915328841B950BA60BB70B82389640D6
S1134820A105B10558F48091CB289091CC28A09192
S1134830CD28B091CE28841B950B02C082E896E067
S113484080930620909307208091CB289091CC28C8
S1134850A091CD28B091CE288093502890935128D0
S1134860A0935228B09353284091CB285091CC2840
S11348706091CD287091CE28809150289091512834
S1134880A0915228B0915328481B590B6A0B7B0BFB
S1134890433856406105710538F082E896E080930C
S11348A006209093072027C04091CB285091CC2814
S11348B06091CD287091CE28481B590B6A0B7B0B55
S11348C0C0900620D0900720EE24D7FCE094FE2C64
S11348D0C416D506E606F70670F44091CB2850912D
S11348E0CC286091CD287091CE28481B590B409359
S11348F00620509307208091B0289091B128A09170
S1134900B228B091B328492F5A2F6B2F772767FD10
S11349107A95841B950BA60BB70B409106205091FA
S11349200720662757FD6095762F762F652F542F25
S11349304427840F951FA61FB71F8093B028909318
S1134940B128A093B228B093B3288091730280FF5A
S1134950FCCF81E080937302409154025091550240
S11349608091842890918528A0918628B0918728E9
S1134970C92EDA2EEB2EFF24E7FCFA948C199D093C
S1134980AE09BF09662757FD6095762F762F652FF0
S1134990542F4427840F951FA61FB71F8093842884
S11349A090938528A0938628B093872880913B0212
S11349B080FFFCCF81E080933B0280917B0280FFEB
S11349C0FCCF81E080937B02C0914F282091160296
S11349D030911702CC2309F4B8C08091DD2990915D
S11349E0DE29281B390B8091902890919128A09161
S11349F09228B0919328492F5A2F6B2F772767FD60
S1134A007A95841B950BA60BB70BA901662757FD56
S1134A106095762F762F652F542F4427840F951F8A
S1134A20A61FB71F8093902890939128A093922853
S1134A30B093932840915602509157028091DF29F8
S1134A409091E029481B590B8091942890919528C6
S1134A50A0919628B0919728C92EDA2EEB2EFF2428
S1134A60E7FCFA948C199D09AE09BF096A01EE248A
S1134A70D7FCE094FE2CFE2CED2CDC2CCC248C0DED
S1134A809D1DAE1DBF1D8093942890939528A093DF
S1134A909628B0939728DA010E94063400919C2846
S1134AA010919D2820919E2830919F28C12ED22EAE
S1134AB0E32EFF24E7FCFA940C191D092E093F0983
S1134AC0060F171F281F391F00939C2810939D2839
S1134AD020939E2830939F28DC01CB01880F991FD7
S1134AE0AA1FBB1F6C017D01FF0CCC08DC2C7601D6
S1134AF09C01AD016C2D7C2D8C2D9C2DA090A828A3
S1134B00B090A928C090AA28D090AB28E090AC28F7
S1134B10F090AD280091AE281091AF280E942F3458
S1134B202093A8283093A9284093AA285093AB280F
S1134B306093AC287093AD288093AE289093AF28EF
S1134B4081E68093390289E2B7C08091D929909196
S1134B50DA29281B390B8091882890918928A09103
S1134B608A28B0918B28492F5A2F6B2F772767FDFE
S1134B707A95841B950BA60BB70BA901662757FDE5
S1134B806095762F762F652F542F4427840F951F19
S1134B90A61FB71F8093882890938928A0938A28FA
S1134BA0B0938B2840915602509157028091DB2993
S1134BB09091DC29481B590B80918C2890918D2869
S1134BC0A0918E28B0918F28C92EDA2EEB2EFF24C7
S1134BD0E7FCFA948C199D09AE09BF096A01EE2419
S1134BE0D7FCE094FE2CFE2CED2CDC2CCC248C0D7C
S1134BF09D1DAE1DBF1D80938C2890938D28A0937E
S1134C008E28B0938F28DA010E94063400919828E8
S1134C101091992820919A2830919B28C12ED22E48
S1134C20E32EFF24E7FCFA940C191D092E093F0911
S1134C30060F171F281F391F0093982810939928CF
S1134C4020939A2830939B28DC01CB01880F991F6D
S1134C50AA1FBB1F6C017D01FF0CCC08DC2C760164
S1134C609C01AD016C2D7C2D8C2D9C2DA090A02839
S1134C70B090A128C090A228D090A328E090A428A6
S1134C80F090A5280091A6281091A7280E942F34FF
S1134C902093A0283093A1284093A2285093A328BE
S1134CA06093A4287093A5288093A6289093A7289E
S1134CB089E58093390289E38093790281E0C11107
S1134CC080E080934F28D1112AC08091C42890910C
S1134CD0C528292F3327821B930B86FE02C08150DF
S1134CE09F4F8093C4289093C5282091C228309167
S1134CF0C328832F9927281B390B892D90E04091D5
S1134D004E28841B910963E0880F991F6A95E1F787
S1134D10280F391F2093C2283093C32808C010924B
S1134D20C4281092C5281092C2281092C3289092C9
S1134D304E288091B8288F1791F0F093B82880916D
S1134D40CB289091CC28A091CD28B091CE288093E7
S1134D50BA289093BB28A093BC28B093BD28809117
S1134D60B9288E1709F445C0E093B9288091CB285F
S1134D709091CC28A091CD28B091CE288093BE28C4
S1134D809093BF28A093C028B093C128E1112FC0ED
S1134D908091B0289091B128A091B228B091B32805
S1134DA0009746EAA407B10514F521E020934D28A5
S1134DB022E02093CA288093C6289093C728A09302
S1134DC0C828B093C9288093492890934A28A0936F
S1134DD04B28B0934C2888E893E18093472890931C
S1134DE0482885E0809385062093860602C01092A9
S1134DF04D2880914D28882309F46CC08091472860
S1134E009091482801978093472890934828892BAC
S1134E1009F060C08091B0289091B128A091B22887
S1134E20B091B3284091C6285091C7286091C828F2
S1134E307091C9282091CA28481759076A077B0727
S1134E408CF44091492850914A2860914B287091E4
S1134E504C28481759076A077B07DCF42730C8F445
S1134E602F5F15C084179507A607B70794F44091E0
S1134E70492850914A2860914B2870914C288417F6
S1134E809507A607B7072CF4222319F02150209385
S1134E90CA282091CA28211102C027E00BC027305C
S1134EA019F42093850608C0322F3095377030935B
S1134EB0850627702093860628E833E12093472847
S1134EC0309348288093492890934A28A0934B28EC
S1134ED0B0934C288091CF288823E1F084E7E7E55C
S1134EE0F8E2A4EDB8E201900D928A95E1F7809181
S1134EF0CB289091CC28A091CD28B091CE28809336
S1134F00D0289093D128A093D228B093D32810927C
S1134F10CF281FC0809148298823D9F084E7E7E58A
S1134F20F8E2ADE4B9E201900D928A95E1F780913F
S1134F30CB289091CC28A091CD28B091CE288093F5
S1134F40492990934A29A0934B29B0934C29109254
S1134F5048298091CB289091CC28A091CD28B0915C
S1134F60CE280196A11DB11D8093CB289093CC2807
S1134F70A093CD28B093CE28FF91EF91DF91CF91EC
S1134F80BF91AF919F918F917F916F915F914F915D
S1134F903F912F911F910F91FF90EF90DF90CF9051
S1134FA0BF90AF909F908F900F900BBE0F900FBE4D
S1134FB00F901F90189589E1E3E2FAE2A1EFB9E2BC
S1134FC001900D928A95E1F780E090E008950F93A7
S1134FD01F93CF93DF93EB018A0160910D2A7091A7
S1134FE00E2A80E090E00E94BC2E20E030E048ECE5
S1134FF052E40E941F2E9F938F937F936F938FEFA2
S113500096E29F938F931F930F93DF93CF930E9406
S113501005392DB73EB7265F3F4F2DBF3EBF8017E2
S1135020910724F0188281E090E002C080E090E0D3
S1135030DF91CF911F910F91089521E030E04BED66
S113504057E267EE77E284E097E20C942D0289E15F
S1135050E3E2FAE2AAE0BAE201900D928A95E1F75E
S11350600895EFE1FAE223812F9322812F93218186
S11350702F9320812F93EBE1FAE223812F93228156
S11350802F9321812F9320812F93E7E1FAE223814B
S11350902F9322812F9321812F9320812F93E5E158
S11350A0FAE221812F9320812F93E3E1FAE2218117
S11350B02F9320812F93E1E1FAE221812F93208124
S11350C02F93EFE0FAE221812F9320812F93EDE0DB
S11350D0FAE221812F9320812F9320910C2A1F9291
S11350E02F9320910B2A1F922F9320910A2A1F920B
S11350F02F9329E037E23F932F939F938F930E943E
S113510098388DB79EB780968DBF9EBF0895FC01D9
S1135110DB0185818C93868111968C93119787810D
S113512012968C931297828590E0982F8827238576
S1135130822B13968D939C931497848590E0982FDB
S113514088272585822B15968D939C9316978685A3
S113515090E0982F88272785822B17968D939C9310
S11351601897808990E0982F88272189822B199697
S11351708D939C931A97828990E0982F882723898E
S1135180822B1B968D939C931C978489458950E0B0
S113519060E070E0BA0155274427782B8789482BB3
S11351A08689582B1D964D935D936D937C935097F0
S11351B00895CF930E94072B882309F46CC0C091F3
S11351C03C2A81E08C0F80933C2A0E94102BEC2F08
S11351D0F0E0E35CF54D808320913C2A2A3150F3C2
S11351E080913D2A8836B1F580913E2A833191F52C
S11351F080913F2A833171F58091402A883651F598
S11352008091412A833131F581E090E03091562A32
S1135210363111F080E090E0892BE1F063E27AE22C
S11352208DE39AE20E9487288091382A9091392A46
S1135230A0913A2AB0913B2A0196A11DB11D8093F9
S1135240382A9093392AA0933A2AB0933B2A109291
S11352503C2AB0CFEEE3FAE2ADE3BAE281918D935A
S11352608AE2E735F807D1F78091342A9091352AFC
S1135270A091362AB091372A0196A11DB11D8093C1
S1135280342A9093352AA093362AB093372A215092
S113529020933C2A8FCFCF910895FC0120E030E089
S11352A0DB014D91BD01542F5D7F553261F04423E4
S11352B051F041932F5F3F4F2E34310589F7FC01A4
S11352C0E35BFF4F03C0FC01E20FF31F108208955C
S11352D088E090E20E944D2980E090E0089583EFF9
S11352E09AE20E944D2980E090E0089585EA9AE2CE
S11352F00E944D2980E090E0089587E59AE20E949B
S11353004D2980E090E0089568E679E28EE297E224
S11353100E947C026FE679E283E397E20E947C02BA
S113532066E779E288E397E20E947C026DE779E21E
S11353308DE397E20C947C0227E53AE23F932F93A6
S113534025EA3AE23F932F9323EF3AE23F932F93D8
S113535028E030E23F932F9322E437E23F932F93E8
S11353609F938F930E9498388DB79EB70C968DBFEC
S11353709EBF0895CF93DF93F894E0EAF8E0148297
S1135380E0EBF8E0148280EA99E0DC0114961C92C8
S1135390C0EBD9E01C82E0EAFAE01482E0EBFAE028
S11353A0148260EA7BE0FB011482E0E6F6E048E167
S11353B0428B468B20EA36E0D90152964C935297A1
S11353C058E8558352E056835AE8518354E4528393
S11353D058E015965C93159711965C93119754E0D9
S11353E012965C9320E1208B248B258B35EFFC01F6
S11353F0368320EB27833E832F832CE0DB01169634
S11354002C93169722EB17962C93179744834C836F
S113541014964C93149720E223832B8313962C9396
S1135420E0EAF0E0828183608283DF91CF91089586
S11354308091112E9091102E891708F48C54891B99
S11354400895CF93C091102E0E94182A8823E1F367
S1135450EC2FF0E0E45AF24D808191E09C0F943BF4
S113546008F090E09093102ECF9108952091C82ECB
S113547091E0920F8091C72E943B10F09DE4920F1F
S1135480891708F48C54891B0895CF93DF93D82F80
S1135490C1E20E94362A811103C0C093A309F9CF47
S11354A0C091C82EEC2FF0E0ED5EF14DD083CF5FBC
S11354B0C43B08F0C0E0D091A2008D2F8E7F809372
S11354C0A2008091122E882329F0C093C82ED09375
S11354D0A20016C082E0809365060E945A2C21E047
S11354E02093122EC093C82E20E22093A309D093B8
S11354F0A20063E070E00E945F2C81E28093A30924
S1135500DF91CF91089580915F2C90915E2C891743
S113551008F4805B891B0895CF93C0915E2C0E9490
S1135520832A8823E1F3EC2FF0E0E25FF34D8081DE
S113553091E09C0F903508F090E090935E2CCF9111
S1135540089520915B2D91E0920F80915A2D9A3FFE
S113555010F097E0920F891708F48650891B08957C
S1135560CF93DF93C82FD1E20E94A12A811103C0F7
S1135570D093B309F9CF90915B2DE92FF0E0E05A75
S1135580F34DC08381E0890F8A3F08F080E0909159
S1135590A200292F2E7F2093A20080935B2D81E20D
S11355A08093B3099093A200DF91CF910895CF9394
S11355B0DF93C82F0E94B02ACE3319F41092412BE6
S11355C021C0D091412BCC33D1F48D2F82958F7093
S11355D0282F30E02A30310514F4805D01C0895C45
S11355E00E94B02ADF702D2F30E02A30310514F4E8
S11355F080E301C087E38D0F0E94B02A03C0CD274A
S1135600C093412B80E090E0DF91CF910895809189
S1135610A72B9091A62B891708F48C59891B089500
S1135620CF93C091A62B0E94072B8823E1F3EC2F84
S1135630F0E0EE5BF44D808191E09C0F943608F02D
S113564090E09093A62BCF9108951F920F920FB6DE
S11356500F9211240BB60F928F939F93EF93FF93A6
S11356608091112EE82FF0E09091A009E45AF24DB8
S113567090838F5F843B08F080E09091102E891313
S11356808093112EFF91EF919F918F910F900BBEFC
S11356900F900FBE0F901F9018951F920F920FB688
S11356A00F9211240BB60F922F938F939F93EF9326
S11356B0FF938091C72E9091C82E891769F0E82F27
S11356C0F0E0ED5EF14D20812093A0098F5F843BD3
S11356D008F080E0891303C094E29093A3098093B7
S11356E0C72EFF91EF919F918F912F910F900BBE39
S11356F00F900FBE0F901F9018951F920F920FB628
S11357000F9211248F939F939091C72E8091C82E4E
S1135710981306C082E0809366061092122E03C08E
S113572081E28093A3099F918F910F900FBE0F90F8
S11357301F9018951F920F920FB60F9211240BB65B
S11357400F928F939F93EF93FF9380915F2CE82F99
S1135750F0E09091B009E25FF34D90838F5F803564
S113576008F080E090915E2C891380935F2CFF9168
S1135770EF919F918F910F900BBE0F900FBE0F90E2
S11357801F9018951F920F920FB60F9211240BB60B
S11357900F922F938F939F93EF93FF9380915A2DA2
S11357A090915B2D891769F0E82FF0E0E05AF34DF2
S11357B020812093B0098F5F8A3F08F080E089132D
S11357C003C090E29093B30980935A2DFF91EF9117
S11357D09F918F912F910F900BBE0F900FBE0F9042
S11357E01F9018951F920F920FB60F9211240BB6AB
S11357F00F928F939F93EF93FF938091A72BE82FA2
S1135800F0E09091A00BEE5BF44D90838F5F8436B3
S113581008F080E09091A62B89138093A72BFF9129
S1135820EF919F918F910F900BBE0F900FBE0F9031
S11358301F9018951F920F920FB60F9211240BB65A
S11358400F922F938F939F93EF93FF9380910C2C40
S113585090910D2C891769F0E82FF0E0E855F44D8C
S113586020812093A00B8F5F843608F080E0891399
S113587003C090E29093A30B80930C2CFF91EF91C3
S11358809F918F912F910F900BBE0F900FBE0F9091
S11358901F901895E0E0FAE084E08083118213827F
S11358A014828FEF9FEF86A397A31682178210A20C
S11358B011A20895E0E0FAE080A191A108959C016D
S11358C0660F771F660F771F8091200A9091210A37
S11358D08217930708F40197AC01421B530B461738
S11358E0570790F30895809168068073803151F0D2
S11358F0803221F0811104C083E0089586E0089588
S113590087E0089585E00895BC018091680680735E
S1135910803169F028F4811110C08FE497E20FC040
S1135920803241F0803349F486E697E208C083E58B
S113593097E205C08CE597E202C086E797E20C94F3
S1135940DA38EF92FF920F931F93CF93DF93F82EE1
S1135950E92E3091930020919200909191008091D2
S113596090001F923F931F922F931F929F931F9219
S11359708F932EE737E23F932F93EF92FF920E948B
S11359809838C9ECDEE28DB79EB70C968DBF9EBFEA
S11359900DEB11E289911F928F931F930F93EF9256
S11359A0FF920E9498380F900F900F900F900F90D5
S11359B00F909EE2C43DD90769F7DF91CF911F9103
S11359C00F91FF90EF900895EF92FF920F931F9322
S11359D0CF93DF93CDB7DEB72897CDBFDEBF7C0171
S11359E08A01440F551FCE0101960E94C33980E0FD
S11359F090E0292F332727FD309520173107A0F495
S1135A00811129C0A1E0B0E0AC0FBD1FA20FB31FEC
S1135A10FD01E00FF11F4081409581E02C9124139A
S1135A2001C080E09F5FE5CF811115C090E0292F70
S1135A30332727FD30952017310770F4F701E20F63
S1135A40F31FA1E0B0E0AC0FBD1FA20FB31F2C9158
S1135A5020839F5FECCF81E02896CDBFDEBFDF912E
S1135A60CF911F910F91FF90EF9008950F931F9383
S1135A70CF93DF93CDB7DEB72897CDBFDEBFA0E0CD
S1135A802A2F332727FD30952417350798F4FC0176
S1135A90E20FF31FB08101E010E00C0F1D1F200F77
S1135AA0311FF901B083240F351FB095F901B0837C
S1135AB0AF5FE6CF440F551FCE0101960E94CF3948
S1135AC02896CDBFDEBFDF91CF911F910F9108952E
S1135AD092E0A0ECB1E01A969C931A97E82FF0E0BC
S1135AE084911A961C920895E0E6F6E080E382839E
S1135AF080E1848B858B88E00E94682D88E00E9479
S1135B00682D8093C92E89E00E94682D8093CA2E47
S1135B108AE00E94682D8093CB2E8BE00E94682D32
S1135B208093CC2E8CE00E94682D8093CD2E8DE046
S1135B300E94682D8093CE2E80E10E94682D809370
S1135B40CF2E82E10E94682D8093D02E83E10E94A3
S1135B50682D8093D12E84E10E94682D8093D22EEB
S1135B6085E10E94682D8093D32E08955058BB2759
S1135B70AA270ED0C7C1B8D130F0BDD120F031F47E
S1135B809F3F11F41EF49DC10EF4E095E7FB93C111
S1135B90E92FC9D180F3BA17620773078407950701
S1135BA018F071F49EF5E1C10EF4E0950B2EBA2FB6
S1135BB0A02D0B01B90190010C01CA01A00111240F
S1135BC0FF27591B99F0593F50F4503E68F11A16BB
S1135BD0F040A22F232F342F4427585FF3CF46954C
S1135BE037952795A795F0405395C9F77EF41F166E
S1135BF0BA0B620B730B840BBAF09150A1F0FF0F38
S1135C00BB1F661F771F881FC2F70EC0BA0F621F23
S1135C10731F841F48F4879577956795B795F79513
S1135C209E3F08F0B3CF9395880F08F09927EE0FA5
S1135C309795879508951BD108F481E008950CD0B9
S1135C4061C159D140F050D130F021F45F3F19F0D7
S1135C5032C151118BC135C166D198F39923C9F36F
S1135C605523B1F3951B550BBB27AA27621773075E
S1135C70840738F09F5F5F4F220F331F441FAA1F12
S1135C80A9F333D00E2E3AF0E0E830D091505040D2
S1135C90E695001CCAF729D0FE2F27D0660F771F80
S1135CA0881FBB1F261737074807AB07B0E809F062
S1135CB0BB0B802DBF01FF2793585F4F2AF09E3FF7
S1135CC0510568F0F8C052C15F3FECF3983EDCF335
S1135CD0869577956795B795F7959F5FC9F7880F70
